{
  "contractName": "ArcaToken",
  "abi": [
    {
      "anonymous": false,
      "inputs": [
        {
          "indexed": true,
          "internalType": "address",
          "name": "addedAddress",
          "type": "address"
        },
        {
          "indexed": true,
          "internalType": "uint8",
          "name": "whitelist",
          "type": "uint8"
        },
        {
          "indexed": true,
          "internalType": "address",
          "name": "addedBy",
          "type": "address"
        }
      ],
      "name": "AddressAddedToWhitelist",
      "type": "event"
    },
    {
      "anonymous": false,
      "inputs": [
        {
          "indexed": true,
          "internalType": "address",
          "name": "removedAddress",
          "type": "address"
        },
        {
          "indexed": true,
          "internalType": "uint8",
          "name": "whitelist",
          "type": "uint8"
        },
        {
          "indexed": true,
          "internalType": "address",
          "name": "removedBy",
          "type": "address"
        }
      ],
      "name": "AddressRemovedFromWhitelist",
      "type": "event"
    },
    {
      "anonymous": false,
      "inputs": [
        {
          "indexed": true,
          "internalType": "address",
          "name": "addedAdmin",
          "type": "address"
        },
        {
          "indexed": true,
          "internalType": "address",
          "name": "addedBy",
          "type": "address"
        }
      ],
      "name": "AdminAdded",
      "type": "event"
    },
    {
      "anonymous": false,
      "inputs": [
        {
          "indexed": true,
          "internalType": "address",
          "name": "removedAdmin",
          "type": "address"
        },
        {
          "indexed": true,
          "internalType": "address",
          "name": "removedBy",
          "type": "address"
        }
      ],
      "name": "AdminRemoved",
      "type": "event"
    },
    {
      "anonymous": false,
      "inputs": [
        {
          "indexed": true,
          "internalType": "address",
          "name": "owner",
          "type": "address"
        },
        {
          "indexed": true,
          "internalType": "address",
          "name": "spender",
          "type": "address"
        },
        {
          "indexed": false,
          "internalType": "uint256",
          "name": "value",
          "type": "uint256"
        }
      ],
      "name": "Approval",
      "type": "event"
    },
    {
      "anonymous": false,
      "inputs": [
        {
          "indexed": true,
          "internalType": "address",
          "name": "minter",
          "type": "address"
        },
        {
          "indexed": true,
          "internalType": "address",
          "name": "to",
          "type": "address"
        },
        {
          "indexed": false,
          "internalType": "uint256",
          "name": "amount",
          "type": "uint256"
        }
      ],
      "name": "Mint",
      "type": "event"
    },
    {
      "anonymous": false,
      "inputs": [
        {
          "indexed": true,
          "internalType": "address",
          "name": "updatedBy",
          "type": "address"
        },
        {
          "indexed": true,
          "internalType": "uint8",
          "name": "sourceWhitelist",
          "type": "uint8"
        },
        {
          "indexed": true,
          "internalType": "uint8",
          "name": "destinationWhitelist",
          "type": "uint8"
        },
        {
          "indexed": false,
          "internalType": "bool",
          "name": "from",
          "type": "bool"
        },
        {
          "indexed": false,
          "internalType": "bool",
          "name": "to",
          "type": "bool"
        }
      ],
      "name": "OutboundWhitelistUpdated",
      "type": "event"
    },
    {
      "anonymous": false,
      "inputs": [
        {
          "indexed": true,
          "internalType": "address",
          "name": "addedOwner",
          "type": "address"
        },
        {
          "indexed": true,
          "internalType": "address",
          "name": "addedBy",
          "type": "address"
        }
      ],
      "name": "OwnerAdded",
      "type": "event"
    },
    {
      "anonymous": false,
      "inputs": [
        {
          "indexed": true,
          "internalType": "address",
          "name": "removedOwner",
          "type": "address"
        },
        {
          "indexed": true,
          "internalType": "address",
          "name": "removedBy",
          "type": "address"
        }
      ],
      "name": "OwnerRemoved",
      "type": "event"
    },
    {
      "anonymous": false,
      "inputs": [
        {
          "indexed": false,
          "internalType": "address",
          "name": "account",
          "type": "address"
        }
      ],
      "name": "Paused",
      "type": "event"
    },
    {
      "anonymous": false,
      "inputs": [
        {
          "indexed": true,
          "internalType": "address",
          "name": "revoker",
          "type": "address"
        },
        {
          "indexed": true,
          "internalType": "address",
          "name": "from",
          "type": "address"
        },
        {
          "indexed": false,
          "internalType": "uint256",
          "name": "amount",
          "type": "uint256"
        }
      ],
      "name": "Revoke",
      "type": "event"
    },
    {
      "anonymous": false,
      "inputs": [
        {
          "indexed": true,
          "internalType": "address",
          "name": "from",
          "type": "address"
        },
        {
          "indexed": true,
          "internalType": "address",
          "name": "to",
          "type": "address"
        },
        {
          "indexed": false,
          "internalType": "uint256",
          "name": "value",
          "type": "uint256"
        }
      ],
      "name": "Transfer",
      "type": "event"
    },
    {
      "anonymous": false,
      "inputs": [
        {
          "indexed": false,
          "internalType": "address",
          "name": "account",
          "type": "address"
        }
      ],
      "name": "Unpaused",
      "type": "event"
    },
    {
      "constant": true,
      "inputs": [],
      "name": "FAILURE_NON_WHITELIST",
      "outputs": [
        {
          "internalType": "uint8",
          "name": "",
          "type": "uint8"
        }
      ],
      "payable": false,
      "stateMutability": "view",
      "type": "function"
    },
    {
      "constant": true,
      "inputs": [],
      "name": "FAILURE_NON_WHITELIST_MESSAGE",
      "outputs": [
        {
          "internalType": "string",
          "name": "",
          "type": "string"
        }
      ],
      "payable": false,
      "stateMutability": "view",
      "type": "function"
    },
    {
      "constant": true,
      "inputs": [],
      "name": "SUCCESS_CODE",
      "outputs": [
        {
          "internalType": "uint8",
          "name": "",
          "type": "uint8"
        }
      ],
      "payable": false,
      "stateMutability": "view",
      "type": "function"
    },
    {
      "constant": true,
      "inputs": [],
      "name": "SUCCESS_MESSAGE",
      "outputs": [
        {
          "internalType": "string",
          "name": "",
          "type": "string"
        }
      ],
      "payable": false,
      "stateMutability": "view",
      "type": "function"
    },
    {
      "constant": true,
      "inputs": [],
      "name": "UNKNOWN_ERROR",
      "outputs": [
        {
          "internalType": "string",
          "name": "",
          "type": "string"
        }
      ],
      "payable": false,
      "stateMutability": "view",
      "type": "function"
    },
    {
      "constant": false,
      "inputs": [
        {
          "internalType": "address",
          "name": "account",
          "type": "address"
        }
      ],
      "name": "addAdmin",
      "outputs": [],
      "payable": false,
      "stateMutability": "nonpayable",
      "type": "function"
    },
    {
      "constant": false,
      "inputs": [
        {
          "internalType": "address",
          "name": "account",
          "type": "address"
        }
      ],
      "name": "addOwner",
      "outputs": [],
      "payable": false,
      "stateMutability": "nonpayable",
      "type": "function"
    },
    {
      "constant": false,
      "inputs": [
        {
          "internalType": "address",
          "name": "addressToAdd",
          "type": "address"
        },
        {
          "internalType": "uint8",
          "name": "whitelist",
          "type": "uint8"
        }
      ],
      "name": "addToWhitelist",
      "outputs": [],
      "payable": false,
      "stateMutability": "nonpayable",
      "type": "function"
    },
    {
      "constant": true,
      "inputs": [
        {
          "internalType": "address",
          "name": "",
          "type": "address"
        }
      ],
      "name": "addressWhitelists",
      "outputs": [
        {
          "internalType": "uint8",
          "name": "",
          "type": "uint8"
        }
      ],
      "payable": false,
      "stateMutability": "view",
      "type": "function"
    },
    {
      "constant": true,
      "inputs": [
        {
          "internalType": "address",
          "name": "owner",
          "type": "address"
        },
        {
          "internalType": "address",
          "name": "spender",
          "type": "address"
        }
      ],
      "name": "allowance",
      "outputs": [
        {
          "internalType": "uint256",
          "name": "",
          "type": "uint256"
        }
      ],
      "payable": false,
      "stateMutability": "view",
      "type": "function"
    },
    {
      "constant": false,
      "inputs": [
        {
          "internalType": "address",
          "name": "spender",
          "type": "address"
        },
        {
          "internalType": "uint256",
          "name": "amount",
          "type": "uint256"
        }
      ],
      "name": "approve",
      "outputs": [
        {
          "internalType": "bool",
          "name": "",
          "type": "bool"
        }
      ],
      "payable": false,
      "stateMutability": "nonpayable",
      "type": "function"
    },
    {
      "constant": true,
      "inputs": [
        {
          "internalType": "address",
          "name": "account",
          "type": "address"
        }
      ],
      "name": "balanceOf",
      "outputs": [
        {
          "internalType": "uint256",
          "name": "",
          "type": "uint256"
        }
      ],
      "payable": false,
      "stateMutability": "view",
      "type": "function"
    },
    {
      "constant": true,
      "inputs": [
        {
          "internalType": "address",
          "name": "sender",
          "type": "address"
        },
        {
          "internalType": "address",
          "name": "receiver",
          "type": "address"
        }
      ],
      "name": "checkWhitelistAllowed",
      "outputs": [
        {
          "internalType": "bool",
          "name": "",
          "type": "bool"
        }
      ],
      "payable": false,
      "stateMutability": "view",
      "type": "function"
    },
    {
      "constant": true,
      "inputs": [],
      "name": "decimals",
      "outputs": [
        {
          "internalType": "uint8",
          "name": "",
          "type": "uint8"
        }
      ],
      "payable": false,
      "stateMutability": "view",
      "type": "function"
    },
    {
      "constant": false,
      "inputs": [
        {
          "internalType": "address",
          "name": "spender",
          "type": "address"
        },
        {
          "internalType": "uint256",
          "name": "subtractedValue",
          "type": "uint256"
        }
      ],
      "name": "decreaseAllowance",
      "outputs": [
        {
          "internalType": "bool",
          "name": "",
          "type": "bool"
        }
      ],
      "payable": false,
      "stateMutability": "nonpayable",
      "type": "function"
    },
    {
      "constant": false,
      "inputs": [
        {
          "internalType": "address",
          "name": "spender",
          "type": "address"
        },
        {
          "internalType": "uint256",
          "name": "addedValue",
          "type": "uint256"
        }
      ],
      "name": "increaseAllowance",
      "outputs": [
        {
          "internalType": "bool",
          "name": "",
          "type": "bool"
        }
      ],
      "payable": false,
      "stateMutability": "nonpayable",
      "type": "function"
    },
    {
      "constant": true,
      "inputs": [
        {
          "internalType": "address",
          "name": "account",
          "type": "address"
        }
      ],
      "name": "isAdmin",
      "outputs": [
        {
          "internalType": "bool",
          "name": "",
          "type": "bool"
        }
      ],
      "payable": false,
      "stateMutability": "view",
      "type": "function"
    },
    {
      "constant": true,
      "inputs": [
        {
          "internalType": "address",
          "name": "account",
          "type": "address"
        }
      ],
      "name": "isOwner",
      "outputs": [
        {
          "internalType": "bool",
          "name": "",
          "type": "bool"
        }
      ],
      "payable": false,
      "stateMutability": "view",
      "type": "function"
    },
    {
      "constant": true,
      "inputs": [],
      "name": "name",
      "outputs": [
        {
          "internalType": "string",
          "name": "",
          "type": "string"
        }
      ],
      "payable": false,
      "stateMutability": "view",
      "type": "function"
    },
    {
      "constant": true,
      "inputs": [
        {
          "internalType": "uint8",
          "name": "",
          "type": "uint8"
        },
        {
          "internalType": "uint8",
          "name": "",
          "type": "uint8"
        }
      ],
      "name": "outboundWhitelistsEnabled",
      "outputs": [
        {
          "internalType": "bool",
          "name": "",
          "type": "bool"
        }
      ],
      "payable": false,
      "stateMutability": "view",
      "type": "function"
    },
    {
      "constant": true,
      "inputs": [],
      "name": "paused",
      "outputs": [
        {
          "internalType": "bool",
          "name": "",
          "type": "bool"
        }
      ],
      "payable": false,
      "stateMutability": "view",
      "type": "function"
    },
    {
      "constant": true,
      "inputs": [],
      "name": "proxiableUUID",
      "outputs": [
        {
          "internalType": "bytes32",
          "name": "",
          "type": "bytes32"
        }
      ],
      "payable": false,
      "stateMutability": "pure",
      "type": "function"
    },
    {
      "constant": false,
      "inputs": [
        {
          "internalType": "address",
          "name": "account",
          "type": "address"
        }
      ],
      "name": "removeAdmin",
      "outputs": [],
      "payable": false,
      "stateMutability": "nonpayable",
      "type": "function"
    },
    {
      "constant": false,
      "inputs": [
        {
          "internalType": "address",
          "name": "addressToRemove",
          "type": "address"
        }
      ],
      "name": "removeFromWhitelist",
      "outputs": [],
      "payable": false,
      "stateMutability": "nonpayable",
      "type": "function"
    },
    {
      "constant": false,
      "inputs": [
        {
          "internalType": "address",
          "name": "account",
          "type": "address"
        }
      ],
      "name": "removeOwner",
      "outputs": [],
      "payable": false,
      "stateMutability": "nonpayable",
      "type": "function"
    },
    {
      "constant": false,
      "inputs": [
        {
          "internalType": "address",
          "name": "_from",
          "type": "address"
        },
        {
          "internalType": "uint256",
          "name": "_amount",
          "type": "uint256"
        }
      ],
      "name": "revoke",
      "outputs": [
        {
          "internalType": "bool",
          "name": "",
          "type": "bool"
        }
      ],
      "payable": false,
      "stateMutability": "nonpayable",
      "type": "function"
    },
    {
      "constant": true,
      "inputs": [],
      "name": "symbol",
      "outputs": [
        {
          "internalType": "string",
          "name": "",
          "type": "string"
        }
      ],
      "payable": false,
      "stateMutability": "view",
      "type": "function"
    },
    {
      "constant": true,
      "inputs": [],
      "name": "totalSupply",
      "outputs": [
        {
          "internalType": "uint256",
          "name": "",
          "type": "uint256"
        }
      ],
      "payable": false,
      "stateMutability": "view",
      "type": "function"
    },
    {
      "constant": false,
      "inputs": [
        {
          "internalType": "uint8",
          "name": "sourceWhitelist",
          "type": "uint8"
        },
        {
          "internalType": "uint8",
          "name": "destinationWhitelist",
          "type": "uint8"
        },
        {
          "internalType": "bool",
          "name": "newEnabledValue",
          "type": "bool"
        }
      ],
      "name": "updateOutboundWhitelistEnabled",
      "outputs": [],
      "payable": false,
      "stateMutability": "nonpayable",
      "type": "function"
    },
    {
      "constant": false,
      "inputs": [
        {
          "internalType": "string",
          "name": "name",
          "type": "string"
        },
        {
          "internalType": "string",
          "name": "symbol",
          "type": "string"
        },
        {
          "internalType": "uint8",
          "name": "decimals",
          "type": "uint8"
        }
      ],
      "name": "initialize",
      "outputs": [],
      "payable": false,
      "stateMutability": "nonpayable",
      "type": "function"
    },
    {
      "constant": false,
      "inputs": [
        {
          "internalType": "address",
          "name": "owner",
          "type": "address"
        }
      ],
      "name": "initialize",
      "outputs": [],
      "payable": false,
      "stateMutability": "nonpayable",
      "type": "function"
    },
    {
      "constant": false,
      "inputs": [
        {
          "internalType": "address",
          "name": "newAddress",
          "type": "address"
        }
      ],
      "name": "updateCodeAddress",
      "outputs": [],
      "payable": false,
      "stateMutability": "nonpayable",
      "type": "function"
    },
    {
      "constant": true,
      "inputs": [
        {
          "internalType": "address",
          "name": "from",
          "type": "address"
        },
        {
          "internalType": "address",
          "name": "to",
          "type": "address"
        },
        {
          "internalType": "uint256",
          "name": "",
          "type": "uint256"
        }
      ],
      "name": "detectTransferRestriction",
      "outputs": [
        {
          "internalType": "uint8",
          "name": "",
          "type": "uint8"
        }
      ],
      "payable": false,
      "stateMutability": "view",
      "type": "function"
    },
    {
      "constant": true,
      "inputs": [
        {
          "internalType": "uint8",
          "name": "restrictionCode",
          "type": "uint8"
        }
      ],
      "name": "messageForTransferRestriction",
      "outputs": [
        {
          "internalType": "string",
          "name": "",
          "type": "string"
        }
      ],
      "payable": false,
      "stateMutability": "view",
      "type": "function"
    },
    {
      "constant": true,
      "inputs": [
        {
          "internalType": "address",
          "name": "_address",
          "type": "address"
        }
      ],
      "name": "isValidAddress",
      "outputs": [
        {
          "internalType": "bool",
          "name": "",
          "type": "bool"
        }
      ],
      "payable": false,
      "stateMutability": "view",
      "type": "function"
    },
    {
      "constant": false,
      "inputs": [],
      "name": "pause",
      "outputs": [],
      "payable": false,
      "stateMutability": "nonpayable",
      "type": "function"
    },
    {
      "constant": false,
      "inputs": [],
      "name": "unpause",
      "outputs": [],
      "payable": false,
      "stateMutability": "nonpayable",
      "type": "function"
    },
    {
      "constant": false,
      "inputs": [
        {
          "internalType": "address",
          "name": "account",
          "type": "address"
        },
        {
          "internalType": "uint256",
          "name": "amount",
          "type": "uint256"
        }
      ],
      "name": "mint",
      "outputs": [
        {
          "internalType": "bool",
          "name": "",
          "type": "bool"
        }
      ],
      "payable": false,
      "stateMutability": "nonpayable",
      "type": "function"
    },
    {
      "constant": false,
      "inputs": [
        {
          "internalType": "address",
          "name": "to",
          "type": "address"
        },
        {
          "internalType": "uint256",
          "name": "value",
          "type": "uint256"
        }
      ],
      "name": "transfer",
      "outputs": [
        {
          "internalType": "bool",
          "name": "success",
          "type": "bool"
        }
      ],
      "payable": false,
      "stateMutability": "nonpayable",
      "type": "function"
    },
    {
      "constant": false,
      "inputs": [
        {
          "internalType": "address",
          "name": "from",
          "type": "address"
        },
        {
          "internalType": "address",
          "name": "to",
          "type": "address"
        },
        {
          "internalType": "uint256",
          "name": "value",
          "type": "uint256"
        }
      ],
      "name": "transferFrom",
      "outputs": [
        {
          "internalType": "bool",
          "name": "success",
          "type": "bool"
        }
      ],
      "payable": false,
      "stateMutability": "nonpayable",
      "type": "function"
    }
  ],
  "bytecode": "0x6080604052613ca4806100136000396000f3fe608060405234801561001057600080fd5b5060043610610264576000357c010000000000000000000000000000000000000000000000000000000090048063704802751161015857806397af6744116100d5578063d4ce141511610099578063d4ce141514610e9d578063dd62ed3e14610f25578063e7984d1714610f9d578063e959450814611020578063eac449d91461107657610264565b806397af674414610c87578063a457c2d714610d0a578063a9059cbb14610d70578063c4d66de814610dd6578063c893446214610e1a57610264565b80638ab1d6811161011c5780638ab1d68114610aa2578063912a988514610ae657806392e6d68b14610b2a5780639437e2fe14610b8857806395d89b4114610c0457610264565b8063704802751461090e5780637065cb481461095257806370a08231146109965780637f4ab1dd146109ee5780638456cb5914610a9857610264565b806323b872dd116101e65780633973b596116101aa5780633973b596146108145780633f4ba83a1461085e57806340c10f191461086857806352d1902d146108ce5780635c975abb146108ec57610264565b806323b872dd1461064c57806324d7806c146106d25780632f54bf6e1461072e578063313ce5671461078a57806339509351146107ae57610264565b80631624f6c61161022d5780631624f6c614610423578063173825d9146105825780631785f53c146105c657806318160ddd1461060a5780631fb45ec01461062857610264565b80623f07fa146102695780630263b858146102c557806306fdde0314610316578063095ea7b3146103995780630e969a05146103ff575b600080fd5b6102ab6004803603602081101561027f57600080fd5b81019080803573ffffffffffffffffffffffffffffffffffffffff1690602001909291905050506110dc565b604051808215151515815260200191505060405180910390f35b610314600480360360408110156102db57600080fd5b81019080803573ffffffffffffffffffffffffffffffffffffffff169060200190929190803560ff169060200190929190505050611159565b005b61031e6113ad565b6040518080602001828103825283818151815260200191508051906020019080838360005b8381101561035e578082015181840152602081019050610343565b50505050905090810190601f16801561038b5780820380516001836020036101000a031916815260200191505b509250505060405180910390f35b6103e5600480360360408110156103af57600080fd5b81019080803573ffffffffffffffffffffffffffffffffffffffff1690602001909291908035906020019092919050505061144f565b604051808215151515815260200191505060405180910390f35b61040761146d565b604051808260ff1660ff16815260200191505060405180910390f35b6105806004803603606081101561043957600080fd5b810190808035906020019064010000000081111561045657600080fd5b82018360208201111561046857600080fd5b8035906020019184600183028401116401000000008311171561048a57600080fd5b91908080601f016020809104026020016040519081016040528093929190818152602001838380828437600081840152601f19601f820116905080830192505050505050509192919290803590602001906401000000008111156104ed57600080fd5b8201836020820111156104ff57600080fd5b8035906020019184600183028401116401000000008311171561052157600080fd5b91908080601f016020809104026020016040519081016040528093929190818152602001838380828437600081840152601f19601f820116905080830192505050505050509192919290803560ff169060200190929190505050611472565b005b6105c46004803603602081101561059857600080fd5b81019080803573ffffffffffffffffffffffffffffffffffffffff1690602001909291905050506115bd565b005b610608600480360360208110156105dc57600080fd5b81019080803573ffffffffffffffffffffffffffffffffffffffff1690602001909291905050506116ac565b005b610612611716565b6040518082815260200191505060405180910390f35b610630611720565b604051808260ff1660ff16815260200191505060405180910390f35b6106b86004803603606081101561066257600080fd5b81019080803573ffffffffffffffffffffffffffffffffffffffff169060200190929190803573ffffffffffffffffffffffffffffffffffffffff16906020019092919080359060200190929190505050611725565b604051808215151515815260200191505060405180910390f35b610714600480360360208110156106e857600080fd5b81019080803573ffffffffffffffffffffffffffffffffffffffff16906020019092919050505061188e565b604051808215151515815260200191505060405180910390f35b6107706004803603602081101561074457600080fd5b81019080803573ffffffffffffffffffffffffffffffffffffffff1690602001909291905050506118ab565b604051808215151515815260200191505060405180910390f35b6107926118c8565b604051808260ff1660ff16815260200191505060405180910390f35b6107fa600480360360408110156107c457600080fd5b81019080803573ffffffffffffffffffffffffffffffffffffffff169060200190929190803590602001909291905050506118df565b604051808215151515815260200191505060405180910390f35b61085c6004803603606081101561082a57600080fd5b81019080803560ff169060200190929190803560ff169060200190929190803515159060200190929190505050611992565b005b610866611ae6565b005b6108b46004803603604081101561087e57600080fd5b81019080803573ffffffffffffffffffffffffffffffffffffffff16906020019092919080359060200190929190505050611bd0565b604051808215151515815260200191505060405180910390f35b6108d6611cc1565b6040518082815260200191505060405180910390f35b6108f4611cec565b604051808215151515815260200191505060405180910390f35b6109506004803603602081101561092457600080fd5b81019080803573ffffffffffffffffffffffffffffffffffffffff169060200190929190505050611d03565b005b6109946004803603602081101561096857600080fd5b81019080803573ffffffffffffffffffffffffffffffffffffffff169060200190929190505050611d6d565b005b6109d8600480360360208110156109ac57600080fd5b81019080803573ffffffffffffffffffffffffffffffffffffffff169060200190929190505050611dd7565b6040518082815260200191505060405180910390f35b610a1d60048036036020811015610a0457600080fd5b81019080803560ff169060200190929190505050611e20565b6040518080602001828103825283818151815260200191508051906020019080838360005b83811015610a5d578082015181840152602081019050610a42565b50505050905090810190601f168015610a8a5780820380516001836020036101000a031916815260200191505b509250505060405180910390f35b610aa0611edb565b005b610ae460048036036020811015610ab857600080fd5b81019080803573ffffffffffffffffffffffffffffffffffffffff169060200190929190505050611fc6565b005b610b2860048036036020811015610afc57600080fd5b81019080803573ffffffffffffffffffffffffffffffffffffffff169060200190929190505050612130565b005b610b6c60048036036020811015610b4057600080fd5b81019080803573ffffffffffffffffffffffffffffffffffffffff16906020019092919050505061219a565b604051808260ff1660ff16815260200191505060405180910390f35b610bea60048036036040811015610b9e57600080fd5b81019080803573ffffffffffffffffffffffffffffffffffffffff169060200190929190803573ffffffffffffffffffffffffffffffffffffffff1690602001909291905050506121ba565b604051808215151515815260200191505060405180910390f35b610c0c6122d1565b6040518080602001828103825283818151815260200191508051906020019080838360005b83811015610c4c578082015181840152602081019050610c31565b50505050905090810190601f168015610c795780820380516001836020036101000a031916815260200191505b509250505060405180910390f35b610c8f612373565b6040518080602001828103825283818151815260200191508051906020019080838360005b83811015610ccf578082015181840152602081019050610cb4565b50505050905090810190601f168015610cfc5780820380516001836020036101000a031916815260200191505b509250505060405180910390f35b610d5660048036036040811015610d2057600080fd5b81019080803573ffffffffffffffffffffffffffffffffffffffff169060200190929190803590602001909291905050506123ac565b604051808215151515815260200191505060405180910390f35b610dbc60048036036040811015610d8657600080fd5b81019080803573ffffffffffffffffffffffffffffffffffffffff16906020019092919080359060200190929190505050612479565b604051808215151515815260200191505060405180910390f35b610e1860048036036020811015610dec57600080fd5b81019080803573ffffffffffffffffffffffffffffffffffffffff1690602001909291905050506125e0565b005b610e2261277b565b6040518080602001828103825283818151815260200191508051906020019080838360005b83811015610e62578082015181840152602081019050610e47565b50505050905090810190601f168015610e8f5780820380516001836020036101000a031916815260200191505b509250505060405180910390f35b610f0960048036036060811015610eb357600080fd5b81019080803573ffffffffffffffffffffffffffffffffffffffff169060200190929190803573ffffffffffffffffffffffffffffffffffffffff16906020019092919080359060200190929190505050612797565b604051808260ff1660ff16815260200191505060405180910390f35b610f8760048036036040811015610f3b57600080fd5b81019080803573ffffffffffffffffffffffffffffffffffffffff169060200190929190803573ffffffffffffffffffffffffffffffffffffffff1690602001909291905050506127f9565b6040518082815260200191505060405180910390f35b610fa5612880565b6040518080602001828103825283818151815260200191508051906020019080838360005b83811015610fe5578082015181840152602081019050610fca565b50505050905090810190601f1680156110125780820380516001836020036101000a031916815260200191505b509250505060405180910390f35b61105c6004803603604081101561103657600080fd5b81019080803560ff169060200190929190803560ff1690602001909291905050506128b9565b604051808215151515815260200191505060405180910390f35b6110c26004803603604081101561108c57600080fd5b81019080803573ffffffffffffffffffffffffffffffffffffffff169060200190929190803590602001909291905050506128e8565b604051808215151515815260200191505060405180910390f35b60006110e7826118ab565b806110f757506110f68261188e565b5b8061115257506000609f60008473ffffffffffffffffffffffffffffffffffffffff1673ffffffffffffffffffffffffffffffffffffffff16815260200190815260200160002060009054906101000a900460ff1660ff1614155b9050919050565b6111623361188e565b6111b7576040517f08c379a000000000000000000000000000000000000000000000000000000000815260040180806020018281038252602e815260200180613b98602e913960400191505060405180910390fd5b600060ff168160ff161415611234576040517f08c379a000000000000000000000000000000000000000000000000000000000815260040180806020018281038252601d8152602001807f496e76616c69642077686974656c69737420494420737570706c69656400000081525060200191505060405180910390fd5b6000609f60008473ffffffffffffffffffffffffffffffffffffffff1673ffffffffffffffffffffffffffffffffffffffff16815260200190815260200160002060009054906101000a900460ff16905081609f60008573ffffffffffffffffffffffffffffffffffffffff1673ffffffffffffffffffffffffffffffffffffffff16815260200190815260200160002060006101000a81548160ff021916908360ff160217905550600060ff168160ff161461134a573373ffffffffffffffffffffffffffffffffffffffff168160ff168473ffffffffffffffffffffffffffffffffffffffff167fb50a30a0fa972f89fbb2b514d12b31f5a5d64f53603402de7939742cd8507f6e60405160405180910390a45b3373ffffffffffffffffffffffffffffffffffffffff168260ff168473ffffffffffffffffffffffffffffffffffffffff167fca6d1e885708b837a7647aeb7f4163ee4ca96058e08ac767be8d23c972c5027060405160405180910390a4505050565b606060338054600181600116156101000203166002900480601f0160208091040260200160405190810160405280929190818152602001828054600181600116156101000203166002900480156114455780601f1061141a57610100808354040283529160200191611445565b820191906000526020600020905b81548152906001019060200180831161142857829003601f168201915b5050505050905090565b600061146361145c6129c2565b84846129ca565b6001905092915050565b600081565b600060019054906101000a900460ff16806114915750611490612bc1565b5b806114a857506000809054906101000a900460ff16155b6114fd576040517f08c379a000000000000000000000000000000000000000000000000000000000815260040180806020018281038252602e815260200180613b42602e913960400191505060405180910390fd5b60008060019054906101000a900460ff16159050801561154d576001600060016101000a81548160ff02191690831515021790555060016000806101000a81548160ff0219169083151502179055505b8360339080519060200190611563929190613998565b50826034908051906020019061157a929190613998565b5081603560006101000a81548160ff021916908360ff16021790555080156115b75760008060016101000a81548160ff0219169083151502179055505b50505050565b6115c6336118ab565b61161b576040517f08c379a000000000000000000000000000000000000000000000000000000000815260040180806020018281038252602e815260200180613aa9602e913960400191505060405180910390fd5b8073ffffffffffffffffffffffffffffffffffffffff163373ffffffffffffffffffffffffffffffffffffffff1614156116a0576040517f08c379a0000000000000000000000000000000000000000000000000000000008152600401808060200182810382526028815260200180613b706028913960400191505060405180910390fd5b6116a981612bd2565b50565b6116b5336118ab565b61170a576040517f08c379a000000000000000000000000000000000000000000000000000000000815260040180806020018281038252602e815260200180613aa9602e913960400191505060405180910390fd5b61171381612c43565b50565b6000606a54905090565b600181565b600060a160009054906101000a900460ff16156117aa576040517f08c379a00000000000000000000000000000000000000000000000000000000081526004018080602001828103825260108152602001807f5061757361626c653a207061757365640000000000000000000000000000000081525060200191505060405180910390fd5b83838360006117ba848484612797565b9050600060ff168160ff16146117cf82611e20565b90611875576040517f08c379a00000000000000000000000000000000000000000000000000000000081526004018080602001828103825283818151815260200191508051906020019080838360005b8381101561183a57808201518184015260208101905061181f565b50505050905090810190601f1680156118675780820380516001836020036101000a031916815260200191505b509250505060405180910390fd5b50611881888888612cb4565b9450505050509392505050565b60006118a482609e612d8d90919063ffffffff16565b9050919050565b60006118c182609d612d8d90919063ffffffff16565b9050919050565b6000603560009054906101000a900460ff16905090565b60006119886118ec6129c2565b8461198385606960006118fd6129c2565b73ffffffffffffffffffffffffffffffffffffffff1673ffffffffffffffffffffffffffffffffffffffff16815260200190815260200160002060008973ffffffffffffffffffffffffffffffffffffffff1673ffffffffffffffffffffffffffffffffffffffff16815260200190815260200160002054612e6b90919063ffffffff16565b6129ca565b6001905092915050565b61199b3361188e565b6119f0576040517f08c379a000000000000000000000000000000000000000000000000000000000815260040180806020018281038252602e815260200180613b98602e913960400191505060405180910390fd5b600060a060008560ff1660ff16815260200190815260200160002060008460ff1660ff16815260200190815260200160002060009054906101000a900460ff1690508160a060008660ff1660ff16815260200190815260200160002060008560ff1660ff16815260200190815260200160002060006101000a81548160ff0219169083151502179055508260ff168460ff163373ffffffffffffffffffffffffffffffffffffffff167fb0353d563a9aa5231878c83727dc723a3cb8a38c2917f8ac2b777aa564c8a0d584866040518083151515158152602001821515151581526020019250505060405180910390a450505050565b611aef336118ab565b611b44576040517f08c379a000000000000000000000000000000000000000000000000000000000815260040180806020018281038252602e815260200180613aa9602e913960400191505060405180910390fd5b60a160009054906101000a900460ff16611bc6576040517f08c379a00000000000000000000000000000000000000000000000000000000081526004018080602001828103825260148152602001807f5061757361626c653a206e6f742070617573656400000000000000000000000081525060200191505060405180910390fd5b611bce612ef3565b565b6000611bdb336118ab565b611c30576040517f08c379a000000000000000000000000000000000000000000000000000000000815260040180806020018281038252602e815260200180613aa9602e913960400191505060405180910390fd5b611c39836110dc565b611cab576040517f08c379a00000000000000000000000000000000000000000000000000000000081526004018080602001828103825260208152602001807f43616e206f6e6c79206d696e7420746f20612076616c6964206164647265737381525060200191505060405180910390fd5b611cb6338484612f73565b506001905092915050565b60007fc5f16f0fcc639fa48a6947836d9850f504798523bf8c9a3a87d5876cf622bcf7600102905090565b600060a160009054906101000a900460ff16905090565b611d0c336118ab565b611d61576040517f08c379a000000000000000000000000000000000000000000000000000000000815260040180806020018281038252602e815260200180613aa9602e913960400191505060405180910390fd5b611d6a81612fef565b50565b611d76336118ab565b611dcb576040517f08c379a000000000000000000000000000000000000000000000000000000000815260040180806020018281038252602e815260200180613aa9602e913960400191505060405180910390fd5b611dd481613060565b50565b6000606860008373ffffffffffffffffffffffffffffffffffffffff1673ffffffffffffffffffffffffffffffffffffffff168152602001908152602001600020549050919050565b6060600060ff168260ff161415611e6e576040518060400160405280600781526020017f53554343455353000000000000000000000000000000000000000000000000008152509050611ed6565b600160ff168260ff161415611e9d576040518060600160405280603c8152602001613c0f603c91399050611ed6565b6040518060400160405280601281526020017f556e6b6e6f776e204572726f7220436f6465000000000000000000000000000081525090505b919050565b611ee4336118ab565b611f39576040517f08c379a000000000000000000000000000000000000000000000000000000000815260040180806020018281038252602e815260200180613aa9602e913960400191505060405180910390fd5b60a160009054906101000a900460ff1615611fbc576040517f08c379a00000000000000000000000000000000000000000000000000000000081526004018080602001828103825260108152602001807f5061757361626c653a207061757365640000000000000000000000000000000081525060200191505060405180910390fd5b611fc46130d1565b565b611fcf3361188e565b612024576040517f08c379a000000000000000000000000000000000000000000000000000000000815260040180806020018281038252602e815260200180613b98602e913960400191505060405180910390fd5b6000609f60008373ffffffffffffffffffffffffffffffffffffffff1673ffffffffffffffffffffffffffffffffffffffff16815260200190815260200160002060009054906101000a900460ff1690506000609f60008473ffffffffffffffffffffffffffffffffffffffff1673ffffffffffffffffffffffffffffffffffffffff16815260200190815260200160002060006101000a81548160ff021916908360ff1602179055503373ffffffffffffffffffffffffffffffffffffffff168160ff168373ffffffffffffffffffffffffffffffffffffffff167fb50a30a0fa972f89fbb2b514d12b31f5a5d64f53603402de7939742cd8507f6e60405160405180910390a45050565b612139336118ab565b61218e576040517f08c379a000000000000000000000000000000000000000000000000000000000815260040180806020018281038252602e815260200180613aa9602e913960400191505060405180910390fd5b61219781613151565b50565b609f6020528060005260406000206000915054906101000a900460ff1681565b600080609f60008573ffffffffffffffffffffffffffffffffffffffff1673ffffffffffffffffffffffffffffffffffffffff16815260200190815260200160002060009054906101000a900460ff1690506000609f60008573ffffffffffffffffffffffffffffffffffffffff1673ffffffffffffffffffffffffffffffffffffffff16815260200190815260200160002060009054906101000a900460ff169050600060ff168260ff1614806122785750600060ff168160ff16145b15612288576000925050506122cb565b60a060008360ff1660ff16815260200190815260200160002060008260ff1660ff16815260200190815260200160002060009054906101000a900460ff16925050505b92915050565b606060348054600181600116156101000203166002900480601f0160208091040260200160405190810160405280929190818152602001828054600181600116156101000203166002900480156123695780601f1061233e57610100808354040283529160200191612369565b820191906000526020600020905b81548152906001019060200180831161234c57829003601f168201915b5050505050905090565b6040518060400160405280601281526020017f556e6b6e6f776e204572726f7220436f6465000000000000000000000000000081525081565b600061246f6123b96129c2565b8461246a85604051806060016040528060258152602001613c4b60259139606960006123e36129c2565b73ffffffffffffffffffffffffffffffffffffffff1673ffffffffffffffffffffffffffffffffffffffff16815260200190815260200160002060008a73ffffffffffffffffffffffffffffffffffffffff1673ffffffffffffffffffffffffffffffffffffffff168152602001908152602001600020546132ab9092919063ffffffff16565b6129ca565b6001905092915050565b600060a160009054906101000a900460ff16156124fe576040517f08c379a00000000000000000000000000000000000000000000000000000000081526004018080602001828103825260108152602001807f5061757361626c653a207061757365640000000000000000000000000000000081525060200191505060405180910390fd5b338383600061250e848484612797565b9050600060ff168160ff161461252382611e20565b906125c9576040517f08c379a00000000000000000000000000000000000000000000000000000000081526004018080602001828103825283818151815260200191508051906020019080838360005b8381101561258e578082015181840152602081019050612573565b50505050905090810190601f1680156125bb5780820380516001836020036101000a031916815260200191505b509250505060405180910390fd5b506125d4878761336b565b94505050505092915050565b600060019054906101000a900460ff16806125ff57506125fe612bc1565b5b8061261657506000809054906101000a900460ff16155b61266b576040517f08c379a000000000000000000000000000000000000000000000000000000000815260040180806020018281038252602e815260200180613b42602e913960400191505060405180910390fd5b60008060019054906101000a900460ff1615905080156126bb576001600060016101000a81548160ff02191690831515021790555060016000806101000a81548160ff0219169083151502179055505b6127316040518060400160405280600481526020017f41524341000000000000000000000000000000000000000000000000000000008152506040518060400160405280600481526020017f41524341000000000000000000000000000000000000000000000000000000008152506012611472565b61274c3383601260ff16600a0a633b9aca0060320202612f73565b5061275682613060565b80156127775760008060016101000a81548160ff0219169083151502179055505b5050565b6040518060600160405280603c8152602001613c0f603c913981565b60006127a2836110dc565b6127af57600190506127f2565b6127b8846118ab565b806127c857506127c78461188e565b5b156127d657600090506127f2565b6127e084846121ba565b6127ed57600190506127f2565b600090505b9392505050565b6000606960008473ffffffffffffffffffffffffffffffffffffffff1673ffffffffffffffffffffffffffffffffffffffff16815260200190815260200160002060008373ffffffffffffffffffffffffffffffffffffffff1673ffffffffffffffffffffffffffffffffffffffff16815260200190815260200160002054905092915050565b6040518060400160405280600781526020017f535543434553530000000000000000000000000000000000000000000000000081525081565b60a06020528160005260406000206020528060005260406000206000915091509054906101000a900460ff1681565b60006128f33361188e565b612948576040517f08c379a000000000000000000000000000000000000000000000000000000000815260040180806020018281038252602e815260200180613b98602e913960400191505060405180910390fd5b612953833384613389565b8273ffffffffffffffffffffffffffffffffffffffff163373ffffffffffffffffffffffffffffffffffffffff167fb698e31a2abee5824d0d7bcfd2339aead7f9e9ae413fba50bf554ff3fa470b7b846040518082815260200191505060405180910390a36001905092915050565b600033905090565b600073ffffffffffffffffffffffffffffffffffffffff168373ffffffffffffffffffffffffffffffffffffffff161415612a50576040517f08c379a0000000000000000000000000000000000000000000000000000000008152600401808060200182810382526024815260200180613beb6024913960400191505060405180910390fd5b600073ffffffffffffffffffffffffffffffffffffffff168273ffffffffffffffffffffffffffffffffffffffff161415612ad6576040517f08c379a0000000000000000000000000000000000000000000000000000000008152600401808060200182810382526022815260200180613a616022913960400191505060405180910390fd5b80606960008573ffffffffffffffffffffffffffffffffffffffff1673ffffffffffffffffffffffffffffffffffffffff16815260200190815260200160002060008473ffffffffffffffffffffffffffffffffffffffff1673ffffffffffffffffffffffffffffffffffffffff168152602001908152602001600020819055508173ffffffffffffffffffffffffffffffffffffffff168373ffffffffffffffffffffffffffffffffffffffff167f8c5be1e5ebec7d5bd14f71427d1e84f3dd0314c0f7b2291e5b200ac8c7c3b925836040518082815260200191505060405180910390a3505050565b600080303b90506000811491505090565b612be681609d61364390919063ffffffff16565b3373ffffffffffffffffffffffffffffffffffffffff168173ffffffffffffffffffffffffffffffffffffffff167fe594d081b4382713733fe631966432c9cea5199afb2db5c3c1931f9f9300367960405160405180910390a350565b612c5781609e61364390919063ffffffff16565b3373ffffffffffffffffffffffffffffffffffffffff168173ffffffffffffffffffffffffffffffffffffffff167fdb9d5d31320daf5bc7181d565b6da4d12e30f0f4d5aa324a992426c14a1d19ce60405160405180910390a350565b6000612cc1848484613389565b612d8284612ccd6129c2565b612d7d85604051806060016040528060288152602001613af860289139606960008b73ffffffffffffffffffffffffffffffffffffffff1673ffffffffffffffffffffffffffffffffffffffff1681526020019081526020016000206000612d336129c2565b73ffffffffffffffffffffffffffffffffffffffff1673ffffffffffffffffffffffffffffffffffffffff168152602001908152602001600020546132ab9092919063ffffffff16565b6129ca565b600190509392505050565b60008073ffffffffffffffffffffffffffffffffffffffff168273ffffffffffffffffffffffffffffffffffffffff161415612e14576040517f08c379a0000000000000000000000000000000000000000000000000000000008152600401808060200182810382526022815260200180613b206022913960400191505060405180910390fd5b8260000160008373ffffffffffffffffffffffffffffffffffffffff1673ffffffffffffffffffffffffffffffffffffffff16815260200190815260200160002060009054906101000a900460ff16905092915050565b600080828401905083811015612ee9576040517f08c379a000000000000000000000000000000000000000000000000000000000815260040180806020018281038252601b8152602001807f536166654d6174683a206164646974696f6e206f766572666c6f77000000000081525060200191505060405180910390fd5b8091505092915050565b600060a160006101000a81548160ff0219169083151502179055507f5db9ee0a495bf2e6ff9c91a7834c1ba4fdd244a5e8aa4e537bd38aeae4b073aa33604051808273ffffffffffffffffffffffffffffffffffffffff1673ffffffffffffffffffffffffffffffffffffffff16815260200191505060405180910390a1565b6000612f7f8383613700565b8273ffffffffffffffffffffffffffffffffffffffff168473ffffffffffffffffffffffffffffffffffffffff167fab8530f87dc9b59234c4623bf917212bb2536d647574c8e7e5da92c2ede0c9f8846040518082815260200191505060405180910390a3600190509392505050565b61300381609e6138bd90919063ffffffff16565b3373ffffffffffffffffffffffffffffffffffffffff168173ffffffffffffffffffffffffffffffffffffffff167fbf3f493c772c8c283fd124432c2d0f539ab343faa04258fe88e52912d36b102b60405160405180910390a350565b61307481609d6138bd90919063ffffffff16565b3373ffffffffffffffffffffffffffffffffffffffff168173ffffffffffffffffffffffffffffffffffffffff167fc82bdbbf677a2462f2a7e22e4ba9abd209496b69cd7b868b3b1d28f76e09a40a60405160405180910390a350565b600160a160006101000a81548160ff0219169083151502179055507f62e78cea01bee320cd4e420270b5ea74000d11b0c9f74754ebdbfc544b05a25833604051808273ffffffffffffffffffffffffffffffffffffffff1673ffffffffffffffffffffffffffffffffffffffff16815260200191505060405180910390a1565b8073ffffffffffffffffffffffffffffffffffffffff166352d1902d6040518163ffffffff167c010000000000000000000000000000000000000000000000000000000002815260040160206040518083038186803b1580156131b357600080fd5b505afa1580156131c7573d6000803e3d6000fd5b505050506040513d60208110156131dd57600080fd5b81019080805190602001909291905050507fc5f16f0fcc639fa48a6947836d9850f504798523bf8c9a3a87d5876cf622bcf760010214613285576040517f08c379a000000000000000000000000000000000000000000000000000000000815260040180806020018281038252600e8152602001807f4e6f7420636f6d70617469626c6500000000000000000000000000000000000081525060200191505060405180910390fd5b807fc5f16f0fcc639fa48a6947836d9850f504798523bf8c9a3a87d5876cf622bcf75550565b6000838311158290613358576040517f08c379a00000000000000000000000000000000000000000000000000000000081526004018080602001828103825283818151815260200191508051906020019080838360005b8381101561331d578082015181840152602081019050613302565b50505050905090810190601f16801561334a5780820380516001836020036101000a031916815260200191505b509250505060405180910390fd5b5060008385039050809150509392505050565b600061337f6133786129c2565b8484613389565b6001905092915050565b600073ffffffffffffffffffffffffffffffffffffffff168373ffffffffffffffffffffffffffffffffffffffff16141561340f576040517f08c379a0000000000000000000000000000000000000000000000000000000008152600401808060200182810382526025815260200180613bc66025913960400191505060405180910390fd5b600073ffffffffffffffffffffffffffffffffffffffff168273ffffffffffffffffffffffffffffffffffffffff161415613495576040517f08c379a0000000000000000000000000000000000000000000000000000000008152600401808060200182810382526023815260200180613a3e6023913960400191505060405180910390fd5b61350181604051806060016040528060268152602001613a8360269139606860008773ffffffffffffffffffffffffffffffffffffffff1673ffffffffffffffffffffffffffffffffffffffff168152602001908152602001600020546132ab9092919063ffffffff16565b606860008573ffffffffffffffffffffffffffffffffffffffff1673ffffffffffffffffffffffffffffffffffffffff1681526020019081526020016000208190555061359681606860008573ffffffffffffffffffffffffffffffffffffffff1673ffffffffffffffffffffffffffffffffffffffff16815260200190815260200160002054612e6b90919063ffffffff16565b606860008473ffffffffffffffffffffffffffffffffffffffff1673ffffffffffffffffffffffffffffffffffffffff168152602001908152602001600020819055508173ffffffffffffffffffffffffffffffffffffffff168373ffffffffffffffffffffffffffffffffffffffff167fddf252ad1be2c89b69c2b068fc378daa952ba7f163c4a11628f55a4df523b3ef836040518082815260200191505060405180910390a3505050565b61364d8282612d8d565b6136a2576040517f08c379a0000000000000000000000000000000000000000000000000000000008152600401808060200182810382526021815260200180613ad76021913960400191505060405180910390fd5b60008260000160008373ffffffffffffffffffffffffffffffffffffffff1673ffffffffffffffffffffffffffffffffffffffff16815260200190815260200160002060006101000a81548160ff0219169083151502179055505050565b600073ffffffffffffffffffffffffffffffffffffffff168273ffffffffffffffffffffffffffffffffffffffff1614156137a3576040517f08c379a000000000000000000000000000000000000000000000000000000000815260040180806020018281038252601f8152602001807f45524332303a206d696e7420746f20746865207a65726f20616464726573730081525060200191505060405180910390fd5b6137b881606a54612e6b90919063ffffffff16565b606a8190555061381081606860008573ffffffffffffffffffffffffffffffffffffffff1673ffffffffffffffffffffffffffffffffffffffff16815260200190815260200160002054612e6b90919063ffffffff16565b606860008473ffffffffffffffffffffffffffffffffffffffff1673ffffffffffffffffffffffffffffffffffffffff168152602001908152602001600020819055508173ffffffffffffffffffffffffffffffffffffffff16600073ffffffffffffffffffffffffffffffffffffffff167fddf252ad1be2c89b69c2b068fc378daa952ba7f163c4a11628f55a4df523b3ef836040518082815260200191505060405180910390a35050565b6138c78282612d8d565b1561393a576040517f08c379a000000000000000000000000000000000000000000000000000000000815260040180806020018281038252601f8152602001807f526f6c65733a206163636f756e7420616c72656164792068617320726f6c650081525060200191505060405180910390fd5b60018260000160008373ffffffffffffffffffffffffffffffffffffffff1673ffffffffffffffffffffffffffffffffffffffff16815260200190815260200160002060006101000a81548160ff0219169083151502179055505050565b828054600181600116156101000203166002900490600052602060002090601f016020900481019282601f106139d957805160ff1916838001178555613a07565b82800160010185558215613a07579182015b82811115613a065782518255916020019190600101906139eb565b5b509050613a149190613a18565b5090565b613a3a91905b80821115613a36576000816000905550600101613a1e565b5090565b9056fe45524332303a207472616e7366657220746f20746865207a65726f206164647265737345524332303a20617070726f766520746f20746865207a65726f206164647265737345524332303a207472616e7366657220616d6f756e7420657863656564732062616c616e63654f776e6572526f6c653a2063616c6c657220646f6573206e6f74206861766520746865204f776e657220726f6c65526f6c65733a206163636f756e7420646f6573206e6f74206861766520726f6c6545524332303a207472616e7366657220616d6f756e74206578636565647320616c6c6f77616e6365526f6c65733a206163636f756e7420697320746865207a65726f2061646472657373436f6e747261637420696e7374616e63652068617320616c7265616479206265656e20696e697469616c697a65644f776e6572732063616e6e6f742072656d6f7665207468656d73656c766573206173206f776e657241646d696e526f6c653a2063616c6c657220646f6573206e6f742068617665207468652041646d696e20726f6c6545524332303a207472616e736665722066726f6d20746865207a65726f206164647265737345524332303a20617070726f76652066726f6d20746865207a65726f2061646472657373546865207472616e736665722077617320726573747269637465642064756520746f207768697465206c69737420636f6e66696775726174696f6e2e45524332303a2064656372656173656420616c6c6f77616e63652062656c6f77207a65726fa265627a7a72315820f95419f88c7f63ce42c1185e41e4f10850c4c4582bfd4fa14c50e58e321cc25e64736f6c634300050c0032",
  "source": "pragma solidity 0.5.12;\n\nimport \"./capabilities/Proxiable.sol\";\nimport \"@openzeppelin/contracts-ethereum-package/contracts/token/ERC20/ERC20Detailed.sol\";\nimport \"./ERC1404.sol\";\nimport \"./capabilities/Whitelistable.sol\";\nimport \"./capabilities/Mintable.sol\";\nimport \"./capabilities/Revocable.sol\";\nimport \"./capabilities/Pausable.sol\";\ncontract ArcaToken is Proxiable, ERC20Detailed, ERC1404, Whitelistable, Mintable, Revocable, Pausable {\n\n    // Token Details\n    string constant TOKEN_NAME = \"ARCA\";\n    string constant TOKEN_SYMBOL = \"ARCA\";\n    uint8 constant TOKEN_DECIMALS = 18;\n\n    // Token supply - 50 Billion Tokens, with 18 decimal precision\n    uint256 constant BILLION = 1000000000;\n    uint256 constant TOKEN_SUPPLY = 50 * BILLION * (10 ** uint256(TOKEN_DECIMALS));\n\n    // ERC1404 Error codes and messages\n    uint8 public constant SUCCESS_CODE = 0;\n    uint8 public constant FAILURE_NON_WHITELIST = 1;\n    string public constant SUCCESS_MESSAGE = \"SUCCESS\";\n    string public constant FAILURE_NON_WHITELIST_MESSAGE = \"The transfer was restricted due to white list configuration.\";\n    string public constant UNKNOWN_ERROR = \"Unknown Error Code\";\n\n\n    /**\n    Constructor for the token to set readable details and mint all tokens\n    to the specified owner.\n     */\n    function initialize (address owner)\n        public\n        initializer\n    {\n        ERC20Detailed.initialize(TOKEN_NAME, TOKEN_SYMBOL, TOKEN_DECIMALS);\n        Mintable.mint(msg.sender, owner, TOKEN_SUPPLY);\n        _addOwner(owner);\n    }\n\n    /**\n    Public function to update the address of the code contract, retricted to owner\n     */\n    function updateCodeAddress (address newAddress) public onlyOwner {\n        Proxiable._updateCodeAddress(newAddress);\n    }\n\n    /**\n    This function detects whether a transfer should be restricted and not allowed.\n    If the function returns SUCCESS_CODE (0) then it should be allowed.\n     */\n    function detectTransferRestriction (address from, address to, uint256)\n        public\n        view\n        returns (uint8)\n    {\n        // Confirm that that destination address is either an Owner, Admin, or whitelisted\n        if(!isValidAddress(to)) {\n            return FAILURE_NON_WHITELIST;\n        }\n\n        // If an owner or an admin is transferring, then ignore reistrictions\n        if(isOwner(from) || isAdmin(from)) {\n            return SUCCESS_CODE;\n        }\n\n        // Restrictions are enabled, so verify the whitelist config allows the transfer.\n        // Logic defined in Whitelistable parent class\n        if(!checkWhitelistAllowed(from, to)) {\n            return FAILURE_NON_WHITELIST;\n        }\n\n        // If no restrictions were triggered return success\n        return SUCCESS_CODE;\n    }\n\n    /**\n    This function allows a wallet or other client to get a human readable string to show\n    a user if a transfer was restricted.  It should return enough information for the user\n    to know why it failed.\n     */\n    function messageForTransferRestriction (uint8 restrictionCode)\n        public\n        view\n        returns (string memory)\n    {\n        if (restrictionCode == SUCCESS_CODE) {\n            return SUCCESS_MESSAGE;\n        }\n\n        if (restrictionCode == FAILURE_NON_WHITELIST) {\n            return FAILURE_NON_WHITELIST_MESSAGE;\n        }\n\n        // An unknown error code was passed in.\n        return UNKNOWN_ERROR;\n    }\n\n    /**\n    Evaluates whether a transfer should be allowed or not.\n     */\n    modifier notRestricted (address from, address to, uint256 value) {\n        uint8 restrictionCode = detectTransferRestriction(from, to, value);\n        require(restrictionCode == SUCCESS_CODE, messageForTransferRestriction(restrictionCode));\n        _;\n    }\n\n    /**\n    Validate that address is one of Owner, Admin, or Whitelisted\n     */\n    function isValidAddress(address _address) public view returns (bool) {\n         return isOwner(_address) || isAdmin(_address) || addressWhitelists[_address] != 0;\n    }\n\n    /**\n     * @dev Called by an Owner to pause, triggers stopped state.\n     */\n    function pause() public onlyOwner whenNotPaused {\n        Pausable._pause();\n    }\n\n    /**\n     * @dev Called by an Owner to unpause, returns to normal state.\n     */\n    function unpause() public onlyOwner whenPaused {\n        Pausable._unpause();\n    }\n\n    /**\n    Allow Owners to mint tokens to valid addresses\n     */\n    function mint(address account, uint256 amount) public onlyOwner returns (bool) {\n        require(isValidAddress(account), \"Can only mint to a valid address\");\n        Mintable.mint(msg.sender, account, amount);\n        return true;\n    }\n\n    /**\n    Overrides the parent class token transfer function to enforce restrictions.\n     */\n    function transfer (address to, uint256 value)\n        public\n        whenNotPaused\n        notRestricted(msg.sender, to, value)\n        returns (bool success)\n    {\n        success = ERC20.transfer(to, value);\n    }\n\n    /**\n    Overrides the parent class token transferFrom function to enforce restrictions.\n     */\n    function transferFrom (address from, address to, uint256 value)\n        public\n        whenNotPaused\n        notRestricted(from, to, value)\n        returns (bool success)\n    {\n        success = ERC20.transferFrom(from, to, value);\n    }\n}\n",
  "sourcePath": "/Users/steve/codes/arca_token/contracts/ArcaToken.sol",
  "compiler": {
    "name": "solc",
    "version": "0.5.12+commit.7709ece9.Emscripten.clang"
  },
  "schemaVersion": "3.0.2",
  "updatedAt": "2019-12-06T18:47:49.127Z",
  "devdoc": {
    "methods": {
      "allowance(address,address)": {
        "details": "See {IERC20-allowance}."
      },
      "approve(address,uint256)": {
        "details": "See {IERC20-approve}.     * Requirements:     * - `spender` cannot be the zero address."
      },
      "balanceOf(address)": {
        "details": "See {IERC20-balanceOf}."
      },
      "decimals()": {
        "details": "Returns the number of decimals used to get its user representation. For example, if `decimals` equals `2`, a balance of `505` tokens should be displayed to a user as `5,05` (`505 / 10 ** 2`).     * Tokens usually opt for a value of 18, imitating the relationship between Ether and Wei.     * NOTE: This information is only used for _display_ purposes: it in no way affects any of the arithmetic of the contract, including {IERC20-balanceOf} and {IERC20-transfer}."
      },
      "decreaseAllowance(address,uint256)": {
        "details": "Atomically decreases the allowance granted to `spender` by the caller.     * This is an alternative to {approve} that can be used as a mitigation for problems described in {IERC20-approve}.     * Emits an {Approval} event indicating the updated allowance.     * Requirements:     * - `spender` cannot be the zero address. - `spender` must have allowance for the caller of at least `subtractedValue`."
      },
      "increaseAllowance(address,uint256)": {
        "details": "Atomically increases the allowance granted to `spender` by the caller.     * This is an alternative to {approve} that can be used as a mitigation for problems described in {IERC20-approve}.     * Emits an {Approval} event indicating the updated allowance.     * Requirements:     * - `spender` cannot be the zero address."
      },
      "initialize(string,string,uint8)": {
        "details": "Sets the values for `name`, `symbol`, and `decimals`. All three of these values are immutable: they can only be set once during construction."
      },
      "name()": {
        "details": "Returns the name of the token."
      },
      "pause()": {
        "details": "Called by an Owner to pause, triggers stopped state."
      },
      "paused()": {
        "details": "Returns true if the contract is paused, and false otherwise."
      },
      "symbol()": {
        "details": "Returns the symbol of the token, usually a shorter version of the name."
      },
      "totalSupply()": {
        "details": "See {IERC20-totalSupply}."
      },
      "unpause()": {
        "details": "Called by an Owner to unpause, returns to normal state."
      }
    }
  },
  "userdoc": {
    "methods": {
      "addToWhitelist(address,uint8)": {
        "notice": "Sets an address's white list ID.  Only administrators should be allowed to update this. If an address is on an existing whitelist, it will just get updated to the new value (removed from previous)."
      },
      "checkWhitelistAllowed(address,address)": {
        "notice": "Determine if the a sender is allowed to send to the receiver. The source whitelist must be enabled to send to the whitelist where the receive exists."
      },
      "detectTransferRestriction(address,address,uint256)": {
        "notice": "This function detects whether a transfer should be restricted and not allowed. If the function returns SUCCESS_CODE (0) then it should be allowed."
      },
      "initialize(address)": {
        "notice": "Constructor for the token to set readable details and mint all tokens to the specified owner."
      },
      "isValidAddress(address)": {
        "notice": "Validate that address is one of Owner, Admin, or Whitelisted"
      },
      "messageForTransferRestriction(uint8)": {
        "notice": "This function allows a wallet or other client to get a human readable string to show a user if a transfer was restricted.  It should return enough information for the user to know why it failed."
      },
      "mint(address,uint256)": {
        "notice": "Allow Owners to mint tokens to valid addresses"
      },
      "removeFromWhitelist(address)": {
        "notice": "Clears out an address's white list ID.  Only administrators should be allowed to update this."
      },
      "transfer(address,uint256)": {
        "notice": "Overrides the parent class token transfer function to enforce restrictions."
      },
      "transferFrom(address,address,uint256)": {
        "notice": "Overrides the parent class token transferFrom function to enforce restrictions."
      },
      "updateCodeAddress(address)": {
        "notice": "Public function to update the address of the code contract, retricted to owner"
      },
      "updateOutboundWhitelistEnabled(uint8,uint8,bool)": {
        "notice": "Sets the flag to indicate whether source whitelist is allowed to send to destination whitelist. Only administrators should be allowed to update this."
      }
    }
  }
}