{
  "contractName": "ArcaToken",
  "abi": [
    {
      "constant": false,
      "inputs": [
        {
          "name": "addressToAdd",
          "type": "address"
        },
        {
          "name": "whitelist",
          "type": "uint8"
        }
      ],
      "name": "addToWhitelist",
      "outputs": [],
      "payable": false,
      "stateMutability": "nonpayable",
      "type": "function"
    },
    {
      "constant": true,
      "inputs": [],
      "name": "name",
      "outputs": [
        {
          "name": "",
          "type": "string"
        }
      ],
      "payable": false,
      "stateMutability": "view",
      "type": "function"
    },
    {
      "constant": false,
      "inputs": [
        {
          "name": "spender",
          "type": "address"
        },
        {
          "name": "amount",
          "type": "uint256"
        }
      ],
      "name": "approve",
      "outputs": [
        {
          "name": "",
          "type": "bool"
        }
      ],
      "payable": false,
      "stateMutability": "nonpayable",
      "type": "function"
    },
    {
      "constant": true,
      "inputs": [],
      "name": "SUCCESS_CODE",
      "outputs": [
        {
          "name": "",
          "type": "uint8"
        }
      ],
      "payable": false,
      "stateMutability": "view",
      "type": "function"
    },
    {
      "constant": false,
      "inputs": [
        {
          "name": "account",
          "type": "address"
        }
      ],
      "name": "removeOwner",
      "outputs": [],
      "payable": false,
      "stateMutability": "nonpayable",
      "type": "function"
    },
    {
      "constant": false,
      "inputs": [
        {
          "name": "account",
          "type": "address"
        }
      ],
      "name": "removeAdmin",
      "outputs": [],
      "payable": false,
      "stateMutability": "nonpayable",
      "type": "function"
    },
    {
      "constant": true,
      "inputs": [],
      "name": "totalSupply",
      "outputs": [
        {
          "name": "",
          "type": "uint256"
        }
      ],
      "payable": false,
      "stateMutability": "view",
      "type": "function"
    },
    {
      "constant": true,
      "inputs": [],
      "name": "FAILURE_NON_WHITELIST",
      "outputs": [
        {
          "name": "",
          "type": "uint8"
        }
      ],
      "payable": false,
      "stateMutability": "view",
      "type": "function"
    },
    {
      "constant": true,
      "inputs": [
        {
          "name": "account",
          "type": "address"
        }
      ],
      "name": "isAdmin",
      "outputs": [
        {
          "name": "",
          "type": "bool"
        }
      ],
      "payable": false,
      "stateMutability": "view",
      "type": "function"
    },
    {
      "constant": true,
      "inputs": [],
      "name": "isRestrictionEnabled",
      "outputs": [
        {
          "name": "",
          "type": "bool"
        }
      ],
      "payable": false,
      "stateMutability": "view",
      "type": "function"
    },
    {
      "constant": true,
      "inputs": [
        {
          "name": "account",
          "type": "address"
        }
      ],
      "name": "isOwner",
      "outputs": [
        {
          "name": "",
          "type": "bool"
        }
      ],
      "payable": false,
      "stateMutability": "view",
      "type": "function"
    },
    {
      "constant": true,
      "inputs": [],
      "name": "decimals",
      "outputs": [
        {
          "name": "",
          "type": "uint8"
        }
      ],
      "payable": false,
      "stateMutability": "view",
      "type": "function"
    },
    {
      "constant": false,
      "inputs": [
        {
          "name": "spender",
          "type": "address"
        },
        {
          "name": "addedValue",
          "type": "uint256"
        }
      ],
      "name": "increaseAllowance",
      "outputs": [
        {
          "name": "",
          "type": "bool"
        }
      ],
      "payable": false,
      "stateMutability": "nonpayable",
      "type": "function"
    },
    {
      "constant": false,
      "inputs": [
        {
          "name": "sourceWhitelist",
          "type": "uint8"
        },
        {
          "name": "destinationWhitelist",
          "type": "uint8"
        },
        {
          "name": "newEnabledValue",
          "type": "bool"
        }
      ],
      "name": "updateOutboundWhitelistEnabled",
      "outputs": [],
      "payable": false,
      "stateMutability": "nonpayable",
      "type": "function"
    },
    {
      "constant": true,
      "inputs": [],
      "name": "paused",
      "outputs": [
        {
          "name": "",
          "type": "bool"
        }
      ],
      "payable": false,
      "stateMutability": "view",
      "type": "function"
    },
    {
      "constant": false,
      "inputs": [
        {
          "name": "account",
          "type": "address"
        }
      ],
      "name": "addAdmin",
      "outputs": [],
      "payable": false,
      "stateMutability": "nonpayable",
      "type": "function"
    },
    {
      "constant": false,
      "inputs": [
        {
          "name": "account",
          "type": "address"
        }
      ],
      "name": "addOwner",
      "outputs": [],
      "payable": false,
      "stateMutability": "nonpayable",
      "type": "function"
    },
    {
      "constant": true,
      "inputs": [
        {
          "name": "account",
          "type": "address"
        }
      ],
      "name": "balanceOf",
      "outputs": [
        {
          "name": "",
          "type": "uint256"
        }
      ],
      "payable": false,
      "stateMutability": "view",
      "type": "function"
    },
    {
      "constant": false,
      "inputs": [
        {
          "name": "addressToRemove",
          "type": "address"
        }
      ],
      "name": "removeFromWhitelist",
      "outputs": [],
      "payable": false,
      "stateMutability": "nonpayable",
      "type": "function"
    },
    {
      "constant": true,
      "inputs": [
        {
          "name": "",
          "type": "address"
        }
      ],
      "name": "addressWhitelists",
      "outputs": [
        {
          "name": "",
          "type": "uint8"
        }
      ],
      "payable": false,
      "stateMutability": "view",
      "type": "function"
    },
    {
      "constant": true,
      "inputs": [
        {
          "name": "sender",
          "type": "address"
        },
        {
          "name": "receiver",
          "type": "address"
        }
      ],
      "name": "checkWhitelistAllowed",
      "outputs": [
        {
          "name": "",
          "type": "bool"
        }
      ],
      "payable": false,
      "stateMutability": "view",
      "type": "function"
    },
    {
      "constant": true,
      "inputs": [],
      "name": "symbol",
      "outputs": [
        {
          "name": "",
          "type": "string"
        }
      ],
      "payable": false,
      "stateMutability": "view",
      "type": "function"
    },
    {
      "constant": true,
      "inputs": [],
      "name": "UNKNOWN_ERROR",
      "outputs": [
        {
          "name": "",
          "type": "string"
        }
      ],
      "payable": false,
      "stateMutability": "view",
      "type": "function"
    },
    {
      "constant": false,
      "inputs": [
        {
          "name": "spender",
          "type": "address"
        },
        {
          "name": "subtractedValue",
          "type": "uint256"
        }
      ],
      "name": "decreaseAllowance",
      "outputs": [
        {
          "name": "",
          "type": "bool"
        }
      ],
      "payable": false,
      "stateMutability": "nonpayable",
      "type": "function"
    },
    {
      "constant": true,
      "inputs": [],
      "name": "FAILURE_NON_WHITELIST_MESSAGE",
      "outputs": [
        {
          "name": "",
          "type": "string"
        }
      ],
      "payable": false,
      "stateMutability": "view",
      "type": "function"
    },
    {
      "constant": true,
      "inputs": [
        {
          "name": "owner",
          "type": "address"
        },
        {
          "name": "spender",
          "type": "address"
        }
      ],
      "name": "allowance",
      "outputs": [
        {
          "name": "",
          "type": "uint256"
        }
      ],
      "payable": false,
      "stateMutability": "view",
      "type": "function"
    },
    {
      "constant": true,
      "inputs": [],
      "name": "SUCCESS_MESSAGE",
      "outputs": [
        {
          "name": "",
          "type": "string"
        }
      ],
      "payable": false,
      "stateMutability": "view",
      "type": "function"
    },
    {
      "constant": true,
      "inputs": [
        {
          "name": "",
          "type": "uint8"
        },
        {
          "name": "",
          "type": "uint8"
        }
      ],
      "name": "outboundWhitelistsEnabled",
      "outputs": [
        {
          "name": "",
          "type": "bool"
        }
      ],
      "payable": false,
      "stateMutability": "view",
      "type": "function"
    },
    {
      "constant": false,
      "inputs": [
        {
          "name": "_from",
          "type": "address"
        },
        {
          "name": "_amount",
          "type": "uint256"
        }
      ],
      "name": "revoke",
      "outputs": [
        {
          "name": "",
          "type": "bool"
        }
      ],
      "payable": false,
      "stateMutability": "nonpayable",
      "type": "function"
    },
    {
      "inputs": [
        {
          "name": "owner",
          "type": "address"
        }
      ],
      "payable": false,
      "stateMutability": "nonpayable",
      "type": "constructor"
    },
    {
      "anonymous": false,
      "inputs": [
        {
          "indexed": true,
          "name": "owner",
          "type": "address"
        }
      ],
      "name": "RestrictionsDisabled",
      "type": "event"
    },
    {
      "anonymous": false,
      "inputs": [
        {
          "indexed": false,
          "name": "account",
          "type": "address"
        }
      ],
      "name": "Paused",
      "type": "event"
    },
    {
      "anonymous": false,
      "inputs": [
        {
          "indexed": false,
          "name": "account",
          "type": "address"
        }
      ],
      "name": "Unpaused",
      "type": "event"
    },
    {
      "anonymous": false,
      "inputs": [
        {
          "indexed": true,
          "name": "revoker",
          "type": "address"
        },
        {
          "indexed": true,
          "name": "from",
          "type": "address"
        },
        {
          "indexed": false,
          "name": "amount",
          "type": "uint256"
        }
      ],
      "name": "Revoke",
      "type": "event"
    },
    {
      "anonymous": false,
      "inputs": [
        {
          "indexed": true,
          "name": "minter",
          "type": "address"
        },
        {
          "indexed": true,
          "name": "to",
          "type": "address"
        },
        {
          "indexed": false,
          "name": "amount",
          "type": "uint256"
        }
      ],
      "name": "Mint",
      "type": "event"
    },
    {
      "anonymous": false,
      "inputs": [
        {
          "indexed": true,
          "name": "addedAddress",
          "type": "address"
        },
        {
          "indexed": true,
          "name": "whitelist",
          "type": "uint8"
        },
        {
          "indexed": true,
          "name": "addedBy",
          "type": "address"
        }
      ],
      "name": "AddressAddedToWhitelist",
      "type": "event"
    },
    {
      "anonymous": false,
      "inputs": [
        {
          "indexed": true,
          "name": "removedAddress",
          "type": "address"
        },
        {
          "indexed": true,
          "name": "whitelist",
          "type": "uint8"
        },
        {
          "indexed": true,
          "name": "removedBy",
          "type": "address"
        }
      ],
      "name": "AddressRemovedFromWhitelist",
      "type": "event"
    },
    {
      "anonymous": false,
      "inputs": [
        {
          "indexed": true,
          "name": "updatedBy",
          "type": "address"
        },
        {
          "indexed": true,
          "name": "sourceWhitelist",
          "type": "uint8"
        },
        {
          "indexed": true,
          "name": "destinationWhitelist",
          "type": "uint8"
        },
        {
          "indexed": false,
          "name": "from",
          "type": "bool"
        },
        {
          "indexed": false,
          "name": "to",
          "type": "bool"
        }
      ],
      "name": "OutboundWhitelistUpdated",
      "type": "event"
    },
    {
      "anonymous": false,
      "inputs": [
        {
          "indexed": true,
          "name": "addedAdmin",
          "type": "address"
        },
        {
          "indexed": true,
          "name": "addedBy",
          "type": "address"
        }
      ],
      "name": "AdminAdded",
      "type": "event"
    },
    {
      "anonymous": false,
      "inputs": [
        {
          "indexed": true,
          "name": "removedAdmin",
          "type": "address"
        },
        {
          "indexed": true,
          "name": "removedBy",
          "type": "address"
        }
      ],
      "name": "AdminRemoved",
      "type": "event"
    },
    {
      "anonymous": false,
      "inputs": [
        {
          "indexed": true,
          "name": "addedOwner",
          "type": "address"
        },
        {
          "indexed": true,
          "name": "addedBy",
          "type": "address"
        }
      ],
      "name": "OwnerAdded",
      "type": "event"
    },
    {
      "anonymous": false,
      "inputs": [
        {
          "indexed": true,
          "name": "removedOwner",
          "type": "address"
        },
        {
          "indexed": true,
          "name": "removedBy",
          "type": "address"
        }
      ],
      "name": "OwnerRemoved",
      "type": "event"
    },
    {
      "anonymous": false,
      "inputs": [
        {
          "indexed": true,
          "name": "from",
          "type": "address"
        },
        {
          "indexed": true,
          "name": "to",
          "type": "address"
        },
        {
          "indexed": false,
          "name": "value",
          "type": "uint256"
        }
      ],
      "name": "Transfer",
      "type": "event"
    },
    {
      "anonymous": false,
      "inputs": [
        {
          "indexed": true,
          "name": "owner",
          "type": "address"
        },
        {
          "indexed": true,
          "name": "spender",
          "type": "address"
        },
        {
          "indexed": false,
          "name": "value",
          "type": "uint256"
        }
      ],
      "name": "Approval",
      "type": "event"
    },
    {
      "constant": true,
      "inputs": [
        {
          "name": "from",
          "type": "address"
        },
        {
          "name": "to",
          "type": "address"
        },
        {
          "name": "",
          "type": "uint256"
        }
      ],
      "name": "detectTransferRestriction",
      "outputs": [
        {
          "name": "",
          "type": "uint8"
        }
      ],
      "payable": false,
      "stateMutability": "view",
      "type": "function"
    },
    {
      "constant": true,
      "inputs": [
        {
          "name": "restrictionCode",
          "type": "uint8"
        }
      ],
      "name": "messageForTransferRestriction",
      "outputs": [
        {
          "name": "",
          "type": "string"
        }
      ],
      "payable": false,
      "stateMutability": "view",
      "type": "function"
    },
    {
      "constant": false,
      "inputs": [],
      "name": "disableRestrictions",
      "outputs": [],
      "payable": false,
      "stateMutability": "nonpayable",
      "type": "function"
    },
    {
      "constant": true,
      "inputs": [
        {
          "name": "_address",
          "type": "address"
        }
      ],
      "name": "isValidAddress",
      "outputs": [
        {
          "name": "",
          "type": "bool"
        }
      ],
      "payable": false,
      "stateMutability": "view",
      "type": "function"
    },
    {
      "constant": false,
      "inputs": [],
      "name": "pause",
      "outputs": [],
      "payable": false,
      "stateMutability": "nonpayable",
      "type": "function"
    },
    {
      "constant": false,
      "inputs": [],
      "name": "unpause",
      "outputs": [],
      "payable": false,
      "stateMutability": "nonpayable",
      "type": "function"
    },
    {
      "constant": false,
      "inputs": [
        {
          "name": "account",
          "type": "address"
        },
        {
          "name": "amount",
          "type": "uint256"
        }
      ],
      "name": "mint",
      "outputs": [
        {
          "name": "",
          "type": "bool"
        }
      ],
      "payable": false,
      "stateMutability": "nonpayable",
      "type": "function"
    },
    {
      "constant": false,
      "inputs": [
        {
          "name": "to",
          "type": "address"
        },
        {
          "name": "value",
          "type": "uint256"
        }
      ],
      "name": "transfer",
      "outputs": [
        {
          "name": "success",
          "type": "bool"
        }
      ],
      "payable": false,
      "stateMutability": "nonpayable",
      "type": "function"
    },
    {
      "constant": false,
      "inputs": [
        {
          "name": "from",
          "type": "address"
        },
        {
          "name": "to",
          "type": "address"
        },
        {
          "name": "value",
          "type": "uint256"
        }
      ],
      "name": "transferFrom",
      "outputs": [
        {
          "name": "success",
          "type": "bool"
        }
      ],
      "payable": false,
      "stateMutability": "nonpayable",
      "type": "function"
    }
  ],
  "bytecode": "0x60806040526001600a60016101000a81548160ff0219169083151502179055503480156200002c57600080fd5b5060405160208062003e4e833981018060405260208110156200004e57600080fd5b81019080805190602001909291905050506040518060400160405280600481526020017f41524341000000000000000000000000000000000000000000000000000000008152506040518060400160405280600481526020017f415243410000000000000000000000000000000000000000000000000000000081525060128260009080519060200190620000e592919062000603565b508160019080519060200190620000fe92919062000603565b5080600260006101000a81548160ff021916908360ff1602179055505050506000600a60006101000a81548160ff0219169083151502179055506200015a81601260ff16600a0a633b9aca00603202026200017260201b60201c565b6200016b816200033e60201b60201c565b50620006b2565b600073ffffffffffffffffffffffffffffffffffffffff168273ffffffffffffffffffffffffffffffffffffffff16141562000216576040517f08c379a000000000000000000000000000000000000000000000000000000000815260040180806020018281038252601f8152602001807f45524332303a206d696e7420746f20746865207a65726f20616464726573730081525060200191505060405180910390fd5b6200023281600554620003b660201b62002a471790919060201c565b6005819055506200029181600360008573ffffffffffffffffffffffffffffffffffffffff1673ffffffffffffffffffffffffffffffffffffffff16815260200190815260200160002054620003b660201b62002a471790919060201c565b600360008473ffffffffffffffffffffffffffffffffffffffff1673ffffffffffffffffffffffffffffffffffffffff168152602001908152602001600020819055508173ffffffffffffffffffffffffffffffffffffffff16600073ffffffffffffffffffffffffffffffffffffffff167fddf252ad1be2c89b69c2b068fc378daa952ba7f163c4a11628f55a4df523b3ef836040518082815260200191505060405180910390a35050565b620003598160066200043f60201b620034041790919060201c565b3373ffffffffffffffffffffffffffffffffffffffff168173ffffffffffffffffffffffffffffffffffffffff167fc82bdbbf677a2462f2a7e22e4ba9abd209496b69cd7b868b3b1d28f76e09a40a60405160405180910390a350565b60008082840190508381101562000435576040517f08c379a000000000000000000000000000000000000000000000000000000000815260040180806020018281038252601b8152602001807f536166654d6174683a206164646974696f6e206f766572666c6f77000000000081525060200191505060405180910390fd5b8091505092915050565b6200045182826200052360201b60201c565b15620004c5576040517f08c379a000000000000000000000000000000000000000000000000000000000815260040180806020018281038252601f8152602001807f526f6c65733a206163636f756e7420616c72656164792068617320726f6c650081525060200191505060405180910390fd5b60018260000160008373ffffffffffffffffffffffffffffffffffffffff1673ffffffffffffffffffffffffffffffffffffffff16815260200190815260200160002060006101000a81548160ff0219169083151502179055505050565b60008073ffffffffffffffffffffffffffffffffffffffff168273ffffffffffffffffffffffffffffffffffffffff161415620005ac576040517f08c379a000000000000000000000000000000000000000000000000000000000815260040180806020018281038252602281526020018062003e2c6022913960400191505060405180910390fd5b8260000160008373ffffffffffffffffffffffffffffffffffffffff1673ffffffffffffffffffffffffffffffffffffffff16815260200190815260200160002060009054906101000a900460ff16905092915050565b828054600181600116156101000203166002900490600052602060002090601f016020900481019282601f106200064657805160ff191683800117855562000677565b8280016001018555821562000677579182015b828111156200067657825182559160200191906001019062000659565b5b5090506200068691906200068a565b5090565b620006af91905b80821115620006ab57600081600090555060010162000691565b5090565b90565b61376a80620006c26000396000f3fe608060405234801561001057600080fd5b50600436106102315760003560e01c8063704802751161013057806397af6744116100b8578063dce306ad1161007c578063dce306ad14610d0f578063dd62ed3e14610d19578063e7984d1714610d91578063e959450814610e14578063eac449d914610e6a57610231565b806397af674414610ab5578063a457c2d714610b38578063a9059cbb14610b9e578063c893446214610c04578063d4ce141514610c8757610231565b80638456cb59116100ff5780638456cb591461090a5780638ab1d6811461091457806392e6d68b146109585780639437e2fe146109b657806395d89b4114610a3257610231565b806370480275146107805780637065cb48146107c457806370a08231146108085780637f4ab1dd1461086057610231565b806323b872dd116101be5780633950935111610182578063395093511461063e5780633973b596146106a45780633f4ba83a146106ee57806340c10f19146106f85780635c975abb1461075e57610231565b806323b872dd146104ba57806324d7806c146105405780632a6424071461059c5780632f54bf6e146105be578063313ce5671461061a57610231565b80630e969a05116102055780630e969a05146103cc578063173825d9146103f05780631785f53c1461043457806318160ddd146104785780631fb45ec01461049657610231565b80623f07fa146102365780630263b8581461029257806306fdde03146102e3578063095ea7b314610366575b600080fd5b6102786004803603602081101561024c57600080fd5b81019080803573ffffffffffffffffffffffffffffffffffffffff169060200190929190505050610ed0565b604051808215151515815260200191505060405180910390f35b6102e1600480360360408110156102a857600080fd5b81019080803573ffffffffffffffffffffffffffffffffffffffff169060200190929190803560ff169060200190929190505050610f4d565b005b6102eb6111a1565b6040518080602001828103825283818151815260200191508051906020019080838360005b8381101561032b578082015181840152602081019050610310565b50505050905090810190601f1680156103585780820380516001836020036101000a031916815260200191505b509250505060405180910390f35b6103b26004803603604081101561037c57600080fd5b81019080803573ffffffffffffffffffffffffffffffffffffffff16906020019092919080359060200190929190505050611243565b604051808215151515815260200191505060405180910390f35b6103d4611261565b604051808260ff1660ff16815260200191505060405180910390f35b6104326004803603602081101561040657600080fd5b81019080803573ffffffffffffffffffffffffffffffffffffffff169060200190929190505050611266565b005b6104766004803603602081101561044a57600080fd5b81019080803573ffffffffffffffffffffffffffffffffffffffff169060200190929190505050611355565b005b6104806113bf565b6040518082815260200191505060405180910390f35b61049e6113c9565b604051808260ff1660ff16815260200191505060405180910390f35b610526600480360360608110156104d057600080fd5b81019080803573ffffffffffffffffffffffffffffffffffffffff169060200190929190803573ffffffffffffffffffffffffffffffffffffffff169060200190929190803590602001909291905050506113ce565b604051808215151515815260200191505060405180910390f35b6105826004803603602081101561055657600080fd5b81019080803573ffffffffffffffffffffffffffffffffffffffff169060200190929190505050611537565b604051808215151515815260200191505060405180910390f35b6105a4611554565b604051808215151515815260200191505060405180910390f35b610600600480360360208110156105d457600080fd5b81019080803573ffffffffffffffffffffffffffffffffffffffff16906020019092919050505061156b565b604051808215151515815260200191505060405180910390f35b610622611588565b604051808260ff1660ff16815260200191505060405180910390f35b61068a6004803603604081101561065457600080fd5b81019080803573ffffffffffffffffffffffffffffffffffffffff1690602001909291908035906020019092919050505061159f565b604051808215151515815260200191505060405180910390f35b6106ec600480360360608110156106ba57600080fd5b81019080803560ff169060200190929190803560ff169060200190929190803515159060200190929190505050611652565b005b6106f66117a6565b005b6107446004803603604081101561070e57600080fd5b81019080803573ffffffffffffffffffffffffffffffffffffffff16906020019092919080359060200190929190505050611890565b604051808215151515815260200191505060405180910390f35b610766611981565b604051808215151515815260200191505060405180910390f35b6107c26004803603602081101561079657600080fd5b81019080803573ffffffffffffffffffffffffffffffffffffffff169060200190929190505050611998565b005b610806600480360360208110156107da57600080fd5b81019080803573ffffffffffffffffffffffffffffffffffffffff169060200190929190505050611a02565b005b61084a6004803603602081101561081e57600080fd5b81019080803573ffffffffffffffffffffffffffffffffffffffff169060200190929190505050611a6c565b6040518082815260200191505060405180910390f35b61088f6004803603602081101561087657600080fd5b81019080803560ff169060200190929190505050611ab5565b6040518080602001828103825283818151815260200191508051906020019080838360005b838110156108cf5780820151818401526020810190506108b4565b50505050905090810190601f1680156108fc5780820380516001836020036101000a031916815260200191505b509250505060405180910390f35b610912611b70565b005b6109566004803603602081101561092a57600080fd5b81019080803573ffffffffffffffffffffffffffffffffffffffff169060200190929190505050611cb8565b005b61099a6004803603602081101561096e57600080fd5b81019080803573ffffffffffffffffffffffffffffffffffffffff169060200190929190505050611e22565b604051808260ff1660ff16815260200191505060405180910390f35b610a18600480360360408110156109cc57600080fd5b81019080803573ffffffffffffffffffffffffffffffffffffffff169060200190929190803573ffffffffffffffffffffffffffffffffffffffff169060200190929190505050611e42565b604051808215151515815260200191505060405180910390f35b610a3a611f59565b6040518080602001828103825283818151815260200191508051906020019080838360005b83811015610a7a578082015181840152602081019050610a5f565b50505050905090810190601f168015610aa75780820380516001836020036101000a031916815260200191505b509250505060405180910390f35b610abd611ffb565b6040518080602001828103825283818151815260200191508051906020019080838360005b83811015610afd578082015181840152602081019050610ae2565b50505050905090810190601f168015610b2a5780820380516001836020036101000a031916815260200191505b509250505060405180910390f35b610b8460048036036040811015610b4e57600080fd5b81019080803573ffffffffffffffffffffffffffffffffffffffff16906020019092919080359060200190929190505050612034565b604051808215151515815260200191505060405180910390f35b610bea60048036036040811015610bb457600080fd5b81019080803573ffffffffffffffffffffffffffffffffffffffff16906020019092919080359060200190929190505050612101565b604051808215151515815260200191505060405180910390f35b610c0c612268565b6040518080602001828103825283818151815260200191508051906020019080838360005b83811015610c4c578082015181840152602081019050610c31565b50505050905090810190601f168015610c795780820380516001836020036101000a031916815260200191505b509250505060405180910390f35b610cf360048036036060811015610c9d57600080fd5b81019080803573ffffffffffffffffffffffffffffffffffffffff169060200190929190803573ffffffffffffffffffffffffffffffffffffffff16906020019092919080359060200190929190505050612284565b604051808260ff1660ff16815260200191505060405180910390f35b610d176122fb565b005b610d7b60048036036040811015610d2f57600080fd5b81019080803573ffffffffffffffffffffffffffffffffffffffff169060200190929190803573ffffffffffffffffffffffffffffffffffffffff1690602001909291905050506123e6565b6040518082815260200191505060405180910390f35b610d9961246d565b6040518080602001828103825283818151815260200191508051906020019080838360005b83811015610dd9578082015181840152602081019050610dbe565b50505050905090810190601f168015610e065780820380516001836020036101000a031916815260200191505b509250505060405180910390f35b610e5060048036036040811015610e2a57600080fd5b81019080803560ff169060200190929190803560ff1690602001909291905050506124a6565b604051808215151515815260200191505060405180910390f35b610eb660048036036040811015610e8057600080fd5b81019080803573ffffffffffffffffffffffffffffffffffffffff169060200190929190803590602001909291905050506124d5565b604051808215151515815260200191505060405180910390f35b6000610edb8261156b565b80610eeb5750610eea82611537565b5b80610f4657506000600860008473ffffffffffffffffffffffffffffffffffffffff1673ffffffffffffffffffffffffffffffffffffffff16815260200190815260200160002060009054906101000a900460ff1660ff1614155b9050919050565b610f5633611537565b610fab576040517f08c379a000000000000000000000000000000000000000000000000000000000815260040180806020018281038252602e815260200180613667602e913960400191505060405180910390fd5b600060ff168160ff161415611028576040517f08c379a000000000000000000000000000000000000000000000000000000000815260040180806020018281038252601d8152602001807f496e76616c69642077686974656c69737420494420737570706c69656400000081525060200191505060405180910390fd5b6000600860008473ffffffffffffffffffffffffffffffffffffffff1673ffffffffffffffffffffffffffffffffffffffff16815260200190815260200160002060009054906101000a900460ff16905081600860008573ffffffffffffffffffffffffffffffffffffffff1673ffffffffffffffffffffffffffffffffffffffff16815260200190815260200160002060006101000a81548160ff021916908360ff160217905550600060ff168160ff161461113e573373ffffffffffffffffffffffffffffffffffffffff168160ff168473ffffffffffffffffffffffffffffffffffffffff167fb50a30a0fa972f89fbb2b514d12b31f5a5d64f53603402de7939742cd8507f6e60405160405180910390a45b3373ffffffffffffffffffffffffffffffffffffffff168260ff168473ffffffffffffffffffffffffffffffffffffffff167fca6d1e885708b837a7647aeb7f4163ee4ca96058e08ac767be8d23c972c5027060405160405180910390a4505050565b606060008054600181600116156101000203166002900480601f0160208091040260200160405190810160405280929190818152602001828054600181600116156101000203166002900480156112395780601f1061120e57610100808354040283529160200191611239565b820191906000526020600020905b81548152906001019060200180831161121c57829003601f168201915b5050505050905090565b60006112576112506125af565b84846125b7565b6001905092915050565b600081565b61126f3361156b565b6112c4576040517f08c379a000000000000000000000000000000000000000000000000000000000815260040180806020018281038252602e81526020018061354b602e913960400191505060405180910390fd5b8073ffffffffffffffffffffffffffffffffffffffff163373ffffffffffffffffffffffffffffffffffffffff161415611349576040517f08c379a000000000000000000000000000000000000000000000000000000000815260040180806020018281038252602881526020018061361d6028913960400191505060405180910390fd5b611352816127ae565b50565b61135e3361156b565b6113b3576040517f08c379a000000000000000000000000000000000000000000000000000000000815260040180806020018281038252602e81526020018061354b602e913960400191505060405180910390fd5b6113bc8161281f565b50565b6000600554905090565b600181565b6000600a60009054906101000a900460ff1615611453576040517f08c379a00000000000000000000000000000000000000000000000000000000081526004018080602001828103825260108152602001807f5061757361626c653a207061757365640000000000000000000000000000000081525060200191505060405180910390fd5b8383836000611463848484612284565b9050600060ff168160ff161461147882611ab5565b9061151e576040517f08c379a00000000000000000000000000000000000000000000000000000000081526004018080602001828103825283818151815260200191508051906020019080838360005b838110156114e35780820151818401526020810190506114c8565b50505050905090810190601f1680156115105780820380516001836020036101000a031916815260200191505b509250505060405180910390fd5b5061152a888888612890565b9450505050509392505050565b600061154d82600761296990919063ffffffff16565b9050919050565b6000600a60019054906101000a900460ff16905090565b600061158182600661296990919063ffffffff16565b9050919050565b6000600260009054906101000a900460ff16905090565b60006116486115ac6125af565b8461164385600460006115bd6125af565b73ffffffffffffffffffffffffffffffffffffffff1673ffffffffffffffffffffffffffffffffffffffff16815260200190815260200160002060008973ffffffffffffffffffffffffffffffffffffffff1673ffffffffffffffffffffffffffffffffffffffff16815260200190815260200160002054612a4790919063ffffffff16565b6125b7565b6001905092915050565b61165b33611537565b6116b0576040517f08c379a000000000000000000000000000000000000000000000000000000000815260040180806020018281038252602e815260200180613667602e913960400191505060405180910390fd5b6000600960008560ff1660ff16815260200190815260200160002060008460ff1660ff16815260200190815260200160002060009054906101000a900460ff16905081600960008660ff1660ff16815260200190815260200160002060008560ff1660ff16815260200190815260200160002060006101000a81548160ff0219169083151502179055508260ff168460ff163373ffffffffffffffffffffffffffffffffffffffff167fb0353d563a9aa5231878c83727dc723a3cb8a38c2917f8ac2b777aa564c8a0d584866040518083151515158152602001821515151581526020019250505060405180910390a450505050565b6117af3361156b565b611804576040517f08c379a000000000000000000000000000000000000000000000000000000000815260040180806020018281038252602e81526020018061354b602e913960400191505060405180910390fd5b600a60009054906101000a900460ff16611886576040517f08c379a00000000000000000000000000000000000000000000000000000000081526004018080602001828103825260148152602001807f5061757361626c653a206e6f742070617573656400000000000000000000000081525060200191505060405180910390fd5b61188e612acf565b565b600061189b3361156b565b6118f0576040517f08c379a000000000000000000000000000000000000000000000000000000000815260040180806020018281038252602e81526020018061354b602e913960400191505060405180910390fd5b6118f983610ed0565b61196b576040517f08c379a00000000000000000000000000000000000000000000000000000000081526004018080602001828103825260208152602001807f43616e206f6e6c79206d696e7420746f20612076616c6964206164647265737381525060200191505060405180910390fd5b611976338484612b4f565b506001905092915050565b6000600a60009054906101000a900460ff16905090565b6119a13361156b565b6119f6576040517f08c379a000000000000000000000000000000000000000000000000000000000815260040180806020018281038252602e81526020018061354b602e913960400191505060405180910390fd5b6119ff81612bcb565b50565b611a0b3361156b565b611a60576040517f08c379a000000000000000000000000000000000000000000000000000000000815260040180806020018281038252602e81526020018061354b602e913960400191505060405180910390fd5b611a6981612c3c565b50565b6000600360008373ffffffffffffffffffffffffffffffffffffffff1673ffffffffffffffffffffffffffffffffffffffff168152602001908152602001600020549050919050565b6060600060ff168260ff161415611b03576040518060400160405280600781526020017f53554343455353000000000000000000000000000000000000000000000000008152509050611b6b565b600160ff168260ff161415611b32576040518060600160405280603c81526020016136de603c91399050611b6b565b6040518060400160405280601281526020017f556e6b6e6f776e204572726f7220436f6465000000000000000000000000000081525090505b919050565b611b793361156b565b611bce576040517f08c379a000000000000000000000000000000000000000000000000000000000815260040180806020018281038252602e81526020018061354b602e913960400191505060405180910390fd5b600a60009054906101000a900460ff1615611c51576040517f08c379a00000000000000000000000000000000000000000000000000000000081526004018080602001828103825260108152602001807f5061757361626c653a207061757365640000000000000000000000000000000081525060200191505060405180910390fd5b611c59611554565b611cae576040517f08c379a000000000000000000000000000000000000000000000000000000000815260040180806020018281038252603981526020018061359a6039913960400191505060405180910390fd5b611cb6612cad565b565b611cc133611537565b611d16576040517f08c379a000000000000000000000000000000000000000000000000000000000815260040180806020018281038252602e815260200180613667602e913960400191505060405180910390fd5b6000600860008373ffffffffffffffffffffffffffffffffffffffff1673ffffffffffffffffffffffffffffffffffffffff16815260200190815260200160002060009054906101000a900460ff1690506000600860008473ffffffffffffffffffffffffffffffffffffffff1673ffffffffffffffffffffffffffffffffffffffff16815260200190815260200160002060006101000a81548160ff021916908360ff1602179055503373ffffffffffffffffffffffffffffffffffffffff168160ff168373ffffffffffffffffffffffffffffffffffffffff167fb50a30a0fa972f89fbb2b514d12b31f5a5d64f53603402de7939742cd8507f6e60405160405180910390a45050565b60086020528060005260406000206000915054906101000a900460ff1681565b600080600860008573ffffffffffffffffffffffffffffffffffffffff1673ffffffffffffffffffffffffffffffffffffffff16815260200190815260200160002060009054906101000a900460ff1690506000600860008573ffffffffffffffffffffffffffffffffffffffff1673ffffffffffffffffffffffffffffffffffffffff16815260200190815260200160002060009054906101000a900460ff169050600060ff168260ff161480611f005750600060ff168160ff16145b15611f1057600092505050611f53565b600960008360ff1660ff16815260200190815260200160002060008260ff1660ff16815260200190815260200160002060009054906101000a900460ff16925050505b92915050565b606060018054600181600116156101000203166002900480601f016020809104026020016040519081016040528092919081815260200182805460018160011615610100020316600290048015611ff15780601f10611fc657610100808354040283529160200191611ff1565b820191906000526020600020905b815481529060010190602001808311611fd457829003601f168201915b5050505050905090565b6040518060400160405280601281526020017f556e6b6e6f776e204572726f7220436f6465000000000000000000000000000081525081565b60006120f76120416125af565b846120f28560405180606001604052806025815260200161371a602591396004600061206b6125af565b73ffffffffffffffffffffffffffffffffffffffff1673ffffffffffffffffffffffffffffffffffffffff16815260200190815260200160002060008a73ffffffffffffffffffffffffffffffffffffffff1673ffffffffffffffffffffffffffffffffffffffff16815260200190815260200160002054612d2d9092919063ffffffff16565b6125b7565b6001905092915050565b6000600a60009054906101000a900460ff1615612186576040517f08c379a00000000000000000000000000000000000000000000000000000000081526004018080602001828103825260108152602001807f5061757361626c653a207061757365640000000000000000000000000000000081525060200191505060405180910390fd5b3383836000612196848484612284565b9050600060ff168160ff16146121ab82611ab5565b90612251576040517f08c379a00000000000000000000000000000000000000000000000000000000081526004018080602001828103825283818151815260200191508051906020019080838360005b838110156122165780820151818401526020810190506121fb565b50505050905090810190601f1680156122435780820380516001836020036101000a031916815260200191505b509250505060405180910390fd5b5061225c8787612ded565b94505050505092915050565b6040518060600160405280603c81526020016136de603c913981565b600061228e611554565b61229b57600090506122f4565b6122a483610ed0565b6122b157600190506122f4565b6122ba8461156b565b806122ca57506122c984611537565b5b156122d857600090506122f4565b6122e28484611e42565b6122ef57600190506122f4565b600090505b9392505050565b6123043361156b565b612359576040517f08c379a000000000000000000000000000000000000000000000000000000000815260040180806020018281038252602e81526020018061354b602e913960400191505060405180910390fd5b600a60009054906101000a900460ff16156123dc576040517f08c379a00000000000000000000000000000000000000000000000000000000081526004018080602001828103825260108152602001807f5061757361626c653a207061757365640000000000000000000000000000000081525060200191505060405180910390fd5b6123e4612e0b565b565b6000600460008473ffffffffffffffffffffffffffffffffffffffff1673ffffffffffffffffffffffffffffffffffffffff16815260200190815260200160002060008373ffffffffffffffffffffffffffffffffffffffff1673ffffffffffffffffffffffffffffffffffffffff16815260200190815260200160002054905092915050565b6040518060400160405280600781526020017f535543434553530000000000000000000000000000000000000000000000000081525081565b60096020528160005260406000206020528060005260406000206000915091509054906101000a900460ff1681565b60006124e033611537565b612535576040517f08c379a000000000000000000000000000000000000000000000000000000000815260040180806020018281038252602e815260200180613667602e913960400191505060405180910390fd5b612540833384612ed0565b8273ffffffffffffffffffffffffffffffffffffffff163373ffffffffffffffffffffffffffffffffffffffff167fb698e31a2abee5824d0d7bcfd2339aead7f9e9ae413fba50bf554ff3fa470b7b846040518082815260200191505060405180910390a36001905092915050565b600033905090565b600073ffffffffffffffffffffffffffffffffffffffff168373ffffffffffffffffffffffffffffffffffffffff16141561263d576040517f08c379a00000000000000000000000000000000000000000000000000000000081526004018080602001828103825260248152602001806136ba6024913960400191505060405180910390fd5b600073ffffffffffffffffffffffffffffffffffffffff168273ffffffffffffffffffffffffffffffffffffffff1614156126c3576040517f08c379a00000000000000000000000000000000000000000000000000000000081526004018080602001828103825260228152602001806135036022913960400191505060405180910390fd5b80600460008573ffffffffffffffffffffffffffffffffffffffff1673ffffffffffffffffffffffffffffffffffffffff16815260200190815260200160002060008473ffffffffffffffffffffffffffffffffffffffff1673ffffffffffffffffffffffffffffffffffffffff168152602001908152602001600020819055508173ffffffffffffffffffffffffffffffffffffffff168373ffffffffffffffffffffffffffffffffffffffff167f8c5be1e5ebec7d5bd14f71427d1e84f3dd0314c0f7b2291e5b200ac8c7c3b925836040518082815260200191505060405180910390a3505050565b6127c281600661318a90919063ffffffff16565b3373ffffffffffffffffffffffffffffffffffffffff168173ffffffffffffffffffffffffffffffffffffffff167fe594d081b4382713733fe631966432c9cea5199afb2db5c3c1931f9f9300367960405160405180910390a350565b61283381600761318a90919063ffffffff16565b3373ffffffffffffffffffffffffffffffffffffffff168173ffffffffffffffffffffffffffffffffffffffff167fdb9d5d31320daf5bc7181d565b6da4d12e30f0f4d5aa324a992426c14a1d19ce60405160405180910390a350565b600061289d848484612ed0565b61295e846128a96125af565b612959856040518060600160405280602881526020016135d360289139600460008b73ffffffffffffffffffffffffffffffffffffffff1673ffffffffffffffffffffffffffffffffffffffff168152602001908152602001600020600061290f6125af565b73ffffffffffffffffffffffffffffffffffffffff1673ffffffffffffffffffffffffffffffffffffffff16815260200190815260200160002054612d2d9092919063ffffffff16565b6125b7565b600190509392505050565b60008073ffffffffffffffffffffffffffffffffffffffff168273ffffffffffffffffffffffffffffffffffffffff1614156129f0576040517f08c379a00000000000000000000000000000000000000000000000000000000081526004018080602001828103825260228152602001806135fb6022913960400191505060405180910390fd5b8260000160008373ffffffffffffffffffffffffffffffffffffffff1673ffffffffffffffffffffffffffffffffffffffff16815260200190815260200160002060009054906101000a900460ff16905092915050565b600080828401905083811015612ac5576040517f08c379a000000000000000000000000000000000000000000000000000000000815260040180806020018281038252601b8152602001807f536166654d6174683a206164646974696f6e206f766572666c6f77000000000081525060200191505060405180910390fd5b8091505092915050565b6000600a60006101000a81548160ff0219169083151502179055507f5db9ee0a495bf2e6ff9c91a7834c1ba4fdd244a5e8aa4e537bd38aeae4b073aa33604051808273ffffffffffffffffffffffffffffffffffffffff1673ffffffffffffffffffffffffffffffffffffffff16815260200191505060405180910390a1565b6000612b5b8383613247565b8273ffffffffffffffffffffffffffffffffffffffff168473ffffffffffffffffffffffffffffffffffffffff167fab8530f87dc9b59234c4623bf917212bb2536d647574c8e7e5da92c2ede0c9f8846040518082815260200191505060405180910390a3600190509392505050565b612bdf81600761340490919063ffffffff16565b3373ffffffffffffffffffffffffffffffffffffffff168173ffffffffffffffffffffffffffffffffffffffff167fbf3f493c772c8c283fd124432c2d0f539ab343faa04258fe88e52912d36b102b60405160405180910390a350565b612c5081600661340490919063ffffffff16565b3373ffffffffffffffffffffffffffffffffffffffff168173ffffffffffffffffffffffffffffffffffffffff167fc82bdbbf677a2462f2a7e22e4ba9abd209496b69cd7b868b3b1d28f76e09a40a60405160405180910390a350565b6001600a60006101000a81548160ff0219169083151502179055507f62e78cea01bee320cd4e420270b5ea74000d11b0c9f74754ebdbfc544b05a25833604051808273ffffffffffffffffffffffffffffffffffffffff1673ffffffffffffffffffffffffffffffffffffffff16815260200191505060405180910390a1565b6000838311158290612dda576040517f08c379a00000000000000000000000000000000000000000000000000000000081526004018080602001828103825283818151815260200191508051906020019080838360005b83811015612d9f578082015181840152602081019050612d84565b50505050905090810190601f168015612dcc5780820380516001836020036101000a031916815260200191505b509250505060405180910390fd5b5060008385039050809150509392505050565b6000612e01612dfa6125af565b8484612ed0565b6001905092915050565b600a60019054906101000a900460ff16612e70576040517f08c379a00000000000000000000000000000000000000000000000000000000081526004018080602001828103825260228152602001806136456022913960400191505060405180910390fd5b6000600a60016101000a81548160ff0219169083151502179055503373ffffffffffffffffffffffffffffffffffffffff167f3c13a557aa89734e312c348465096b4ddc97709822675c45090f4e2a8d6c4f2b60405160405180910390a2565b600073ffffffffffffffffffffffffffffffffffffffff168373ffffffffffffffffffffffffffffffffffffffff161415612f56576040517f08c379a00000000000000000000000000000000000000000000000000000000081526004018080602001828103825260258152602001806136956025913960400191505060405180910390fd5b600073ffffffffffffffffffffffffffffffffffffffff168273ffffffffffffffffffffffffffffffffffffffff161415612fdc576040517f08c379a00000000000000000000000000000000000000000000000000000000081526004018080602001828103825260238152602001806134e06023913960400191505060405180910390fd5b6130488160405180606001604052806026815260200161352560269139600360008773ffffffffffffffffffffffffffffffffffffffff1673ffffffffffffffffffffffffffffffffffffffff16815260200190815260200160002054612d2d9092919063ffffffff16565b600360008573ffffffffffffffffffffffffffffffffffffffff1673ffffffffffffffffffffffffffffffffffffffff168152602001908152602001600020819055506130dd81600360008573ffffffffffffffffffffffffffffffffffffffff1673ffffffffffffffffffffffffffffffffffffffff16815260200190815260200160002054612a4790919063ffffffff16565b600360008473ffffffffffffffffffffffffffffffffffffffff1673ffffffffffffffffffffffffffffffffffffffff168152602001908152602001600020819055508173ffffffffffffffffffffffffffffffffffffffff168373ffffffffffffffffffffffffffffffffffffffff167fddf252ad1be2c89b69c2b068fc378daa952ba7f163c4a11628f55a4df523b3ef836040518082815260200191505060405180910390a3505050565b6131948282612969565b6131e9576040517f08c379a00000000000000000000000000000000000000000000000000000000081526004018080602001828103825260218152602001806135796021913960400191505060405180910390fd5b60008260000160008373ffffffffffffffffffffffffffffffffffffffff1673ffffffffffffffffffffffffffffffffffffffff16815260200190815260200160002060006101000a81548160ff0219169083151502179055505050565b600073ffffffffffffffffffffffffffffffffffffffff168273ffffffffffffffffffffffffffffffffffffffff1614156132ea576040517f08c379a000000000000000000000000000000000000000000000000000000000815260040180806020018281038252601f8152602001807f45524332303a206d696e7420746f20746865207a65726f20616464726573730081525060200191505060405180910390fd5b6132ff81600554612a4790919063ffffffff16565b60058190555061335781600360008573ffffffffffffffffffffffffffffffffffffffff1673ffffffffffffffffffffffffffffffffffffffff16815260200190815260200160002054612a4790919063ffffffff16565b600360008473ffffffffffffffffffffffffffffffffffffffff1673ffffffffffffffffffffffffffffffffffffffff168152602001908152602001600020819055508173ffffffffffffffffffffffffffffffffffffffff16600073ffffffffffffffffffffffffffffffffffffffff167fddf252ad1be2c89b69c2b068fc378daa952ba7f163c4a11628f55a4df523b3ef836040518082815260200191505060405180910390a35050565b61340e8282612969565b15613481576040517f08c379a000000000000000000000000000000000000000000000000000000000815260040180806020018281038252601f8152602001807f526f6c65733a206163636f756e7420616c72656164792068617320726f6c650081525060200191505060405180910390fd5b60018260000160008373ffffffffffffffffffffffffffffffffffffffff1673ffffffffffffffffffffffffffffffffffffffff16815260200190815260200160002060006101000a81548160ff021916908315150217905550505056fe45524332303a207472616e7366657220746f20746865207a65726f206164647265737345524332303a20617070726f766520746f20746865207a65726f206164647265737345524332303a207472616e7366657220616d6f756e7420657863656564732062616c616e63654f776e6572526f6c653a2063616c6c657220646f6573206e6f74206861766520746865204f776e657220726f6c65526f6c65733a206163636f756e7420646f6573206e6f74206861766520726f6c655472616e736665722063616e206f6e6c7920626520706175736564207768656e207265737472696374696f6e732061726520656e61626c656445524332303a207472616e7366657220616d6f756e74206578636565647320616c6c6f77616e6365526f6c65733a206163636f756e7420697320746865207a65726f20616464726573734f776e6572732063616e6e6f742072656d6f7665207468656d73656c766573206173206f776e65725265737472696374696f6e732061726520616c72656164792064697361626c65642e41646d696e526f6c653a2063616c6c657220646f6573206e6f742068617665207468652041646d696e20726f6c6545524332303a207472616e736665722066726f6d20746865207a65726f206164647265737345524332303a20617070726f76652066726f6d20746865207a65726f2061646472657373546865207472616e736665722077617320726573747269637465642064756520746f207768697465206c69737420636f6e66696775726174696f6e2e45524332303a2064656372656173656420616c6c6f77616e63652062656c6f77207a65726fa165627a7a7230582036f5a12082c470dfc5da1e386f62a61f4a1bd58e62d083005dc78f010218aeb10029526f6c65733a206163636f756e7420697320746865207a65726f2061646472657373",
  "source": "pragma solidity 0.5.8;\n\nimport \"./ERC1404.sol\";\nimport \"@openzeppelin/contracts/token/ERC20/ERC20Detailed.sol\";\nimport \"./Whitelistable.sol\";\nimport \"./Mintable.sol\";\nimport \"./Revocable.sol\";\nimport \"./Pausable.sol\";\nimport \"./Restrictable.sol\";\ncontract ArcaToken is ERC1404, ERC20Detailed, Whitelistable, Mintable, Revocable, Pausable, Restrictable {\n\n    // Token Details\n    string constant TOKEN_NAME = \"ARCA\";\n    string constant TOKEN_SYMBOL = \"ARCA\";\n    uint8 constant TOKEN_DECIMALS = 18;\n\n    // Token supply - 50 Billion Tokens, with 18 decimal precision\n    uint256 constant BILLION = 1000000000;\n    uint256 constant TOKEN_SUPPLY = 50 * BILLION * (10 ** uint256(TOKEN_DECIMALS));\n\n    // ERC1404 Error codes and messages\n    uint8 public constant SUCCESS_CODE = 0;\n    uint8 public constant FAILURE_NON_WHITELIST = 1;\n    string public constant SUCCESS_MESSAGE = \"SUCCESS\";\n    string public constant FAILURE_NON_WHITELIST_MESSAGE = \"The transfer was restricted due to white list configuration.\";\n    string public constant UNKNOWN_ERROR = \"Unknown Error Code\";\n\n\n    /**\n    Constructor for the token to set readable details and mint all tokens\n    to the specified owner.\n     */\n    constructor(address owner) public\n        ERC20Detailed(TOKEN_NAME, TOKEN_SYMBOL, TOKEN_DECIMALS)\n    {\n        _mint(owner, TOKEN_SUPPLY);\n        _addOwner(owner);\n    }\n\n    /**\n    This function detects whether a transfer should be restricted and not allowed.\n    If the function returns SUCCESS_CODE (0) then it should be allowed.\n     */\n    function detectTransferRestriction (address from, address to, uint256)\n        public\n        view\n        returns (uint8)\n    {\n        // If the restrictions have been disabled by the owner, then just return success\n        // Logic defined in Restrictable parent class\n        if(!isRestrictionEnabled()) {\n            return SUCCESS_CODE;\n        }\n\n        // Confirm that that destination address is either an Owner, Admin, or whitelisted\n        if(!isValidAddress(to)) {\n            return FAILURE_NON_WHITELIST;\n        }\n\n        // If an owner or an admin is transferring, then ignore reistrictions\n        if(isOwner(from) || isAdmin(from)) {\n            return SUCCESS_CODE;\n        }\n\n        // Restrictions are enabled, so verify the whitelist config allows the transfer.\n        // Logic defined in Whitelistable parent class\n        if(!checkWhitelistAllowed(from, to)) {\n            return FAILURE_NON_WHITELIST;\n        }\n\n        // If no restrictions were triggered return success\n        return SUCCESS_CODE;\n    }\n\n    /**\n    This function allows a wallet or other client to get a human readable string to show\n    a user if a transfer was restricted.  It should return enough information for the user\n    to know why it failed.\n     */\n    function messageForTransferRestriction (uint8 restrictionCode)\n        public\n        view\n        returns (string memory)\n    {\n        if (restrictionCode == SUCCESS_CODE) {\n            return SUCCESS_MESSAGE;\n        }\n\n        if (restrictionCode == FAILURE_NON_WHITELIST) {\n            return FAILURE_NON_WHITELIST_MESSAGE;\n        }\n\n        // An unknown error code was passed in.\n        return UNKNOWN_ERROR;\n    }\n\n    /**\n    Evaluates whether a transfer should be allowed or not.\n     */\n    modifier notRestricted (address from, address to, uint256 value) {\n        uint8 restrictionCode = detectTransferRestriction(from, to, value);\n        require(restrictionCode == SUCCESS_CODE, messageForTransferRestriction(restrictionCode));\n        _;\n    }\n\n    /**\n    Public function that enables access to _disableRestrictions to update the enabled flag on restrictions to disabled.\n    Only the owner should be able to call the contract when it is not paused\n    This is a permanent change that cannot be undone\n     */\n    function disableRestrictions() public onlyOwner whenNotPaused {\n        _disableRestrictions();\n    }\n\n    /**\n    Validate that address is one of Owner, Admin, or Whitelisted\n     */\n    function isValidAddress(address _address) public view returns (bool) {\n         return isOwner(_address) || isAdmin(_address) || addressWhitelists[_address] != 0;\n    }\n\n    /**\n     * @dev Called by an Owner to pause, triggers stopped state.\n     */\n    function pause() public onlyOwner whenNotPaused {\n        require(isRestrictionEnabled(), \"Transfer can only be paused when restrictions are enabled\");\n        Pausable._pause();\n    }\n\n    /**\n     * @dev Called by an Owner to unpause, returns to normal state.\n     */\n    function unpause() public onlyOwner whenPaused {\n        Pausable._unpause();\n    }\n\n    /**\n    Allow Owners to mint tokens to valid addresses\n     */\n    function mint(address account, uint256 amount) public onlyOwner returns (bool) {\n        require(isValidAddress(account), \"Can only mint to a valid address\");\n        Mintable.mint(msg.sender, account, amount);\n        return true;\n    }\n\n    /**\n    Overrides the parent class token transfer function to enforce restrictions.\n     */\n    function transfer (address to, uint256 value)\n        public\n        whenNotPaused\n        notRestricted(msg.sender, to, value)\n        returns (bool success)\n    {\n        success = ERC20.transfer(to, value);\n    }\n\n    /**\n    Overrides the parent class token transferFrom function to enforce restrictions.\n     */\n    function transferFrom (address from, address to, uint256 value)\n        public\n        whenNotPaused\n        notRestricted(from, to, value)\n        returns (bool success)\n    {\n        success = ERC20.transferFrom(from, to, value);\n    }\n}\n",
  "sourcePath": "/Users/steve/codes/arca_token/contracts/ArcaToken.sol",
  "compiler": {
    "name": "solc",
    "version": "0.5.8+commit.23d335f2.Emscripten.clang"
  },
  "schemaVersion": "3.0.17",
  "updatedAt": "2019-11-08T22:46:34.676Z",
  "devdoc": {
    "methods": {
      "allowance(address,address)": {
        "details": "See {IERC20-allowance}."
      },
      "approve(address,uint256)": {
        "details": "See {IERC20-approve}.     * Requirements:     * - `spender` cannot be the zero address."
      },
      "balanceOf(address)": {
        "details": "See {IERC20-balanceOf}."
      },
      "decimals()": {
        "details": "Returns the number of decimals used to get its user representation. For example, if `decimals` equals `2`, a balance of `505` tokens should be displayed to a user as `5,05` (`505 / 10 ** 2`).     * Tokens usually opt for a value of 18, imitating the relationship between Ether and Wei.     * NOTE: This information is only used for _display_ purposes: it in no way affects any of the arithmetic of the contract, including {IERC20-balanceOf} and {IERC20-transfer}."
      },
      "decreaseAllowance(address,uint256)": {
        "details": "Atomically decreases the allowance granted to `spender` by the caller.     * This is an alternative to {approve} that can be used as a mitigation for problems described in {IERC20-approve}.     * Emits an {Approval} event indicating the updated allowance.     * Requirements:     * - `spender` cannot be the zero address. - `spender` must have allowance for the caller of at least `subtractedValue`."
      },
      "increaseAllowance(address,uint256)": {
        "details": "Atomically increases the allowance granted to `spender` by the caller.     * This is an alternative to {approve} that can be used as a mitigation for problems described in {IERC20-approve}.     * Emits an {Approval} event indicating the updated allowance.     * Requirements:     * - `spender` cannot be the zero address."
      },
      "name()": {
        "details": "Returns the name of the token."
      },
      "pause()": {
        "details": "Called by an Owner to pause, triggers stopped state."
      },
      "paused()": {
        "details": "Returns true if the contract is paused, and false otherwise."
      },
      "symbol()": {
        "details": "Returns the symbol of the token, usually a shorter version of the name."
      },
      "totalSupply()": {
        "details": "See {IERC20-totalSupply}."
      },
      "unpause()": {
        "details": "Called by an Owner to unpause, returns to normal state."
      }
    }
  },
  "userdoc": {
    "methods": {
      "addToWhitelist(address,uint8)": {
        "notice": "Sets an address's white list ID.  Only administrators should be allowed to update this. If an address is on an existing whitelist, it will just get updated to the new value (removed from previous)."
      },
      "checkWhitelistAllowed(address,address)": {
        "notice": "Determine if the a sender is allowed to send to the receiver. The source whitelist must be enabled to send to the whitelist where the receive exists."
      },
      "constructor": "Constructor for the token to set readable details and mint all tokens to the specified owner.",
      "detectTransferRestriction(address,address,uint256)": {
        "notice": "This function detects whether a transfer should be restricted and not allowed. If the function returns SUCCESS_CODE (0) then it should be allowed."
      },
      "disableRestrictions()": {
        "notice": "Public function that enables access to _disableRestrictions to update the enabled flag on restrictions to disabled. Only the owner should be able to call the contract when it is not paused This is a permanent change that cannot be undone"
      },
      "isRestrictionEnabled()": {
        "notice": "View function to determine if restrictions are enabled"
      },
      "isValidAddress(address)": {
        "notice": "Validate that address is one of Owner, Admin, or Whitelisted"
      },
      "messageForTransferRestriction(uint8)": {
        "notice": "This function allows a wallet or other client to get a human readable string to show a user if a transfer was restricted.  It should return enough information for the user to know why it failed."
      },
      "mint(address,uint256)": {
        "notice": "Allow Owners to mint tokens to valid addresses"
      },
      "removeFromWhitelist(address)": {
        "notice": "Clears out an address's white list ID.  Only administrators should be allowed to update this."
      },
      "transfer(address,uint256)": {
        "notice": "Overrides the parent class token transfer function to enforce restrictions."
      },
      "transferFrom(address,address,uint256)": {
        "notice": "Overrides the parent class token transferFrom function to enforce restrictions."
      },
      "updateOutboundWhitelistEnabled(uint8,uint8,bool)": {
        "notice": "Sets the flag to indicate whether source whitelist is allowed to send to destination whitelist. Only administrators should be allowed to update this."
      }
    }
  }
}