{
  "contractName": "Blacklistable",
  "abi": [
    {
      "anonymous": false,
      "inputs": [
        {
          "indexed": true,
          "internalType": "address",
          "name": "addedAddress",
          "type": "address"
        },
        {
          "indexed": true,
          "internalType": "address",
          "name": "addedBy",
          "type": "address"
        }
      ],
      "name": "AddressAddedToBlacklist",
      "type": "event"
    },
    {
      "anonymous": false,
      "inputs": [
        {
          "indexed": true,
          "internalType": "address",
          "name": "removedAddress",
          "type": "address"
        },
        {
          "indexed": true,
          "internalType": "address",
          "name": "removedBy",
          "type": "address"
        }
      ],
      "name": "AddressRemovedFromBlacklist",
      "type": "event"
    },
    {
      "anonymous": false,
      "inputs": [
        {
          "indexed": true,
          "internalType": "address",
          "name": "updatedBy",
          "type": "address"
        },
        {
          "indexed": true,
          "internalType": "bool",
          "name": "enabled",
          "type": "bool"
        }
      ],
      "name": "BlacklistEnabledUpdated",
      "type": "event"
    },
    {
      "anonymous": false,
      "inputs": [
        {
          "indexed": true,
          "internalType": "address",
          "name": "addedBlacklister",
          "type": "address"
        },
        {
          "indexed": true,
          "internalType": "address",
          "name": "addedBy",
          "type": "address"
        }
      ],
      "name": "BlacklisterAdded",
      "type": "event"
    },
    {
      "anonymous": false,
      "inputs": [
        {
          "indexed": true,
          "internalType": "address",
          "name": "removedBlacklister",
          "type": "address"
        },
        {
          "indexed": true,
          "internalType": "address",
          "name": "removedBy",
          "type": "address"
        }
      ],
      "name": "BlacklisterRemoved",
      "type": "event"
    },
    {
      "anonymous": false,
      "inputs": [
        {
          "indexed": true,
          "internalType": "address",
          "name": "addedOwner",
          "type": "address"
        },
        {
          "indexed": true,
          "internalType": "address",
          "name": "addedBy",
          "type": "address"
        }
      ],
      "name": "OwnerAdded",
      "type": "event"
    },
    {
      "anonymous": false,
      "inputs": [
        {
          "indexed": true,
          "internalType": "address",
          "name": "removedOwner",
          "type": "address"
        },
        {
          "indexed": true,
          "internalType": "address",
          "name": "removedBy",
          "type": "address"
        }
      ],
      "name": "OwnerRemoved",
      "type": "event"
    },
    {
      "constant": false,
      "inputs": [
        {
          "internalType": "address",
          "name": "account",
          "type": "address"
        }
      ],
      "name": "addBlacklister",
      "outputs": [],
      "payable": false,
      "stateMutability": "nonpayable",
      "type": "function"
    },
    {
      "constant": false,
      "inputs": [
        {
          "internalType": "address",
          "name": "account",
          "type": "address"
        }
      ],
      "name": "addOwner",
      "outputs": [],
      "payable": false,
      "stateMutability": "nonpayable",
      "type": "function"
    },
    {
      "constant": true,
      "inputs": [
        {
          "internalType": "address",
          "name": "",
          "type": "address"
        }
      ],
      "name": "addressBlacklists",
      "outputs": [
        {
          "internalType": "bool",
          "name": "",
          "type": "bool"
        }
      ],
      "payable": false,
      "stateMutability": "view",
      "type": "function"
    },
    {
      "constant": true,
      "inputs": [],
      "name": "isBlacklistEnabled",
      "outputs": [
        {
          "internalType": "bool",
          "name": "",
          "type": "bool"
        }
      ],
      "payable": false,
      "stateMutability": "view",
      "type": "function"
    },
    {
      "constant": true,
      "inputs": [
        {
          "internalType": "address",
          "name": "account",
          "type": "address"
        }
      ],
      "name": "isBlacklister",
      "outputs": [
        {
          "internalType": "bool",
          "name": "",
          "type": "bool"
        }
      ],
      "payable": false,
      "stateMutability": "view",
      "type": "function"
    },
    {
      "constant": true,
      "inputs": [
        {
          "internalType": "address",
          "name": "account",
          "type": "address"
        }
      ],
      "name": "isOwner",
      "outputs": [
        {
          "internalType": "bool",
          "name": "",
          "type": "bool"
        }
      ],
      "payable": false,
      "stateMutability": "view",
      "type": "function"
    },
    {
      "constant": false,
      "inputs": [
        {
          "internalType": "address",
          "name": "account",
          "type": "address"
        }
      ],
      "name": "removeBlacklister",
      "outputs": [],
      "payable": false,
      "stateMutability": "nonpayable",
      "type": "function"
    },
    {
      "constant": false,
      "inputs": [
        {
          "internalType": "address",
          "name": "account",
          "type": "address"
        }
      ],
      "name": "removeOwner",
      "outputs": [],
      "payable": false,
      "stateMutability": "nonpayable",
      "type": "function"
    },
    {
      "constant": true,
      "inputs": [
        {
          "internalType": "address",
          "name": "sender",
          "type": "address"
        },
        {
          "internalType": "address",
          "name": "receiver",
          "type": "address"
        }
      ],
      "name": "checkBlacklistAllowed",
      "outputs": [
        {
          "internalType": "bool",
          "name": "",
          "type": "bool"
        }
      ],
      "payable": false,
      "stateMutability": "view",
      "type": "function"
    },
    {
      "constant": false,
      "inputs": [
        {
          "internalType": "bool",
          "name": "enabled",
          "type": "bool"
        }
      ],
      "name": "setBlacklistEnabled",
      "outputs": [],
      "payable": false,
      "stateMutability": "nonpayable",
      "type": "function"
    },
    {
      "constant": false,
      "inputs": [
        {
          "internalType": "address",
          "name": "addressToAdd",
          "type": "address"
        }
      ],
      "name": "addToBlacklist",
      "outputs": [],
      "payable": false,
      "stateMutability": "nonpayable",
      "type": "function"
    },
    {
      "constant": false,
      "inputs": [
        {
          "internalType": "address",
          "name": "addressToRemove",
          "type": "address"
        }
      ],
      "name": "removeFromBlacklist",
      "outputs": [],
      "payable": false,
      "stateMutability": "nonpayable",
      "type": "function"
    }
  ],
  "bytecode": "0x608060405234801561001057600080fd5b50611096806100206000396000f3fe608060405234801561001057600080fd5b50600436106100b45760003560e01c80637bb06eea116100715780637bb06eea14610255578063878dd332146102995780639fcf1007146102bb578063b66cd56c146102ff578063ea72d6ee1461035b578063f2c2b9ae146103b7576100b4565b80631201cbd0146100b9578063173825d9146100e95780632f54bf6e1461012d57806344337ea114610189578063537df3b6146101cd5780637065cb4814610211575b600080fd5b6100e7600480360360208110156100cf57600080fd5b81019080803515159060200190929190505050610433565b005b61012b600480360360208110156100ff57600080fd5b81019080803573ffffffffffffffffffffffffffffffffffffffff16906020019092919050505061049d565b005b61016f6004803603602081101561014357600080fd5b81019080803573ffffffffffffffffffffffffffffffffffffffff169060200190929190505050610507565b604051808215151515815260200191505060405180910390f35b6101cb6004803603602081101561019f57600080fd5b81019080803573ffffffffffffffffffffffffffffffffffffffff169060200190929190505050610524565b005b61020f600480360360208110156101e357600080fd5b81019080803573ffffffffffffffffffffffffffffffffffffffff16906020019092919050505061058e565b005b6102536004803603602081101561022757600080fd5b81019080803573ffffffffffffffffffffffffffffffffffffffff1690602001909291905050506105f8565b005b6102976004803603602081101561026b57600080fd5b81019080803573ffffffffffffffffffffffffffffffffffffffff169060200190929190505050610662565b005b6102a16106cc565b604051808215151515815260200191505060405180910390f35b6102fd600480360360208110156102d157600080fd5b81019080803573ffffffffffffffffffffffffffffffffffffffff1690602001909291905050506106df565b005b6103416004803603602081101561031557600080fd5b81019080803573ffffffffffffffffffffffffffffffffffffffff169060200190929190505050610749565b604051808215151515815260200191505060405180910390f35b61039d6004803603602081101561037157600080fd5b81019080803573ffffffffffffffffffffffffffffffffffffffff169060200190929190505050610766565b604051808215151515815260200191505060405180910390f35b610419600480360360408110156103cd57600080fd5b81019080803573ffffffffffffffffffffffffffffffffffffffff169060200190929190803573ffffffffffffffffffffffffffffffffffffffff169060200190929190505050610786565b604051808215151515815260200191505060405180910390f35b61043c33610507565b610491576040517f08c379a000000000000000000000000000000000000000000000000000000000815260040180806020018281038252602e815260200180610fc6602e913960400191505060405180910390fd5b61049a81610852565b50565b6104a633610507565b6104fb576040517f08c379a000000000000000000000000000000000000000000000000000000000815260040180806020018281038252602e815260200180610fc6602e913960400191505060405180910390fd5b610504816108b5565b50565b600061051d82600061092690919063ffffffff16565b9050919050565b61052d33610749565b610582576040517f08c379a000000000000000000000000000000000000000000000000000000000815260040180806020018281038252603a815260200180610f8c603a913960400191505060405180910390fd5b61058b81610a04565b50565b61059733610749565b6105ec576040517f08c379a000000000000000000000000000000000000000000000000000000000815260040180806020018281038252603a815260200180610f8c603a913960400191505060405180910390fd5b6105f581610b3f565b50565b61060133610507565b610656576040517f08c379a000000000000000000000000000000000000000000000000000000000815260040180806020018281038252602e815260200180610fc6602e913960400191505060405180910390fd5b61065f81610c7a565b50565b61066b33610507565b6106c0576040517f08c379a000000000000000000000000000000000000000000000000000000000815260040180806020018281038252602e815260200180610fc6602e913960400191505060405180910390fd5b6106c981610ceb565b50565b600260009054906101000a900460ff1681565b6106e833610507565b61073d576040517f08c379a000000000000000000000000000000000000000000000000000000000815260040180806020018281038252602e815260200180610fc6602e913960400191505060405180910390fd5b61074681610d5c565b50565b600061075f82600161092690919063ffffffff16565b9050919050565b60036020528060005260406000206000915054906101000a900460ff1681565b6000600260009054906101000a900460ff166107a5576001905061084c565b600360008473ffffffffffffffffffffffffffffffffffffffff1673ffffffffffffffffffffffffffffffffffffffff16815260200190815260200160002060009054906101000a900460ff161580156108495750600360008373ffffffffffffffffffffffffffffffffffffffff1673ffffffffffffffffffffffffffffffffffffffff16815260200190815260200160002060009054906101000a900460ff16155b90505b92915050565b80600260006101000a81548160ff0219169083151502179055508015153373ffffffffffffffffffffffffffffffffffffffff167f0254250bff2b56bce9719dfb6237446b9159bfbe2368f9dfe449d85da99b2be060405160405180910390a350565b6108c9816000610dcd90919063ffffffff16565b3373ffffffffffffffffffffffffffffffffffffffff168173ffffffffffffffffffffffffffffffffffffffff167fe594d081b4382713733fe631966432c9cea5199afb2db5c3c1931f9f9300367960405160405180910390a350565b60008073ffffffffffffffffffffffffffffffffffffffff168273ffffffffffffffffffffffffffffffffffffffff1614156109ad576040517f08c379a00000000000000000000000000000000000000000000000000000000081526004018080602001828103825260228152602001806110156022913960400191505060405180910390fd5b8260000160008373ffffffffffffffffffffffffffffffffffffffff1673ffffffffffffffffffffffffffffffffffffffff16815260200190815260200160002060009054906101000a900460ff16905092915050565b600073ffffffffffffffffffffffffffffffffffffffff168173ffffffffffffffffffffffffffffffffffffffff161415610a8a576040517f08c379a0000000000000000000000000000000000000000000000000000000008152600401808060200182810382526026815260200180610f666026913960400191505060405180910390fd5b6001600360008373ffffffffffffffffffffffffffffffffffffffff1673ffffffffffffffffffffffffffffffffffffffff16815260200190815260200160002060006101000a81548160ff0219169083151502179055503373ffffffffffffffffffffffffffffffffffffffff168173ffffffffffffffffffffffffffffffffffffffff167faf6ebb6594c3be37f747a8a4692decee2e128c133145b92b98391af1e942bb5260405160405180910390a350565b600073ffffffffffffffffffffffffffffffffffffffff168173ffffffffffffffffffffffffffffffffffffffff161415610bc5576040517f08c379a000000000000000000000000000000000000000000000000000000000815260040180806020018281038252602b815260200180611037602b913960400191505060405180910390fd5b6000600360008373ffffffffffffffffffffffffffffffffffffffff1673ffffffffffffffffffffffffffffffffffffffff16815260200190815260200160002060006101000a81548160ff0219169083151502179055503373ffffffffffffffffffffffffffffffffffffffff168173ffffffffffffffffffffffffffffffffffffffff167fc5d633221a999da7b50bad97ddd6cff0c917455d8651123a6433642833252b7c60405160405180910390a350565b610c8e816000610e8a90919063ffffffff16565b3373ffffffffffffffffffffffffffffffffffffffff168173ffffffffffffffffffffffffffffffffffffffff167fc82bdbbf677a2462f2a7e22e4ba9abd209496b69cd7b868b3b1d28f76e09a40a60405160405180910390a350565b610cff816001610e8a90919063ffffffff16565b3373ffffffffffffffffffffffffffffffffffffffff168173ffffffffffffffffffffffffffffffffffffffff167f891e671759c21e48221125d0aa55b5574dc00b3e3225e40f6cb10dde820822ad60405160405180910390a350565b610d70816001610dcd90919063ffffffff16565b3373ffffffffffffffffffffffffffffffffffffffff168173ffffffffffffffffffffffffffffffffffffffff167fc76ab32d91026761e52ef1016d8293a11dbb26424e34581575cefc484d10c6f360405160405180910390a350565b610dd78282610926565b610e2c576040517f08c379a0000000000000000000000000000000000000000000000000000000008152600401808060200182810382526021815260200180610ff46021913960400191505060405180910390fd5b60008260000160008373ffffffffffffffffffffffffffffffffffffffff1673ffffffffffffffffffffffffffffffffffffffff16815260200190815260200160002060006101000a81548160ff0219169083151502179055505050565b610e948282610926565b15610f07576040517f08c379a000000000000000000000000000000000000000000000000000000000815260040180806020018281038252601f8152602001807f526f6c65733a206163636f756e7420616c72656164792068617320726f6c650081525060200191505060405180910390fd5b60018260000160008373ffffffffffffffffffffffffffffffffffffffff1673ffffffffffffffffffffffffffffffffffffffff16815260200190815260200160002060006101000a81548160ff021916908315150217905550505056fe43616e6e6f742061646420616464726573732030783020746f206120426c61636b6c6973742e426c61636b6c6973746572526f6c653a2063616c6c657220646f6573206e6f7420686176652074686520426c61636b6c697374657220726f6c654f776e6572526f6c653a2063616c6c657220646f6573206e6f74206861766520746865204f776e657220726f6c65526f6c65733a206163636f756e7420646f6573206e6f74206861766520726f6c65526f6c65733a206163636f756e7420697320746865207a65726f206164647265737343616e6e6f742072656d6f76652061646472657373203078302066726f6d206120426c61636b6c6973742ea265627a7a72315820196f0e16caa8f230f9dff2468608074f812d42b1c6566e33eddec4a377d500c164736f6c63430005100032",
  "source": "pragma solidity 0.5.16;\n\nimport \"../roles/BlacklisterRole.sol\";\n\n/**\nKeeps track of Blacklists and can check if sender and reciever are configured to allow a transfer.\nOnly administrators can update the Blacklists.\n */\ncontract Blacklistable is BlacklisterRole {\n    // Track whether Blacklisting is enabled\n    bool public isBlacklistEnabled;\n\n    // The mapping to keep track if an address is blacklisted\n    mapping (address => bool) public addressBlacklists;\n\n    // Events to allow tracking add/remove.\n    event AddressAddedToBlacklist(address indexed addedAddress, address indexed addedBy);\n    event AddressRemovedFromBlacklist(address indexed removedAddress, address indexed removedBy);    \n    event BlacklistEnabledUpdated(address indexed updatedBy, bool indexed enabled);\n\n    function _setBlacklistEnabled(bool enabled) internal {\n        isBlacklistEnabled = enabled;\n        emit BlacklistEnabledUpdated(msg.sender, enabled);\n    }\n\n    /**\n    Sets an address's blacklisting status.  Only administrators should be allowed to update this.\n     */\n    function _addToBlacklist(address addressToAdd) internal {\n        // Verify a valid address was passed in\n        require(addressToAdd != address(0), \"Cannot add address 0x0 to a Blacklist.\");\n\n        // Set the address's white list ID\n        addressBlacklists[addressToAdd] = true;\n\n        // Emit the event for new Blacklist\n        emit AddressAddedToBlacklist(addressToAdd, msg.sender);\n    }\n\n    /**\n    Clears out an address from the blacklist.  Only administrators should be allowed to update this.\n     */\n    function _removeFromBlacklist(address addressToRemove) internal {\n        // Verify a valid address was passed in\n        require(addressToRemove != address(0), \"Cannot remove address 0x0 from a Blacklist.\");\n        \n        // Zero out the previous white list\n        addressBlacklists[addressToRemove] = false;\n\n        // Emit the event for tracking\n        emit AddressRemovedFromBlacklist(addressToRemove, msg.sender);\n    }\n\n\n    /**\n    Determine if the a sender is allowed to send to the receiver.\n    If either the sender or receiver is blacklisted, then the transfer should be denied\n     */\n    function checkBlacklistAllowed(address sender, address receiver) public view returns (bool) {\n        // If Blacklist enforcement is not enabled, then allow all\n        if(!isBlacklistEnabled){\n            return true;\n        }\n\n        // If either address is on the blacklist then fail\n        return !addressBlacklists[sender] && !addressBlacklists[receiver];\n    }\n\n    /**\n     * Enable or disable the Blacklist enforcement\n     */\n    function setBlacklistEnabled(bool enabled) public onlyOwner {\n        _setBlacklistEnabled(enabled);\n    }\n\n    /**\n    Public function that allows admins to remove an address from a Blacklist\n     */\n    function addToBlacklist(address addressToAdd) public onlyBlacklister {\n        _addToBlacklist(addressToAdd);\n    }\n\n    /**\n    Public function that allows admins to remove an address from a Blacklist\n     */\n    function removeFromBlacklist(address addressToRemove) public onlyBlacklister {\n        _removeFromBlacklist(addressToRemove);\n    }\n}",
  "sourcePath": "/Users/james/Source/tokensoft/tokensoft_token/contracts/capabilities/Blacklistable.sol",
  "compiler": {
    "name": "solc",
    "version": "0.5.16+commit.9c3226ce.Emscripten.clang"
  },
  "schemaVersion": "3.1.0",
  "updatedAt": "2020-10-29T21:29:27.073Z",
  "devdoc": {
    "methods": {}
  },
  "userdoc": {
    "methods": {
      "addToBlacklist(address)": {
        "notice": "Public function that allows admins to remove an address from a Blacklist"
      },
      "checkBlacklistAllowed(address,address)": {
        "notice": "Determine if the a sender is allowed to send to the receiver. If either the sender or receiver is blacklisted, then the transfer should be denied"
      },
      "removeFromBlacklist(address)": {
        "notice": "Public function that allows admins to remove an address from a Blacklist"
      },
      "setBlacklistEnabled(bool)": {
        "notice": "Enable or disable the Blacklist enforcement"
      }
    },
    "notice": "Keeps track of Blacklists and can check if sender and reciever are configured to allow a transfer. Only administrators can update the Blacklists."
  }
}