{
  "contractName": "Blacklistable",
  "abi": [
    {
      "anonymous": false,
      "inputs": [
        {
          "indexed": true,
          "internalType": "address",
          "name": "addedAddress",
          "type": "address"
        },
        {
          "indexed": true,
          "internalType": "address",
          "name": "addedBy",
          "type": "address"
        }
      ],
      "name": "AddressAddedToBlacklist",
      "type": "event"
    },
    {
      "anonymous": false,
      "inputs": [
        {
          "indexed": true,
          "internalType": "address",
          "name": "removedAddress",
          "type": "address"
        },
        {
          "indexed": true,
          "internalType": "address",
          "name": "removedBy",
          "type": "address"
        }
      ],
      "name": "AddressRemovedFromBlacklist",
      "type": "event"
    },
    {
      "anonymous": false,
      "inputs": [
        {
          "indexed": true,
          "internalType": "address",
          "name": "updatedBy",
          "type": "address"
        },
        {
          "indexed": true,
          "internalType": "bool",
          "name": "enabled",
          "type": "bool"
        }
      ],
      "name": "BlacklistEnabledUpdated",
      "type": "event"
    },
    {
      "anonymous": false,
      "inputs": [
        {
          "indexed": true,
          "internalType": "address",
          "name": "addedBlacklister",
          "type": "address"
        },
        {
          "indexed": true,
          "internalType": "address",
          "name": "addedBy",
          "type": "address"
        }
      ],
      "name": "BlacklisterAdded",
      "type": "event"
    },
    {
      "anonymous": false,
      "inputs": [
        {
          "indexed": true,
          "internalType": "address",
          "name": "removedBlacklister",
          "type": "address"
        },
        {
          "indexed": true,
          "internalType": "address",
          "name": "removedBy",
          "type": "address"
        }
      ],
      "name": "BlacklisterRemoved",
      "type": "event"
    },
    {
      "anonymous": false,
      "inputs": [
        {
          "indexed": true,
          "internalType": "address",
          "name": "addedOwner",
          "type": "address"
        },
        {
          "indexed": true,
          "internalType": "address",
          "name": "addedBy",
          "type": "address"
        }
      ],
      "name": "OwnerAdded",
      "type": "event"
    },
    {
      "anonymous": false,
      "inputs": [
        {
          "indexed": true,
          "internalType": "address",
          "name": "removedOwner",
          "type": "address"
        },
        {
          "indexed": true,
          "internalType": "address",
          "name": "removedBy",
          "type": "address"
        }
      ],
      "name": "OwnerRemoved",
      "type": "event"
    },
    {
      "inputs": [
        {
          "internalType": "address",
          "name": "account",
          "type": "address"
        }
      ],
      "name": "addBlacklister",
      "outputs": [],
      "stateMutability": "nonpayable",
      "type": "function"
    },
    {
      "inputs": [
        {
          "internalType": "address",
          "name": "account",
          "type": "address"
        }
      ],
      "name": "addOwner",
      "outputs": [],
      "stateMutability": "nonpayable",
      "type": "function"
    },
    {
      "inputs": [
        {
          "internalType": "address",
          "name": "",
          "type": "address"
        }
      ],
      "name": "addressBlacklists",
      "outputs": [
        {
          "internalType": "bool",
          "name": "",
          "type": "bool"
        }
      ],
      "stateMutability": "view",
      "type": "function"
    },
    {
      "inputs": [],
      "name": "isBlacklistEnabled",
      "outputs": [
        {
          "internalType": "bool",
          "name": "",
          "type": "bool"
        }
      ],
      "stateMutability": "view",
      "type": "function"
    },
    {
      "inputs": [
        {
          "internalType": "address",
          "name": "account",
          "type": "address"
        }
      ],
      "name": "isBlacklister",
      "outputs": [
        {
          "internalType": "bool",
          "name": "",
          "type": "bool"
        }
      ],
      "stateMutability": "view",
      "type": "function"
    },
    {
      "inputs": [
        {
          "internalType": "address",
          "name": "account",
          "type": "address"
        }
      ],
      "name": "isOwner",
      "outputs": [
        {
          "internalType": "bool",
          "name": "",
          "type": "bool"
        }
      ],
      "stateMutability": "view",
      "type": "function"
    },
    {
      "inputs": [
        {
          "internalType": "address",
          "name": "account",
          "type": "address"
        }
      ],
      "name": "removeBlacklister",
      "outputs": [],
      "stateMutability": "nonpayable",
      "type": "function"
    },
    {
      "inputs": [
        {
          "internalType": "address",
          "name": "account",
          "type": "address"
        }
      ],
      "name": "removeOwner",
      "outputs": [],
      "stateMutability": "nonpayable",
      "type": "function"
    },
    {
      "inputs": [
        {
          "internalType": "address",
          "name": "sender",
          "type": "address"
        },
        {
          "internalType": "address",
          "name": "receiver",
          "type": "address"
        }
      ],
      "name": "checkBlacklistAllowed",
      "outputs": [
        {
          "internalType": "bool",
          "name": "",
          "type": "bool"
        }
      ],
      "stateMutability": "view",
      "type": "function"
    },
    {
      "inputs": [
        {
          "internalType": "bool",
          "name": "enabled",
          "type": "bool"
        }
      ],
      "name": "setBlacklistEnabled",
      "outputs": [],
      "stateMutability": "nonpayable",
      "type": "function"
    },
    {
      "inputs": [
        {
          "internalType": "address",
          "name": "addressToAdd",
          "type": "address"
        }
      ],
      "name": "addToBlacklist",
      "outputs": [],
      "stateMutability": "nonpayable",
      "type": "function"
    },
    {
      "inputs": [
        {
          "internalType": "address",
          "name": "addressToRemove",
          "type": "address"
        }
      ],
      "name": "removeFromBlacklist",
      "outputs": [],
      "stateMutability": "nonpayable",
      "type": "function"
    }
  ],
  "bytecode": "0x608060405234801561001057600080fd5b50610ad8806100206000396000f3fe608060405234801561001057600080fd5b50600436106100b45760003560e01c80637bb06eea116100715780637bb06eea146101ac578063878dd332146101d25780639fcf1007146101da578063b66cd56c14610200578063ea72d6ee14610226578063f2c2b9ae1461024c576100b4565b80631201cbd0146100b9578063173825d9146100da5780632f54bf6e1461010057806344337ea11461013a578063537df3b6146101605780637065cb4814610186575b600080fd5b6100d8600480360360208110156100cf57600080fd5b5035151561027a565b005b6100d8600480360360208110156100f057600080fd5b50356001600160a01b03166102ca565b6101266004803603602081101561011657600080fd5b50356001600160a01b0316610317565b604080519115158252519081900360200190f35b6100d86004803603602081101561015057600080fd5b50356001600160a01b0316610329565b6100d86004803603602081101561017657600080fd5b50356001600160a01b0316610386565b6100d86004803603602081101561019c57600080fd5b50356001600160a01b03166103e3565b6100d8600480360360208110156101c257600080fd5b50356001600160a01b0316610430565b61012661047d565b6100d8600480360360208110156101f057600080fd5b50356001600160a01b0316610486565b6101266004803603602081101561021657600080fd5b50356001600160a01b03166104d3565b6101266004803603602081101561023c57600080fd5b50356001600160a01b03166104e0565b6101266004803603604081101561026257600080fd5b506001600160a01b03813581169160200135166104f5565b61028333610317565b6102be5760405162461bcd60e51b815260040180806020018281038252602e815260200180610a32602e913960400191505060405180910390fd5b6102c781610553565b50565b6102d333610317565b61030e5760405162461bcd60e51b815260040180806020018281038252602e815260200180610a32602e913960400191505060405180910390fd5b6102c781610592565b600061032381836105d6565b92915050565b610332336104d3565b61037d576040805162461bcd60e51b8152602060048201526017602482015276426c61636b6c6973746572526f6c65206d697373696e6760481b604482015290519081900360640190fd5b6102c78161063d565b61038f336104d3565b6103da576040805162461bcd60e51b8152602060048201526017602482015276426c61636b6c6973746572526f6c65206d697373696e6760481b604482015290519081900360640190fd5b6102c781610737565b6103ec33610317565b6104275760405162461bcd60e51b815260040180806020018281038252602e815260200180610a32602e913960400191505060405180910390fd5b6102c78161082c565b61043933610317565b6104745760405162461bcd60e51b815260040180806020018281038252602e815260200180610a32602e913960400191505060405180910390fd5b6102c781610870565b60025460ff1681565b61048f33610317565b6104ca5760405162461bcd60e51b815260040180806020018281038252602e815260200180610a32602e913960400191505060405180910390fd5b6102c7816108b4565b60006103236001836105d6565b60036020526000908152604090205460ff1681565b60025460009060ff1661050a57506001610323565b6001600160a01b03831660009081526003602052604090205460ff1615801561054c57506001600160a01b03821660009081526003602052604090205460ff16155b9392505050565b6002805460ff191682151590811790915560405133907f0254250bff2b56bce9719dfb6237446b9159bfbe2368f9dfe449d85da99b2be090600090a350565b61059d6000826108f8565b60405133906001600160a01b038316907fe594d081b4382713733fe631966432c9cea5199afb2db5c3c1931f9f9300367990600090a350565b60006001600160a01b03821661061d5760405162461bcd60e51b8152600401808060200182810382526022815260200180610a816022913960400191505060405180910390fd5b506001600160a01b03166000908152602091909152604090205460ff1690565b6001600160a01b038116610689576040805162461bcd60e51b815260206004820152600e60248201526d043616e6e6f7420616464203078360941b604482015290519081900360640190fd5b6001600160a01b03811660009081526003602052604090205460ff16156106e9576040805162461bcd60e51b815260206004820152600f60248201526e105b1c9958591e481bdb881b1a5cdd608a1b604482015290519081900360640190fd5b6001600160a01b038116600081815260036020526040808220805460ff19166001179055513392917faf6ebb6594c3be37f747a8a4692decee2e128c133145b92b98391af1e942bb5291a350565b6001600160a01b038116610786576040805162461bcd60e51b8152602060048201526011602482015270043616e6e6f742072656d6f76652030783607c1b604482015290519081900360640190fd5b6001600160a01b03811660009081526003602052604090205460ff166107e1576040805162461bcd60e51b815260206004820152600b60248201526a139bdd081bdb881b1a5cdd60aa1b604482015290519081900360640190fd5b6001600160a01b038116600081815260036020526040808220805460ff19169055513392917fc5d633221a999da7b50bad97ddd6cff0c917455d8651123a6433642833252b7c91a350565b61083760008261095f565b60405133906001600160a01b038316907fc82bdbbf677a2462f2a7e22e4ba9abd209496b69cd7b868b3b1d28f76e09a40a90600090a350565b61087b60018261095f565b60405133906001600160a01b038316907f891e671759c21e48221125d0aa55b5574dc00b3e3225e40f6cb10dde820822ad90600090a350565b6108bf6001826108f8565b60405133906001600160a01b038316907fc76ab32d91026761e52ef1016d8293a11dbb26424e34581575cefc484d10c6f390600090a350565b61090282826105d6565b61093d5760405162461bcd60e51b8152600401808060200182810382526021815260200180610a606021913960400191505060405180910390fd5b6001600160a01b0316600090815260209190915260409020805460ff19169055565b6001600160a01b0381166109b0576040805162461bcd60e51b8152602060048201526013602482015272496e76616c696420307830206164647265737360681b604482015290519081900360640190fd5b6109ba82826105d6565b15610a0c576040805162461bcd60e51b815260206004820152601f60248201527f526f6c65733a206163636f756e7420616c72656164792068617320726f6c6500604482015290519081900360640190fd5b6001600160a01b0316600090815260209190915260409020805460ff1916600117905556fe4f776e6572526f6c653a2063616c6c657220646f6573206e6f74206861766520746865204f776e657220726f6c65526f6c65733a206163636f756e7420646f6573206e6f74206861766520726f6c65526f6c65733a206163636f756e7420697320746865207a65726f2061646472657373a2646970667358221220aa4faad8a44ac58d56eac2a5be6608d6bcbb143808b97f5e87f66830c511899464736f6c634300060c0033",
  "immutableReferences": {},
  "source": "pragma solidity 0.6.12;\n\nimport \"../roles/BlacklisterRole.sol\";\n\n/**\nKeeps track of Blacklists and can check if sender and reciever are configured to allow a transfer.\nOnly administrators can update the Blacklists.\n */\ncontract Blacklistable is BlacklisterRole {\n    // Track whether Blacklisting is enabled\n    bool public isBlacklistEnabled;\n\n    // The mapping to keep track if an address is blacklisted\n    mapping (address => bool) public addressBlacklists;\n\n    // Events to allow tracking add/remove.\n    event AddressAddedToBlacklist(address indexed addedAddress, address indexed addedBy);\n    event AddressRemovedFromBlacklist(address indexed removedAddress, address indexed removedBy);    \n    event BlacklistEnabledUpdated(address indexed updatedBy, bool indexed enabled);\n\n    function _setBlacklistEnabled(bool enabled) internal {\n        isBlacklistEnabled = enabled;\n        emit BlacklistEnabledUpdated(msg.sender, enabled);\n    }\n\n    /**\n    Sets an address's blacklisting status.  Only administrators should be allowed to update this.\n     */\n    function _addToBlacklist(address addressToAdd) internal {\n        // Verify a valid address was passed in\n        require(addressToAdd != address(0), \"Cannot add 0x0\");\n\n        // Verify the address is on the blacklist before it can be removed\n        require(!addressBlacklists[addressToAdd], \"Already on list\");\n\n        // Set the address's white list ID\n        addressBlacklists[addressToAdd] = true;\n\n        // Emit the event for new Blacklist\n        emit AddressAddedToBlacklist(addressToAdd, msg.sender);\n    }\n\n    /**\n    Clears out an address from the blacklist.  Only administrators should be allowed to update this.\n     */\n    function _removeFromBlacklist(address addressToRemove) internal {\n        // Verify a valid address was passed in\n        require(addressToRemove != address(0), \"Cannot remove 0x0\");\n\n        // Verify the address is on the blacklist before it can be removed\n        require(addressBlacklists[addressToRemove], \"Not on list\");\n        \n        // Zero out the previous white list\n        addressBlacklists[addressToRemove] = false;\n\n        // Emit the event for tracking\n        emit AddressRemovedFromBlacklist(addressToRemove, msg.sender);\n    }\n\n\n    /**\n    Determine if the a sender is allowed to send to the receiver.\n    If either the sender or receiver is blacklisted, then the transfer should be denied\n     */\n    function checkBlacklistAllowed(address sender, address receiver) public view returns (bool) {\n        // If Blacklist enforcement is not enabled, then allow all\n        if(!isBlacklistEnabled){\n            return true;\n        }\n\n        // If either address is on the blacklist then fail\n        return !addressBlacklists[sender] && !addressBlacklists[receiver];\n    }\n\n    /**\n     * Enable or disable the Blacklist enforcement\n     */\n    function setBlacklistEnabled(bool enabled) public onlyOwner {\n        _setBlacklistEnabled(enabled);\n    }\n\n    /**\n    Public function that allows admins to remove an address from a Blacklist\n     */\n    function addToBlacklist(address addressToAdd) public onlyBlacklister {\n        _addToBlacklist(addressToAdd);\n    }\n\n    /**\n    Public function that allows admins to remove an address from a Blacklist\n     */\n    function removeFromBlacklist(address addressToRemove) public onlyBlacklister {\n        _removeFromBlacklist(addressToRemove);\n    }\n}",
  "sourcePath": "/Users/james/Source/tokensoft/tokensoft_token/contracts/capabilities/Blacklistable.sol",
  "compiler": {
    "name": "solc",
    "version": "0.6.12+commit.27d51765.Emscripten.clang"
  },
  "schemaVersion": "3.3.1",
  "updatedAt": "2020-12-09T02:03:40.419Z",
  "devdoc": {
    "kind": "dev",
    "methods": {},
    "version": 1
  },
  "userdoc": {
    "kind": "user",
    "methods": {
      "addToBlacklist(address)": {
        "notice": "Public function that allows admins to remove an address from a Blacklist"
      },
      "checkBlacklistAllowed(address,address)": {
        "notice": "Determine if the a sender is allowed to send to the receiver. If either the sender or receiver is blacklisted, then the transfer should be denied"
      },
      "removeFromBlacklist(address)": {
        "notice": "Public function that allows admins to remove an address from a Blacklist"
      },
      "setBlacklistEnabled(bool)": {
        "notice": "Enable or disable the Blacklist enforcement"
      }
    },
    "notice": "Keeps track of Blacklists and can check if sender and reciever are configured to allow a transfer. Only administrators can update the Blacklists.",
    "version": 1
  }
}