{
  "contractName": "Burnable",
  "abi": [
    {
      "anonymous": false,
      "inputs": [
        {
          "indexed": true,
          "internalType": "address",
          "name": "owner",
          "type": "address"
        },
        {
          "indexed": true,
          "internalType": "address",
          "name": "spender",
          "type": "address"
        },
        {
          "indexed": false,
          "internalType": "uint256",
          "name": "value",
          "type": "uint256"
        }
      ],
      "name": "Approval",
      "type": "event"
    },
    {
      "anonymous": false,
      "inputs": [
        {
          "indexed": true,
          "internalType": "address",
          "name": "burner",
          "type": "address"
        },
        {
          "indexed": true,
          "internalType": "address",
          "name": "from",
          "type": "address"
        },
        {
          "indexed": false,
          "internalType": "uint256",
          "name": "amount",
          "type": "uint256"
        }
      ],
      "name": "Burn",
      "type": "event"
    },
    {
      "anonymous": false,
      "inputs": [
        {
          "indexed": true,
          "internalType": "address",
          "name": "addedBurner",
          "type": "address"
        },
        {
          "indexed": true,
          "internalType": "address",
          "name": "addedBy",
          "type": "address"
        }
      ],
      "name": "BurnerAdded",
      "type": "event"
    },
    {
      "anonymous": false,
      "inputs": [
        {
          "indexed": true,
          "internalType": "address",
          "name": "removedBurner",
          "type": "address"
        },
        {
          "indexed": true,
          "internalType": "address",
          "name": "removedBy",
          "type": "address"
        }
      ],
      "name": "BurnerRemoved",
      "type": "event"
    },
    {
      "anonymous": false,
      "inputs": [
        {
          "indexed": true,
          "internalType": "address",
          "name": "addedOwner",
          "type": "address"
        },
        {
          "indexed": true,
          "internalType": "address",
          "name": "addedBy",
          "type": "address"
        }
      ],
      "name": "OwnerAdded",
      "type": "event"
    },
    {
      "anonymous": false,
      "inputs": [
        {
          "indexed": true,
          "internalType": "address",
          "name": "removedOwner",
          "type": "address"
        },
        {
          "indexed": true,
          "internalType": "address",
          "name": "removedBy",
          "type": "address"
        }
      ],
      "name": "OwnerRemoved",
      "type": "event"
    },
    {
      "anonymous": false,
      "inputs": [
        {
          "indexed": true,
          "internalType": "address",
          "name": "from",
          "type": "address"
        },
        {
          "indexed": true,
          "internalType": "address",
          "name": "to",
          "type": "address"
        },
        {
          "indexed": false,
          "internalType": "uint256",
          "name": "value",
          "type": "uint256"
        }
      ],
      "name": "Transfer",
      "type": "event"
    },
    {
      "inputs": [
        {
          "internalType": "address",
          "name": "account",
          "type": "address"
        }
      ],
      "name": "addBurner",
      "outputs": [],
      "stateMutability": "nonpayable",
      "type": "function"
    },
    {
      "inputs": [
        {
          "internalType": "address",
          "name": "account",
          "type": "address"
        }
      ],
      "name": "addOwner",
      "outputs": [],
      "stateMutability": "nonpayable",
      "type": "function"
    },
    {
      "inputs": [
        {
          "internalType": "address",
          "name": "owner",
          "type": "address"
        },
        {
          "internalType": "address",
          "name": "spender",
          "type": "address"
        }
      ],
      "name": "allowance",
      "outputs": [
        {
          "internalType": "uint256",
          "name": "",
          "type": "uint256"
        }
      ],
      "stateMutability": "view",
      "type": "function"
    },
    {
      "inputs": [
        {
          "internalType": "address",
          "name": "spender",
          "type": "address"
        },
        {
          "internalType": "uint256",
          "name": "amount",
          "type": "uint256"
        }
      ],
      "name": "approve",
      "outputs": [
        {
          "internalType": "bool",
          "name": "",
          "type": "bool"
        }
      ],
      "stateMutability": "nonpayable",
      "type": "function"
    },
    {
      "inputs": [
        {
          "internalType": "address",
          "name": "account",
          "type": "address"
        }
      ],
      "name": "balanceOf",
      "outputs": [
        {
          "internalType": "uint256",
          "name": "",
          "type": "uint256"
        }
      ],
      "stateMutability": "view",
      "type": "function"
    },
    {
      "inputs": [
        {
          "internalType": "address",
          "name": "spender",
          "type": "address"
        },
        {
          "internalType": "uint256",
          "name": "subtractedValue",
          "type": "uint256"
        }
      ],
      "name": "decreaseAllowance",
      "outputs": [
        {
          "internalType": "bool",
          "name": "",
          "type": "bool"
        }
      ],
      "stateMutability": "nonpayable",
      "type": "function"
    },
    {
      "inputs": [
        {
          "internalType": "address",
          "name": "spender",
          "type": "address"
        },
        {
          "internalType": "uint256",
          "name": "addedValue",
          "type": "uint256"
        }
      ],
      "name": "increaseAllowance",
      "outputs": [
        {
          "internalType": "bool",
          "name": "",
          "type": "bool"
        }
      ],
      "stateMutability": "nonpayable",
      "type": "function"
    },
    {
      "inputs": [
        {
          "internalType": "address",
          "name": "account",
          "type": "address"
        }
      ],
      "name": "isBurner",
      "outputs": [
        {
          "internalType": "bool",
          "name": "",
          "type": "bool"
        }
      ],
      "stateMutability": "view",
      "type": "function"
    },
    {
      "inputs": [
        {
          "internalType": "address",
          "name": "account",
          "type": "address"
        }
      ],
      "name": "isOwner",
      "outputs": [
        {
          "internalType": "bool",
          "name": "",
          "type": "bool"
        }
      ],
      "stateMutability": "view",
      "type": "function"
    },
    {
      "inputs": [
        {
          "internalType": "address",
          "name": "account",
          "type": "address"
        }
      ],
      "name": "removeBurner",
      "outputs": [],
      "stateMutability": "nonpayable",
      "type": "function"
    },
    {
      "inputs": [
        {
          "internalType": "address",
          "name": "account",
          "type": "address"
        }
      ],
      "name": "removeOwner",
      "outputs": [],
      "stateMutability": "nonpayable",
      "type": "function"
    },
    {
      "inputs": [],
      "name": "totalSupply",
      "outputs": [
        {
          "internalType": "uint256",
          "name": "",
          "type": "uint256"
        }
      ],
      "stateMutability": "view",
      "type": "function"
    },
    {
      "inputs": [
        {
          "internalType": "address",
          "name": "recipient",
          "type": "address"
        },
        {
          "internalType": "uint256",
          "name": "amount",
          "type": "uint256"
        }
      ],
      "name": "transfer",
      "outputs": [
        {
          "internalType": "bool",
          "name": "",
          "type": "bool"
        }
      ],
      "stateMutability": "nonpayable",
      "type": "function"
    },
    {
      "inputs": [
        {
          "internalType": "address",
          "name": "sender",
          "type": "address"
        },
        {
          "internalType": "address",
          "name": "recipient",
          "type": "address"
        },
        {
          "internalType": "uint256",
          "name": "amount",
          "type": "uint256"
        }
      ],
      "name": "transferFrom",
      "outputs": [
        {
          "internalType": "bool",
          "name": "",
          "type": "bool"
        }
      ],
      "stateMutability": "nonpayable",
      "type": "function"
    },
    {
      "inputs": [
        {
          "internalType": "address",
          "name": "account",
          "type": "address"
        },
        {
          "internalType": "uint256",
          "name": "amount",
          "type": "uint256"
        }
      ],
      "name": "burn",
      "outputs": [
        {
          "internalType": "bool",
          "name": "",
          "type": "bool"
        }
      ],
      "stateMutability": "nonpayable",
      "type": "function"
    }
  ],
  "bytecode": "0x608060405234801561001057600080fd5b5061106e806100206000396000f3fe608060405234801561001057600080fd5b50600436106100f55760003560e01c80634334614a11610097578063a457c2d711610066578063a457c2d7146102c8578063a9059cbb146102f4578063dd62ed3e14610320578063f44637ba1461034e576100f5565b80634334614a1461022a5780637065cb481461025057806370a08231146102765780639dc29fac1461029c576100f5565b806318160ddd116100d357806318160ddd1461018857806323b872dd146101a25780632f54bf6e146101d857806339509351146101fe576100f5565b806302846858146100fa578063095ea7b314610122578063173825d914610162575b600080fd5b6101206004803603602081101561011057600080fd5b50356001600160a01b0316610374565b005b61014e6004803603604081101561013857600080fd5b506001600160a01b0381351690602001356103c4565b604080519115158252519081900360200190f35b6101206004803603602081101561017857600080fd5b50356001600160a01b03166103e1565b61019061042e565b60408051918252519081900360200190f35b61014e600480360360608110156101b857600080fd5b506001600160a01b03813581169160208101359091169060400135610434565b61014e600480360360208110156101ee57600080fd5b50356001600160a01b03166104bb565b61014e6004803603604081101561021457600080fd5b506001600160a01b0381351690602001356104ce565b61014e6004803603602081101561024057600080fd5b50356001600160a01b031661051c565b6101206004803603602081101561026657600080fd5b50356001600160a01b0316610529565b6101906004803603602081101561028c57600080fd5b50356001600160a01b0316610576565b61014e600480360360408110156102b257600080fd5b506001600160a01b038135169060200135610591565b61014e600480360360408110156102de57600080fd5b506001600160a01b0381351690602001356105e9565b61014e6004803603604081101561030a57600080fd5b506001600160a01b038135169060200135610651565b6101906004803603604081101561033657600080fd5b506001600160a01b0381358116916020013516610665565b6101206004803603602081101561036457600080fd5b50356001600160a01b0316610690565b61037d336104bb565b6103b85760405162461bcd60e51b815260040180806020018281038252602e815260200180610f11602e913960400191505060405180910390fd5b6103c1816106dd565b50565b60006103d86103d1610721565b8484610725565b50600192915050565b6103ea336104bb565b6104255760405162461bcd60e51b815260040180806020018281038252602e815260200180610f11602e913960400191505060405180910390fd5b6103c181610811565b60355490565b6000610441848484610855565b6104b18461044d610721565b6104ac85604051806060016040528060288152602001610f60602891396001600160a01b038a1660009081526034602052604081209061048b610721565b6001600160a01b0316815260208101919091526040016000205491906109a7565b610725565b5060019392505050565b60006104c8606883610a3e565b92915050565b60006103d86104db610721565b846104ac85603460006104ec610721565b6001600160a01b03908116825260208083019390935260409182016000908120918c168152925290205490610aa5565b60006104c8606983610a3e565b610532336104bb565b61056d5760405162461bcd60e51b815260040180806020018281038252602e815260200180610f11602e913960400191505060405180910390fd5b6103c181610aff565b6001600160a01b031660009081526033602052604090205490565b600061059c3361051c565b6105d75760405162461bcd60e51b8152600401808060200182810382526030815260200180610ee16030913960400191505060405180910390fd5b6105e2338484610b43565b9392505050565b60006103d86105f6610721565b846104ac856040518060600160405280602581526020016110146025913960346000610620610721565b6001600160a01b03908116825260208083019390935260409182016000908120918d168152925290205491906109a7565b60006103d861065e610721565b8484610855565b6001600160a01b03918216600090815260346020908152604080832093909416825291909152205490565b610699336104bb565b6106d45760405162461bcd60e51b815260040180806020018281038252602e815260200180610f11602e913960400191505060405180910390fd5b6103c181610ba4565b6106e8606982610be8565b60405133906001600160a01b038316907f85222465e0d438163a28671b59fc9ebeb03bf39f880ddd36c8315da7512b31c090600090a350565b3390565b6001600160a01b03831661076a5760405162461bcd60e51b8152600401808060200182810382526024815260200180610ff06024913960400191505060405180910390fd5b6001600160a01b0382166107af5760405162461bcd60e51b8152600401808060200182810382526022815260200180610e996022913960400191505060405180910390fd5b6001600160a01b03808416600081815260346020908152604080832094871680845294825291829020859055815185815291517f8c5be1e5ebec7d5bd14f71427d1e84f3dd0314c0f7b2291e5b200ac8c7c3b9259281900390910190a3505050565b61081c606882610be8565b60405133906001600160a01b038316907fe594d081b4382713733fe631966432c9cea5199afb2db5c3c1931f9f9300367990600090a350565b6001600160a01b03831661089a5760405162461bcd60e51b8152600401808060200182810382526025815260200180610fcb6025913960400191505060405180910390fd5b6001600160a01b0382166108df5760405162461bcd60e51b8152600401808060200182810382526023815260200180610e546023913960400191505060405180910390fd5b61091c81604051806060016040528060268152602001610ebb602691396001600160a01b03861660009081526033602052604090205491906109a7565b6001600160a01b03808516600090815260336020526040808220939093559084168152205461094b9082610aa5565b6001600160a01b0380841660008181526033602090815260409182902094909455805185815290519193928716927fddf252ad1be2c89b69c2b068fc378daa952ba7f163c4a11628f55a4df523b3ef92918290030190a3505050565b60008184841115610a365760405162461bcd60e51b81526004018080602001828103825283818151815260200191508051906020019080838360005b838110156109fb5781810151838201526020016109e3565b50505050905090810190601f168015610a285780820380516001836020036101000a031916815260200191505b509250505060405180910390fd5b505050900390565b60006001600160a01b038216610a855760405162461bcd60e51b8152600401808060200182810382526022815260200180610f886022913960400191505060405180910390fd5b506001600160a01b03166000908152602091909152604090205460ff1690565b6000828201838110156105e2576040805162461bcd60e51b815260206004820152601b60248201527f536166654d6174683a206164646974696f6e206f766572666c6f770000000000604482015290519081900360640190fd5b610b0a606882610c4f565b60405133906001600160a01b038316907fc82bdbbf677a2462f2a7e22e4ba9abd209496b69cd7b868b3b1d28f76e09a40a90600090a350565b6000610b4f8383610d21565b826001600160a01b0316846001600160a01b03167fbac40739b0d4ca32fa2d82fc91630465ba3eddd1598da6fca393b26fb63b9453846040518082815260200191505060405180910390a35060019392505050565b610baf606982610c4f565b60405133906001600160a01b038316907f86515ebaad527298e98929c064c075f5a2604cc80afc0db29e73c01a36f8e98c90600090a350565b610bf28282610a3e565b610c2d5760405162461bcd60e51b8152600401808060200182810382526021815260200180610f3f6021913960400191505060405180910390fd5b6001600160a01b0316600090815260209190915260409020805460ff19169055565b6001600160a01b038116610ca0576040805162461bcd60e51b8152602060048201526013602482015272496e76616c696420307830206164647265737360681b604482015290519081900360640190fd5b610caa8282610a3e565b15610cfc576040805162461bcd60e51b815260206004820152601f60248201527f526f6c65733a206163636f756e7420616c72656164792068617320726f6c6500604482015290519081900360640190fd5b6001600160a01b0316600090815260209190915260409020805460ff19166001179055565b6001600160a01b038216610d665760405162461bcd60e51b8152600401808060200182810382526021815260200180610faa6021913960400191505060405180910390fd5b610da381604051806060016040528060228152602001610e77602291396001600160a01b03851660009081526033602052604090205491906109a7565b6001600160a01b038316600090815260336020526040902055603554610dc99082610e11565b6035556040805182815290516000916001600160a01b038516917fddf252ad1be2c89b69c2b068fc378daa952ba7f163c4a11628f55a4df523b3ef9181900360200190a35050565b60006105e283836040518060400160405280601e81526020017f536166654d6174683a207375627472616374696f6e206f766572666c6f7700008152506109a756fe45524332303a207472616e7366657220746f20746865207a65726f206164647265737345524332303a206275726e20616d6f756e7420657863656564732062616c616e636545524332303a20617070726f766520746f20746865207a65726f206164647265737345524332303a207472616e7366657220616d6f756e7420657863656564732062616c616e63654275726e6572526f6c653a2063616c6c657220646f6573206e6f74206861766520746865204275726e657220726f6c654f776e6572526f6c653a2063616c6c657220646f6573206e6f74206861766520746865204f776e657220726f6c65526f6c65733a206163636f756e7420646f6573206e6f74206861766520726f6c6545524332303a207472616e7366657220616d6f756e74206578636565647320616c6c6f77616e6365526f6c65733a206163636f756e7420697320746865207a65726f206164647265737345524332303a206275726e2066726f6d20746865207a65726f206164647265737345524332303a207472616e736665722066726f6d20746865207a65726f206164647265737345524332303a20617070726f76652066726f6d20746865207a65726f206164647265737345524332303a2064656372656173656420616c6c6f77616e63652062656c6f77207a65726fa2646970667358221220a6093dfa415f6c53b48d3cc2ba46535b8ffd304ba61a4638adac709ddbf305c064736f6c634300060c0033",
  "immutableReferences": {},
  "source": "pragma solidity 0.6.12;\n\nimport \"../@openzeppelin/contracts-ethereum-package/contracts/token/ERC20/ERC20.sol\";\nimport \"../roles/BurnerRole.sol\";\n\ncontract Burnable is ERC20, BurnerRole {\n  event Burn(address indexed burner, address indexed from, uint256 amount);\n\n  function _burn(address burner, address from, uint256 amount) internal returns (bool) {\n      ERC20._burn(from, amount);\n      emit Burn(burner, from, amount);\n      return true;\n  }\n\n  /**\n  Allow Burners to burn tokens from valid addresses\n  */\n  function burn(address account, uint256 amount) public onlyBurner returns (bool) {\n      return _burn(msg.sender, account, amount);\n  }\n}",
  "sourcePath": "/Users/james/Source/tokensoft/tokensoft_token/contracts/capabilities/Burnable.sol",
  "compiler": {
    "name": "solc",
    "version": "0.6.12+commit.27d51765.Emscripten.clang"
  },
  "schemaVersion": "3.3.1",
  "updatedAt": "2020-12-09T02:03:40.421Z",
  "devdoc": {
    "kind": "dev",
    "methods": {
      "allowance(address,address)": {
        "details": "See {IERC20-allowance}."
      },
      "approve(address,uint256)": {
        "details": "See {IERC20-approve}. Requirements: - `spender` cannot be the zero address."
      },
      "balanceOf(address)": {
        "details": "See {IERC20-balanceOf}."
      },
      "decreaseAllowance(address,uint256)": {
        "details": "Atomically decreases the allowance granted to `spender` by the caller. This is an alternative to {approve} that can be used as a mitigation for problems described in {IERC20-approve}. Emits an {Approval} event indicating the updated allowance. Requirements: - `spender` cannot be the zero address. - `spender` must have allowance for the caller of at least `subtractedValue`."
      },
      "increaseAllowance(address,uint256)": {
        "details": "Atomically increases the allowance granted to `spender` by the caller. This is an alternative to {approve} that can be used as a mitigation for problems described in {IERC20-approve}. Emits an {Approval} event indicating the updated allowance. Requirements: - `spender` cannot be the zero address."
      },
      "totalSupply()": {
        "details": "See {IERC20-totalSupply}."
      },
      "transfer(address,uint256)": {
        "details": "See {IERC20-transfer}. Requirements: - `recipient` cannot be the zero address. - the caller must have a balance of at least `amount`."
      },
      "transferFrom(address,address,uint256)": {
        "details": "See {IERC20-transferFrom}. Emits an {Approval} event indicating the updated allowance. This is not required by the EIP. See the note at the beginning of {ERC20}; Requirements: - `sender` and `recipient` cannot be the zero address. - `sender` must have a balance of at least `amount`. - the caller must have allowance for `sender`'s tokens of at least `amount`."
      }
    },
    "version": 1
  },
  "userdoc": {
    "kind": "user",
    "methods": {
      "burn(address,uint256)": {
        "notice": "Allow Burners to burn tokens from valid addresses"
      }
    },
    "version": 1
  }
}