{
  "contractName": "BurnAndMintInPlace",
  "abi": [
    {
      "anonymous": false,
      "inputs": [
        {
          "indexed": true,
          "internalType": "address",
          "name": "owner",
          "type": "address"
        },
        {
          "indexed": true,
          "internalType": "address",
          "name": "spender",
          "type": "address"
        },
        {
          "indexed": false,
          "internalType": "uint256",
          "name": "value",
          "type": "uint256"
        }
      ],
      "name": "Approval",
      "type": "event"
    },
    {
      "anonymous": false,
      "inputs": [
        {
          "indexed": true,
          "internalType": "address",
          "name": "burner",
          "type": "address"
        },
        {
          "indexed": true,
          "internalType": "address",
          "name": "from",
          "type": "address"
        },
        {
          "indexed": true,
          "internalType": "address",
          "name": "to",
          "type": "address"
        },
        {
          "indexed": false,
          "internalType": "uint256",
          "name": "amount",
          "type": "uint256"
        }
      ],
      "name": "BurnAndMintInPlace",
      "type": "event"
    },
    {
      "anonymous": false,
      "inputs": [
        {
          "indexed": true,
          "internalType": "address",
          "name": "addedBurner",
          "type": "address"
        },
        {
          "indexed": true,
          "internalType": "address",
          "name": "addedBy",
          "type": "address"
        }
      ],
      "name": "BurnerAdded",
      "type": "event"
    },
    {
      "anonymous": false,
      "inputs": [
        {
          "indexed": true,
          "internalType": "address",
          "name": "removedBurner",
          "type": "address"
        },
        {
          "indexed": true,
          "internalType": "address",
          "name": "removedBy",
          "type": "address"
        }
      ],
      "name": "BurnerRemoved",
      "type": "event"
    },
    {
      "anonymous": false,
      "inputs": [
        {
          "indexed": true,
          "internalType": "address",
          "name": "addedOwner",
          "type": "address"
        },
        {
          "indexed": true,
          "internalType": "address",
          "name": "addedBy",
          "type": "address"
        }
      ],
      "name": "OwnerAdded",
      "type": "event"
    },
    {
      "anonymous": false,
      "inputs": [
        {
          "indexed": true,
          "internalType": "address",
          "name": "removedOwner",
          "type": "address"
        },
        {
          "indexed": true,
          "internalType": "address",
          "name": "removedBy",
          "type": "address"
        }
      ],
      "name": "OwnerRemoved",
      "type": "event"
    },
    {
      "anonymous": false,
      "inputs": [
        {
          "indexed": true,
          "internalType": "address",
          "name": "from",
          "type": "address"
        },
        {
          "indexed": true,
          "internalType": "address",
          "name": "to",
          "type": "address"
        },
        {
          "indexed": false,
          "internalType": "uint256",
          "name": "value",
          "type": "uint256"
        }
      ],
      "name": "Transfer",
      "type": "event"
    },
    {
      "inputs": [
        {
          "internalType": "address",
          "name": "account",
          "type": "address"
        }
      ],
      "name": "addBurner",
      "outputs": [],
      "stateMutability": "nonpayable",
      "type": "function"
    },
    {
      "inputs": [
        {
          "internalType": "address",
          "name": "account",
          "type": "address"
        }
      ],
      "name": "addOwner",
      "outputs": [],
      "stateMutability": "nonpayable",
      "type": "function"
    },
    {
      "inputs": [
        {
          "internalType": "address",
          "name": "owner",
          "type": "address"
        },
        {
          "internalType": "address",
          "name": "spender",
          "type": "address"
        }
      ],
      "name": "allowance",
      "outputs": [
        {
          "internalType": "uint256",
          "name": "",
          "type": "uint256"
        }
      ],
      "stateMutability": "view",
      "type": "function"
    },
    {
      "inputs": [
        {
          "internalType": "address",
          "name": "spender",
          "type": "address"
        },
        {
          "internalType": "uint256",
          "name": "amount",
          "type": "uint256"
        }
      ],
      "name": "approve",
      "outputs": [
        {
          "internalType": "bool",
          "name": "",
          "type": "bool"
        }
      ],
      "stateMutability": "nonpayable",
      "type": "function"
    },
    {
      "inputs": [
        {
          "internalType": "address",
          "name": "account",
          "type": "address"
        }
      ],
      "name": "balanceOf",
      "outputs": [
        {
          "internalType": "uint256",
          "name": "",
          "type": "uint256"
        }
      ],
      "stateMutability": "view",
      "type": "function"
    },
    {
      "inputs": [
        {
          "internalType": "address",
          "name": "spender",
          "type": "address"
        },
        {
          "internalType": "uint256",
          "name": "subtractedValue",
          "type": "uint256"
        }
      ],
      "name": "decreaseAllowance",
      "outputs": [
        {
          "internalType": "bool",
          "name": "",
          "type": "bool"
        }
      ],
      "stateMutability": "nonpayable",
      "type": "function"
    },
    {
      "inputs": [
        {
          "internalType": "address",
          "name": "spender",
          "type": "address"
        },
        {
          "internalType": "uint256",
          "name": "addedValue",
          "type": "uint256"
        }
      ],
      "name": "increaseAllowance",
      "outputs": [
        {
          "internalType": "bool",
          "name": "",
          "type": "bool"
        }
      ],
      "stateMutability": "nonpayable",
      "type": "function"
    },
    {
      "inputs": [
        {
          "internalType": "address",
          "name": "account",
          "type": "address"
        }
      ],
      "name": "isBurner",
      "outputs": [
        {
          "internalType": "bool",
          "name": "",
          "type": "bool"
        }
      ],
      "stateMutability": "view",
      "type": "function"
    },
    {
      "inputs": [
        {
          "internalType": "address",
          "name": "account",
          "type": "address"
        }
      ],
      "name": "isOwner",
      "outputs": [
        {
          "internalType": "bool",
          "name": "",
          "type": "bool"
        }
      ],
      "stateMutability": "view",
      "type": "function"
    },
    {
      "inputs": [
        {
          "internalType": "address",
          "name": "account",
          "type": "address"
        }
      ],
      "name": "removeBurner",
      "outputs": [],
      "stateMutability": "nonpayable",
      "type": "function"
    },
    {
      "inputs": [
        {
          "internalType": "address",
          "name": "account",
          "type": "address"
        }
      ],
      "name": "removeOwner",
      "outputs": [],
      "stateMutability": "nonpayable",
      "type": "function"
    },
    {
      "inputs": [],
      "name": "totalSupply",
      "outputs": [
        {
          "internalType": "uint256",
          "name": "",
          "type": "uint256"
        }
      ],
      "stateMutability": "view",
      "type": "function"
    },
    {
      "inputs": [
        {
          "internalType": "address",
          "name": "recipient",
          "type": "address"
        },
        {
          "internalType": "uint256",
          "name": "amount",
          "type": "uint256"
        }
      ],
      "name": "transfer",
      "outputs": [
        {
          "internalType": "bool",
          "name": "",
          "type": "bool"
        }
      ],
      "stateMutability": "nonpayable",
      "type": "function"
    },
    {
      "inputs": [
        {
          "internalType": "address",
          "name": "sender",
          "type": "address"
        },
        {
          "internalType": "address",
          "name": "recipient",
          "type": "address"
        },
        {
          "internalType": "uint256",
          "name": "amount",
          "type": "uint256"
        }
      ],
      "name": "transferFrom",
      "outputs": [
        {
          "internalType": "bool",
          "name": "",
          "type": "bool"
        }
      ],
      "stateMutability": "nonpayable",
      "type": "function"
    },
    {
      "inputs": [
        {
          "internalType": "address",
          "name": "from",
          "type": "address"
        },
        {
          "internalType": "address",
          "name": "to",
          "type": "address"
        },
        {
          "internalType": "uint256",
          "name": "amount",
          "type": "uint256"
        }
      ],
      "name": "burnAndMintInPlace",
      "outputs": [
        {
          "internalType": "bool",
          "name": "",
          "type": "bool"
        }
      ],
      "stateMutability": "nonpayable",
      "type": "function"
    }
  ],
  "bytecode": "0x608060405234801561001057600080fd5b50610f16806100206000396000f3fe608060405234801561001057600080fd5b50600436106100f55760003560e01c80634334614a11610097578063a457c2d711610066578063a457c2d7146102d2578063a9059cbb146102fe578063dd62ed3e1461032a578063f44637ba14610358576100f5565b80634334614a1461022a5780637065cb481461025057806370a0823114610276578063761b13441461029c576100f5565b806318160ddd116100d357806318160ddd1461018857806323b872dd146101a25780632f54bf6e146101d857806339509351146101fe576100f5565b806302846858146100fa578063095ea7b314610122578063173825d914610162575b600080fd5b6101206004803603602081101561011057600080fd5b50356001600160a01b031661037e565b005b61014e6004803603604081101561013857600080fd5b506001600160a01b0381351690602001356103ce565b604080519115158252519081900360200190f35b6101206004803603602081101561017857600080fd5b50356001600160a01b03166103eb565b610190610438565b60408051918252519081900360200190f35b61014e600480360360608110156101b857600080fd5b506001600160a01b0381358116916020810135909116906040013561043e565b61014e600480360360208110156101ee57600080fd5b50356001600160a01b03166104c5565b61014e6004803603604081101561021457600080fd5b506001600160a01b0381351690602001356104d8565b61014e6004803603602081101561024057600080fd5b50356001600160a01b0316610526565b6101206004803603602081101561026657600080fd5b50356001600160a01b0316610533565b6101906004803603602081101561028c57600080fd5b50356001600160a01b0316610580565b61014e600480360360608110156102b257600080fd5b506001600160a01b0381358116916020810135909116906040013561059b565b61014e600480360360408110156102e857600080fd5b506001600160a01b0381351690602001356105f4565b61014e6004803603604081101561031457600080fd5b506001600160a01b03813516906020013561065c565b6101906004803603604081101561034057600080fd5b506001600160a01b0381358116916020013516610670565b6101206004803603602081101561036e57600080fd5b50356001600160a01b031661069b565b610387336104c5565b6103c25760405162461bcd60e51b815260040180806020018281038252602e815260200180610dda602e913960400191505060405180910390fd5b6103cb816106e8565b50565b60006103e26103db61072c565b8484610730565b50600192915050565b6103f4336104c5565b61042f5760405162461bcd60e51b815260040180806020018281038252602e815260200180610dda602e913960400191505060405180910390fd5b6103cb8161081c565b60355490565b600061044b848484610860565b6104bb8461045761072c565b6104b685604051806060016040528060288152602001610e29602891396001600160a01b038a1660009081526034602052604081209061049561072c565b6001600160a01b0316815260208101919091526040016000205491906109b2565b610730565b5060019392505050565b60006104d2606883610a49565b92915050565b60006103e26104e561072c565b846104b685603460006104f661072c565b6001600160a01b03908116825260208083019390935260409182016000908120918c168152925290205490610ab0565b60006104d2606983610a49565b61053c336104c5565b6105775760405162461bcd60e51b815260040180806020018281038252602e815260200180610dda602e913960400191505060405180910390fd5b6103cb81610b11565b6001600160a01b031660009081526033602052604090205490565b60006105a633610526565b6105e15760405162461bcd60e51b8152600401808060200182810382526030815260200180610daa6030913960400191505060405180910390fd5b6105ec848484610b55565b949350505050565b60006103e261060161072c565b846104b685604051806060016040528060258152602001610ebc602591396034600061062b61072c565b6001600160a01b03908116825260208083019390935260409182016000908120918d168152925290205491906109b2565b60006103e261066961072c565b8484610860565b6001600160a01b03918216600090815260346020908152604080832093909416825291909152205490565b6106a4336104c5565b6106df5760405162461bcd60e51b815260040180806020018281038252602e815260200180610dda602e913960400191505060405180910390fd5b6103cb81610bc1565b6106f3606982610c05565b60405133906001600160a01b038316907f85222465e0d438163a28671b59fc9ebeb03bf39f880ddd36c8315da7512b31c090600090a350565b3390565b6001600160a01b0383166107755760405162461bcd60e51b8152600401808060200182810382526024815260200180610e986024913960400191505060405180910390fd5b6001600160a01b0382166107ba5760405162461bcd60e51b8152600401808060200182810382526022815260200180610d626022913960400191505060405180910390fd5b6001600160a01b03808416600081815260346020908152604080832094871680845294825291829020859055815185815291517f8c5be1e5ebec7d5bd14f71427d1e84f3dd0314c0f7b2291e5b200ac8c7c3b9259281900390910190a3505050565b610827606882610c05565b60405133906001600160a01b038316907fe594d081b4382713733fe631966432c9cea5199afb2db5c3c1931f9f9300367990600090a350565b6001600160a01b0383166108a55760405162461bcd60e51b8152600401808060200182810382526025815260200180610e736025913960400191505060405180910390fd5b6001600160a01b0382166108ea5760405162461bcd60e51b8152600401808060200182810382526023815260200180610d3f6023913960400191505060405180910390fd5b61092781604051806060016040528060268152602001610d84602691396001600160a01b03861660009081526033602052604090205491906109b2565b6001600160a01b0380851660009081526033602052604080822093909355908416815220546109569082610ab0565b6001600160a01b0380841660008181526033602090815260409182902094909455805185815290519193928716927fddf252ad1be2c89b69c2b068fc378daa952ba7f163c4a11628f55a4df523b3ef92918290030190a3505050565b60008184841115610a415760405162461bcd60e51b81526004018080602001828103825283818151815260200191508051906020019080838360005b83811015610a065781810151838201526020016109ee565b50505050905090810190601f168015610a335780820380516001836020036101000a031916815260200191505b509250505060405180910390fd5b505050900390565b60006001600160a01b038216610a905760405162461bcd60e51b8152600401808060200182810382526022815260200180610e516022913960400191505060405180910390fd5b506001600160a01b03166000908152602091909152604090205460ff1690565b600082820183811015610b0a576040805162461bcd60e51b815260206004820152601b60248201527f536166654d6174683a206164646974696f6e206f766572666c6f770000000000604482015290519081900360640190fd5b9392505050565b610b1c606882610c6c565b60405133906001600160a01b038316907fc82bdbbf677a2462f2a7e22e4ba9abd209496b69cd7b868b3b1d28f76e09a40a90600090a350565b6000610b62848484610860565b826001600160a01b0316846001600160a01b0316336001600160a01b03167f475182e5ae26efe1a0e494ae1d24bbc3627acedefe8c474cce59f8df9a988a3e856040518082815260200191505060405180910390a45060019392505050565b610bcc606982610c6c565b60405133906001600160a01b038316907f86515ebaad527298e98929c064c075f5a2604cc80afc0db29e73c01a36f8e98c90600090a350565b610c0f8282610a49565b610c4a5760405162461bcd60e51b8152600401808060200182810382526021815260200180610e086021913960400191505060405180910390fd5b6001600160a01b0316600090815260209190915260409020805460ff19169055565b6001600160a01b038116610cbd576040805162461bcd60e51b8152602060048201526013602482015272496e76616c696420307830206164647265737360681b604482015290519081900360640190fd5b610cc78282610a49565b15610d19576040805162461bcd60e51b815260206004820152601f60248201527f526f6c65733a206163636f756e7420616c72656164792068617320726f6c6500604482015290519081900360640190fd5b6001600160a01b0316600090815260209190915260409020805460ff1916600117905556fe45524332303a207472616e7366657220746f20746865207a65726f206164647265737345524332303a20617070726f766520746f20746865207a65726f206164647265737345524332303a207472616e7366657220616d6f756e7420657863656564732062616c616e63654275726e6572526f6c653a2063616c6c657220646f6573206e6f74206861766520746865204275726e657220726f6c654f776e6572526f6c653a2063616c6c657220646f6573206e6f74206861766520746865204f776e657220726f6c65526f6c65733a206163636f756e7420646f6573206e6f74206861766520726f6c6545524332303a207472616e7366657220616d6f756e74206578636565647320616c6c6f77616e6365526f6c65733a206163636f756e7420697320746865207a65726f206164647265737345524332303a207472616e736665722066726f6d20746865207a65726f206164647265737345524332303a20617070726f76652066726f6d20746865207a65726f206164647265737345524332303a2064656372656173656420616c6c6f77616e63652062656c6f77207a65726fa2646970667358221220ec47ad2825f4ec27d9674617f7ab53e89ee277090c86d159ea52f990dd9310c364736f6c634300060c0033",
  "immutableReferences": {},
  "source": "pragma solidity 0.6.12;\n\nimport \"../@openzeppelin/contracts-ethereum-package/contracts/token/ERC20/ERC20.sol\";\nimport \"../roles/BurnerRole.sol\";\nimport \"../roles/MinterRole.sol\";\n\ncontract BurnAndMintInPlace is ERC20, BurnerRole {\n\n  event BurnAndMintInPlace(address indexed burner, address indexed from, address indexed to, uint256 amount);\n\n  function _burnAndMintInPlace(\n    address _from,\n    address _to,\n    uint256 _amount\n  )\n    internal\n    returns (bool)\n  {\n    ERC20._transfer(_from, _to, _amount);\n    emit BurnAndMintInPlace(msg.sender, _from, _to, _amount);\n    return true;\n  }\n\n  /**\n  Allows Burner role to burn and mint \n    */\n  function burnAndMintInPlace(address from, address to, uint256 amount) public onlyBurner returns (bool) {\n      return _burnAndMintInPlace(from, to, amount);\n  }\n}",
  "sourcePath": "/Users/thomasmcinerney/dev/tokensoft_token/contracts/capabilities/BurnAndMintInPlace.sol",
  "compiler": {
    "name": "solc",
    "version": "0.6.12+commit.27d51765.Emscripten.clang"
  },
  "schemaVersion": "3.4.1",
  "updatedAt": "2021-10-28T23:00:53.240Z",
  "devdoc": {
    "kind": "dev",
    "methods": {
      "allowance(address,address)": {
        "details": "See {IERC20-allowance}."
      },
      "approve(address,uint256)": {
        "details": "See {IERC20-approve}. Requirements: - `spender` cannot be the zero address."
      },
      "balanceOf(address)": {
        "details": "See {IERC20-balanceOf}."
      },
      "decreaseAllowance(address,uint256)": {
        "details": "Atomically decreases the allowance granted to `spender` by the caller. This is an alternative to {approve} that can be used as a mitigation for problems described in {IERC20-approve}. Emits an {Approval} event indicating the updated allowance. Requirements: - `spender` cannot be the zero address. - `spender` must have allowance for the caller of at least `subtractedValue`."
      },
      "increaseAllowance(address,uint256)": {
        "details": "Atomically increases the allowance granted to `spender` by the caller. This is an alternative to {approve} that can be used as a mitigation for problems described in {IERC20-approve}. Emits an {Approval} event indicating the updated allowance. Requirements: - `spender` cannot be the zero address."
      },
      "totalSupply()": {
        "details": "See {IERC20-totalSupply}."
      },
      "transfer(address,uint256)": {
        "details": "See {IERC20-transfer}. Requirements: - `recipient` cannot be the zero address. - the caller must have a balance of at least `amount`."
      },
      "transferFrom(address,address,uint256)": {
        "details": "See {IERC20-transferFrom}. Emits an {Approval} event indicating the updated allowance. This is not required by the EIP. See the note at the beginning of {ERC20}; Requirements: - `sender` and `recipient` cannot be the zero address. - `sender` must have a balance of at least `amount`. - the caller must have allowance for `sender`'s tokens of at least `amount`."
      }
    },
    "version": 1
  },
  "userdoc": {
    "kind": "user",
    "methods": {
      "burnAndMintInPlace(address,address,uint256)": {
        "notice": "Allows Burner role to burn and mint "
      }
    },
    "version": 1
  }
}