{
  "contractName": "BurnerRole",
  "abi": [
    {
      "anonymous": false,
      "inputs": [
        {
          "indexed": true,
          "internalType": "address",
          "name": "addedBurner",
          "type": "address"
        },
        {
          "indexed": true,
          "internalType": "address",
          "name": "addedBy",
          "type": "address"
        }
      ],
      "name": "BurnerAdded",
      "type": "event"
    },
    {
      "anonymous": false,
      "inputs": [
        {
          "indexed": true,
          "internalType": "address",
          "name": "removedBurner",
          "type": "address"
        },
        {
          "indexed": true,
          "internalType": "address",
          "name": "removedBy",
          "type": "address"
        }
      ],
      "name": "BurnerRemoved",
      "type": "event"
    },
    {
      "anonymous": false,
      "inputs": [
        {
          "indexed": true,
          "internalType": "address",
          "name": "addedOwner",
          "type": "address"
        },
        {
          "indexed": true,
          "internalType": "address",
          "name": "addedBy",
          "type": "address"
        }
      ],
      "name": "OwnerAdded",
      "type": "event"
    },
    {
      "anonymous": false,
      "inputs": [
        {
          "indexed": true,
          "internalType": "address",
          "name": "removedOwner",
          "type": "address"
        },
        {
          "indexed": true,
          "internalType": "address",
          "name": "removedBy",
          "type": "address"
        }
      ],
      "name": "OwnerRemoved",
      "type": "event"
    },
    {
      "inputs": [
        {
          "internalType": "address",
          "name": "account",
          "type": "address"
        }
      ],
      "name": "addOwner",
      "outputs": [],
      "stateMutability": "nonpayable",
      "type": "function"
    },
    {
      "inputs": [
        {
          "internalType": "address",
          "name": "account",
          "type": "address"
        }
      ],
      "name": "isOwner",
      "outputs": [
        {
          "internalType": "bool",
          "name": "",
          "type": "bool"
        }
      ],
      "stateMutability": "view",
      "type": "function"
    },
    {
      "inputs": [
        {
          "internalType": "address",
          "name": "account",
          "type": "address"
        }
      ],
      "name": "removeOwner",
      "outputs": [],
      "stateMutability": "nonpayable",
      "type": "function"
    },
    {
      "inputs": [
        {
          "internalType": "address",
          "name": "account",
          "type": "address"
        }
      ],
      "name": "isBurner",
      "outputs": [
        {
          "internalType": "bool",
          "name": "",
          "type": "bool"
        }
      ],
      "stateMutability": "view",
      "type": "function"
    },
    {
      "inputs": [
        {
          "internalType": "address",
          "name": "account",
          "type": "address"
        }
      ],
      "name": "addBurner",
      "outputs": [],
      "stateMutability": "nonpayable",
      "type": "function"
    },
    {
      "inputs": [
        {
          "internalType": "address",
          "name": "account",
          "type": "address"
        }
      ],
      "name": "removeBurner",
      "outputs": [],
      "stateMutability": "nonpayable",
      "type": "function"
    }
  ],
  "bytecode": "0x608060405234801561001057600080fd5b506105bd806100206000396000f3fe608060405234801561001057600080fd5b50600436106100625760003560e01c80630284685814610067578063173825d91461008f5780632f54bf6e146100b55780634334614a146100ef5780637065cb4814610115578063f44637ba1461013b575b600080fd5b61008d6004803603602081101561007d57600080fd5b50356001600160a01b0316610161565b005b61008d600480360360208110156100a557600080fd5b50356001600160a01b03166101b1565b6100db600480360360208110156100cb57600080fd5b50356001600160a01b03166101fe565b604080519115158252519081900360200190f35b6100db6004803603602081101561010557600080fd5b50356001600160a01b0316610210565b61008d6004803603602081101561012b57600080fd5b50356001600160a01b031661021d565b61008d6004803603602081101561015157600080fd5b50356001600160a01b031661026a565b61016a336101fe565b6101a55760405162461bcd60e51b815260040180806020018281038252602e815260200180610517602e913960400191505060405180910390fd5b6101ae816102b7565b50565b6101ba336101fe565b6101f55760405162461bcd60e51b815260040180806020018281038252602e815260200180610517602e913960400191505060405180910390fd5b6101ae816102fb565b600061020a818361033f565b92915050565b600061020a60018361033f565b610226336101fe565b6102615760405162461bcd60e51b815260040180806020018281038252602e815260200180610517602e913960400191505060405180910390fd5b6101ae816103a6565b610273336101fe565b6102ae5760405162461bcd60e51b815260040180806020018281038252602e815260200180610517602e913960400191505060405180910390fd5b6101ae816103ea565b6102c260018261042e565b60405133906001600160a01b038316907f85222465e0d438163a28671b59fc9ebeb03bf39f880ddd36c8315da7512b31c090600090a350565b61030660008261042e565b60405133906001600160a01b038316907fe594d081b4382713733fe631966432c9cea5199afb2db5c3c1931f9f9300367990600090a350565b60006001600160a01b0382166103865760405162461bcd60e51b81526004018080602001828103825260228152602001806105666022913960400191505060405180910390fd5b506001600160a01b03166000908152602091909152604090205460ff1690565b6103b1600082610495565b60405133906001600160a01b038316907fc82bdbbf677a2462f2a7e22e4ba9abd209496b69cd7b868b3b1d28f76e09a40a90600090a350565b6103f5600182610495565b60405133906001600160a01b038316907f86515ebaad527298e98929c064c075f5a2604cc80afc0db29e73c01a36f8e98c90600090a350565b610438828261033f565b6104735760405162461bcd60e51b81526004018080602001828103825260218152602001806105456021913960400191505060405180910390fd5b6001600160a01b0316600090815260209190915260409020805460ff19169055565b61049f828261033f565b156104f1576040805162461bcd60e51b815260206004820152601f60248201527f526f6c65733a206163636f756e7420616c72656164792068617320726f6c6500604482015290519081900360640190fd5b6001600160a01b0316600090815260209190915260409020805460ff1916600117905556fe4f776e6572526f6c653a2063616c6c657220646f6573206e6f74206861766520746865204f776e657220726f6c65526f6c65733a206163636f756e7420646f6573206e6f74206861766520726f6c65526f6c65733a206163636f756e7420697320746865207a65726f2061646472657373a2646970667358221220d17d07d206bb209f11aadef47f64e6422e6bf9182302a925879cfeb76256ecb264736f6c634300060c0033",
  "immutableReferences": {},
  "source": "pragma solidity 0.6.12;\n\nimport \"./OwnerRole.sol\";\n\ncontract BurnerRole is OwnerRole {\n\n    event BurnerAdded(address indexed addedBurner, address indexed addedBy);\n    event BurnerRemoved(address indexed removedBurner, address indexed removedBy);\n\n    Roles.Role private _burners;\n\n    modifier onlyBurner() {\n        require(isBurner(msg.sender), \"BurnerRole: caller does not have the Burner role\");\n        _;\n    }\n\n    function isBurner(address account) public view returns (bool) {\n        return _burners.has(account);\n    }\n\n    function _addBurner(address account) internal {\n        _burners.add(account);\n        emit BurnerAdded(account, msg.sender);\n    }\n\n    function _removeBurner(address account) internal {\n        _burners.remove(account);\n        emit BurnerRemoved(account, msg.sender);\n    }\n\n    function addBurner(address account) public onlyOwner {\n        _addBurner(account);\n    }\n\n    function removeBurner(address account) public onlyOwner {\n        _removeBurner(account);\n    }\n\n}",
  "sourcePath": "/Users/james/Source/tokensoft/tokensoft_token/contracts/roles/BurnerRole.sol",
  "compiler": {
    "name": "solc",
    "version": "0.6.12+commit.27d51765.Emscripten.clang"
  },
  "schemaVersion": "3.3.2",
  "updatedAt": "2020-11-20T01:46:07.251Z",
  "devdoc": {
    "kind": "dev",
    "methods": {},
    "version": 1
  },
  "userdoc": {
    "kind": "user",
    "methods": {},
    "version": 1
  }
}