{
  "contractName": "DvPSettlement",
  "abi": [
    {
      "anonymous": false,
      "inputs": [
        {
          "indexed": false,
          "internalType": "uint256",
          "name": "code",
          "type": "uint256"
        },
        {
          "indexed": false,
          "internalType": "address",
          "name": "seller_address",
          "type": "address"
        },
        {
          "indexed": false,
          "internalType": "uint256",
          "name": "seller_amount",
          "type": "uint256"
        },
        {
          "indexed": true,
          "internalType": "contract IERC20",
          "name": "seller_token",
          "type": "address"
        },
        {
          "indexed": false,
          "internalType": "address",
          "name": "buyer_address",
          "type": "address"
        },
        {
          "indexed": false,
          "internalType": "uint256",
          "name": "buyer_amount",
          "type": "uint256"
        },
        {
          "indexed": true,
          "internalType": "contract IERC20",
          "name": "buyer_token",
          "type": "address"
        },
        {
          "indexed": true,
          "internalType": "uint128",
          "name": "nonce",
          "type": "uint128"
        }
      ],
      "name": "Failed",
      "type": "event"
    },
    {
      "anonymous": false,
      "inputs": [
        {
          "indexed": false,
          "internalType": "address",
          "name": "seller_address",
          "type": "address"
        },
        {
          "indexed": false,
          "internalType": "uint256",
          "name": "seller_amount",
          "type": "uint256"
        },
        {
          "indexed": true,
          "internalType": "contract IERC20",
          "name": "seller_token",
          "type": "address"
        },
        {
          "indexed": false,
          "internalType": "address",
          "name": "buyer_address",
          "type": "address"
        },
        {
          "indexed": false,
          "internalType": "uint256",
          "name": "buyer_amount",
          "type": "uint256"
        },
        {
          "indexed": true,
          "internalType": "contract IERC20",
          "name": "buyer_token",
          "type": "address"
        },
        {
          "indexed": true,
          "internalType": "uint128",
          "name": "nonce",
          "type": "uint128"
        }
      ],
      "name": "Settled",
      "type": "event"
    },
    {
      "constant": true,
      "inputs": [],
      "name": "broker_dealer",
      "outputs": [
        {
          "internalType": "address",
          "name": "",
          "type": "address"
        }
      ],
      "payable": false,
      "stateMutability": "view",
      "type": "function"
    },
    {
      "constant": true,
      "inputs": [
        {
          "internalType": "uint128",
          "name": "",
          "type": "uint128"
        }
      ],
      "name": "fills",
      "outputs": [
        {
          "internalType": "bool",
          "name": "",
          "type": "bool"
        }
      ],
      "payable": false,
      "stateMutability": "view",
      "type": "function"
    },
    {
      "constant": false,
      "inputs": [
        {
          "internalType": "address",
          "name": "seller_address",
          "type": "address"
        },
        {
          "internalType": "uint256",
          "name": "seller_amount",
          "type": "uint256"
        },
        {
          "internalType": "contract IERC20",
          "name": "seller_token",
          "type": "address"
        },
        {
          "internalType": "address",
          "name": "buyer_address",
          "type": "address"
        },
        {
          "internalType": "uint256",
          "name": "buyer_amount",
          "type": "uint256"
        },
        {
          "internalType": "contract IERC20",
          "name": "buyer_token",
          "type": "address"
        },
        {
          "internalType": "uint128",
          "name": "nonce",
          "type": "uint128"
        },
        {
          "internalType": "uint8",
          "name": "buyer_v",
          "type": "uint8"
        },
        {
          "internalType": "bytes32",
          "name": "buyer_r",
          "type": "bytes32"
        },
        {
          "internalType": "bytes32",
          "name": "buyer_s",
          "type": "bytes32"
        },
        {
          "internalType": "uint8",
          "name": "seller_v",
          "type": "uint8"
        },
        {
          "internalType": "bytes32",
          "name": "seller_r",
          "type": "bytes32"
        },
        {
          "internalType": "bytes32",
          "name": "seller_s",
          "type": "bytes32"
        }
      ],
      "name": "settle",
      "outputs": [],
      "payable": false,
      "stateMutability": "nonpayable",
      "type": "function"
    }
  ],
  "bytecode": "0x608060405234801561001057600080fd5b50610aa5806100206000396000f3fe608060405234801561001057600080fd5b50600436106100415760003560e01c8063263f61491461004657806341e1a0961461009e57806355bacdb6146101b5575b600080fd5b6100846004803603602081101561005c57600080fd5b8101908080356fffffffffffffffffffffffffffffffff1690602001909291905050506101ff565b604051808215151515815260200191505060405180910390f35b6101b360048036036101a08110156100b557600080fd5b81019080803573ffffffffffffffffffffffffffffffffffffffff16906020019092919080359060200190929190803573ffffffffffffffffffffffffffffffffffffffff169060200190929190803573ffffffffffffffffffffffffffffffffffffffff16906020019092919080359060200190929190803573ffffffffffffffffffffffffffffffffffffffff16906020019092919080356fffffffffffffffffffffffffffffffff169060200190929190803560ff1690602001909291908035906020019092919080359060200190929190803560ff169060200190929190803590602001909291908035906020019092919050505061021f565b005b6101bd610403565b604051808273ffffffffffffffffffffffffffffffffffffffff1673ffffffffffffffffffffffffffffffffffffffff16815260200191505060405180910390f35b60016020528060005260406000206000915054906101000a900460ff1681565b8973ffffffffffffffffffffffffffffffffffffffff168d73ffffffffffffffffffffffffffffffffffffffff1614156102695761026460018e8e8e8e8e8e8e610428565b6103f4565b6001151560016000896fffffffffffffffffffffffffffffffff166fffffffffffffffffffffffffffffffff16815260200190815260200160002060009054906101000a900460ff161515146102cf576102ca60028e8e8e8e8e8e8e610428565b6103f4565b6000809054906101000a900473ffffffffffffffffffffffffffffffffffffffff1673ffffffffffffffffffffffffffffffffffffffff163373ffffffffffffffffffffffffffffffffffffffff16146103395761033460038e8e8e8e8e8e8e610428565b6103f4565b61035c8d8d8d8c8c8c6fffffffffffffffffffffffffffffffff16898989610525565b506103808a8a8a8f8f8c6fffffffffffffffffffffffffffffffff168c8c8c610525565b506001806000896fffffffffffffffffffffffffffffffff166fffffffffffffffffffffffffffffffff16815260200190815260200160002060006101000a81548160ff0219169083151502179055506103de8d8d8d8d8d8d6107e9565b6103e457fe5b6103f38d8d8d8d8d8d8d610811565b5b50505050505050505050505050565b6000809054906101000a900473ffffffffffffffffffffffffffffffffffffffff1681565b806fffffffffffffffffffffffffffffffff168273ffffffffffffffffffffffffffffffffffffffff168673ffffffffffffffffffffffffffffffffffffffff167f8cdea5e99985a43115b4956ecc361741c57f9107820ec9a3ef79d25c437c19758b8b8b8a8a604051808660ff1681526020018573ffffffffffffffffffffffffffffffffffffffff1673ffffffffffffffffffffffffffffffffffffffff1681526020018481526020018373ffffffffffffffffffffffffffffffffffffffff1673ffffffffffffffffffffffffffffffffffffffff1681526020018281526020019550505050505060405180910390a45050505050505050565b6000808a8a8a8a8a8a604051602001808773ffffffffffffffffffffffffffffffffffffffff1673ffffffffffffffffffffffffffffffffffffffff1681526020018681526020018573ffffffffffffffffffffffffffffffffffffffff1673ffffffffffffffffffffffffffffffffffffffff1681526020018481526020018373ffffffffffffffffffffffffffffffffffffffff1673ffffffffffffffffffffffffffffffffffffffff168152602001828152602001965050505050505060405160208183030381529060405280519060200120905060606040518060400160405280601c81526020017f19457468657265756d205369676e6564204d6573736167653a0a3332000000008152509050600081836040516020018080602001838152602001828103825284818151815260200191508051906020019080838360005b83811015610684578082015181840152602081019050610669565b50505050905090810190601f1680156106b15780820380516001836020036101000a031916815260200191505b5093505050506040516020818303038152906040528051906020012090508c73ffffffffffffffffffffffffffffffffffffffff1660018289898960405160008152602001604052604051808581526020018460ff1660ff1681526020018381526020018281526020019450505050506020604051602081039080840390855afa158015610743573d6000803e3d6000fd5b5050506020604051035173ffffffffffffffffffffffffffffffffffffffff16146107d6576040517f08c379a000000000000000000000000000000000000000000000000000000000815260040180806020018281038252601d8152602001807f7369676e617475726520766572696669636174696f6e206661696c656400000081525060200191505060405180910390fd5b8293505050509998505050505050505050565b60006107f787858888610902565b61080384888585610902565b600190509695505050505050565b806fffffffffffffffffffffffffffffffff168273ffffffffffffffffffffffffffffffffffffffff168673ffffffffffffffffffffffffffffffffffffffff167fb01aaeabb6ae9d529586b7683c3df7b979ad28a5ac69b49a475fee137d1daf128a8a8989604051808573ffffffffffffffffffffffffffffffffffffffff1673ffffffffffffffffffffffffffffffffffffffff1681526020018481526020018373ffffffffffffffffffffffffffffffffffffffff1673ffffffffffffffffffffffffffffffffffffffff16815260200182815260200194505050505060405180910390a450505050505050565b8073ffffffffffffffffffffffffffffffffffffffff166323b872dd8585856040518463ffffffff1660e01b8152600401808473ffffffffffffffffffffffffffffffffffffffff1673ffffffffffffffffffffffffffffffffffffffff1681526020018373ffffffffffffffffffffffffffffffffffffffff1673ffffffffffffffffffffffffffffffffffffffff1681526020018281526020019350505050602060405180830381600087803b1580156109bd57600080fd5b505af11580156109d1573d6000803e3d6000fd5b505050506040513d60208110156109e757600080fd5b8101908080519060200190929190505050610a6a576040517f08c379a000000000000000000000000000000000000000000000000000000000815260040180806020018281038252600f8152602001807f7472616e73666572206661696c6564000000000000000000000000000000000081525060200191505060405180910390fd5b5050505056fea265627a7a72315820090901e75b4671f06649d9f72a05e5182308aa0cc5274f6ca559d6cd30f4250b64736f6c63430005100032",
  "source": "pragma solidity 0.5.16;\n\nimport \"@openzeppelin/contracts-ethereum-package/contracts/token/ERC20/IERC20.sol\";\n\n/** @title Tokensoft Delivery vs. Payment Contract. Allows Buyer and Seller ERC20 tokens to be atomically\n  * swapped when OK'ed by a Broker Dealer. This atomic swapping is called Delivery vs. Payment in traditional\n  * finance.\n  *\n  * Buyers and Sellers create Orders off-chain, and a Breaker Dealer matches those orders off-chain\n  * to create a Trade. The Broker Dealer then gathers the necessary legal signatures and digital\n  * signatures from the Buyer and Seller. Finally, the Broker dealer calls the `settle` method\n  * with the required Buyer and Seller signatures, which settles the Trade by performing an atomic\n  * swap.\n  *\n  * Assumes sellers and buyers have approved this contract to access their balances.\n  */\ncontract DvPSettlement {\n    // The broker dealer's address. This is the only key which can call the `settle()` method\n    address public broker_dealer;\n\n    // This stores the nonces used to prevent reentrancy and replay attacks.\n    // if a nonce's value is set to `true`, this means that nonce has already been used\n    // in a call to `settle()` and cannot be used again\n    mapping (uint128 => bool) public fills;\n\n    // Fired after a call to `settle()`\n    event Settled(address seller_address, uint seller_amount, IERC20 indexed seller_token,\n        address buyer_address, uint buyer_amount, IERC20 indexed buyer_token, uint128 indexed nonce);\n\n    // Fired after any expected failure code path\n    /**\n     * 1 -> “The seller_address and buyer_address must be different”\n     * 2 -> “This order has already been filled”\n     * 3 -> “The call to settle() must be made by the broker_dealer”\n     */\n    event Failed(uint code, address seller_address, uint seller_amount, IERC20 indexed seller_token,\n        address buyer_address, uint buyer_amount, IERC20 indexed buyer_token, uint128 indexed nonce);\n\n    /** Settle an off-chain Trade between a Buyer and Seller, approved by the broker_dealer\n     *\n     * Buyer and Seller create buy and sell Orders offchain. The Broker Dealer reviews the Orders, matches\n     * a pair of them to create a Trade, generates a nonce (to prevent re-entrancy and replay attacks),\n     * and then gets a cryptographic signature from each of the Buyer and Seller in which they commit to the\n     * terms of the Trade. The Broker Dealer does a final review of the Trade and finally calls `settle()`\n     * with the appropriate arguments.\n     *\n     * This call assumes that `seller_address` and `buyer_address` are holders of an ERC20 token, and that\n     * prior to the call to `settle()` they have each called `ERC20.approve()` for the at least the amounts\n     * they want settled in the Trade. Failure to do so will cause the call to `settle()` to fail.\n     */\n    function settle(address seller_address, uint seller_amount, IERC20 seller_token, address buyer_address,\n        uint buyer_amount, IERC20 buyer_token, uint128 nonce, uint8 buyer_v, bytes32 buyer_r, bytes32 buyer_s,\n        uint8 seller_v, bytes32 seller_r, bytes32 seller_s) external {\n\n        // no making a trade with yourself\n        if (seller_address == buyer_address) {\n            emit_failed(1, seller_address, seller_amount, seller_token, buyer_address, buyer_amount, buyer_token, nonce);\n            return;\n        }\n\n        // no reentrancy or replay attacks, make sure the nonce hasn’t been used yet\n        if (fills[nonce] != true) {\n            emit_failed(2, seller_address, seller_amount, seller_token, buyer_address, buyer_amount, buyer_token, nonce);\n            return;\n        }\n\n        // only the broker dealer can settle a Trade\n        if (msg.sender != broker_dealer) {\n            emit_failed(3, seller_address, seller_amount, seller_token, buyer_address, buyer_amount, buyer_token, nonce);\n            return;\n        }\n\n        // First verify that the Seller has agreed to this Trade by verifying their signature against the Order data\n        verify(seller_address, seller_amount, seller_token, buyer_amount, buyer_token,\n            nonce, seller_v, seller_r, seller_s);\n\n        // Now do the same but for the Buyer\n        verify(buyer_address, buyer_amount, buyer_token, seller_amount, seller_token,\n            nonce, buyer_v, buyer_r, buyer_s);\n\n        // Mark order as filled to prevent reentrancy.\n        fills[nonce] = true;\n\n        // Perform the trade between seller_address and buyer_address.\n        // The transfer will throw if there's a problem.\n        // Assert should never fail\n        assert(trade(seller_address, seller_amount, seller_token,\n            buyer_address, buyer_amount, buyer_token));\n\n        // Log an event to indicate completion.\n        emit_settled(seller_address, seller_amount, seller_token, buyer_address, buyer_amount, buyer_token, nonce);\n    }\n\n    /** Verifies that an investor has agreed to this Trade\n     *\n     * The Investor (either a Buyer or Seller) agrees to a trade by using their `investor_address`\n     * private key to generate a signature for the following payload payload:\n     * `bytes32 payload = keccak256(abi.encode(investor_address, investor_amount, investor_token,\n            other_amount, other_token, nonce))`\n     *\n     * For example, An investor will commit to the statement \"I agree to buy 10 REP for 20 OMG using my address\n     * \"0x7141fa6801ae65a8d127152a9d8fa4e6b1eeab97bc16a2c87bda936b6039787c\" with nonce 42\". In this example\n     * the function argument values are:\n     *\n     * investor_address: \"0x7141fa6801ae65a8d127152a9d8fa4e6b1eeab97bc16a2c87bda936b6039787c\"\n     * investor_amount: 10\n     * investor_token: REP\n     * other_amount: 20\n     * other_token: OMG\n     * nonce: 42\n     *\n     * and v, r, s is return value of `web3.eth.sign(investor_address, payload);\n    */\n    function verify(address investor_address, uint investor_amount, IERC20 investor_token,\n                    uint other_amount, IERC20 other_token, uint256 nonce, uint8 v,\n                    bytes32 r, bytes32 s) private pure returns (bytes32) {\n\n        // Hash arguments to identify the order.\n        bytes32 hashV = keccak256(abi.encode(investor_address, investor_amount, investor_token,\n            other_amount, other_token, nonce));\n\n        bytes memory prefix = \"\\x19Ethereum Signed Message:\\n32\";\n        bytes32 prefixedHash = keccak256(abi.encode(prefix, hashV));\n\n        require(ecrecover(prefixedHash, v, r, s) == investor_address, \"signature verification failed\");\n\n        return hashV;\n    }\n\n    /** Atomic trade of tokens between first party and second party.\n      * Throws if one of the trades does not go through.\n      */\n    function trade(address seller_address, uint seller_amount, IERC20 seller_token,\n        address buyer_address, uint buyer_amount, IERC20 buyer_token) private returns (bool) {\n        // send tokens from buyer to seller, reverting if anything goes wrong\n        transfer(seller_address, buyer_address, seller_amount, seller_token);\n\n        // send tokens from seller to buyer, reverting if anything goes wrong\n        transfer(buyer_address, seller_address, buyer_amount, buyer_token);\n\n        return true;\n    }\n\n    /** Transfers tokens from first party to second party.\n      * Prior to a transfer being done by the contract, ensure that\n      * tokenVal.approve(this, amount, {from : address}) has been called\n      * throws if the transferFrom of the token returns false\n      */\n    function transfer(address from, address to, uint amount, IERC20 token) private {\n        require(IERC20(token).transferFrom(from, to, amount), \"transfer failed\");\n    }\n\n    /**\n     * Fire a Failed event with the appropriate failure code.\n     *\n     * We use this simple function to get around the unfortunate fact that if we called it inline, the compiler\n     * would complain about a \"Stack Too Deep Error\". See the following blog post for details:\n     * https://blog.aventus.io/stack-too-deep-error-in-solidity-5b8861891bae\n     */\n    function emit_failed(uint8 code, address seller_address, uint seller_amount, IERC20 seller_token, address buyer_address,\n        uint buyer_amount, IERC20 buyer_token, uint128 nonce) private {\n        emit Failed(code, seller_address, seller_amount, seller_token, buyer_address, buyer_amount, buyer_token, nonce);\n    }\n\n    /**\n     * Fire a Settled event\n     *\n     * We use this simple function to get around the unfortunate fact that if we called it inline, the compiler\n     * would complain about a \"Stack Too Deep Error\". See the following blog post for details:\n     * https://blog.aventus.io/stack-too-deep-error-in-solidity-5b8861891bae\n     */\n    function emit_settled(address seller_address, uint seller_amount, IERC20 seller_token,\n        address buyer_address, uint buyer_amount, IERC20 buyer_token, uint128 nonce) private {\n        emit Settled(seller_address, seller_amount, seller_token,\n            buyer_address, buyer_amount, buyer_token,\n            nonce);\n    }\n}",
  "sourcePath": "/home/melvillian/Desktop/code/tokensoft/tokensoft_token/contracts/DvPSettlement.sol",
  "compiler": {
    "name": "solc",
    "version": "0.5.16+commit.9c3226ce.Emscripten.clang"
  },
  "schemaVersion": "3.2.0",
  "updatedAt": "2020-06-04T21:18:26.597Z",
  "devdoc": {
    "methods": {},
    "title": "Tokensoft Delivery vs. Payment Contract. Allows Buyer and Seller ERC20 tokens to be atomically swapped when OK'ed by a Broker Dealer. This atomic swapping is called Delivery vs. Payment in traditional finance.  * Buyers and Sellers create Orders off-chain, and a Breaker Dealer matches those orders off-chain to create a Trade. The Broker Dealer then gathers the necessary legal signatures and digital signatures from the Buyer and Seller. Finally, the Broker dealer calls the `settle` method with the required Buyer and Seller signatures, which settles the Trade by performing an atomic swap.  * Assumes sellers and buyers have approved this contract to access their balances."
  },
  "userdoc": {
    "methods": {
      "settle(address,uint256,address,address,uint256,address,uint128,uint8,bytes32,bytes32,uint8,bytes32,bytes32)": {
        "notice": "Settle an off-chain Trade between a Buyer and Seller, approved by the broker_dealer     * Buyer and Seller create buy and sell Orders offchain. The Broker Dealer reviews the Orders, matches a pair of them to create a Trade, generates a nonce (to prevent re-entrancy and replay attacks), and then gets a cryptographic signature from each of the Buyer and Seller in which they commit to the terms of the Trade. The Broker Dealer does a final review of the Trade and finally calls `settle()` with the appropriate arguments.     * This call assumes that `seller_address` and `buyer_address` are holders of an ERC20 token, and that prior to the call to `settle()` they have each called `ERC20.approve()` for the at least the amounts they want settled in the Trade. Failure to do so will cause the call to `settle()` to fail."
      }
    }
  }
}