{
  "contractName": "Escrowable",
  "abi": [
    {
      "anonymous": false,
      "inputs": [
        {
          "indexed": true,
          "internalType": "address",
          "name": "owner",
          "type": "address"
        },
        {
          "indexed": true,
          "internalType": "address",
          "name": "spender",
          "type": "address"
        },
        {
          "indexed": false,
          "internalType": "uint256",
          "name": "value",
          "type": "uint256"
        }
      ],
      "name": "Approval",
      "type": "event"
    },
    {
      "anonymous": false,
      "inputs": [
        {
          "indexed": true,
          "internalType": "address",
          "name": "from",
          "type": "address"
        },
        {
          "indexed": true,
          "internalType": "address",
          "name": "to",
          "type": "address"
        },
        {
          "indexed": false,
          "internalType": "uint256",
          "name": "value",
          "type": "uint256"
        }
      ],
      "name": "Transfer",
      "type": "event"
    },
    {
      "anonymous": false,
      "inputs": [
        {
          "indexed": true,
          "internalType": "address",
          "name": "updatedBy",
          "type": "address"
        },
        {
          "indexed": false,
          "internalType": "uint256",
          "name": "requestId",
          "type": "uint256"
        },
        {
          "indexed": false,
          "internalType": "enum Escrowable.ProposalState",
          "name": "state",
          "type": "uint8"
        }
      ],
      "name": "TransferProposalUpdated",
      "type": "event"
    },
    {
      "constant": true,
      "inputs": [
        {
          "internalType": "address",
          "name": "owner",
          "type": "address"
        },
        {
          "internalType": "address",
          "name": "spender",
          "type": "address"
        }
      ],
      "name": "allowance",
      "outputs": [
        {
          "internalType": "uint256",
          "name": "",
          "type": "uint256"
        }
      ],
      "payable": false,
      "stateMutability": "view",
      "type": "function"
    },
    {
      "constant": false,
      "inputs": [
        {
          "internalType": "address",
          "name": "spender",
          "type": "address"
        },
        {
          "internalType": "uint256",
          "name": "amount",
          "type": "uint256"
        }
      ],
      "name": "approve",
      "outputs": [
        {
          "internalType": "bool",
          "name": "",
          "type": "bool"
        }
      ],
      "payable": false,
      "stateMutability": "nonpayable",
      "type": "function"
    },
    {
      "constant": true,
      "inputs": [
        {
          "internalType": "address",
          "name": "account",
          "type": "address"
        }
      ],
      "name": "balanceOf",
      "outputs": [
        {
          "internalType": "uint256",
          "name": "",
          "type": "uint256"
        }
      ],
      "payable": false,
      "stateMutability": "view",
      "type": "function"
    },
    {
      "constant": false,
      "inputs": [
        {
          "internalType": "address",
          "name": "spender",
          "type": "address"
        },
        {
          "internalType": "uint256",
          "name": "subtractedValue",
          "type": "uint256"
        }
      ],
      "name": "decreaseAllowance",
      "outputs": [
        {
          "internalType": "bool",
          "name": "",
          "type": "bool"
        }
      ],
      "payable": false,
      "stateMutability": "nonpayable",
      "type": "function"
    },
    {
      "constant": false,
      "inputs": [
        {
          "internalType": "address",
          "name": "spender",
          "type": "address"
        },
        {
          "internalType": "uint256",
          "name": "addedValue",
          "type": "uint256"
        }
      ],
      "name": "increaseAllowance",
      "outputs": [
        {
          "internalType": "bool",
          "name": "",
          "type": "bool"
        }
      ],
      "payable": false,
      "stateMutability": "nonpayable",
      "type": "function"
    },
    {
      "constant": true,
      "inputs": [],
      "name": "totalSupply",
      "outputs": [
        {
          "internalType": "uint256",
          "name": "",
          "type": "uint256"
        }
      ],
      "payable": false,
      "stateMutability": "view",
      "type": "function"
    },
    {
      "constant": false,
      "inputs": [
        {
          "internalType": "address",
          "name": "recipient",
          "type": "address"
        },
        {
          "internalType": "uint256",
          "name": "amount",
          "type": "uint256"
        }
      ],
      "name": "transfer",
      "outputs": [
        {
          "internalType": "bool",
          "name": "",
          "type": "bool"
        }
      ],
      "payable": false,
      "stateMutability": "nonpayable",
      "type": "function"
    },
    {
      "constant": false,
      "inputs": [
        {
          "internalType": "address",
          "name": "sender",
          "type": "address"
        },
        {
          "internalType": "address",
          "name": "recipient",
          "type": "address"
        },
        {
          "internalType": "uint256",
          "name": "amount",
          "type": "uint256"
        }
      ],
      "name": "transferFrom",
      "outputs": [
        {
          "internalType": "bool",
          "name": "",
          "type": "bool"
        }
      ],
      "payable": false,
      "stateMutability": "nonpayable",
      "type": "function"
    },
    {
      "constant": true,
      "inputs": [
        {
          "internalType": "uint256",
          "name": "",
          "type": "uint256"
        }
      ],
      "name": "transferProposals",
      "outputs": [
        {
          "internalType": "address",
          "name": "createdBy",
          "type": "address"
        },
        {
          "internalType": "address",
          "name": "from",
          "type": "address"
        },
        {
          "internalType": "address",
          "name": "to",
          "type": "address"
        },
        {
          "internalType": "uint256",
          "name": "value",
          "type": "uint256"
        },
        {
          "internalType": "enum Escrowable.ProposalState",
          "name": "state",
          "type": "uint8"
        }
      ],
      "payable": false,
      "stateMutability": "view",
      "type": "function"
    },
    {
      "constant": false,
      "inputs": [
        {
          "internalType": "uint256",
          "name": "requestId",
          "type": "uint256"
        }
      ],
      "name": "cancelTransferProposal",
      "outputs": [],
      "payable": false,
      "stateMutability": "nonpayable",
      "type": "function"
    },
    {
      "constant": true,
      "inputs": [
        {
          "internalType": "uint256",
          "name": "requestId",
          "type": "uint256"
        }
      ],
      "name": "getTransferProposal",
      "outputs": [
        {
          "internalType": "address",
          "name": "createdBy",
          "type": "address"
        },
        {
          "internalType": "address",
          "name": "from",
          "type": "address"
        },
        {
          "internalType": "address",
          "name": "to",
          "type": "address"
        },
        {
          "internalType": "uint256",
          "name": "value",
          "type": "uint256"
        },
        {
          "internalType": "enum Escrowable.ProposalState",
          "name": "state",
          "type": "uint8"
        }
      ],
      "payable": false,
      "stateMutability": "view",
      "type": "function"
    }
  ],
  "bytecode": "0x6080604052611533806100136000396000f3fe608060405234801561001057600080fd5b50600436106100a95760003560e01c8063535a7c1811610071578063535a7c181461030e57806370a08231146103fe578063a457c2d714610456578063a9059cbb146104bc578063cb0c0f3514610522578063dd62ed3e14610550576100a9565b8063012fe7fd146100ae578063095ea7b31461019e57806318160ddd1461020457806323b872dd1461022257806339509351146102a8575b600080fd5b6100da600480360360208110156100c457600080fd5b81019080803590602001909291905050506105c8565b604051808673ffffffffffffffffffffffffffffffffffffffff1673ffffffffffffffffffffffffffffffffffffffff1681526020018573ffffffffffffffffffffffffffffffffffffffff1673ffffffffffffffffffffffffffffffffffffffff1681526020018473ffffffffffffffffffffffffffffffffffffffff1673ffffffffffffffffffffffffffffffffffffffff16815260200183815260200182600381111561018657fe5b60ff1681526020019550505050505060405180910390f35b6101ea600480360360408110156101b457600080fd5b81019080803573ffffffffffffffffffffffffffffffffffffffff1690602001909291908035906020019092919050505061066b565b604051808215151515815260200191505060405180910390f35b61020c610689565b6040518082815260200191505060405180910390f35b61028e6004803603606081101561023857600080fd5b81019080803573ffffffffffffffffffffffffffffffffffffffff169060200190929190803573ffffffffffffffffffffffffffffffffffffffff16906020019092919080359060200190929190505050610693565b604051808215151515815260200191505060405180910390f35b6102f4600480360360408110156102be57600080fd5b81019080803573ffffffffffffffffffffffffffffffffffffffff1690602001909291908035906020019092919050505061076c565b604051808215151515815260200191505060405180910390f35b61033a6004803603602081101561032457600080fd5b810190808035906020019092919050505061081f565b604051808673ffffffffffffffffffffffffffffffffffffffff1673ffffffffffffffffffffffffffffffffffffffff1681526020018573ffffffffffffffffffffffffffffffffffffffff1673ffffffffffffffffffffffffffffffffffffffff1681526020018473ffffffffffffffffffffffffffffffffffffffff1673ffffffffffffffffffffffffffffffffffffffff1681526020018381526020018260038111156103e657fe5b60ff1681526020019550505050505060405180910390f35b6104406004803603602081101561041457600080fd5b81019080803573ffffffffffffffffffffffffffffffffffffffff16906020019092919050505061094f565b6040518082815260200191505060405180910390f35b6104a26004803603604081101561046c57600080fd5b81019080803573ffffffffffffffffffffffffffffffffffffffff16906020019092919080359060200190929190505050610998565b604051808215151515815260200191505060405180910390f35b610508600480360360408110156104d257600080fd5b81019080803573ffffffffffffffffffffffffffffffffffffffff16906020019092919080359060200190929190505050610a65565b604051808215151515815260200191505060405180910390f35b61054e6004803603602081101561053857600080fd5b8101908080359060200190929190505050610a83565b005b6105b26004803603604081101561056657600080fd5b81019080803573ffffffffffffffffffffffffffffffffffffffff169060200190929190803573ffffffffffffffffffffffffffffffffffffffff169060200190929190505050610c5f565b6040518082815260200191505060405180910390f35b60696020528060005260406000206000915090508060000160009054906101000a900473ffffffffffffffffffffffffffffffffffffffff16908060010160009054906101000a900473ffffffffffffffffffffffffffffffffffffffff16908060020160009054906101000a900473ffffffffffffffffffffffffffffffffffffffff16908060030154908060040160009054906101000a900460ff16905085565b600061067f610678610ce6565b8484610cee565b6001905092915050565b6000603554905090565b60006106a0848484610ee5565b610761846106ac610ce6565b61075c8560405180606001604052806028815260200161144860289139603460008b73ffffffffffffffffffffffffffffffffffffffff1673ffffffffffffffffffffffffffffffffffffffff1681526020019081526020016000206000610712610ce6565b73ffffffffffffffffffffffffffffffffffffffff1673ffffffffffffffffffffffffffffffffffffffff1681526020019081526020016000205461119f9092919063ffffffff16565b610cee565b600190509392505050565b6000610815610779610ce6565b84610810856034600061078a610ce6565b73ffffffffffffffffffffffffffffffffffffffff1673ffffffffffffffffffffffffffffffffffffffff16815260200190815260200160002060008973ffffffffffffffffffffffffffffffffffffffff1673ffffffffffffffffffffffffffffffffffffffff1681526020019081526020016000205461125f90919063ffffffff16565b610cee565b6001905092915050565b6000806000806000606854861061089e576040517f08c379a00000000000000000000000000000000000000000000000000000000081526004018080602001828103825260198152602001807f726571756573744964206973206f7574206f662072616e67650000000000000081525060200191505060405180910390fd5b60006069600088815260200190815260200160002090508060000160009054906101000a900473ffffffffffffffffffffffffffffffffffffffff1695508060010160009054906101000a900473ffffffffffffffffffffffffffffffffffffffff1694508060020160009054906101000a900473ffffffffffffffffffffffffffffffffffffffff169350806003015492508060040160009054906101000a900460ff1691505091939590929450565b6000603360008373ffffffffffffffffffffffffffffffffffffffff1673ffffffffffffffffffffffffffffffffffffffff168152602001908152602001600020549050919050565b6000610a5b6109a5610ce6565b84610a56856040518060600160405280602581526020016114da60259139603460006109cf610ce6565b73ffffffffffffffffffffffffffffffffffffffff1673ffffffffffffffffffffffffffffffffffffffff16815260200190815260200160002060008a73ffffffffffffffffffffffffffffffffffffffff1673ffffffffffffffffffffffffffffffffffffffff1681526020019081526020016000205461119f9092919063ffffffff16565b610cee565b6001905092915050565b6000610a79610a72610ce6565b8484610ee5565b6001905092915050565b6068548110610add576040517f08c379a00000000000000000000000000000000000000000000000000000000081526004018080602001828103825260218152602001806114706021913960400191505060405180910390fd5b600060696000838152602001908152602001600020905060006003811115610b0157fe5b8160040160009054906101000a900460ff166003811115610b1e57fe5b14610b74576040517f08c379a000000000000000000000000000000000000000000000000000000000815260040180806020018281038252602b8152602001806113f2602b913960400191505060405180910390fd5b8060000160009054906101000a900473ffffffffffffffffffffffffffffffffffffffff1673ffffffffffffffffffffffffffffffffffffffff163373ffffffffffffffffffffffffffffffffffffffff1614610c1c576040517f08c379a000000000000000000000000000000000000000000000000000000000815260040180806020018281038252602b81526020018061141d602b913960400191505060405180910390fd5b610c4f308260010160009054906101000a900473ffffffffffffffffffffffffffffffffffffffff168360030154610ee5565b610c5b818360036112e7565b5050565b6000603460008473ffffffffffffffffffffffffffffffffffffffff1673ffffffffffffffffffffffffffffffffffffffff16815260200190815260200160002060008373ffffffffffffffffffffffffffffffffffffffff1673ffffffffffffffffffffffffffffffffffffffff16815260200190815260200160002054905092915050565b600033905090565b600073ffffffffffffffffffffffffffffffffffffffff168373ffffffffffffffffffffffffffffffffffffffff161415610d74576040517f08c379a00000000000000000000000000000000000000000000000000000000081526004018080602001828103825260248152602001806114b66024913960400191505060405180910390fd5b600073ffffffffffffffffffffffffffffffffffffffff168273ffffffffffffffffffffffffffffffffffffffff161415610dfa576040517f08c379a00000000000000000000000000000000000000000000000000000000081526004018080602001828103825260228152602001806113aa6022913960400191505060405180910390fd5b80603460008573ffffffffffffffffffffffffffffffffffffffff1673ffffffffffffffffffffffffffffffffffffffff16815260200190815260200160002060008473ffffffffffffffffffffffffffffffffffffffff1673ffffffffffffffffffffffffffffffffffffffff168152602001908152602001600020819055508173ffffffffffffffffffffffffffffffffffffffff168373ffffffffffffffffffffffffffffffffffffffff167f8c5be1e5ebec7d5bd14f71427d1e84f3dd0314c0f7b2291e5b200ac8c7c3b925836040518082815260200191505060405180910390a3505050565b600073ffffffffffffffffffffffffffffffffffffffff168373ffffffffffffffffffffffffffffffffffffffff161415610f6b576040517f08c379a00000000000000000000000000000000000000000000000000000000081526004018080602001828103825260258152602001806114916025913960400191505060405180910390fd5b600073ffffffffffffffffffffffffffffffffffffffff168273ffffffffffffffffffffffffffffffffffffffff161415610ff1576040517f08c379a00000000000000000000000000000000000000000000000000000000081526004018080602001828103825260238152602001806113876023913960400191505060405180910390fd5b61105d816040518060600160405280602681526020016113cc60269139603360008773ffffffffffffffffffffffffffffffffffffffff1673ffffffffffffffffffffffffffffffffffffffff1681526020019081526020016000205461119f9092919063ffffffff16565b603360008573ffffffffffffffffffffffffffffffffffffffff1673ffffffffffffffffffffffffffffffffffffffff168152602001908152602001600020819055506110f281603360008573ffffffffffffffffffffffffffffffffffffffff1673ffffffffffffffffffffffffffffffffffffffff1681526020019081526020016000205461125f90919063ffffffff16565b603360008473ffffffffffffffffffffffffffffffffffffffff1673ffffffffffffffffffffffffffffffffffffffff168152602001908152602001600020819055508173ffffffffffffffffffffffffffffffffffffffff168373ffffffffffffffffffffffffffffffffffffffff167fddf252ad1be2c89b69c2b068fc378daa952ba7f163c4a11628f55a4df523b3ef836040518082815260200191505060405180910390a3505050565b600083831115829061124c576040517f08c379a00000000000000000000000000000000000000000000000000000000081526004018080602001828103825283818151815260200191508051906020019080838360005b838110156112115780820151818401526020810190506111f6565b50505050905090810190601f16801561123e5780820380516001836020036101000a031916815260200191505b509250505060405180910390fd5b5060008385039050809150509392505050565b6000808284019050838110156112dd576040517f08c379a000000000000000000000000000000000000000000000000000000000815260040180806020018281038252601b8152602001807f536166654d6174683a206164646974696f6e206f766572666c6f77000000000081525060200191505060405180910390fd5b8091505092915050565b808360040160006101000a81548160ff0219169083600381111561130757fe5b02179055503373ffffffffffffffffffffffffffffffffffffffff167f37c022e8b41869a28d52a95d97338cc58db90c5e01027e7b5db628b620332d5f838560040160009054906101000a900460ff166040518083815260200182600381111561136d57fe5b60ff1681526020019250505060405180910390a250505056fe45524332303a207472616e7366657220746f20746865207a65726f206164647265737345524332303a20617070726f766520746f20746865207a65726f206164647265737345524332303a207472616e7366657220616d6f756e7420657863656564732062616c616e636552657175657374206d75737420626520696e2050656e64696e6720737461746520746f2063616e63656c2e4f6e6c79207468652063726561746f72206f66206120726571756573742063616e2063616e63656c20697445524332303a207472616e7366657220616d6f756e74206578636565647320616c6c6f77616e636552657175657374204944206973206e6f7420696e2070726f7065722072616e676545524332303a207472616e736665722066726f6d20746865207a65726f206164647265737345524332303a20617070726f76652066726f6d20746865207a65726f206164647265737345524332303a2064656372656173656420616c6c6f77616e63652062656c6f77207a65726fa265627a7a7231582096d3de7f04070c3ba6c7d5db4fae3dbfb918acdca47256aa7647a6dd9dcc800c64736f6c63430005100032",
  "source": "pragma solidity 0.5.16;\n\nimport \"@openzeppelin/contracts-ethereum-package/contracts/token/ERC20/ERC20.sol\";\n\n/**\nKeeps track of transfers that have been requested and locked up in escrow.\nAn administrator is required to approve/reject transfer proposals.\nA user can cancel a previously requested transfer that is locked in escrow.\n */\ncontract Escrowable is ERC20 {\n\n    // Event emitted when a proposal is created/updated\n    event TransferProposalUpdated(address indexed updatedBy, uint requestId, ProposalState state);\n\n    // The valid states a proposal can be in\n    enum ProposalState { Pending, Approved, Rejected, Canceled }\n\n    // The struct tracking each transfer proposal\n    struct TransferProposal {\n        address createdBy;\n        address from;\n        address to;\n        uint256 value;\n        ProposalState state;\n    }\n\n    // Transfer requests will be tracked by a monotonic ID that increases after each proposal is created\n    uint numTransferProposals;\n    mapping (uint => TransferProposal) public transferProposals;\n\n    /**\n     * Internal function to create a new proposal that will lock funds into escrow.  This should only be called\n     * once the balances are confirmed to be sufficient to create the proposal (account should have enough funds outside of proposals)\n     */\n    function _createTransferProposal(address to, uint256 value) internal returns(bool) {\n\n\n        // Save off the transfer request\n        transferProposals[numTransferProposals] = TransferProposal(msg.sender, msg.sender, to, value, ProposalState.Pending);\n\n        // Emit the request event\n        emit TransferProposalUpdated(msg.sender, numTransferProposals, ProposalState.Pending);\n\n        // Increment the request counter\n        numTransferProposals = numTransferProposals + 1;\n\n        // Move the tokens into this contract\n        ERC20.transfer(address(this), value);\n\n        return true;\n    }\n\n    /**\n     * Internal function to create a new proposal from a 3rd party account that will lock funds into escrow.  This should only be called\n     * once the balances are confirmed to be sufficient to create the proposal (account should have enough funds outside of proposals, and\n     * the calling account has been approved to transfer the amount)\n     */\n    function _createTransferFromProposal(address from, address to, uint256 value) internal returns (bool) {\n\n        // Save off the transfer request\n        transferProposals[numTransferProposals] = TransferProposal(msg.sender, from, to, value, ProposalState.Pending);\n\n        // Emit the request event\n        emit TransferProposalUpdated(msg.sender, numTransferProposals, ProposalState.Pending);\n\n        // Increment the request counter\n        numTransferProposals = numTransferProposals + 1;\n\n        // Move the tokens into this contract\n        ERC20.transferFrom(from, address(this), value);\n\n        return true;\n    }\n\n    function _releaseProposal(TransferProposal storage request, uint requestId, ProposalState newState) internal {\n        // Update request\n        request.state = newState;\n        emit TransferProposalUpdated(msg.sender, requestId, request.state);\n    }\n\n    /**\n     * An administrator has the ability to approve a proposal.  During approval process, funds will be moved\n     * to the target account.\n     */\n    function _approveTransferProposal(uint requestId) internal {\n        // Ensure the request ID is valid\n        require(requestId < numTransferProposals, \"Request ID is not in proper range\");\n\n        // Get the request\n        TransferProposal storage request = transferProposals[requestId];\n\n        // Ensure the request can be approved\n        require(request.state == ProposalState.Pending, \"Request must be in Pending state to approve.\");\n\n        // Transfer funds - function will check balances\n        ERC20._transfer(address(this), request.to, request.value);\n\n        // Release the proposal\n        _releaseProposal(request, requestId, ProposalState.Approved);\n    }\n\n    /**\n     * An administrator has the ability to reject a proposal.  During rejection process, funds will be unlocked\n     * from the source account.\n     */\n    function _rejectTransferProposal(uint requestId) internal {\n        // Ensure the request ID is valid\n        require(requestId < numTransferProposals, \"Request ID is not in proper range\");\n\n        // Get the request\n        TransferProposal storage request = transferProposals[requestId];\n\n        // Ensure the request can be rejected\n        require(request.state == ProposalState.Pending, \"Request must be in Pending state to reject.\");\n\n        // Transfer funds back to source - function will check balances\n        ERC20._transfer(address(this), request.from, request.value);\n\n        // Release the proposal\n        _releaseProposal(request, requestId, ProposalState.Rejected);\n    }\n\n    /**\n     * If a user locks up funds in a proposal, they can cancel it as long as an administrator has not\n     * already approved or rejected it.\n     */\n    function cancelTransferProposal(uint requestId) public {\n        // Ensure the request ID is valid\n        require(requestId < numTransferProposals, \"Request ID is not in proper range\");\n\n        // Get the request\n        TransferProposal storage request = transferProposals[requestId];\n\n        require(request.state == ProposalState.Pending, \"Request must be in Pending state to cancel.\");\n\n        // Ensure the message sender it the address where funds are moving from\n        require(msg.sender == request.createdBy, \"Only the creator of a request can cancel it\");\n\n        // Transfer funds back to source - function will check balances\n        ERC20._transfer(address(this), request.from, request.value);\n\n         // Release the proposal\n        _releaseProposal(request, requestId, ProposalState.Canceled);\n    }\n\n    function getTransferProposal(uint requestId)\n        public\n        view\n        returns (\n            address createdBy,\n            address from,\n            address to,\n            uint256 value,\n            ProposalState state\n        )\n    {\n        require(requestId < numTransferProposals, \"requestId is out of range\");\n        TransferProposal storage request = transferProposals[requestId];\n        createdBy = request.createdBy;\n        from = request.from;\n        to = request.to;\n        value = request.value;\n        state = request.state;\n    } \n}",
  "sourcePath": "/Users/james/Source/tokensoft/tokensoft_token/contracts/testing/Escrowable.sol",
  "compiler": {
    "name": "solc",
    "version": "0.5.16+commit.9c3226ce.Emscripten.clang"
  },
  "schemaVersion": "3.1.0",
  "updatedAt": "2020-05-05T22:50:47.586Z",
  "devdoc": {
    "methods": {
      "allowance(address,address)": {
        "details": "See {IERC20-allowance}."
      },
      "approve(address,uint256)": {
        "details": "See {IERC20-approve}.     * Requirements:     * - `spender` cannot be the zero address."
      },
      "balanceOf(address)": {
        "details": "See {IERC20-balanceOf}."
      },
      "decreaseAllowance(address,uint256)": {
        "details": "Atomically decreases the allowance granted to `spender` by the caller.     * This is an alternative to {approve} that can be used as a mitigation for problems described in {IERC20-approve}.     * Emits an {Approval} event indicating the updated allowance.     * Requirements:     * - `spender` cannot be the zero address. - `spender` must have allowance for the caller of at least `subtractedValue`."
      },
      "increaseAllowance(address,uint256)": {
        "details": "Atomically increases the allowance granted to `spender` by the caller.     * This is an alternative to {approve} that can be used as a mitigation for problems described in {IERC20-approve}.     * Emits an {Approval} event indicating the updated allowance.     * Requirements:     * - `spender` cannot be the zero address."
      },
      "totalSupply()": {
        "details": "See {IERC20-totalSupply}."
      },
      "transfer(address,uint256)": {
        "details": "See {IERC20-transfer}.     * Requirements:     * - `recipient` cannot be the zero address. - the caller must have a balance of at least `amount`."
      },
      "transferFrom(address,address,uint256)": {
        "details": "See {IERC20-transferFrom}.     * Emits an {Approval} event indicating the updated allowance. This is not required by the EIP. See the note at the beginning of {ERC20};     * Requirements: - `sender` and `recipient` cannot be the zero address. - `sender` must have a balance of at least `amount`. - the caller must have allowance for `sender`'s tokens of at least `amount`."
      }
    }
  },
  "userdoc": {
    "methods": {
      "cancelTransferProposal(uint256)": {
        "notice": "If a user locks up funds in a proposal, they can cancel it as long as an administrator has not already approved or rejected it."
      }
    },
    "notice": "Keeps track of transfers that have been requested and locked up in escrow. An administrator is required to approve/reject transfer proposals. A user can cancel a previously requested transfer that is locked in escrow."
  }
}