{
  "contractName": "EscrowerRole",
  "abi": [
    {
      "anonymous": false,
      "inputs": [
        {
          "indexed": true,
          "internalType": "address",
          "name": "addedEscrow",
          "type": "address"
        },
        {
          "indexed": true,
          "internalType": "address",
          "name": "addedBy",
          "type": "address"
        }
      ],
      "name": "EscrowerAdded",
      "type": "event"
    },
    {
      "anonymous": false,
      "inputs": [
        {
          "indexed": true,
          "internalType": "address",
          "name": "removedEscrow",
          "type": "address"
        },
        {
          "indexed": true,
          "internalType": "address",
          "name": "removedBy",
          "type": "address"
        }
      ],
      "name": "EscrowerRemoved",
      "type": "event"
    },
    {
      "anonymous": false,
      "inputs": [
        {
          "indexed": true,
          "internalType": "address",
          "name": "addedOwner",
          "type": "address"
        },
        {
          "indexed": true,
          "internalType": "address",
          "name": "addedBy",
          "type": "address"
        }
      ],
      "name": "OwnerAdded",
      "type": "event"
    },
    {
      "anonymous": false,
      "inputs": [
        {
          "indexed": true,
          "internalType": "address",
          "name": "removedOwner",
          "type": "address"
        },
        {
          "indexed": true,
          "internalType": "address",
          "name": "removedBy",
          "type": "address"
        }
      ],
      "name": "OwnerRemoved",
      "type": "event"
    },
    {
      "constant": false,
      "inputs": [
        {
          "internalType": "address",
          "name": "account",
          "type": "address"
        }
      ],
      "name": "addOwner",
      "outputs": [],
      "payable": false,
      "stateMutability": "nonpayable",
      "type": "function"
    },
    {
      "constant": true,
      "inputs": [
        {
          "internalType": "address",
          "name": "account",
          "type": "address"
        }
      ],
      "name": "isOwner",
      "outputs": [
        {
          "internalType": "bool",
          "name": "",
          "type": "bool"
        }
      ],
      "payable": false,
      "stateMutability": "view",
      "type": "function"
    },
    {
      "constant": false,
      "inputs": [
        {
          "internalType": "address",
          "name": "account",
          "type": "address"
        }
      ],
      "name": "removeOwner",
      "outputs": [],
      "payable": false,
      "stateMutability": "nonpayable",
      "type": "function"
    },
    {
      "constant": true,
      "inputs": [
        {
          "internalType": "address",
          "name": "account",
          "type": "address"
        }
      ],
      "name": "isEscrower",
      "outputs": [
        {
          "internalType": "bool",
          "name": "",
          "type": "bool"
        }
      ],
      "payable": false,
      "stateMutability": "view",
      "type": "function"
    },
    {
      "constant": false,
      "inputs": [
        {
          "internalType": "address",
          "name": "account",
          "type": "address"
        }
      ],
      "name": "addEscrower",
      "outputs": [],
      "payable": false,
      "stateMutability": "nonpayable",
      "type": "function"
    },
    {
      "constant": false,
      "inputs": [
        {
          "internalType": "address",
          "name": "account",
          "type": "address"
        }
      ],
      "name": "removeEscrower",
      "outputs": [],
      "payable": false,
      "stateMutability": "nonpayable",
      "type": "function"
    }
  ],
  "bytecode": "0x608060405234801561001057600080fd5b50610a51806100206000396000f3fe608060405234801561001057600080fd5b50600436106100625760003560e01c8063173825d9146100675780632f54bf6e146100ab5780637065cb48146101075780638f6aabac1461014b57806393489f1d1461018f578063e884e1b4146101d3575b600080fd5b6100a96004803603602081101561007d57600080fd5b81019080803573ffffffffffffffffffffffffffffffffffffffff16906020019092919050505061022f565b005b6100ed600480360360208110156100c157600080fd5b81019080803573ffffffffffffffffffffffffffffffffffffffff16906020019092919050505061031e565b604051808215151515815260200191505060405180910390f35b6101496004803603602081101561011d57600080fd5b81019080803573ffffffffffffffffffffffffffffffffffffffff16906020019092919050505061033b565b005b61018d6004803603602081101561016157600080fd5b81019080803573ffffffffffffffffffffffffffffffffffffffff1690602001909291905050506103a5565b005b6101d1600480360360208110156101a557600080fd5b81019080803573ffffffffffffffffffffffffffffffffffffffff16906020019092919050505061040f565b005b610215600480360360208110156101e957600080fd5b81019080803573ffffffffffffffffffffffffffffffffffffffff1690602001909291905050506104fe565b604051808215151515815260200191505060405180910390f35b6102383361031e565b61028d576040517f08c379a000000000000000000000000000000000000000000000000000000000815260040180806020018281038252602e815260200180610956602e913960400191505060405180910390fd5b8073ffffffffffffffffffffffffffffffffffffffff163373ffffffffffffffffffffffffffffffffffffffff161415610312576040517f08c379a00000000000000000000000000000000000000000000000000000000081526004018080602001828103825260288152602001806109c76028913960400191505060405180910390fd5b61031b8161051b565b50565b600061033482600061058c90919063ffffffff16565b9050919050565b6103443361031e565b610399576040517f08c379a000000000000000000000000000000000000000000000000000000000815260040180806020018281038252602e815260200180610956602e913960400191505060405180910390fd5b6103a28161066a565b50565b6103ae3361031e565b610403576040517f08c379a000000000000000000000000000000000000000000000000000000000815260040180806020018281038252602e815260200180610956602e913960400191505060405180910390fd5b61040c816106db565b50565b6104183361031e565b61046d576040517f08c379a000000000000000000000000000000000000000000000000000000000815260040180806020018281038252602e815260200180610956602e913960400191505060405180910390fd5b8073ffffffffffffffffffffffffffffffffffffffff163373ffffffffffffffffffffffffffffffffffffffff1614156104f2576040517f08c379a000000000000000000000000000000000000000000000000000000000815260040180806020018281038252602e8152602001806109ef602e913960400191505060405180910390fd5b6104fb8161074c565b50565b600061051482600161058c90919063ffffffff16565b9050919050565b61052f8160006107bd90919063ffffffff16565b3373ffffffffffffffffffffffffffffffffffffffff168173ffffffffffffffffffffffffffffffffffffffff167fe594d081b4382713733fe631966432c9cea5199afb2db5c3c1931f9f9300367960405160405180910390a350565b60008073ffffffffffffffffffffffffffffffffffffffff168273ffffffffffffffffffffffffffffffffffffffff161415610613576040517f08c379a00000000000000000000000000000000000000000000000000000000081526004018080602001828103825260228152602001806109a56022913960400191505060405180910390fd5b8260000160008373ffffffffffffffffffffffffffffffffffffffff1673ffffffffffffffffffffffffffffffffffffffff16815260200190815260200160002060009054906101000a900460ff16905092915050565b61067e81600061087a90919063ffffffff16565b3373ffffffffffffffffffffffffffffffffffffffff168173ffffffffffffffffffffffffffffffffffffffff167fc82bdbbf677a2462f2a7e22e4ba9abd209496b69cd7b868b3b1d28f76e09a40a60405160405180910390a350565b6106ef81600161087a90919063ffffffff16565b3373ffffffffffffffffffffffffffffffffffffffff168173ffffffffffffffffffffffffffffffffffffffff167fc40499ba035b8062e6798e3416432187fdca530d217e788b87357cddd5c56ac660405160405180910390a350565b6107608160016107bd90919063ffffffff16565b3373ffffffffffffffffffffffffffffffffffffffff168173ffffffffffffffffffffffffffffffffffffffff167ffc92afc8a5449a0672774ee4b158bd167b5aa87938ddab1c116e96b2be589e8c60405160405180910390a350565b6107c7828261058c565b61081c576040517f08c379a00000000000000000000000000000000000000000000000000000000081526004018080602001828103825260218152602001806109846021913960400191505060405180910390fd5b60008260000160008373ffffffffffffffffffffffffffffffffffffffff1673ffffffffffffffffffffffffffffffffffffffff16815260200190815260200160002060006101000a81548160ff0219169083151502179055505050565b610884828261058c565b156108f7576040517f08c379a000000000000000000000000000000000000000000000000000000000815260040180806020018281038252601f8152602001807f526f6c65733a206163636f756e7420616c72656164792068617320726f6c650081525060200191505060405180910390fd5b60018260000160008373ffffffffffffffffffffffffffffffffffffffff1673ffffffffffffffffffffffffffffffffffffffff16815260200190815260200160002060006101000a81548160ff021916908315150217905550505056fe4f776e6572526f6c653a2063616c6c657220646f6573206e6f74206861766520746865204f776e657220726f6c65526f6c65733a206163636f756e7420646f6573206e6f74206861766520726f6c65526f6c65733a206163636f756e7420697320746865207a65726f20616464726573734f776e6572732063616e6e6f742072656d6f7665207468656d73656c766573206173206f776e6572457363726f776572732063616e6e6f742072656d6f7665207468656d73656c76657320617320457363726f776572a265627a7a7231582074d3e3bfe93ffc262586b89dfce75dbcefbedbc3fbe274ecceceee9c512a63a764736f6c63430005100032",
  "source": "pragma solidity 0.5.16;\n\nimport \"../roles/OwnerRole.sol\";\n\ncontract EscrowerRole is OwnerRole {\n\n    event EscrowerAdded(address indexed addedEscrow, address indexed addedBy);\n    event EscrowerRemoved(address indexed removedEscrow, address indexed removedBy);\n\n    Roles.Role private _escrowers;\n\n    modifier onlyEscrower() {\n        require(isEscrower(msg.sender), \"EscrowerRole: caller does not have the Escrow role\");\n        _;\n    }\n\n    function isEscrower(address account) public view returns (bool) {\n        return _escrowers.has(account);\n    }\n\n    function _addEscrower(address account) internal {\n        _escrowers.add(account);\n        emit EscrowerAdded(account, msg.sender);\n    }\n\n    function _removeEscrower(address account) internal {\n        _escrowers.remove(account);\n        emit EscrowerRemoved(account, msg.sender);\n    }\n\n    function addEscrower(address account) public onlyOwner {\n        _addEscrower(account);\n    }\n\n    function removeEscrower(address account) public onlyOwner {\n        require(msg.sender != account, \"Escrowers cannot remove themselves as Escrower\");\n        _removeEscrower(account);\n    }\n\n}",
  "sourcePath": "/Users/james/Source/tokensoft/tokensoft_token/contracts/testing/EscrowerRole.sol",
  "compiler": {
    "name": "solc",
    "version": "0.5.16+commit.9c3226ce.Emscripten.clang"
  },
  "schemaVersion": "3.1.0",
  "updatedAt": "2020-06-15T18:46:21.568Z",
  "devdoc": {
    "methods": {}
  },
  "userdoc": {
    "methods": {}
  }
}