{
  "contractName": "Mintable",
  "abi": [
    {
      "anonymous": false,
      "inputs": [
        {
          "indexed": true,
          "internalType": "address",
          "name": "owner",
          "type": "address"
        },
        {
          "indexed": true,
          "internalType": "address",
          "name": "spender",
          "type": "address"
        },
        {
          "indexed": false,
          "internalType": "uint256",
          "name": "value",
          "type": "uint256"
        }
      ],
      "name": "Approval",
      "type": "event"
    },
    {
      "anonymous": false,
      "inputs": [
        {
          "indexed": true,
          "internalType": "address",
          "name": "minter",
          "type": "address"
        },
        {
          "indexed": true,
          "internalType": "address",
          "name": "to",
          "type": "address"
        },
        {
          "indexed": false,
          "internalType": "uint256",
          "name": "amount",
          "type": "uint256"
        }
      ],
      "name": "Mint",
      "type": "event"
    },
    {
      "anonymous": false,
      "inputs": [
        {
          "indexed": true,
          "internalType": "address",
          "name": "addedMinter",
          "type": "address"
        },
        {
          "indexed": true,
          "internalType": "address",
          "name": "addedBy",
          "type": "address"
        }
      ],
      "name": "MinterAdded",
      "type": "event"
    },
    {
      "anonymous": false,
      "inputs": [
        {
          "indexed": true,
          "internalType": "address",
          "name": "removedMinter",
          "type": "address"
        },
        {
          "indexed": true,
          "internalType": "address",
          "name": "removedBy",
          "type": "address"
        }
      ],
      "name": "MinterRemoved",
      "type": "event"
    },
    {
      "anonymous": false,
      "inputs": [
        {
          "indexed": true,
          "internalType": "address",
          "name": "addedOwner",
          "type": "address"
        },
        {
          "indexed": true,
          "internalType": "address",
          "name": "addedBy",
          "type": "address"
        }
      ],
      "name": "OwnerAdded",
      "type": "event"
    },
    {
      "anonymous": false,
      "inputs": [
        {
          "indexed": true,
          "internalType": "address",
          "name": "removedOwner",
          "type": "address"
        },
        {
          "indexed": true,
          "internalType": "address",
          "name": "removedBy",
          "type": "address"
        }
      ],
      "name": "OwnerRemoved",
      "type": "event"
    },
    {
      "anonymous": false,
      "inputs": [
        {
          "indexed": true,
          "internalType": "address",
          "name": "from",
          "type": "address"
        },
        {
          "indexed": true,
          "internalType": "address",
          "name": "to",
          "type": "address"
        },
        {
          "indexed": false,
          "internalType": "uint256",
          "name": "value",
          "type": "uint256"
        }
      ],
      "name": "Transfer",
      "type": "event"
    },
    {
      "inputs": [
        {
          "internalType": "address",
          "name": "account",
          "type": "address"
        }
      ],
      "name": "addMinter",
      "outputs": [],
      "stateMutability": "nonpayable",
      "type": "function"
    },
    {
      "inputs": [
        {
          "internalType": "address",
          "name": "account",
          "type": "address"
        }
      ],
      "name": "addOwner",
      "outputs": [],
      "stateMutability": "nonpayable",
      "type": "function"
    },
    {
      "inputs": [
        {
          "internalType": "address",
          "name": "owner",
          "type": "address"
        },
        {
          "internalType": "address",
          "name": "spender",
          "type": "address"
        }
      ],
      "name": "allowance",
      "outputs": [
        {
          "internalType": "uint256",
          "name": "",
          "type": "uint256"
        }
      ],
      "stateMutability": "view",
      "type": "function"
    },
    {
      "inputs": [
        {
          "internalType": "address",
          "name": "spender",
          "type": "address"
        },
        {
          "internalType": "uint256",
          "name": "amount",
          "type": "uint256"
        }
      ],
      "name": "approve",
      "outputs": [
        {
          "internalType": "bool",
          "name": "",
          "type": "bool"
        }
      ],
      "stateMutability": "nonpayable",
      "type": "function"
    },
    {
      "inputs": [
        {
          "internalType": "address",
          "name": "account",
          "type": "address"
        }
      ],
      "name": "balanceOf",
      "outputs": [
        {
          "internalType": "uint256",
          "name": "",
          "type": "uint256"
        }
      ],
      "stateMutability": "view",
      "type": "function"
    },
    {
      "inputs": [
        {
          "internalType": "address",
          "name": "spender",
          "type": "address"
        },
        {
          "internalType": "uint256",
          "name": "subtractedValue",
          "type": "uint256"
        }
      ],
      "name": "decreaseAllowance",
      "outputs": [
        {
          "internalType": "bool",
          "name": "",
          "type": "bool"
        }
      ],
      "stateMutability": "nonpayable",
      "type": "function"
    },
    {
      "inputs": [
        {
          "internalType": "address",
          "name": "spender",
          "type": "address"
        },
        {
          "internalType": "uint256",
          "name": "addedValue",
          "type": "uint256"
        }
      ],
      "name": "increaseAllowance",
      "outputs": [
        {
          "internalType": "bool",
          "name": "",
          "type": "bool"
        }
      ],
      "stateMutability": "nonpayable",
      "type": "function"
    },
    {
      "inputs": [
        {
          "internalType": "address",
          "name": "account",
          "type": "address"
        }
      ],
      "name": "isMinter",
      "outputs": [
        {
          "internalType": "bool",
          "name": "",
          "type": "bool"
        }
      ],
      "stateMutability": "view",
      "type": "function"
    },
    {
      "inputs": [
        {
          "internalType": "address",
          "name": "account",
          "type": "address"
        }
      ],
      "name": "isOwner",
      "outputs": [
        {
          "internalType": "bool",
          "name": "",
          "type": "bool"
        }
      ],
      "stateMutability": "view",
      "type": "function"
    },
    {
      "inputs": [
        {
          "internalType": "address",
          "name": "account",
          "type": "address"
        }
      ],
      "name": "removeMinter",
      "outputs": [],
      "stateMutability": "nonpayable",
      "type": "function"
    },
    {
      "inputs": [
        {
          "internalType": "address",
          "name": "account",
          "type": "address"
        }
      ],
      "name": "removeOwner",
      "outputs": [],
      "stateMutability": "nonpayable",
      "type": "function"
    },
    {
      "inputs": [],
      "name": "totalSupply",
      "outputs": [
        {
          "internalType": "uint256",
          "name": "",
          "type": "uint256"
        }
      ],
      "stateMutability": "view",
      "type": "function"
    },
    {
      "inputs": [
        {
          "internalType": "address",
          "name": "recipient",
          "type": "address"
        },
        {
          "internalType": "uint256",
          "name": "amount",
          "type": "uint256"
        }
      ],
      "name": "transfer",
      "outputs": [
        {
          "internalType": "bool",
          "name": "",
          "type": "bool"
        }
      ],
      "stateMutability": "nonpayable",
      "type": "function"
    },
    {
      "inputs": [
        {
          "internalType": "address",
          "name": "sender",
          "type": "address"
        },
        {
          "internalType": "address",
          "name": "recipient",
          "type": "address"
        },
        {
          "internalType": "uint256",
          "name": "amount",
          "type": "uint256"
        }
      ],
      "name": "transferFrom",
      "outputs": [
        {
          "internalType": "bool",
          "name": "",
          "type": "bool"
        }
      ],
      "stateMutability": "nonpayable",
      "type": "function"
    },
    {
      "inputs": [
        {
          "internalType": "address",
          "name": "account",
          "type": "address"
        },
        {
          "internalType": "uint256",
          "name": "amount",
          "type": "uint256"
        }
      ],
      "name": "mint",
      "outputs": [
        {
          "internalType": "bool",
          "name": "",
          "type": "bool"
        }
      ],
      "stateMutability": "nonpayable",
      "type": "function"
    }
  ],
  "bytecode": "0x608060405234801561001057600080fd5b50610fdf806100206000396000f3fe608060405234801561001057600080fd5b50600436106100f55760003560e01c806340c10f1911610097578063a457c2d711610066578063a457c2d7146102c8578063a9059cbb146102f4578063aa271e1a14610320578063dd62ed3e14610346576100f5565b806340c10f191461022a5780637065cb481461025657806370a082311461027c578063983b2d56146102a2576100f5565b806323b872dd116100d357806323b872dd1461017c5780632f54bf6e146101b25780633092afd5146101d857806339509351146101fe576100f5565b8063095ea7b3146100fa578063173825d91461013a57806318160ddd14610162575b600080fd5b6101266004803603604081101561011057600080fd5b506001600160a01b038135169060200135610374565b604080519115158252519081900360200190f35b6101606004803603602081101561015057600080fd5b50356001600160a01b0316610391565b005b61016a6103e1565b60408051918252519081900360200190f35b6101266004803603606081101561019257600080fd5b506001600160a01b038135811691602081013590911690604001356103e7565b610126600480360360208110156101c857600080fd5b50356001600160a01b031661046e565b610160600480360360208110156101ee57600080fd5b50356001600160a01b0316610481565b6101266004803603604081101561021457600080fd5b506001600160a01b0381351690602001356104ce565b6101266004803603604081101561024057600080fd5b506001600160a01b03813516906020013561051c565b6101606004803603602081101561026c57600080fd5b50356001600160a01b0316610574565b61016a6004803603602081101561029257600080fd5b50356001600160a01b03166105c1565b610160600480360360208110156102b857600080fd5b50356001600160a01b03166105dc565b610126600480360360408110156102de57600080fd5b506001600160a01b038135169060200135610629565b6101266004803603604081101561030a57600080fd5b506001600160a01b038135169060200135610691565b6101266004803603602081101561033657600080fd5b50356001600160a01b03166106a5565b61016a6004803603604081101561035c57600080fd5b506001600160a01b03813581169160200135166106b2565b60006103886103816106dd565b84846106e1565b50600192915050565b61039a3361046e565b6103d55760405162461bcd60e51b815260040180806020018281038252602e815260200180610ea3602e913960400191505060405180910390fd5b6103de816107cd565b50565b60355490565b60006103f4848484610811565b610464846104006106dd565b61045f85604051806060016040528060288152602001610ef2602891396001600160a01b038a1660009081526034602052604081209061043e6106dd565b6001600160a01b031681526020810191909152604001600020549190610963565b6106e1565b5060019392505050565b600061047b6068836109fa565b92915050565b61048a3361046e565b6104c55760405162461bcd60e51b815260040180806020018281038252602e815260200180610ea3602e913960400191505060405180910390fd5b6103de81610a61565b60006103886104db6106dd565b8461045f85603460006104ec6106dd565b6001600160a01b03908116825260208083019390935260409182016000908120918c168152925290205490610aa5565b6000610527336106a5565b6105625760405162461bcd60e51b8152600401808060200182810382526030815260200180610e736030913960400191505060405180910390fd5b61056d338484610aff565b9392505050565b61057d3361046e565b6105b85760405162461bcd60e51b815260040180806020018281038252602e815260200180610ea3602e913960400191505060405180910390fd5b6103de81610b60565b6001600160a01b031660009081526033602052604090205490565b6105e53361046e565b6106205760405162461bcd60e51b815260040180806020018281038252602e815260200180610ea3602e913960400191505060405180910390fd5b6103de81610ba4565b60006103886106366106dd565b8461045f85604051806060016040528060258152602001610f8560259139603460006106606106dd565b6001600160a01b03908116825260208083019390935260409182016000908120918d16815292529020549190610963565b600061038861069e6106dd565b8484610811565b600061047b6069836109fa565b6001600160a01b03918216600090815260346020908152604080832093909416825291909152205490565b3390565b6001600160a01b0383166107265760405162461bcd60e51b8152600401808060200182810382526024815260200180610f616024913960400191505060405180910390fd5b6001600160a01b03821661076b5760405162461bcd60e51b8152600401808060200182810382526022815260200180610e2b6022913960400191505060405180910390fd5b6001600160a01b03808416600081815260346020908152604080832094871680845294825291829020859055815185815291517f8c5be1e5ebec7d5bd14f71427d1e84f3dd0314c0f7b2291e5b200ac8c7c3b9259281900390910190a3505050565b6107d8606882610be8565b60405133906001600160a01b038316907fe594d081b4382713733fe631966432c9cea5199afb2db5c3c1931f9f9300367990600090a350565b6001600160a01b0383166108565760405162461bcd60e51b8152600401808060200182810382526025815260200180610f3c6025913960400191505060405180910390fd5b6001600160a01b03821661089b5760405162461bcd60e51b8152600401808060200182810382526023815260200180610e086023913960400191505060405180910390fd5b6108d881604051806060016040528060268152602001610e4d602691396001600160a01b0386166000908152603360205260409020549190610963565b6001600160a01b0380851660009081526033602052604080822093909355908416815220546109079082610aa5565b6001600160a01b0380841660008181526033602090815260409182902094909455805185815290519193928716927fddf252ad1be2c89b69c2b068fc378daa952ba7f163c4a11628f55a4df523b3ef92918290030190a3505050565b600081848411156109f25760405162461bcd60e51b81526004018080602001828103825283818151815260200191508051906020019080838360005b838110156109b757818101518382015260200161099f565b50505050905090810190601f1680156109e45780820380516001836020036101000a031916815260200191505b509250505060405180910390fd5b505050900390565b60006001600160a01b038216610a415760405162461bcd60e51b8152600401808060200182810382526022815260200180610f1a6022913960400191505060405180910390fd5b506001600160a01b03166000908152602091909152604090205460ff1690565b610a6c606982610be8565b60405133906001600160a01b038316907f4b5ef9a786cf64a7d82ebcf2d5132667edc9faef4ac36260d9a9e52c526b623290600090a350565b60008282018381101561056d576040805162461bcd60e51b815260206004820152601b60248201527f536166654d6174683a206164646974696f6e206f766572666c6f770000000000604482015290519081900360640190fd5b6000610b0b8383610c4f565b826001600160a01b0316846001600160a01b03167fab8530f87dc9b59234c4623bf917212bb2536d647574c8e7e5da92c2ede0c9f8846040518082815260200191505060405180910390a35060019392505050565b610b6b606882610d35565b60405133906001600160a01b038316907fc82bdbbf677a2462f2a7e22e4ba9abd209496b69cd7b868b3b1d28f76e09a40a90600090a350565b610baf606982610d35565b60405133906001600160a01b038316907f3c091dafb1d99e4a4c333024492eac3b2cd8bf921a3dd547c937db33be307bb890600090a350565b610bf282826109fa565b610c2d5760405162461bcd60e51b8152600401808060200182810382526021815260200180610ed16021913960400191505060405180910390fd5b6001600160a01b0316600090815260209190915260409020805460ff19169055565b6001600160a01b038216610caa576040805162461bcd60e51b815260206004820152601f60248201527f45524332303a206d696e7420746f20746865207a65726f206164647265737300604482015290519081900360640190fd5b603554610cb79082610aa5565b6035556001600160a01b038216600090815260336020526040902054610cdd9082610aa5565b6001600160a01b03831660008181526033602090815260408083209490945583518581529351929391927fddf252ad1be2c89b69c2b068fc378daa952ba7f163c4a11628f55a4df523b3ef9281900390910190a35050565b6001600160a01b038116610d86576040805162461bcd60e51b8152602060048201526013602482015272496e76616c696420307830206164647265737360681b604482015290519081900360640190fd5b610d9082826109fa565b15610de2576040805162461bcd60e51b815260206004820152601f60248201527f526f6c65733a206163636f756e7420616c72656164792068617320726f6c6500604482015290519081900360640190fd5b6001600160a01b0316600090815260209190915260409020805460ff1916600117905556fe45524332303a207472616e7366657220746f20746865207a65726f206164647265737345524332303a20617070726f766520746f20746865207a65726f206164647265737345524332303a207472616e7366657220616d6f756e7420657863656564732062616c616e63654d696e746572526f6c653a2063616c6c657220646f6573206e6f74206861766520746865204d696e74657220726f6c654f776e6572526f6c653a2063616c6c657220646f6573206e6f74206861766520746865204f776e657220726f6c65526f6c65733a206163636f756e7420646f6573206e6f74206861766520726f6c6545524332303a207472616e7366657220616d6f756e74206578636565647320616c6c6f77616e6365526f6c65733a206163636f756e7420697320746865207a65726f206164647265737345524332303a207472616e736665722066726f6d20746865207a65726f206164647265737345524332303a20617070726f76652066726f6d20746865207a65726f206164647265737345524332303a2064656372656173656420616c6c6f77616e63652062656c6f77207a65726fa2646970667358221220106b235ec1d15bdd2582cee6df38e9a7ad38870254ebfff9164f5ac6e1a9631f64736f6c634300060c0033",
  "immutableReferences": {},
  "source": "pragma solidity 0.6.12;\n\nimport \"../@openzeppelin/contracts-ethereum-package/contracts/token/ERC20/ERC20.sol\";\nimport \"../roles/MinterRole.sol\";\n\ncontract Mintable is ERC20, MinterRole {\n  event Mint(address indexed minter, address indexed to, uint256 amount);\n\n  function _mint(address minter, address to, uint256 amount) internal returns (bool) {\n      ERC20._mint(to, amount);\n      emit Mint(minter, to, amount);\n      return true;\n  }\n\n  /**\n  Allow Owners to mint tokens to valid addresses\n  */\n  function mint(address account, uint256 amount) public onlyMinter returns (bool) {\n      return Mintable._mint(msg.sender, account, amount);\n  }\n}",
  "sourcePath": "/Users/james/Source/tokensoft/tokensoft_token/contracts/capabilities/Mintable.sol",
  "compiler": {
    "name": "solc",
    "version": "0.6.12+commit.27d51765.Emscripten.clang"
  },
  "schemaVersion": "3.3.1",
  "updatedAt": "2020-12-09T02:03:40.423Z",
  "devdoc": {
    "kind": "dev",
    "methods": {
      "allowance(address,address)": {
        "details": "See {IERC20-allowance}."
      },
      "approve(address,uint256)": {
        "details": "See {IERC20-approve}. Requirements: - `spender` cannot be the zero address."
      },
      "balanceOf(address)": {
        "details": "See {IERC20-balanceOf}."
      },
      "decreaseAllowance(address,uint256)": {
        "details": "Atomically decreases the allowance granted to `spender` by the caller. This is an alternative to {approve} that can be used as a mitigation for problems described in {IERC20-approve}. Emits an {Approval} event indicating the updated allowance. Requirements: - `spender` cannot be the zero address. - `spender` must have allowance for the caller of at least `subtractedValue`."
      },
      "increaseAllowance(address,uint256)": {
        "details": "Atomically increases the allowance granted to `spender` by the caller. This is an alternative to {approve} that can be used as a mitigation for problems described in {IERC20-approve}. Emits an {Approval} event indicating the updated allowance. Requirements: - `spender` cannot be the zero address."
      },
      "totalSupply()": {
        "details": "See {IERC20-totalSupply}."
      },
      "transfer(address,uint256)": {
        "details": "See {IERC20-transfer}. Requirements: - `recipient` cannot be the zero address. - the caller must have a balance of at least `amount`."
      },
      "transferFrom(address,address,uint256)": {
        "details": "See {IERC20-transferFrom}. Emits an {Approval} event indicating the updated allowance. This is not required by the EIP. See the note at the beginning of {ERC20}; Requirements: - `sender` and `recipient` cannot be the zero address. - `sender` must have a balance of at least `amount`. - the caller must have allowance for `sender`'s tokens of at least `amount`."
      }
    },
    "version": 1
  },
  "userdoc": {
    "kind": "user",
    "methods": {
      "mint(address,uint256)": {
        "notice": "Allow Owners to mint tokens to valid addresses"
      }
    },
    "version": 1
  }
}