{
  "contractName": "Proxy",
  "abi": [
    {
      "inputs": [
        {
          "internalType": "address",
          "name": "contractLogic",
          "type": "address"
        }
      ],
      "payable": false,
      "stateMutability": "nonpayable",
      "type": "constructor"
    },
    {
      "payable": true,
      "stateMutability": "payable",
      "type": "fallback"
    },
    {
      "constant": true,
      "inputs": [],
      "name": "getLogicAddress",
      "outputs": [
        {
          "internalType": "address",
          "name": "logicAddress",
          "type": "address"
        }
      ],
      "payable": false,
      "stateMutability": "view",
      "type": "function"
    }
  ],
  "bytecode": "0x608060405234801561001057600080fd5b506040516101aa3803806101aa8339818101604052602081101561003357600080fd5b8101908080519060200190929190505050807fc5f16f0fcc639fa48a6947836d9850f504798523bf8c9a3a87d5876cf622bcf75550610133806100776000396000f3fe6080604052600436106039576000357c010000000000000000000000000000000000000000000000000000000090048063abd108ba146081575b7fc5f16f0fcc639fa48a6947836d9850f504798523bf8c9a3a87d5876cf622bcf75460405136600082376000803683855af43d806000843e8160008114607d578184f35b8184fd5b348015608c57600080fd5b50609360d5565b604051808273ffffffffffffffffffffffffffffffffffffffff1673ffffffffffffffffffffffffffffffffffffffff16815260200191505060405180910390f35b60007fc5f16f0fcc639fa48a6947836d9850f504798523bf8c9a3a87d5876cf622bcf75490509056fea265627a7a72315820c39c8dd98ac124dcbddc8f1a40914c2485b4fb3dc3d8349bf208ea4d5d85fd6b64736f6c634300050c0032",
  "source": "pragma solidity 0.5.12;\n\ncontract Proxy {\n    // Code position in storage is keccak256(\"PROXIABLE\") = \"0xc5f16f0fcc639fa48a6947836d9850f504798523bf8c9a3a87d5876cf622bcf7\"\n    // constructor(bytes memory constructData, address contractLogic) public {\n    constructor(address contractLogic) public {\n        // save the code address\n        assembly { // solium-disable-line\n            sstore(0xc5f16f0fcc639fa48a6947836d9850f504798523bf8c9a3a87d5876cf622bcf7, contractLogic)\n        }\n    }\n\n    function getLogicAddress() public view returns (address logicAddress) {\n        assembly { // solium-disable-line\n            logicAddress := sload(0xc5f16f0fcc639fa48a6947836d9850f504798523bf8c9a3a87d5876cf622bcf7)\n        }\n    }\n\n    function() external payable {\n        assembly { // solium-disable-line\n            let contractLogic := sload(0xc5f16f0fcc639fa48a6947836d9850f504798523bf8c9a3a87d5876cf622bcf7)\n            let ptr := mload(0x40)\n            calldatacopy(ptr, 0x0, calldatasize)\n            let success := delegatecall(gas, contractLogic, ptr, calldatasize, 0, 0)\n            let retSz := returndatasize\n            returndatacopy(ptr, 0, retSz)\n            switch success\n            case 0 {\n                revert(ptr, retSz)\n            }\n            default {\n                return(ptr, retSz)\n            }\n        }\n    }\n}",
  "sourcePath": "/Users/steve/codes/arca_token/contracts/Proxy.sol",
  "compiler": {
    "name": "solc",
    "version": "0.5.12+commit.7709ece9.Emscripten.clang"
  },
  "schemaVersion": "3.0.2",
  "updatedAt": "2019-12-06T17:35:41.319Z",
  "devdoc": {
    "methods": {}
  },
  "userdoc": {
    "methods": {}
  }
}