{
  "contractName": "Proxiable",
  "abi": [
    {
      "anonymous": false,
      "inputs": [
        {
          "indexed": false,
          "internalType": "address",
          "name": "newAddress",
          "type": "address"
        }
      ],
      "name": "CodeAddressUpdated",
      "type": "event"
    },
    {
      "constant": true,
      "inputs": [],
      "name": "getLogicAddress",
      "outputs": [
        {
          "internalType": "address",
          "name": "logicAddress",
          "type": "address"
        }
      ],
      "payable": false,
      "stateMutability": "view",
      "type": "function"
    },
    {
      "constant": true,
      "inputs": [],
      "name": "proxiableUUID",
      "outputs": [
        {
          "internalType": "bytes32",
          "name": "",
          "type": "bytes32"
        }
      ],
      "payable": false,
      "stateMutability": "pure",
      "type": "function"
    }
  ],
  "bytecode": "0x608060405234801561001057600080fd5b50610149806100206000396000f3fe608060405234801561001057600080fd5b5060043610610053576000357c01000000000000000000000000000000000000000000000000000000009004806352d1902d14610058578063abd108ba14610076575b600080fd5b6100606100c0565b6040518082815260200191505060405180910390f35b61007e6100eb565b604051808273ffffffffffffffffffffffffffffffffffffffff1673ffffffffffffffffffffffffffffffffffffffff16815260200191505060405180910390f35b60007fc5f16f0fcc639fa48a6947836d9850f504798523bf8c9a3a87d5876cf622bcf7600102905090565b60007fc5f16f0fcc639fa48a6947836d9850f504798523bf8c9a3a87d5876cf622bcf75490509056fea265627a7a7231582015855e0a97783275eebad1caec8fc9f1baadac01aa46cb810a1a3c87cf91b27164736f6c634300050c0032",
  "source": "pragma solidity 0.5.12;\n\ncontract Proxiable {\n    // Code position in storage is keccak256(\"PROXIABLE\") = \"0xc5f16f0fcc639fa48a6947836d9850f504798523bf8c9a3a87d5876cf622bcf7\"\n\n    event CodeAddressUpdated(address newAddress);\n\n    function _updateCodeAddress(address newAddress) internal {\n        require(\n            bytes32(0xc5f16f0fcc639fa48a6947836d9850f504798523bf8c9a3a87d5876cf622bcf7) == Proxiable(newAddress).proxiableUUID(),\n            \"Not compatible\"\n        );\n        assembly { // solium-disable-line\n            sstore(0xc5f16f0fcc639fa48a6947836d9850f504798523bf8c9a3a87d5876cf622bcf7, newAddress)\n        }\n\n        emit CodeAddressUpdated(newAddress);\n    }\n\n    function getLogicAddress() public view returns (address logicAddress) {\n        assembly { // solium-disable-line\n            logicAddress := sload(0xc5f16f0fcc639fa48a6947836d9850f504798523bf8c9a3a87d5876cf622bcf7)\n        }\n    }\n\n    function proxiableUUID() public pure returns (bytes32) {\n        return 0xc5f16f0fcc639fa48a6947836d9850f504798523bf8c9a3a87d5876cf622bcf7;\n    }\n}",
  "sourcePath": "/Users/james/Source/tokensoft/tokensoft_token/contracts/capabilities/Proxiable.sol",
  "compiler": {
    "name": "solc",
    "version": "0.5.12+commit.7709ece9.Emscripten.clang"
  },
  "schemaVersion": "3.0.2",
  "updatedAt": "2020-05-05T22:43:24.336Z",
  "devdoc": {
    "methods": {}
  },
  "userdoc": {
    "methods": {}
  }
}