{
  "contractName": "Proxiable",
  "abi": [
    {
      "anonymous": false,
      "inputs": [
        {
          "indexed": false,
          "internalType": "address",
          "name": "newAddress",
          "type": "address"
        }
      ],
      "name": "CodeAddressUpdated",
      "type": "event"
    },
    {
      "inputs": [],
      "name": "getLogicAddress",
      "outputs": [
        {
          "internalType": "address",
          "name": "logicAddress",
          "type": "address"
        }
      ],
      "stateMutability": "view",
      "type": "function"
    },
    {
      "inputs": [],
      "name": "proxiableUUID",
      "outputs": [
        {
          "internalType": "bytes32",
          "name": "",
          "type": "bytes32"
        }
      ],
      "stateMutability": "pure",
      "type": "function"
    }
  ],
  "bytecode": "0x608060405234801561001057600080fd5b5060f08061001f6000396000f3fe6080604052348015600f57600080fd5b506004361060325760003560e01c806352d1902d146037578063abd108ba14604f575b600080fd5b603d6071565b60408051918252519081900360200190f35b60556095565b604080516001600160a01b039092168252519081900360200190f35b7fc5f16f0fcc639fa48a6947836d9850f504798523bf8c9a3a87d5876cf622bcf790565b7fc5f16f0fcc639fa48a6947836d9850f504798523bf8c9a3a87d5876cf622bcf7549056fea2646970667358221220ebfb7a05bf08d10234b00d22ba2f41f29f9819927051e63896b50003abb4498364736f6c634300060c0033",
  "immutableReferences": {},
  "source": "pragma solidity 0.6.12;\n\ncontract Proxiable {\n    // Code position in storage is keccak256(\"PROXIABLE\") = \"0xc5f16f0fcc639fa48a6947836d9850f504798523bf8c9a3a87d5876cf622bcf7\"\n    uint256 constant PROXIABLE_MEM_SLOT = 0xc5f16f0fcc639fa48a6947836d9850f504798523bf8c9a3a87d5876cf622bcf7;\n\n    event CodeAddressUpdated(address newAddress);\n\n    function _updateCodeAddress(address newAddress) internal {\n        require(\n            bytes32(PROXIABLE_MEM_SLOT) == Proxiable(newAddress).proxiableUUID(),\n            \"Not compatible\"\n        );\n        assembly { // solium-disable-line\n            sstore(PROXIABLE_MEM_SLOT, newAddress)\n        }\n\n        emit CodeAddressUpdated(newAddress);\n    }\n\n    function getLogicAddress() public view returns (address logicAddress) {\n        assembly { // solium-disable-line\n            logicAddress := sload(PROXIABLE_MEM_SLOT)\n        }\n    }\n\n    function proxiableUUID() public pure returns (bytes32) {\n        return bytes32(PROXIABLE_MEM_SLOT);\n    }\n}",
  "sourcePath": "/Users/james/Source/tokensoft/tokensoft_token/contracts/capabilities/Proxiable.sol",
  "compiler": {
    "name": "solc",
    "version": "0.6.12+commit.27d51765.Emscripten.clang"
  },
  "schemaVersion": "3.3.1",
  "updatedAt": "2020-12-07T21:35:30.190Z",
  "devdoc": {
    "kind": "dev",
    "methods": {},
    "version": 1
  },
  "userdoc": {
    "kind": "user",
    "methods": {},
    "version": 1
  }
}