{
  "contractName": "Proxy",
  "abi": [
    {
      "inputs": [
        {
          "internalType": "address",
          "name": "contractLogic",
          "type": "address"
        }
      ],
      "payable": false,
      "stateMutability": "nonpayable",
      "type": "constructor"
    },
    {
      "payable": true,
      "stateMutability": "payable",
      "type": "fallback"
    },
    {
      "constant": true,
      "inputs": [],
      "name": "getLogicAddress",
      "outputs": [
        {
          "internalType": "address",
          "name": "logicAddress",
          "type": "address"
        }
      ],
      "payable": false,
      "stateMutability": "view",
      "type": "function"
    }
  ],
  "bytecode": "0x608060405234801561001057600080fd5b506040516101b53803806101b58339818101604052602081101561003357600080fd5b8101908080519060200190929190505050807fc5f16f0fcc639fa48a6947836d9850f504798523bf8c9a3a87d5876cf622bcf7555061013e806100776000396000f3fe60806040526004361061003b576000357c010000000000000000000000000000000000000000000000000000000090048063abd108ba14610089575b7fc5f16f0fcc639fa48a6947836d9850f504798523bf8c9a3a87d5876cf622bcf7546040513660008237600080366000856127105a03f43d806000843e8160008114610085578184f35b8184fd5b34801561009557600080fd5b5061009e6100e0565b604051808273ffffffffffffffffffffffffffffffffffffffff1673ffffffffffffffffffffffffffffffffffffffff16815260200191505060405180910390f35b60007fc5f16f0fcc639fa48a6947836d9850f504798523bf8c9a3a87d5876cf622bcf75490509056fea265627a7a72315820ce1973db90b84cc74b5d5ca2a3d59ee8010cbbcb34ad7b1873f1d0f6bc28bbdc64736f6c634300050c0032",
  "source": "pragma solidity 0.5.12;\n\ncontract Proxy {\n    // Code position in storage is keccak256(\"PROXIABLE\") = \"0xc5f16f0fcc639fa48a6947836d9850f504798523bf8c9a3a87d5876cf622bcf7\"\n    // constructor(bytes memory constructData, address contractLogic) public {\n    constructor(address contractLogic) public {\n        // save the code address\n        assembly { // solium-disable-line\n            sstore(0xc5f16f0fcc639fa48a6947836d9850f504798523bf8c9a3a87d5876cf622bcf7, contractLogic)\n        }\n    }\n\n    function getLogicAddress() public view returns (address logicAddress) {\n        assembly { // solium-disable-line\n            logicAddress := sload(0xc5f16f0fcc639fa48a6947836d9850f504798523bf8c9a3a87d5876cf622bcf7)\n        }\n    }\n\n    function() external payable {\n        assembly { // solium-disable-line\n            let contractLogic := sload(0xc5f16f0fcc639fa48a6947836d9850f504798523bf8c9a3a87d5876cf622bcf7)\n            let ptr := mload(0x40)\n            calldatacopy(ptr, 0x0, calldatasize)\n            let success := delegatecall(sub(gas, 10000), contractLogic, 0x0, calldatasize, 0, 0)\n            let retSz := returndatasize\n            returndatacopy(ptr, 0, retSz)\n            switch success\n            case 0 {\n                revert(ptr, retSz)\n            }\n            default {\n                return(ptr, retSz)\n            }\n        }\n    }\n}",
  "sourcePath": "/Users/steve/codes/arca_token/contracts/Proxy.sol",
  "compiler": {
    "name": "solc",
    "version": "0.5.12+commit.7709ece9.Emscripten.clang"
  },
  "schemaVersion": "3.0.2",
  "updatedAt": "2019-12-05T19:50:39.555Z",
  "devdoc": {
    "methods": {}
  },
  "userdoc": {
    "methods": {}
  }
}