{
  "contractName": "Restrictable",
  "abi": [
    {
      "anonymous": false,
      "inputs": [
        {
          "indexed": true,
          "name": "owner",
          "type": "address"
        }
      ],
      "name": "RestrictionsDisabled",
      "type": "event"
    },
    {
      "constant": true,
      "inputs": [],
      "name": "isRestrictionEnabled",
      "outputs": [
        {
          "name": "",
          "type": "bool"
        }
      ],
      "payable": false,
      "stateMutability": "view",
      "type": "function"
    }
  ],
  "bytecode": "0x608060405260016000806101000a81548160ff021916908315150217905550348015602957600080fd5b50608f806100386000396000f3fe6080604052348015600f57600080fd5b506004361060285760003560e01c80632a64240714602d575b600080fd5b6033604d565b604051808215151515815260200191505060405180910390f35b60008060009054906101000a900460ff1690509056fea165627a7a7230582093a343c7befd4735d75daa3bd98c36d19eaa3c7214ad9be7f2f37d35f2d9ad7a0029",
  "source": "pragma solidity 0.5.8;\n\n/**\nRestrictions start off as enabled.\nOnce they are disabled, they cannot be re-enabled.\nOnly the owner may disable restrictions.\n */\ncontract Restrictable {\n    // State variable to track whether restrictions are enabled.  Defaults to true.\n    bool private _restrictionsEnabled = true;\n\n    // Event emitted when flag is disabled\n    event RestrictionsDisabled(address indexed owner);\n\n    /**\n    View function to determine if restrictions are enabled\n     */\n    function isRestrictionEnabled() public view returns (bool) {\n        return _restrictionsEnabled;\n    }\n\n    /**\n    Function to update the enabled flag on restrictions to disabled.  Only the owner should be able to call.\n    This is a permanent change that cannot be undone\n     */\n    function _disableRestrictions() internal {\n        require(_restrictionsEnabled, \"Restrictions are already disabled.\");\n\n        // Set the flag\n        _restrictionsEnabled = false;\n\n        // Trigger the event\n        emit RestrictionsDisabled(msg.sender);\n    }\n}",
  "sourcePath": "/Users/steve/codes/arca_token/contracts/Restrictable.sol",
  "compiler": {
    "name": "solc",
    "version": "0.5.8+commit.23d335f2.Emscripten.clang"
  },
  "schemaVersion": "3.0.17",
  "updatedAt": "2019-11-08T22:33:10.400Z",
  "devdoc": {
    "methods": {}
  },
  "userdoc": {
    "methods": {
      "isRestrictionEnabled()": {
        "notice": "View function to determine if restrictions are enabled"
      }
    },
    "notice": "Restrictions start off as enabled. Once they are disabled, they cannot be re-enabled. Only the owner may disable restrictions."
  }
}