{
  "contractName": "RevocableToAddress",
  "abi": [
    {
      "anonymous": false,
      "inputs": [
        {
          "indexed": true,
          "internalType": "address",
          "name": "owner",
          "type": "address"
        },
        {
          "indexed": true,
          "internalType": "address",
          "name": "spender",
          "type": "address"
        },
        {
          "indexed": false,
          "internalType": "uint256",
          "name": "value",
          "type": "uint256"
        }
      ],
      "name": "Approval",
      "type": "event"
    },
    {
      "anonymous": false,
      "inputs": [
        {
          "indexed": true,
          "internalType": "address",
          "name": "addedOwner",
          "type": "address"
        },
        {
          "indexed": true,
          "internalType": "address",
          "name": "addedBy",
          "type": "address"
        }
      ],
      "name": "OwnerAdded",
      "type": "event"
    },
    {
      "anonymous": false,
      "inputs": [
        {
          "indexed": true,
          "internalType": "address",
          "name": "removedOwner",
          "type": "address"
        },
        {
          "indexed": true,
          "internalType": "address",
          "name": "removedBy",
          "type": "address"
        }
      ],
      "name": "OwnerRemoved",
      "type": "event"
    },
    {
      "anonymous": false,
      "inputs": [
        {
          "indexed": true,
          "internalType": "address",
          "name": "revoker",
          "type": "address"
        },
        {
          "indexed": true,
          "internalType": "address",
          "name": "from",
          "type": "address"
        },
        {
          "indexed": true,
          "internalType": "address",
          "name": "to",
          "type": "address"
        },
        {
          "indexed": false,
          "internalType": "uint256",
          "name": "amount",
          "type": "uint256"
        }
      ],
      "name": "RevokeToAddress",
      "type": "event"
    },
    {
      "anonymous": false,
      "inputs": [
        {
          "indexed": true,
          "internalType": "address",
          "name": "addedRevoker",
          "type": "address"
        },
        {
          "indexed": true,
          "internalType": "address",
          "name": "addedBy",
          "type": "address"
        }
      ],
      "name": "RevokerAdded",
      "type": "event"
    },
    {
      "anonymous": false,
      "inputs": [
        {
          "indexed": true,
          "internalType": "address",
          "name": "removedRevoker",
          "type": "address"
        },
        {
          "indexed": true,
          "internalType": "address",
          "name": "removedBy",
          "type": "address"
        }
      ],
      "name": "RevokerRemoved",
      "type": "event"
    },
    {
      "anonymous": false,
      "inputs": [
        {
          "indexed": true,
          "internalType": "address",
          "name": "from",
          "type": "address"
        },
        {
          "indexed": true,
          "internalType": "address",
          "name": "to",
          "type": "address"
        },
        {
          "indexed": false,
          "internalType": "uint256",
          "name": "value",
          "type": "uint256"
        }
      ],
      "name": "Transfer",
      "type": "event"
    },
    {
      "inputs": [
        {
          "internalType": "address",
          "name": "account",
          "type": "address"
        }
      ],
      "name": "addOwner",
      "outputs": [],
      "stateMutability": "nonpayable",
      "type": "function"
    },
    {
      "inputs": [
        {
          "internalType": "address",
          "name": "account",
          "type": "address"
        }
      ],
      "name": "addRevoker",
      "outputs": [],
      "stateMutability": "nonpayable",
      "type": "function"
    },
    {
      "inputs": [
        {
          "internalType": "address",
          "name": "owner",
          "type": "address"
        },
        {
          "internalType": "address",
          "name": "spender",
          "type": "address"
        }
      ],
      "name": "allowance",
      "outputs": [
        {
          "internalType": "uint256",
          "name": "",
          "type": "uint256"
        }
      ],
      "stateMutability": "view",
      "type": "function"
    },
    {
      "inputs": [
        {
          "internalType": "address",
          "name": "spender",
          "type": "address"
        },
        {
          "internalType": "uint256",
          "name": "amount",
          "type": "uint256"
        }
      ],
      "name": "approve",
      "outputs": [
        {
          "internalType": "bool",
          "name": "",
          "type": "bool"
        }
      ],
      "stateMutability": "nonpayable",
      "type": "function"
    },
    {
      "inputs": [
        {
          "internalType": "address",
          "name": "account",
          "type": "address"
        }
      ],
      "name": "balanceOf",
      "outputs": [
        {
          "internalType": "uint256",
          "name": "",
          "type": "uint256"
        }
      ],
      "stateMutability": "view",
      "type": "function"
    },
    {
      "inputs": [
        {
          "internalType": "address",
          "name": "spender",
          "type": "address"
        },
        {
          "internalType": "uint256",
          "name": "subtractedValue",
          "type": "uint256"
        }
      ],
      "name": "decreaseAllowance",
      "outputs": [
        {
          "internalType": "bool",
          "name": "",
          "type": "bool"
        }
      ],
      "stateMutability": "nonpayable",
      "type": "function"
    },
    {
      "inputs": [
        {
          "internalType": "address",
          "name": "spender",
          "type": "address"
        },
        {
          "internalType": "uint256",
          "name": "addedValue",
          "type": "uint256"
        }
      ],
      "name": "increaseAllowance",
      "outputs": [
        {
          "internalType": "bool",
          "name": "",
          "type": "bool"
        }
      ],
      "stateMutability": "nonpayable",
      "type": "function"
    },
    {
      "inputs": [
        {
          "internalType": "address",
          "name": "account",
          "type": "address"
        }
      ],
      "name": "isOwner",
      "outputs": [
        {
          "internalType": "bool",
          "name": "",
          "type": "bool"
        }
      ],
      "stateMutability": "view",
      "type": "function"
    },
    {
      "inputs": [
        {
          "internalType": "address",
          "name": "account",
          "type": "address"
        }
      ],
      "name": "isRevoker",
      "outputs": [
        {
          "internalType": "bool",
          "name": "",
          "type": "bool"
        }
      ],
      "stateMutability": "view",
      "type": "function"
    },
    {
      "inputs": [
        {
          "internalType": "address",
          "name": "account",
          "type": "address"
        }
      ],
      "name": "removeOwner",
      "outputs": [],
      "stateMutability": "nonpayable",
      "type": "function"
    },
    {
      "inputs": [
        {
          "internalType": "address",
          "name": "account",
          "type": "address"
        }
      ],
      "name": "removeRevoker",
      "outputs": [],
      "stateMutability": "nonpayable",
      "type": "function"
    },
    {
      "inputs": [],
      "name": "totalSupply",
      "outputs": [
        {
          "internalType": "uint256",
          "name": "",
          "type": "uint256"
        }
      ],
      "stateMutability": "view",
      "type": "function"
    },
    {
      "inputs": [
        {
          "internalType": "address",
          "name": "recipient",
          "type": "address"
        },
        {
          "internalType": "uint256",
          "name": "amount",
          "type": "uint256"
        }
      ],
      "name": "transfer",
      "outputs": [
        {
          "internalType": "bool",
          "name": "",
          "type": "bool"
        }
      ],
      "stateMutability": "nonpayable",
      "type": "function"
    },
    {
      "inputs": [
        {
          "internalType": "address",
          "name": "sender",
          "type": "address"
        },
        {
          "internalType": "address",
          "name": "recipient",
          "type": "address"
        },
        {
          "internalType": "uint256",
          "name": "amount",
          "type": "uint256"
        }
      ],
      "name": "transferFrom",
      "outputs": [
        {
          "internalType": "bool",
          "name": "",
          "type": "bool"
        }
      ],
      "stateMutability": "nonpayable",
      "type": "function"
    },
    {
      "inputs": [
        {
          "internalType": "address",
          "name": "from",
          "type": "address"
        },
        {
          "internalType": "address",
          "name": "to",
          "type": "address"
        },
        {
          "internalType": "uint256",
          "name": "amount",
          "type": "uint256"
        }
      ],
      "name": "revokeToAddress",
      "outputs": [
        {
          "internalType": "bool",
          "name": "",
          "type": "bool"
        }
      ],
      "stateMutability": "nonpayable",
      "type": "function"
    }
  ],
  "bytecode": "0x608060405234801561001057600080fd5b50610f18806100206000396000f3fe608060405234801561001057600080fd5b50600436106100f55760003560e01c806370a0823111610097578063c06f8b9411610066578063c06f8b94146102ce578063cc00551e146102f4578063dd62ed3e1461032a578063f6c4b01f14610358576100f5565b806370a082311461022a578063961a66f614610250578063a457c2d714610276578063a9059cbb146102a2576100f5565b806323b872dd116100d357806323b872dd1461017c5780632f54bf6e146101b257806339509351146101d85780637065cb4814610204576100f5565b8063095ea7b3146100fa578063173825d91461013a57806318160ddd14610162575b600080fd5b6101266004803603604081101561011057600080fd5b506001600160a01b03813516906020013561037e565b604080519115158252519081900360200190f35b6101606004803603602081101561015057600080fd5b50356001600160a01b031661039b565b005b61016a6103eb565b60408051918252519081900360200190f35b6101266004803603606081101561019257600080fd5b506001600160a01b038135811691602081013590911690604001356103f1565b610126600480360360208110156101c857600080fd5b50356001600160a01b0316610478565b610126600480360360408110156101ee57600080fd5b506001600160a01b03813516906020013561048b565b6101606004803603602081101561021a57600080fd5b50356001600160a01b03166104d9565b61016a6004803603602081101561024057600080fd5b50356001600160a01b0316610526565b6101606004803603602081101561026657600080fd5b50356001600160a01b0316610541565b6101266004803603604081101561028c57600080fd5b506001600160a01b03813516906020013561058e565b610126600480360360408110156102b857600080fd5b506001600160a01b0381351690602001356105f6565b610160600480360360208110156102e457600080fd5b50356001600160a01b031661060a565b6101266004803603606081101561030a57600080fd5b506001600160a01b03813581169160208101359091169060400135610657565b61016a6004803603604081101561034057600080fd5b506001600160a01b03813581169160200135166106b0565b6101266004803603602081101561036e57600080fd5b50356001600160a01b03166106db565b600061039261038b6106e8565b84846106ec565b50600192915050565b6103a433610478565b6103df5760405162461bcd60e51b815260040180806020018281038252602e815260200180610ddc602e913960400191505060405180910390fd5b6103e8816107d8565b50565b60355490565b60006103fe84848461081c565b61046e8461040a6106e8565b61046985604051806060016040528060288152602001610e2b602891396001600160a01b038a166000908152603460205260408120906104486106e8565b6001600160a01b03168152602081019190915260400160002054919061096e565b6106ec565b5060019392505050565b6000610485606883610a05565b92915050565b60006103926104986106e8565b8461046985603460006104a96106e8565b6001600160a01b03908116825260208083019390935260409182016000908120918c168152925290205490610a6c565b6104e233610478565b61051d5760405162461bcd60e51b815260040180806020018281038252602e815260200180610ddc602e913960400191505060405180910390fd5b6103e881610acd565b6001600160a01b031660009081526033602052604090205490565b61054a33610478565b6105855760405162461bcd60e51b815260040180806020018281038252602e815260200180610ddc602e913960400191505060405180910390fd5b6103e881610b11565b600061039261059b6106e8565b8461046985604051806060016040528060258152602001610ebe60259139603460006105c56106e8565b6001600160a01b03908116825260208083019390935260409182016000908120918d1681529252902054919061096e565b60006103926106036106e8565b848461081c565b61061333610478565b61064e5760405162461bcd60e51b815260040180806020018281038252602e815260200180610ddc602e913960400191505060405180910390fd5b6103e881610b55565b6000610662336106db565b61069d5760405162461bcd60e51b8152600401808060200182810382526032815260200180610d846032913960400191505060405180910390fd5b6106a8848484610b99565b949350505050565b6001600160a01b03918216600090815260346020908152604080832093909416825291909152205490565b6000610485606983610a05565b3390565b6001600160a01b0383166107315760405162461bcd60e51b8152600401808060200182810382526024815260200180610e9a6024913960400191505060405180910390fd5b6001600160a01b0382166107765760405162461bcd60e51b8152600401808060200182810382526022815260200180610d626022913960400191505060405180910390fd5b6001600160a01b03808416600081815260346020908152604080832094871680845294825291829020859055815185815291517f8c5be1e5ebec7d5bd14f71427d1e84f3dd0314c0f7b2291e5b200ac8c7c3b9259281900390910190a3505050565b6107e3606882610c05565b60405133906001600160a01b038316907fe594d081b4382713733fe631966432c9cea5199afb2db5c3c1931f9f9300367990600090a350565b6001600160a01b0383166108615760405162461bcd60e51b8152600401808060200182810382526025815260200180610e756025913960400191505060405180910390fd5b6001600160a01b0382166108a65760405162461bcd60e51b8152600401808060200182810382526023815260200180610d3f6023913960400191505060405180910390fd5b6108e381604051806060016040528060268152602001610db6602691396001600160a01b038616600090815260336020526040902054919061096e565b6001600160a01b0380851660009081526033602052604080822093909355908416815220546109129082610a6c565b6001600160a01b0380841660008181526033602090815260409182902094909455805185815290519193928716927fddf252ad1be2c89b69c2b068fc378daa952ba7f163c4a11628f55a4df523b3ef92918290030190a3505050565b600081848411156109fd5760405162461bcd60e51b81526004018080602001828103825283818151815260200191508051906020019080838360005b838110156109c25781810151838201526020016109aa565b50505050905090810190601f1680156109ef5780820380516001836020036101000a031916815260200191505b509250505060405180910390fd5b505050900390565b60006001600160a01b038216610a4c5760405162461bcd60e51b8152600401808060200182810382526022815260200180610e536022913960400191505060405180910390fd5b506001600160a01b03166000908152602091909152604090205460ff1690565b600082820183811015610ac6576040805162461bcd60e51b815260206004820152601b60248201527f536166654d6174683a206164646974696f6e206f766572666c6f770000000000604482015290519081900360640190fd5b9392505050565b610ad8606882610c6c565b60405133906001600160a01b038316907fc82bdbbf677a2462f2a7e22e4ba9abd209496b69cd7b868b3b1d28f76e09a40a90600090a350565b610b1c606982610c6c565b60405133906001600160a01b038316907f2b5f18afd9a7b21f41bf023b012b3d4c8a22a21b79fa425cd4494ecbe297019690600090a350565b610b60606982610c05565b60405133906001600160a01b038316907fb6fe3ab11eb9ab1d9f1d41c8f42a5d72d10122099ba1548e4a6d1a4d8cefec4b90600090a350565b6000610ba684848461081c565b826001600160a01b0316846001600160a01b0316336001600160a01b03167f64a989949bb484d2d275229a9d310b5d9dc273a560dd639c337aaf6f67fb73b6856040518082815260200191505060405180910390a45060019392505050565b610c0f8282610a05565b610c4a5760405162461bcd60e51b8152600401808060200182810382526021815260200180610e0a6021913960400191505060405180910390fd5b6001600160a01b0316600090815260209190915260409020805460ff19169055565b6001600160a01b038116610cbd576040805162461bcd60e51b8152602060048201526013602482015272496e76616c696420307830206164647265737360681b604482015290519081900360640190fd5b610cc78282610a05565b15610d19576040805162461bcd60e51b815260206004820152601f60248201527f526f6c65733a206163636f756e7420616c72656164792068617320726f6c6500604482015290519081900360640190fd5b6001600160a01b0316600090815260209190915260409020805460ff1916600117905556fe45524332303a207472616e7366657220746f20746865207a65726f206164647265737345524332303a20617070726f766520746f20746865207a65726f20616464726573735265766f6b6572526f6c653a2063616c6c657220646f6573206e6f74206861766520746865205265766f6b657220726f6c6545524332303a207472616e7366657220616d6f756e7420657863656564732062616c616e63654f776e6572526f6c653a2063616c6c657220646f6573206e6f74206861766520746865204f776e657220726f6c65526f6c65733a206163636f756e7420646f6573206e6f74206861766520726f6c6545524332303a207472616e7366657220616d6f756e74206578636565647320616c6c6f77616e6365526f6c65733a206163636f756e7420697320746865207a65726f206164647265737345524332303a207472616e736665722066726f6d20746865207a65726f206164647265737345524332303a20617070726f76652066726f6d20746865207a65726f206164647265737345524332303a2064656372656173656420616c6c6f77616e63652062656c6f77207a65726fa2646970667358221220a717916679552f8b62eca1084d30b999ea0fc2bc8965784c9f556da87319395e64736f6c634300060c0033",
  "immutableReferences": {},
  "source": "pragma solidity 0.6.12;\n\nimport \"../@openzeppelin/contracts-ethereum-package/contracts/token/ERC20/ERC20.sol\";\nimport \"../roles/RevokerRole.sol\";\n\ncontract RevocableToAddress is ERC20, RevokerRole {\n\n  event RevokeToAddress(address indexed revoker, address indexed from, address indexed to, uint256 amount);\n\n  function _revokeToAddress(\n    address _from,\n    address _to,\n    uint256 _amount\n  )\n    internal\n    returns (bool)\n  {\n    ERC20._transfer(_from, _to, _amount);\n    emit RevokeToAddress(msg.sender, _from, _to, _amount);\n    return true;\n  }\n\n  /**\n  Allow Admins to revoke tokens from any address to any destination\n    */\n  function revokeToAddress(address from, address to, uint256 amount) public onlyRevoker returns (bool) {\n      return _revokeToAddress(from, to, amount);\n  }\n}",
  "sourcePath": "/Users/james/Source/tokensoft/tokensoft_token/contracts/capabilities/RevocableToAddress.sol",
  "compiler": {
    "name": "solc",
    "version": "0.6.12+commit.27d51765.Emscripten.clang"
  },
  "schemaVersion": "3.3.1",
  "updatedAt": "2020-12-09T02:03:40.427Z",
  "devdoc": {
    "kind": "dev",
    "methods": {
      "allowance(address,address)": {
        "details": "See {IERC20-allowance}."
      },
      "approve(address,uint256)": {
        "details": "See {IERC20-approve}. Requirements: - `spender` cannot be the zero address."
      },
      "balanceOf(address)": {
        "details": "See {IERC20-balanceOf}."
      },
      "decreaseAllowance(address,uint256)": {
        "details": "Atomically decreases the allowance granted to `spender` by the caller. This is an alternative to {approve} that can be used as a mitigation for problems described in {IERC20-approve}. Emits an {Approval} event indicating the updated allowance. Requirements: - `spender` cannot be the zero address. - `spender` must have allowance for the caller of at least `subtractedValue`."
      },
      "increaseAllowance(address,uint256)": {
        "details": "Atomically increases the allowance granted to `spender` by the caller. This is an alternative to {approve} that can be used as a mitigation for problems described in {IERC20-approve}. Emits an {Approval} event indicating the updated allowance. Requirements: - `spender` cannot be the zero address."
      },
      "totalSupply()": {
        "details": "See {IERC20-totalSupply}."
      },
      "transfer(address,uint256)": {
        "details": "See {IERC20-transfer}. Requirements: - `recipient` cannot be the zero address. - the caller must have a balance of at least `amount`."
      },
      "transferFrom(address,address,uint256)": {
        "details": "See {IERC20-transferFrom}. Emits an {Approval} event indicating the updated allowance. This is not required by the EIP. See the note at the beginning of {ERC20}; Requirements: - `sender` and `recipient` cannot be the zero address. - `sender` must have a balance of at least `amount`. - the caller must have allowance for `sender`'s tokens of at least `amount`."
      }
    },
    "version": 1
  },
  "userdoc": {
    "kind": "user",
    "methods": {
      "revokeToAddress(address,address,uint256)": {
        "notice": "Allow Admins to revoke tokens from any address to any destination"
      }
    },
    "version": 1
  }
}