{
  "contractName": "RevokerRole",
  "abi": [
    {
      "anonymous": false,
      "inputs": [
        {
          "indexed": true,
          "internalType": "address",
          "name": "addedOwner",
          "type": "address"
        },
        {
          "indexed": true,
          "internalType": "address",
          "name": "addedBy",
          "type": "address"
        }
      ],
      "name": "OwnerAdded",
      "type": "event"
    },
    {
      "anonymous": false,
      "inputs": [
        {
          "indexed": true,
          "internalType": "address",
          "name": "removedOwner",
          "type": "address"
        },
        {
          "indexed": true,
          "internalType": "address",
          "name": "removedBy",
          "type": "address"
        }
      ],
      "name": "OwnerRemoved",
      "type": "event"
    },
    {
      "anonymous": false,
      "inputs": [
        {
          "indexed": true,
          "internalType": "address",
          "name": "addedRevoker",
          "type": "address"
        },
        {
          "indexed": true,
          "internalType": "address",
          "name": "addedBy",
          "type": "address"
        }
      ],
      "name": "RevokerAdded",
      "type": "event"
    },
    {
      "anonymous": false,
      "inputs": [
        {
          "indexed": true,
          "internalType": "address",
          "name": "removedRevoker",
          "type": "address"
        },
        {
          "indexed": true,
          "internalType": "address",
          "name": "removedBy",
          "type": "address"
        }
      ],
      "name": "RevokerRemoved",
      "type": "event"
    },
    {
      "inputs": [
        {
          "internalType": "address",
          "name": "account",
          "type": "address"
        }
      ],
      "name": "addOwner",
      "outputs": [],
      "stateMutability": "nonpayable",
      "type": "function"
    },
    {
      "inputs": [
        {
          "internalType": "address",
          "name": "account",
          "type": "address"
        }
      ],
      "name": "isOwner",
      "outputs": [
        {
          "internalType": "bool",
          "name": "",
          "type": "bool"
        }
      ],
      "stateMutability": "view",
      "type": "function"
    },
    {
      "inputs": [
        {
          "internalType": "address",
          "name": "account",
          "type": "address"
        }
      ],
      "name": "removeOwner",
      "outputs": [],
      "stateMutability": "nonpayable",
      "type": "function"
    },
    {
      "inputs": [
        {
          "internalType": "address",
          "name": "account",
          "type": "address"
        }
      ],
      "name": "isRevoker",
      "outputs": [
        {
          "internalType": "bool",
          "name": "",
          "type": "bool"
        }
      ],
      "stateMutability": "view",
      "type": "function"
    },
    {
      "inputs": [
        {
          "internalType": "address",
          "name": "account",
          "type": "address"
        }
      ],
      "name": "addRevoker",
      "outputs": [],
      "stateMutability": "nonpayable",
      "type": "function"
    },
    {
      "inputs": [
        {
          "internalType": "address",
          "name": "account",
          "type": "address"
        }
      ],
      "name": "removeRevoker",
      "outputs": [],
      "stateMutability": "nonpayable",
      "type": "function"
    }
  ],
  "bytecode": "0x608060405234801561001057600080fd5b506105bd806100206000396000f3fe608060405234801561001057600080fd5b50600436106100625760003560e01c8063173825d9146100675780632f54bf6e1461008f5780637065cb48146100c9578063961a66f6146100ef578063c06f8b9414610115578063f6c4b01f1461013b575b600080fd5b61008d6004803603602081101561007d57600080fd5b50356001600160a01b0316610161565b005b6100b5600480360360208110156100a557600080fd5b50356001600160a01b03166101b1565b604080519115158252519081900360200190f35b61008d600480360360208110156100df57600080fd5b50356001600160a01b03166101c3565b61008d6004803603602081101561010557600080fd5b50356001600160a01b0316610210565b61008d6004803603602081101561012b57600080fd5b50356001600160a01b031661025d565b6100b56004803603602081101561015157600080fd5b50356001600160a01b03166102aa565b61016a336101b1565b6101a55760405162461bcd60e51b815260040180806020018281038252602e815260200180610517602e913960400191505060405180910390fd5b6101ae816102b7565b50565b60006101bd81836102fb565b92915050565b6101cc336101b1565b6102075760405162461bcd60e51b815260040180806020018281038252602e815260200180610517602e913960400191505060405180910390fd5b6101ae81610362565b610219336101b1565b6102545760405162461bcd60e51b815260040180806020018281038252602e815260200180610517602e913960400191505060405180910390fd5b6101ae816103a6565b610266336101b1565b6102a15760405162461bcd60e51b815260040180806020018281038252602e815260200180610517602e913960400191505060405180910390fd5b6101ae816103ea565b60006101bd6001836102fb565b6102c260008261042e565b60405133906001600160a01b038316907fe594d081b4382713733fe631966432c9cea5199afb2db5c3c1931f9f9300367990600090a350565b60006001600160a01b0382166103425760405162461bcd60e51b81526004018080602001828103825260228152602001806105666022913960400191505060405180910390fd5b506001600160a01b03166000908152602091909152604090205460ff1690565b61036d600082610495565b60405133906001600160a01b038316907fc82bdbbf677a2462f2a7e22e4ba9abd209496b69cd7b868b3b1d28f76e09a40a90600090a350565b6103b1600182610495565b60405133906001600160a01b038316907f2b5f18afd9a7b21f41bf023b012b3d4c8a22a21b79fa425cd4494ecbe297019690600090a350565b6103f560018261042e565b60405133906001600160a01b038316907fb6fe3ab11eb9ab1d9f1d41c8f42a5d72d10122099ba1548e4a6d1a4d8cefec4b90600090a350565b61043882826102fb565b6104735760405162461bcd60e51b81526004018080602001828103825260218152602001806105456021913960400191505060405180910390fd5b6001600160a01b0316600090815260209190915260409020805460ff19169055565b61049f82826102fb565b156104f1576040805162461bcd60e51b815260206004820152601f60248201527f526f6c65733a206163636f756e7420616c72656164792068617320726f6c6500604482015290519081900360640190fd5b6001600160a01b0316600090815260209190915260409020805460ff1916600117905556fe4f776e6572526f6c653a2063616c6c657220646f6573206e6f74206861766520746865204f776e657220726f6c65526f6c65733a206163636f756e7420646f6573206e6f74206861766520726f6c65526f6c65733a206163636f756e7420697320746865207a65726f2061646472657373a2646970667358221220443b641d2ca103684bdec4c3fb638373b14ff3f1561756121d299265f09d2a8964736f6c634300060c0033",
  "immutableReferences": {},
  "source": "pragma solidity 0.6.12;\n\nimport \"./OwnerRole.sol\";\n\ncontract RevokerRole is OwnerRole {\n\n    event RevokerAdded(address indexed addedRevoker, address indexed addedBy);\n    event RevokerRemoved(address indexed removedRevoker, address indexed removedBy);\n\n    Roles.Role private _revokers;\n\n    modifier onlyRevoker() {\n        require(isRevoker(msg.sender), \"RevokerRole: caller does not have the Revoker role\");\n        _;\n    }\n\n    function isRevoker(address account) public view returns (bool) {\n        return _revokers.has(account);\n    }\n\n    function _addRevoker(address account) internal {\n        _revokers.add(account);\n        emit RevokerAdded(account, msg.sender);\n    }\n\n    function _removeRevoker(address account) internal {\n        _revokers.remove(account);\n        emit RevokerRemoved(account, msg.sender);\n    }\n\n    function addRevoker(address account) public onlyOwner {\n        _addRevoker(account);\n    }\n\n    function removeRevoker(address account) public onlyOwner {\n        _removeRevoker(account);\n    }\n}",
  "sourcePath": "/Users/james/Source/tokensoft/tokensoft_token/contracts/roles/RevokerRole.sol",
  "compiler": {
    "name": "solc",
    "version": "0.6.12+commit.27d51765.Emscripten.clang"
  },
  "schemaVersion": "3.3.2",
  "updatedAt": "2020-11-20T01:46:07.255Z",
  "devdoc": {
    "kind": "dev",
    "methods": {},
    "version": 1
  },
  "userdoc": {
    "kind": "user",
    "methods": {},
    "version": 1
  }
}