{
  "contractName": "TokenSoftTokenEscrow",
  "abi": [
    {
      "anonymous": false,
      "inputs": [
        {
          "indexed": true,
          "internalType": "address",
          "name": "addedAddress",
          "type": "address"
        },
        {
          "indexed": true,
          "internalType": "uint8",
          "name": "whitelist",
          "type": "uint8"
        },
        {
          "indexed": true,
          "internalType": "address",
          "name": "addedBy",
          "type": "address"
        }
      ],
      "name": "AddressAddedToWhitelist",
      "type": "event"
    },
    {
      "anonymous": false,
      "inputs": [
        {
          "indexed": true,
          "internalType": "address",
          "name": "removedAddress",
          "type": "address"
        },
        {
          "indexed": true,
          "internalType": "uint8",
          "name": "whitelist",
          "type": "uint8"
        },
        {
          "indexed": true,
          "internalType": "address",
          "name": "removedBy",
          "type": "address"
        }
      ],
      "name": "AddressRemovedFromWhitelist",
      "type": "event"
    },
    {
      "anonymous": false,
      "inputs": [
        {
          "indexed": true,
          "internalType": "address",
          "name": "owner",
          "type": "address"
        },
        {
          "indexed": true,
          "internalType": "address",
          "name": "spender",
          "type": "address"
        },
        {
          "indexed": false,
          "internalType": "uint256",
          "name": "value",
          "type": "uint256"
        }
      ],
      "name": "Approval",
      "type": "event"
    },
    {
      "anonymous": false,
      "inputs": [
        {
          "indexed": true,
          "internalType": "address",
          "name": "burner",
          "type": "address"
        },
        {
          "indexed": true,
          "internalType": "address",
          "name": "from",
          "type": "address"
        },
        {
          "indexed": false,
          "internalType": "uint256",
          "name": "amount",
          "type": "uint256"
        }
      ],
      "name": "Burn",
      "type": "event"
    },
    {
      "anonymous": false,
      "inputs": [
        {
          "indexed": true,
          "internalType": "address",
          "name": "addedBurner",
          "type": "address"
        },
        {
          "indexed": true,
          "internalType": "address",
          "name": "addedBy",
          "type": "address"
        }
      ],
      "name": "BurnerAdded",
      "type": "event"
    },
    {
      "anonymous": false,
      "inputs": [
        {
          "indexed": true,
          "internalType": "address",
          "name": "removedBurner",
          "type": "address"
        },
        {
          "indexed": true,
          "internalType": "address",
          "name": "removedBy",
          "type": "address"
        }
      ],
      "name": "BurnerRemoved",
      "type": "event"
    },
    {
      "anonymous": false,
      "inputs": [
        {
          "indexed": false,
          "internalType": "address",
          "name": "newAddress",
          "type": "address"
        }
      ],
      "name": "CodeAddressUpdated",
      "type": "event"
    },
    {
      "anonymous": false,
      "inputs": [
        {
          "indexed": true,
          "internalType": "address",
          "name": "addedEscrow",
          "type": "address"
        },
        {
          "indexed": true,
          "internalType": "address",
          "name": "addedBy",
          "type": "address"
        }
      ],
      "name": "EscrowerAdded",
      "type": "event"
    },
    {
      "anonymous": false,
      "inputs": [
        {
          "indexed": true,
          "internalType": "address",
          "name": "removedEscrow",
          "type": "address"
        },
        {
          "indexed": true,
          "internalType": "address",
          "name": "removedBy",
          "type": "address"
        }
      ],
      "name": "EscrowerRemoved",
      "type": "event"
    },
    {
      "anonymous": false,
      "inputs": [
        {
          "indexed": true,
          "internalType": "address",
          "name": "minter",
          "type": "address"
        },
        {
          "indexed": true,
          "internalType": "address",
          "name": "to",
          "type": "address"
        },
        {
          "indexed": false,
          "internalType": "uint256",
          "name": "amount",
          "type": "uint256"
        }
      ],
      "name": "Mint",
      "type": "event"
    },
    {
      "anonymous": false,
      "inputs": [
        {
          "indexed": true,
          "internalType": "address",
          "name": "addedMinter",
          "type": "address"
        },
        {
          "indexed": true,
          "internalType": "address",
          "name": "addedBy",
          "type": "address"
        }
      ],
      "name": "MinterAdded",
      "type": "event"
    },
    {
      "anonymous": false,
      "inputs": [
        {
          "indexed": true,
          "internalType": "address",
          "name": "removedMinter",
          "type": "address"
        },
        {
          "indexed": true,
          "internalType": "address",
          "name": "removedBy",
          "type": "address"
        }
      ],
      "name": "MinterRemoved",
      "type": "event"
    },
    {
      "anonymous": false,
      "inputs": [
        {
          "indexed": true,
          "internalType": "address",
          "name": "updatedBy",
          "type": "address"
        },
        {
          "indexed": true,
          "internalType": "uint8",
          "name": "sourceWhitelist",
          "type": "uint8"
        },
        {
          "indexed": true,
          "internalType": "uint8",
          "name": "destinationWhitelist",
          "type": "uint8"
        },
        {
          "indexed": false,
          "internalType": "bool",
          "name": "from",
          "type": "bool"
        },
        {
          "indexed": false,
          "internalType": "bool",
          "name": "to",
          "type": "bool"
        }
      ],
      "name": "OutboundWhitelistUpdated",
      "type": "event"
    },
    {
      "anonymous": false,
      "inputs": [
        {
          "indexed": true,
          "internalType": "address",
          "name": "addedOwner",
          "type": "address"
        },
        {
          "indexed": true,
          "internalType": "address",
          "name": "addedBy",
          "type": "address"
        }
      ],
      "name": "OwnerAdded",
      "type": "event"
    },
    {
      "anonymous": false,
      "inputs": [
        {
          "indexed": true,
          "internalType": "address",
          "name": "removedOwner",
          "type": "address"
        },
        {
          "indexed": true,
          "internalType": "address",
          "name": "removedBy",
          "type": "address"
        }
      ],
      "name": "OwnerRemoved",
      "type": "event"
    },
    {
      "anonymous": false,
      "inputs": [
        {
          "indexed": false,
          "internalType": "address",
          "name": "account",
          "type": "address"
        }
      ],
      "name": "Paused",
      "type": "event"
    },
    {
      "anonymous": false,
      "inputs": [
        {
          "indexed": true,
          "internalType": "address",
          "name": "addedPauser",
          "type": "address"
        },
        {
          "indexed": true,
          "internalType": "address",
          "name": "addedBy",
          "type": "address"
        }
      ],
      "name": "PauserAdded",
      "type": "event"
    },
    {
      "anonymous": false,
      "inputs": [
        {
          "indexed": true,
          "internalType": "address",
          "name": "removedPauser",
          "type": "address"
        },
        {
          "indexed": true,
          "internalType": "address",
          "name": "removedBy",
          "type": "address"
        }
      ],
      "name": "PauserRemoved",
      "type": "event"
    },
    {
      "anonymous": false,
      "inputs": [
        {
          "indexed": true,
          "internalType": "address",
          "name": "revoker",
          "type": "address"
        },
        {
          "indexed": true,
          "internalType": "address",
          "name": "from",
          "type": "address"
        },
        {
          "indexed": false,
          "internalType": "uint256",
          "name": "amount",
          "type": "uint256"
        }
      ],
      "name": "Revoke",
      "type": "event"
    },
    {
      "anonymous": false,
      "inputs": [
        {
          "indexed": true,
          "internalType": "address",
          "name": "addedRevoker",
          "type": "address"
        },
        {
          "indexed": true,
          "internalType": "address",
          "name": "addedBy",
          "type": "address"
        }
      ],
      "name": "RevokerAdded",
      "type": "event"
    },
    {
      "anonymous": false,
      "inputs": [
        {
          "indexed": true,
          "internalType": "address",
          "name": "removedRevoker",
          "type": "address"
        },
        {
          "indexed": true,
          "internalType": "address",
          "name": "removedBy",
          "type": "address"
        }
      ],
      "name": "RevokerRemoved",
      "type": "event"
    },
    {
      "anonymous": false,
      "inputs": [
        {
          "indexed": true,
          "internalType": "address",
          "name": "from",
          "type": "address"
        },
        {
          "indexed": true,
          "internalType": "address",
          "name": "to",
          "type": "address"
        },
        {
          "indexed": false,
          "internalType": "uint256",
          "name": "value",
          "type": "uint256"
        }
      ],
      "name": "Transfer",
      "type": "event"
    },
    {
      "anonymous": false,
      "inputs": [
        {
          "indexed": true,
          "internalType": "address",
          "name": "updatedBy",
          "type": "address"
        },
        {
          "indexed": false,
          "internalType": "uint256",
          "name": "requestId",
          "type": "uint256"
        },
        {
          "indexed": false,
          "internalType": "enum Escrowable.ProposalState",
          "name": "state",
          "type": "uint8"
        }
      ],
      "name": "TransferProposalUpdated",
      "type": "event"
    },
    {
      "anonymous": false,
      "inputs": [
        {
          "indexed": false,
          "internalType": "address",
          "name": "account",
          "type": "address"
        }
      ],
      "name": "Unpaused",
      "type": "event"
    },
    {
      "anonymous": false,
      "inputs": [
        {
          "indexed": true,
          "internalType": "address",
          "name": "updatedBy",
          "type": "address"
        },
        {
          "indexed": true,
          "internalType": "bool",
          "name": "enabled",
          "type": "bool"
        }
      ],
      "name": "WhitelistEnabledUpdated",
      "type": "event"
    },
    {
      "anonymous": false,
      "inputs": [
        {
          "indexed": true,
          "internalType": "address",
          "name": "addedWhitelister",
          "type": "address"
        },
        {
          "indexed": true,
          "internalType": "address",
          "name": "addedBy",
          "type": "address"
        }
      ],
      "name": "WhitelisterAdded",
      "type": "event"
    },
    {
      "anonymous": false,
      "inputs": [
        {
          "indexed": true,
          "internalType": "address",
          "name": "removedWhitelister",
          "type": "address"
        },
        {
          "indexed": true,
          "internalType": "address",
          "name": "removedBy",
          "type": "address"
        }
      ],
      "name": "WhitelisterRemoved",
      "type": "event"
    },
    {
      "constant": true,
      "inputs": [],
      "name": "FAILURE_NON_WHITELIST",
      "outputs": [
        {
          "internalType": "uint8",
          "name": "",
          "type": "uint8"
        }
      ],
      "payable": false,
      "stateMutability": "view",
      "type": "function"
    },
    {
      "constant": true,
      "inputs": [],
      "name": "FAILURE_NON_WHITELIST_MESSAGE",
      "outputs": [
        {
          "internalType": "string",
          "name": "",
          "type": "string"
        }
      ],
      "payable": false,
      "stateMutability": "view",
      "type": "function"
    },
    {
      "constant": true,
      "inputs": [],
      "name": "FAILURE_PAUSED",
      "outputs": [
        {
          "internalType": "uint8",
          "name": "",
          "type": "uint8"
        }
      ],
      "payable": false,
      "stateMutability": "view",
      "type": "function"
    },
    {
      "constant": true,
      "inputs": [],
      "name": "FAILURE_PAUSED_MESSAGE",
      "outputs": [
        {
          "internalType": "string",
          "name": "",
          "type": "string"
        }
      ],
      "payable": false,
      "stateMutability": "view",
      "type": "function"
    },
    {
      "constant": true,
      "inputs": [],
      "name": "SUCCESS_CODE",
      "outputs": [
        {
          "internalType": "uint8",
          "name": "",
          "type": "uint8"
        }
      ],
      "payable": false,
      "stateMutability": "view",
      "type": "function"
    },
    {
      "constant": true,
      "inputs": [],
      "name": "SUCCESS_MESSAGE",
      "outputs": [
        {
          "internalType": "string",
          "name": "",
          "type": "string"
        }
      ],
      "payable": false,
      "stateMutability": "view",
      "type": "function"
    },
    {
      "constant": true,
      "inputs": [],
      "name": "UNKNOWN_ERROR",
      "outputs": [
        {
          "internalType": "string",
          "name": "",
          "type": "string"
        }
      ],
      "payable": false,
      "stateMutability": "view",
      "type": "function"
    },
    {
      "constant": false,
      "inputs": [
        {
          "internalType": "address",
          "name": "account",
          "type": "address"
        }
      ],
      "name": "addBurner",
      "outputs": [],
      "payable": false,
      "stateMutability": "nonpayable",
      "type": "function"
    },
    {
      "constant": false,
      "inputs": [
        {
          "internalType": "address",
          "name": "account",
          "type": "address"
        }
      ],
      "name": "addEscrower",
      "outputs": [],
      "payable": false,
      "stateMutability": "nonpayable",
      "type": "function"
    },
    {
      "constant": false,
      "inputs": [
        {
          "internalType": "address",
          "name": "account",
          "type": "address"
        }
      ],
      "name": "addMinter",
      "outputs": [],
      "payable": false,
      "stateMutability": "nonpayable",
      "type": "function"
    },
    {
      "constant": false,
      "inputs": [
        {
          "internalType": "address",
          "name": "account",
          "type": "address"
        }
      ],
      "name": "addOwner",
      "outputs": [],
      "payable": false,
      "stateMutability": "nonpayable",
      "type": "function"
    },
    {
      "constant": false,
      "inputs": [
        {
          "internalType": "address",
          "name": "account",
          "type": "address"
        }
      ],
      "name": "addPauser",
      "outputs": [],
      "payable": false,
      "stateMutability": "nonpayable",
      "type": "function"
    },
    {
      "constant": false,
      "inputs": [
        {
          "internalType": "address",
          "name": "account",
          "type": "address"
        }
      ],
      "name": "addRevoker",
      "outputs": [],
      "payable": false,
      "stateMutability": "nonpayable",
      "type": "function"
    },
    {
      "constant": false,
      "inputs": [
        {
          "internalType": "address",
          "name": "addressToAdd",
          "type": "address"
        },
        {
          "internalType": "uint8",
          "name": "whitelist",
          "type": "uint8"
        }
      ],
      "name": "addToWhitelist",
      "outputs": [],
      "payable": false,
      "stateMutability": "nonpayable",
      "type": "function"
    },
    {
      "constant": false,
      "inputs": [
        {
          "internalType": "address",
          "name": "account",
          "type": "address"
        }
      ],
      "name": "addWhitelister",
      "outputs": [],
      "payable": false,
      "stateMutability": "nonpayable",
      "type": "function"
    },
    {
      "constant": true,
      "inputs": [
        {
          "internalType": "address",
          "name": "",
          "type": "address"
        }
      ],
      "name": "addressWhitelists",
      "outputs": [
        {
          "internalType": "uint8",
          "name": "",
          "type": "uint8"
        }
      ],
      "payable": false,
      "stateMutability": "view",
      "type": "function"
    },
    {
      "constant": true,
      "inputs": [
        {
          "internalType": "address",
          "name": "owner",
          "type": "address"
        },
        {
          "internalType": "address",
          "name": "spender",
          "type": "address"
        }
      ],
      "name": "allowance",
      "outputs": [
        {
          "internalType": "uint256",
          "name": "",
          "type": "uint256"
        }
      ],
      "payable": false,
      "stateMutability": "view",
      "type": "function"
    },
    {
      "constant": false,
      "inputs": [
        {
          "internalType": "address",
          "name": "spender",
          "type": "address"
        },
        {
          "internalType": "uint256",
          "name": "amount",
          "type": "uint256"
        }
      ],
      "name": "approve",
      "outputs": [
        {
          "internalType": "bool",
          "name": "",
          "type": "bool"
        }
      ],
      "payable": false,
      "stateMutability": "nonpayable",
      "type": "function"
    },
    {
      "constant": true,
      "inputs": [
        {
          "internalType": "address",
          "name": "account",
          "type": "address"
        }
      ],
      "name": "balanceOf",
      "outputs": [
        {
          "internalType": "uint256",
          "name": "",
          "type": "uint256"
        }
      ],
      "payable": false,
      "stateMutability": "view",
      "type": "function"
    },
    {
      "constant": false,
      "inputs": [
        {
          "internalType": "address",
          "name": "account",
          "type": "address"
        },
        {
          "internalType": "uint256",
          "name": "amount",
          "type": "uint256"
        }
      ],
      "name": "burn",
      "outputs": [
        {
          "internalType": "bool",
          "name": "",
          "type": "bool"
        }
      ],
      "payable": false,
      "stateMutability": "nonpayable",
      "type": "function"
    },
    {
      "constant": false,
      "inputs": [
        {
          "internalType": "uint256",
          "name": "requestId",
          "type": "uint256"
        }
      ],
      "name": "cancelTransferProposal",
      "outputs": [],
      "payable": false,
      "stateMutability": "nonpayable",
      "type": "function"
    },
    {
      "constant": true,
      "inputs": [
        {
          "internalType": "address",
          "name": "sender",
          "type": "address"
        },
        {
          "internalType": "address",
          "name": "receiver",
          "type": "address"
        }
      ],
      "name": "checkWhitelistAllowed",
      "outputs": [
        {
          "internalType": "bool",
          "name": "",
          "type": "bool"
        }
      ],
      "payable": false,
      "stateMutability": "view",
      "type": "function"
    },
    {
      "constant": true,
      "inputs": [],
      "name": "decimals",
      "outputs": [
        {
          "internalType": "uint8",
          "name": "",
          "type": "uint8"
        }
      ],
      "payable": false,
      "stateMutability": "view",
      "type": "function"
    },
    {
      "constant": false,
      "inputs": [
        {
          "internalType": "address",
          "name": "spender",
          "type": "address"
        },
        {
          "internalType": "uint256",
          "name": "subtractedValue",
          "type": "uint256"
        }
      ],
      "name": "decreaseAllowance",
      "outputs": [
        {
          "internalType": "bool",
          "name": "",
          "type": "bool"
        }
      ],
      "payable": false,
      "stateMutability": "nonpayable",
      "type": "function"
    },
    {
      "constant": true,
      "inputs": [],
      "name": "getLogicAddress",
      "outputs": [
        {
          "internalType": "address",
          "name": "logicAddress",
          "type": "address"
        }
      ],
      "payable": false,
      "stateMutability": "view",
      "type": "function"
    },
    {
      "constant": true,
      "inputs": [
        {
          "internalType": "uint256",
          "name": "requestId",
          "type": "uint256"
        }
      ],
      "name": "getTransferProposal",
      "outputs": [
        {
          "internalType": "address",
          "name": "createdBy",
          "type": "address"
        },
        {
          "internalType": "address",
          "name": "from",
          "type": "address"
        },
        {
          "internalType": "address",
          "name": "to",
          "type": "address"
        },
        {
          "internalType": "uint256",
          "name": "value",
          "type": "uint256"
        },
        {
          "internalType": "enum Escrowable.ProposalState",
          "name": "state",
          "type": "uint8"
        }
      ],
      "payable": false,
      "stateMutability": "view",
      "type": "function"
    },
    {
      "constant": false,
      "inputs": [
        {
          "internalType": "address",
          "name": "spender",
          "type": "address"
        },
        {
          "internalType": "uint256",
          "name": "addedValue",
          "type": "uint256"
        }
      ],
      "name": "increaseAllowance",
      "outputs": [
        {
          "internalType": "bool",
          "name": "",
          "type": "bool"
        }
      ],
      "payable": false,
      "stateMutability": "nonpayable",
      "type": "function"
    },
    {
      "constant": true,
      "inputs": [
        {
          "internalType": "address",
          "name": "account",
          "type": "address"
        }
      ],
      "name": "isBurner",
      "outputs": [
        {
          "internalType": "bool",
          "name": "",
          "type": "bool"
        }
      ],
      "payable": false,
      "stateMutability": "view",
      "type": "function"
    },
    {
      "constant": true,
      "inputs": [
        {
          "internalType": "address",
          "name": "account",
          "type": "address"
        }
      ],
      "name": "isEscrower",
      "outputs": [
        {
          "internalType": "bool",
          "name": "",
          "type": "bool"
        }
      ],
      "payable": false,
      "stateMutability": "view",
      "type": "function"
    },
    {
      "constant": true,
      "inputs": [
        {
          "internalType": "address",
          "name": "account",
          "type": "address"
        }
      ],
      "name": "isMinter",
      "outputs": [
        {
          "internalType": "bool",
          "name": "",
          "type": "bool"
        }
      ],
      "payable": false,
      "stateMutability": "view",
      "type": "function"
    },
    {
      "constant": true,
      "inputs": [
        {
          "internalType": "address",
          "name": "account",
          "type": "address"
        }
      ],
      "name": "isOwner",
      "outputs": [
        {
          "internalType": "bool",
          "name": "",
          "type": "bool"
        }
      ],
      "payable": false,
      "stateMutability": "view",
      "type": "function"
    },
    {
      "constant": true,
      "inputs": [
        {
          "internalType": "address",
          "name": "account",
          "type": "address"
        }
      ],
      "name": "isPauser",
      "outputs": [
        {
          "internalType": "bool",
          "name": "",
          "type": "bool"
        }
      ],
      "payable": false,
      "stateMutability": "view",
      "type": "function"
    },
    {
      "constant": true,
      "inputs": [
        {
          "internalType": "address",
          "name": "account",
          "type": "address"
        }
      ],
      "name": "isRevoker",
      "outputs": [
        {
          "internalType": "bool",
          "name": "",
          "type": "bool"
        }
      ],
      "payable": false,
      "stateMutability": "view",
      "type": "function"
    },
    {
      "constant": true,
      "inputs": [],
      "name": "isWhitelistEnabled",
      "outputs": [
        {
          "internalType": "bool",
          "name": "",
          "type": "bool"
        }
      ],
      "payable": false,
      "stateMutability": "view",
      "type": "function"
    },
    {
      "constant": true,
      "inputs": [
        {
          "internalType": "address",
          "name": "account",
          "type": "address"
        }
      ],
      "name": "isWhitelister",
      "outputs": [
        {
          "internalType": "bool",
          "name": "",
          "type": "bool"
        }
      ],
      "payable": false,
      "stateMutability": "view",
      "type": "function"
    },
    {
      "constant": false,
      "inputs": [
        {
          "internalType": "address",
          "name": "account",
          "type": "address"
        },
        {
          "internalType": "uint256",
          "name": "amount",
          "type": "uint256"
        }
      ],
      "name": "mint",
      "outputs": [
        {
          "internalType": "bool",
          "name": "",
          "type": "bool"
        }
      ],
      "payable": false,
      "stateMutability": "nonpayable",
      "type": "function"
    },
    {
      "constant": true,
      "inputs": [],
      "name": "name",
      "outputs": [
        {
          "internalType": "string",
          "name": "",
          "type": "string"
        }
      ],
      "payable": false,
      "stateMutability": "view",
      "type": "function"
    },
    {
      "constant": true,
      "inputs": [
        {
          "internalType": "uint8",
          "name": "",
          "type": "uint8"
        },
        {
          "internalType": "uint8",
          "name": "",
          "type": "uint8"
        }
      ],
      "name": "outboundWhitelistsEnabled",
      "outputs": [
        {
          "internalType": "bool",
          "name": "",
          "type": "bool"
        }
      ],
      "payable": false,
      "stateMutability": "view",
      "type": "function"
    },
    {
      "constant": false,
      "inputs": [],
      "name": "pause",
      "outputs": [],
      "payable": false,
      "stateMutability": "nonpayable",
      "type": "function"
    },
    {
      "constant": true,
      "inputs": [],
      "name": "paused",
      "outputs": [
        {
          "internalType": "bool",
          "name": "",
          "type": "bool"
        }
      ],
      "payable": false,
      "stateMutability": "view",
      "type": "function"
    },
    {
      "constant": true,
      "inputs": [],
      "name": "proxiableUUID",
      "outputs": [
        {
          "internalType": "bytes32",
          "name": "",
          "type": "bytes32"
        }
      ],
      "payable": false,
      "stateMutability": "pure",
      "type": "function"
    },
    {
      "constant": false,
      "inputs": [
        {
          "internalType": "address",
          "name": "account",
          "type": "address"
        }
      ],
      "name": "removeBurner",
      "outputs": [],
      "payable": false,
      "stateMutability": "nonpayable",
      "type": "function"
    },
    {
      "constant": false,
      "inputs": [
        {
          "internalType": "address",
          "name": "account",
          "type": "address"
        }
      ],
      "name": "removeEscrower",
      "outputs": [],
      "payable": false,
      "stateMutability": "nonpayable",
      "type": "function"
    },
    {
      "constant": false,
      "inputs": [
        {
          "internalType": "address",
          "name": "addressToRemove",
          "type": "address"
        }
      ],
      "name": "removeFromWhitelist",
      "outputs": [],
      "payable": false,
      "stateMutability": "nonpayable",
      "type": "function"
    },
    {
      "constant": false,
      "inputs": [
        {
          "internalType": "address",
          "name": "account",
          "type": "address"
        }
      ],
      "name": "removeMinter",
      "outputs": [],
      "payable": false,
      "stateMutability": "nonpayable",
      "type": "function"
    },
    {
      "constant": false,
      "inputs": [
        {
          "internalType": "address",
          "name": "account",
          "type": "address"
        }
      ],
      "name": "removeOwner",
      "outputs": [],
      "payable": false,
      "stateMutability": "nonpayable",
      "type": "function"
    },
    {
      "constant": false,
      "inputs": [
        {
          "internalType": "address",
          "name": "account",
          "type": "address"
        }
      ],
      "name": "removePauser",
      "outputs": [],
      "payable": false,
      "stateMutability": "nonpayable",
      "type": "function"
    },
    {
      "constant": false,
      "inputs": [
        {
          "internalType": "address",
          "name": "account",
          "type": "address"
        }
      ],
      "name": "removeRevoker",
      "outputs": [],
      "payable": false,
      "stateMutability": "nonpayable",
      "type": "function"
    },
    {
      "constant": false,
      "inputs": [
        {
          "internalType": "address",
          "name": "account",
          "type": "address"
        }
      ],
      "name": "removeWhitelister",
      "outputs": [],
      "payable": false,
      "stateMutability": "nonpayable",
      "type": "function"
    },
    {
      "constant": false,
      "inputs": [
        {
          "internalType": "address",
          "name": "from",
          "type": "address"
        },
        {
          "internalType": "uint256",
          "name": "amount",
          "type": "uint256"
        }
      ],
      "name": "revoke",
      "outputs": [
        {
          "internalType": "bool",
          "name": "",
          "type": "bool"
        }
      ],
      "payable": false,
      "stateMutability": "nonpayable",
      "type": "function"
    },
    {
      "constant": false,
      "inputs": [
        {
          "internalType": "bool",
          "name": "enabled",
          "type": "bool"
        }
      ],
      "name": "setWhitelistEnabled",
      "outputs": [],
      "payable": false,
      "stateMutability": "nonpayable",
      "type": "function"
    },
    {
      "constant": true,
      "inputs": [],
      "name": "symbol",
      "outputs": [
        {
          "internalType": "string",
          "name": "",
          "type": "string"
        }
      ],
      "payable": false,
      "stateMutability": "view",
      "type": "function"
    },
    {
      "constant": true,
      "inputs": [],
      "name": "totalSupply",
      "outputs": [
        {
          "internalType": "uint256",
          "name": "",
          "type": "uint256"
        }
      ],
      "payable": false,
      "stateMutability": "view",
      "type": "function"
    },
    {
      "constant": true,
      "inputs": [
        {
          "internalType": "uint256",
          "name": "",
          "type": "uint256"
        }
      ],
      "name": "transferProposals",
      "outputs": [
        {
          "internalType": "address",
          "name": "createdBy",
          "type": "address"
        },
        {
          "internalType": "address",
          "name": "from",
          "type": "address"
        },
        {
          "internalType": "address",
          "name": "to",
          "type": "address"
        },
        {
          "internalType": "uint256",
          "name": "value",
          "type": "uint256"
        },
        {
          "internalType": "enum Escrowable.ProposalState",
          "name": "state",
          "type": "uint8"
        }
      ],
      "payable": false,
      "stateMutability": "view",
      "type": "function"
    },
    {
      "constant": false,
      "inputs": [],
      "name": "unpause",
      "outputs": [],
      "payable": false,
      "stateMutability": "nonpayable",
      "type": "function"
    },
    {
      "constant": false,
      "inputs": [
        {
          "internalType": "uint8",
          "name": "sourceWhitelist",
          "type": "uint8"
        },
        {
          "internalType": "uint8",
          "name": "destinationWhitelist",
          "type": "uint8"
        },
        {
          "internalType": "bool",
          "name": "newEnabledValue",
          "type": "bool"
        }
      ],
      "name": "updateOutboundWhitelistEnabled",
      "outputs": [],
      "payable": false,
      "stateMutability": "nonpayable",
      "type": "function"
    },
    {
      "constant": false,
      "inputs": [
        {
          "internalType": "string",
          "name": "name",
          "type": "string"
        },
        {
          "internalType": "string",
          "name": "symbol",
          "type": "string"
        },
        {
          "internalType": "uint8",
          "name": "decimals",
          "type": "uint8"
        }
      ],
      "name": "initialize",
      "outputs": [],
      "payable": false,
      "stateMutability": "nonpayable",
      "type": "function"
    },
    {
      "constant": false,
      "inputs": [
        {
          "internalType": "address",
          "name": "owner",
          "type": "address"
        },
        {
          "internalType": "string",
          "name": "name",
          "type": "string"
        },
        {
          "internalType": "string",
          "name": "symbol",
          "type": "string"
        },
        {
          "internalType": "uint8",
          "name": "decimals",
          "type": "uint8"
        },
        {
          "internalType": "uint256",
          "name": "initialSupply",
          "type": "uint256"
        },
        {
          "internalType": "bool",
          "name": "whitelistEnabled",
          "type": "bool"
        }
      ],
      "name": "initialize",
      "outputs": [],
      "payable": false,
      "stateMutability": "nonpayable",
      "type": "function"
    },
    {
      "constant": false,
      "inputs": [
        {
          "internalType": "address",
          "name": "newAddress",
          "type": "address"
        }
      ],
      "name": "updateCodeAddress",
      "outputs": [],
      "payable": false,
      "stateMutability": "nonpayable",
      "type": "function"
    },
    {
      "constant": false,
      "inputs": [
        {
          "internalType": "uint256",
          "name": "requestId",
          "type": "uint256"
        }
      ],
      "name": "rejectTransferProposal",
      "outputs": [],
      "payable": false,
      "stateMutability": "nonpayable",
      "type": "function"
    },
    {
      "constant": false,
      "inputs": [
        {
          "internalType": "uint256",
          "name": "requestId",
          "type": "uint256"
        }
      ],
      "name": "approveTransferProposal",
      "outputs": [],
      "payable": false,
      "stateMutability": "nonpayable",
      "type": "function"
    },
    {
      "constant": false,
      "inputs": [
        {
          "internalType": "address",
          "name": "to",
          "type": "address"
        },
        {
          "internalType": "uint256",
          "name": "value",
          "type": "uint256"
        }
      ],
      "name": "transfer",
      "outputs": [
        {
          "internalType": "bool",
          "name": "success",
          "type": "bool"
        }
      ],
      "payable": false,
      "stateMutability": "nonpayable",
      "type": "function"
    },
    {
      "constant": false,
      "inputs": [
        {
          "internalType": "address",
          "name": "from",
          "type": "address"
        },
        {
          "internalType": "address",
          "name": "to",
          "type": "address"
        },
        {
          "internalType": "uint256",
          "name": "value",
          "type": "uint256"
        }
      ],
      "name": "transferFrom",
      "outputs": [
        {
          "internalType": "bool",
          "name": "success",
          "type": "bool"
        }
      ],
      "payable": false,
      "stateMutability": "nonpayable",
      "type": "function"
    }
  ],
  "bytecode": "0x6080604052615d27806100136000396000f3fe608060405234801561001057600080fd5b50600436106103c55760003560e01c80637d0c269f116101ff578063a126bc751161011a578063dd62ed3e116100ad578063eac449d91161007c578063eac449d91461193d578063eaf9144a146119a3578063f44637ba146119e7578063f6c4b01f14611a2b576103c5565b8063dd62ed3e14611790578063e7984d1714611808578063e884e1b41461188b578063e9594508146118e7576103c5565b8063abd108ba116100e9578063abd108ba14611651578063c06f8b941461169b578063c8934462146116df578063cb0c0f3514611762576103c5565b8063a126bc75146114fb578063a457c2d714611529578063a9059cbb1461158f578063aa271e1a146115f5576103c5565b806392e6d68b11610192578063961a66f611610161578063961a66f61461138a57806397af6744146113ce578063983b2d56146114515780639dc29fac14611495576103c5565b806392e6d68b146111e957806393489f1d146112475780639437e2fe1461128b57806395d89b4114611307576103c5565b80638771cd2d116101ce5780638771cd2d14610f885780638ab1d6811461111d5780638f6aabac14611161578063912a9885146111a5576103c5565b80637d0c269f14610e9a57806382c3f79c14610ef657806382dc1ec414610f3a5780638456cb5914610f7e576103c5565b8063313ce567116102ef578063489c1b25116102825780635c975abb116102515780635c975abb14610d985780636b2c0f5514610dba5780637065cb4814610dfe57806370a0823114610e42576103c5565b8063489c1b2514610bd95780634c8cb99d14610c5c57806352d1902d14610c8a578063535a7c1814610ca8576103c5565b80633f713709116102be5780633f71370914610a9757806340c10f1914610abb5780634334614a14610b2157806346fbf68e14610b7d576103c5565b8063313ce567146109b957806339509351146109dd5780633973b59614610a435780633f4ba83a14610a8d576103c5565b80631624f6c6116103675780631fb45ec0116103365780631fb45ec01461086f57806323b872dd146108935780632f54bf6e146109195780633092afd514610975576103c5565b80631624f6c61461068c578063173825d9146107eb57806318160ddd1461082f578063184d69ab1461084d576103c5565b8063052d9e7e116103a3578063052d9e7e1461054f57806306fdde031461057f578063095ea7b3146106025780630e969a0514610668576103c5565b8063012fe7fd146103ca5780630263b858146104ba578063028468581461050b575b600080fd5b6103f6600480360360208110156103e057600080fd5b8101908080359060200190929190505050611a87565b604051808673ffffffffffffffffffffffffffffffffffffffff1673ffffffffffffffffffffffffffffffffffffffff1681526020018573ffffffffffffffffffffffffffffffffffffffff1673ffffffffffffffffffffffffffffffffffffffff1681526020018473ffffffffffffffffffffffffffffffffffffffff1673ffffffffffffffffffffffffffffffffffffffff1681526020018381526020018260038111156104a257fe5b60ff1681526020019550505050505060405180910390f35b610509600480360360408110156104d057600080fd5b81019080803573ffffffffffffffffffffffffffffffffffffffff169060200190929190803560ff169060200190929190505050611b2a565b005b61054d6004803603602081101561052157600080fd5b81019080803573ffffffffffffffffffffffffffffffffffffffff169060200190929190505050611b96565b005b61057d6004803603602081101561056557600080fd5b81019080803515159060200190929190505050611c00565b005b610587611c6a565b6040518080602001828103825283818151815260200191508051906020019080838360005b838110156105c75780820151818401526020810190506105ac565b50505050905090810190601f1680156105f45780820380516001836020036101000a031916815260200191505b509250505060405180910390f35b61064e6004803603604081101561061857600080fd5b81019080803573ffffffffffffffffffffffffffffffffffffffff16906020019092919080359060200190929190505050611d0c565b604051808215151515815260200191505060405180910390f35b610670611d2a565b604051808260ff1660ff16815260200191505060405180910390f35b6107e9600480360360608110156106a257600080fd5b81019080803590602001906401000000008111156106bf57600080fd5b8201836020820111156106d157600080fd5b803590602001918460018302840111640100000000831117156106f357600080fd5b91908080601f016020809104026020016040519081016040528093929190818152602001838380828437600081840152601f19601f8201169050808301925050505050505091929192908035906020019064010000000081111561075657600080fd5b82018360208201111561076857600080fd5b8035906020019184600183028401116401000000008311171561078a57600080fd5b91908080601f016020809104026020016040519081016040528093929190818152602001838380828437600081840152601f19601f820116905080830192505050505050509192919290803560ff169060200190929190505050611d2f565b005b61082d6004803603602081101561080157600080fd5b81019080803573ffffffffffffffffffffffffffffffffffffffff169060200190929190505050611e7a565b005b610837611ee4565b6040518082815260200191505060405180910390f35b610855611eee565b604051808215151515815260200191505060405180910390f35b610877611f01565b604051808260ff1660ff16815260200191505060405180910390f35b6108ff600480360360608110156108a957600080fd5b81019080803573ffffffffffffffffffffffffffffffffffffffff169060200190929190803573ffffffffffffffffffffffffffffffffffffffff16906020019092919080359060200190929190505050611f06565b604051808215151515815260200191505060405180910390f35b61095b6004803603602081101561092f57600080fd5b81019080803573ffffffffffffffffffffffffffffffffffffffff169060200190929190505050611f1c565b604051808215151515815260200191505060405180910390f35b6109b76004803603602081101561098b57600080fd5b81019080803573ffffffffffffffffffffffffffffffffffffffff169060200190929190505050611f39565b005b6109c1611fa3565b604051808260ff1660ff16815260200191505060405180910390f35b610a29600480360360408110156109f357600080fd5b81019080803573ffffffffffffffffffffffffffffffffffffffff16906020019092919080359060200190929190505050611fba565b604051808215151515815260200191505060405180910390f35b610a8b60048036036060811015610a5957600080fd5b81019080803560ff169060200190929190803560ff16906020019092919080351515906020019092919050505061206d565b005b610a956120db565b005b610a9f6121c5565b604051808260ff1660ff16815260200191505060405180910390f35b610b0760048036036040811015610ad157600080fd5b81019080803573ffffffffffffffffffffffffffffffffffffffff169060200190929190803590602001909291905050506121ca565b604051808215151515815260200191505060405180910390f35b610b6360048036036020811015610b3757600080fd5b81019080803573ffffffffffffffffffffffffffffffffffffffff16906020019092919050505061223d565b604051808215151515815260200191505060405180910390f35b610bbf60048036036020811015610b9357600080fd5b81019080803573ffffffffffffffffffffffffffffffffffffffff16906020019092919050505061225a565b604051808215151515815260200191505060405180910390f35b610be1612277565b6040518080602001828103825283818151815260200191508051906020019080838360005b83811015610c21578082015181840152602081019050610c06565b50505050905090810190601f168015610c4e5780820380516001836020036101000a031916815260200191505b509250505060405180910390f35b610c8860048036036020811015610c7257600080fd5b8101908080359060200190929190505050612293565b005b610c926122fd565b6040518082815260200191505060405180910390f35b610cd460048036036020811015610cbe57600080fd5b8101908080359060200190929190505050612328565b604051808673ffffffffffffffffffffffffffffffffffffffff1673ffffffffffffffffffffffffffffffffffffffff1681526020018573ffffffffffffffffffffffffffffffffffffffff1673ffffffffffffffffffffffffffffffffffffffff1681526020018473ffffffffffffffffffffffffffffffffffffffff1673ffffffffffffffffffffffffffffffffffffffff168152602001838152602001826003811115610d8057fe5b60ff1681526020019550505050505060405180910390f35b610da0612458565b604051808215151515815260200191505060405180910390f35b610dfc60048036036020811015610dd057600080fd5b81019080803573ffffffffffffffffffffffffffffffffffffffff16906020019092919050505061246f565b005b610e4060048036036020811015610e1457600080fd5b81019080803573ffffffffffffffffffffffffffffffffffffffff1690602001909291905050506124d9565b005b610e8460048036036020811015610e5857600080fd5b81019080803573ffffffffffffffffffffffffffffffffffffffff169060200190929190505050612543565b6040518082815260200191505060405180910390f35b610edc60048036036020811015610eb057600080fd5b81019080803573ffffffffffffffffffffffffffffffffffffffff16906020019092919050505061258c565b604051808215151515815260200191505060405180910390f35b610f3860048036036020811015610f0c57600080fd5b81019080803573ffffffffffffffffffffffffffffffffffffffff1690602001909291905050506125a9565b005b610f7c60048036036020811015610f5057600080fd5b81019080803573ffffffffffffffffffffffffffffffffffffffff169060200190929190505050612613565b005b610f8661267d565b005b61111b600480360360c0811015610f9e57600080fd5b81019080803573ffffffffffffffffffffffffffffffffffffffff16906020019092919080359060200190640100000000811115610fdb57600080fd5b820183602082011115610fed57600080fd5b8035906020019184600183028401116401000000008311171561100f57600080fd5b91908080601f016020809104026020016040519081016040528093929190818152602001838380828437600081840152601f19601f8201169050808301925050505050505091929192908035906020019064010000000081111561107257600080fd5b82018360208201111561108457600080fd5b803590602001918460018302840111640100000000831117156110a657600080fd5b91908080601f016020809104026020016040519081016040528093929190818152602001838380828437600081840152601f19601f820116905080830192505050505050509192919290803560ff16906020019092919080359060200190929190803515159060200190929190505050612768565b005b61115f6004803603602081101561113357600080fd5b81019080803573ffffffffffffffffffffffffffffffffffffffff169060200190929190505050612896565b005b6111a36004803603602081101561117757600080fd5b81019080803573ffffffffffffffffffffffffffffffffffffffff169060200190929190505050612900565b005b6111e7600480360360208110156111bb57600080fd5b81019080803573ffffffffffffffffffffffffffffffffffffffff16906020019092919050505061296a565b005b61122b600480360360208110156111ff57600080fd5b81019080803573ffffffffffffffffffffffffffffffffffffffff1690602001909291905050506129d4565b604051808260ff1660ff16815260200191505060405180910390f35b6112896004803603602081101561125d57600080fd5b81019080803573ffffffffffffffffffffffffffffffffffffffff1690602001909291905050506129f4565b005b6112ed600480360360408110156112a157600080fd5b81019080803573ffffffffffffffffffffffffffffffffffffffff169060200190929190803573ffffffffffffffffffffffffffffffffffffffff169060200190929190505050612ae3565b604051808215151515815260200191505060405180910390f35b61130f612c18565b6040518080602001828103825283818151815260200191508051906020019080838360005b8381101561134f578082015181840152602081019050611334565b50505050905090810190601f16801561137c5780820380516001836020036101000a031916815260200191505b509250505060405180910390f35b6113cc600480360360208110156113a057600080fd5b81019080803573ffffffffffffffffffffffffffffffffffffffff169060200190929190505050612cba565b005b6113d6612d24565b6040518080602001828103825283818151815260200191508051906020019080838360005b838110156114165780820151818401526020810190506113fb565b50505050905090810190601f1680156114435780820380516001836020036101000a031916815260200191505b509250505060405180910390f35b6114936004803603602081101561146757600080fd5b81019080803573ffffffffffffffffffffffffffffffffffffffff169060200190929190505050612d5d565b005b6114e1600480360360408110156114ab57600080fd5b81019080803573ffffffffffffffffffffffffffffffffffffffff16906020019092919080359060200190929190505050612dc7565b604051808215151515815260200191505060405180910390f35b6115276004803603602081101561151157600080fd5b8101908080359060200190929190505050612e3a565b005b6115756004803603604081101561153f57600080fd5b81019080803573ffffffffffffffffffffffffffffffffffffffff16906020019092919080359060200190929190505050612ea4565b604051808215151515815260200191505060405180910390f35b6115db600480360360408110156115a557600080fd5b81019080803573ffffffffffffffffffffffffffffffffffffffff16906020019092919080359060200190929190505050612f71565b604051808215151515815260200191505060405180910390f35b6116376004803603602081101561160b57600080fd5b81019080803573ffffffffffffffffffffffffffffffffffffffff169060200190929190505050612f85565b604051808215151515815260200191505060405180910390f35b611659612fa2565b604051808273ffffffffffffffffffffffffffffffffffffffff1673ffffffffffffffffffffffffffffffffffffffff16815260200191505060405180910390f35b6116dd600480360360208110156116b157600080fd5b81019080803573ffffffffffffffffffffffffffffffffffffffff169060200190929190505050612fcb565b005b6116e7613035565b6040518080602001828103825283818151815260200191508051906020019080838360005b8381101561172757808201518184015260208101905061170c565b50505050905090810190601f1680156117545780820380516001836020036101000a031916815260200191505b509250505060405180910390f35b61178e6004803603602081101561177857600080fd5b8101908080359060200190929190505050613051565b005b6117f2600480360360408110156117a657600080fd5b81019080803573ffffffffffffffffffffffffffffffffffffffff169060200190929190803573ffffffffffffffffffffffffffffffffffffffff16906020019092919050505061322d565b6040518082815260200191505060405180910390f35b6118106132b4565b6040518080602001828103825283818151815260200191508051906020019080838360005b83811015611850578082015181840152602081019050611835565b50505050905090810190601f16801561187d5780820380516001836020036101000a031916815260200191505b509250505060405180910390f35b6118cd600480360360208110156118a157600080fd5b81019080803573ffffffffffffffffffffffffffffffffffffffff1690602001909291905050506132ed565b604051808215151515815260200191505060405180910390f35b611923600480360360408110156118fd57600080fd5b81019080803560ff169060200190929190803560ff16906020019092919050505061330a565b604051808215151515815260200191505060405180910390f35b6119896004803603604081101561195357600080fd5b81019080803573ffffffffffffffffffffffffffffffffffffffff16906020019092919080359060200190929190505050613339565b604051808215151515815260200191505060405180910390f35b6119e5600480360360208110156119b957600080fd5b81019080803573ffffffffffffffffffffffffffffffffffffffff1690602001909291905050506133ab565b005b611a29600480360360208110156119fd57600080fd5b81019080803573ffffffffffffffffffffffffffffffffffffffff169060200190929190505050613415565b005b611a6d60048036036020811015611a4157600080fd5b81019080803573ffffffffffffffffffffffffffffffffffffffff16906020019092919050505061347f565b604051808215151515815260200191505060405180910390f35b60a96020528060005260406000206000915090508060000160009054906101000a900473ffffffffffffffffffffffffffffffffffffffff16908060010160009054906101000a900473ffffffffffffffffffffffffffffffffffffffff16908060020160009054906101000a900473ffffffffffffffffffffffffffffffffffffffff16908060030154908060040160009054906101000a900460ff16905085565b611b333361258c565b611b88576040517f08c379a000000000000000000000000000000000000000000000000000000000815260040180806020018281038252603a815260200180615c06603a913960400191505060405180910390fd5b611b92828261349c565b5050565b611b9f33611f1c565b611bf4576040517f08c379a000000000000000000000000000000000000000000000000000000000815260040180806020018281038252602e815260200180615a44602e913960400191505060405180910390fd5b611bfd81613692565b50565b611c0933611f1c565b611c5e576040517f08c379a000000000000000000000000000000000000000000000000000000000815260040180806020018281038252602e815260200180615a44602e913960400191505060405180910390fd5b611c6781613703565b50565b606060338054600181600116156101000203166002900480601f016020809104026020016040519081016040528092919081815260200182805460018160011615610100020316600290048015611d025780601f10611cd757610100808354040283529160200191611d02565b820191906000526020600020905b815481529060010190602001808311611ce557829003601f168201915b5050505050905090565b6000611d20611d19613766565b848461376e565b6001905092915050565b600081565b600060019054906101000a900460ff1680611d4e5750611d4d613965565b5b80611d6557506000809054906101000a900460ff16155b611dba576040517f08c379a000000000000000000000000000000000000000000000000000000000815260040180806020018281038252602e815260200180615b08602e913960400191505060405180910390fd5b60008060019054906101000a900460ff161590508015611e0a576001600060016101000a81548160ff02191690831515021790555060016000806101000a81548160ff0219169083151502179055505b8360339080519060200190611e209291906157c7565b508260349080519060200190611e379291906157c7565b5081603560006101000a81548160ff021916908360ff1602179055508015611e745760008060016101000a81548160ff0219169083151502179055505b50505050565b611e8333611f1c565b611ed8576040517f08c379a000000000000000000000000000000000000000000000000000000000815260040180806020018281038252602e815260200180615a44602e913960400191505060405180910390fd5b611ee18161397c565b50565b6000606a54905090565b609f60009054906101000a900460ff1681565b600181565b6000611f138484846139ed565b90509392505050565b6000611f3282609d613c0e90919063ffffffff16565b9050919050565b611f4233611f1c565b611f97576040517f08c379a000000000000000000000000000000000000000000000000000000000815260040180806020018281038252602e815260200180615a44602e913960400191505060405180910390fd5b611fa081613cec565b50565b6000603560009054906101000a900460ff16905090565b6000612063611fc7613766565b8461205e8560696000611fd8613766565b73ffffffffffffffffffffffffffffffffffffffff1673ffffffffffffffffffffffffffffffffffffffff16815260200190815260200160002060008973ffffffffffffffffffffffffffffffffffffffff1673ffffffffffffffffffffffffffffffffffffffff16815260200190815260200160002054613d5d90919063ffffffff16565b61376e565b6001905092915050565b6120763361258c565b6120cb576040517f08c379a000000000000000000000000000000000000000000000000000000000815260040180806020018281038252603a815260200180615c06603a913960400191505060405180910390fd5b6120d6838383613de5565b505050565b6120e43361225a565b612139576040517f08c379a000000000000000000000000000000000000000000000000000000000815260040180806020018281038252603081526020018061590f6030913960400191505060405180910390fd5b60a660009054906101000a900460ff166121bb576040517f08c379a00000000000000000000000000000000000000000000000000000000081526004018080602001828103825260148152602001807f5061757361626c653a206e6f742070617573656400000000000000000000000081525060200191505060405180910390fd5b6121c3613edb565b565b600281565b60006121d533612f85565b61222a576040517f08c379a0000000000000000000000000000000000000000000000000000000008152600401808060200182810382526030815260200180615a146030913960400191505060405180910390fd5b612235338484613f5b565b905092915050565b60006122538260a3613c0e90919063ffffffff16565b9050919050565b60006122708260a5613c0e90919063ffffffff16565b9050919050565b6040518060600160405280603d8152602001615b57603d913981565b61229c336132ed565b6122f1576040517f08c379a00000000000000000000000000000000000000000000000000000000081526004018080602001828103825260328152602001806158dd6032913960400191505060405180910390fd5b6122fa81613fd7565b50565b60007fc5f16f0fcc639fa48a6947836d9850f504798523bf8c9a3a87d5876cf622bcf760001b905090565b600080600080600060a85486106123a7576040517f08c379a00000000000000000000000000000000000000000000000000000000081526004018080602001828103825260198152602001807f726571756573744964206973206f7574206f662072616e67650000000000000081525060200191505060405180910390fd5b600060a9600088815260200190815260200160002090508060000160009054906101000a900473ffffffffffffffffffffffffffffffffffffffff1695508060010160009054906101000a900473ffffffffffffffffffffffffffffffffffffffff1694508060020160009054906101000a900473ffffffffffffffffffffffffffffffffffffffff169350806003015492508060040160009054906101000a900460ff1691505091939590929450565b600060a660009054906101000a900460ff16905090565b61247833611f1c565b6124cd576040517f08c379a000000000000000000000000000000000000000000000000000000000815260040180806020018281038252602e815260200180615a44602e913960400191505060405180910390fd5b6124d68161410b565b50565b6124e233611f1c565b612537576040517f08c379a000000000000000000000000000000000000000000000000000000000815260040180806020018281038252602e815260200180615a44602e913960400191505060405180910390fd5b6125408161417c565b50565b6000606860008373ffffffffffffffffffffffffffffffffffffffff1673ffffffffffffffffffffffffffffffffffffffff168152602001908152602001600020549050919050565b60006125a282609e613c0e90919063ffffffff16565b9050919050565b6125b233611f1c565b612607576040517f08c379a000000000000000000000000000000000000000000000000000000000815260040180806020018281038252602e815260200180615a44602e913960400191505060405180910390fd5b612610816141ed565b50565b61261c33611f1c565b612671576040517f08c379a000000000000000000000000000000000000000000000000000000000815260040180806020018281038252602e815260200180615a44602e913960400191505060405180910390fd5b61267a8161425e565b50565b6126863361225a565b6126db576040517f08c379a000000000000000000000000000000000000000000000000000000000815260040180806020018281038252603081526020018061590f6030913960400191505060405180910390fd5b60a660009054906101000a900460ff161561275e576040517f08c379a00000000000000000000000000000000000000000000000000000000081526004018080602001828103825260108152602001807f5061757361626c653a207061757365640000000000000000000000000000000081525060200191505060405180910390fd5b6127666142cf565b565b600060019054906101000a900460ff16806127875750612786613965565b5b8061279e57506000809054906101000a900460ff16155b6127f3576040517f08c379a000000000000000000000000000000000000000000000000000000000815260040180806020018281038252602e815260200180615b08602e913960400191505060405180910390fd5b60008060019054906101000a900460ff161590508015612843576001600060016101000a81548160ff02191690831515021790555060016000806101000a81548160ff0219169083151502179055505b61284e868686611d2f565b612859338885613f5b565b506128638761417c565b61286c82613703565b801561288d5760008060016101000a81548160ff0219169083151502179055505b50505050505050565b61289f3361258c565b6128f4576040517f08c379a000000000000000000000000000000000000000000000000000000000815260040180806020018281038252603a815260200180615c06603a913960400191505060405180910390fd5b6128fd8161434f565b50565b61290933611f1c565b61295e576040517f08c379a000000000000000000000000000000000000000000000000000000000815260040180806020018281038252602e815260200180615a44602e913960400191505060405180910390fd5b6129678161445b565b50565b61297333611f1c565b6129c8576040517f08c379a000000000000000000000000000000000000000000000000000000000815260040180806020018281038252602e815260200180615a44602e913960400191505060405180910390fd5b6129d1816144cc565b50565b60a06020528060005260406000206000915054906101000a900460ff1681565b6129fd33611f1c565b612a52576040517f08c379a000000000000000000000000000000000000000000000000000000000815260040180806020018281038252602e815260200180615a44602e913960400191505060405180910390fd5b8073ffffffffffffffffffffffffffffffffffffffff163373ffffffffffffffffffffffffffffffffffffffff161415612ad7576040517f08c379a000000000000000000000000000000000000000000000000000000000815260040180806020018281038252602e815260200180615c40602e913960400191505060405180910390fd5b612ae08161466d565b50565b6000609f60009054906101000a900460ff16612b025760019050612c12565b600060a060008573ffffffffffffffffffffffffffffffffffffffff1673ffffffffffffffffffffffffffffffffffffffff16815260200190815260200160002060009054906101000a900460ff169050600060a060008573ffffffffffffffffffffffffffffffffffffffff1673ffffffffffffffffffffffffffffffffffffffff16815260200190815260200160002060009054906101000a900460ff169050600060ff168260ff161480612bbf5750600060ff168160ff16145b15612bcf57600092505050612c12565b60a160008360ff1660ff16815260200190815260200160002060008260ff1660ff16815260200190815260200160002060009054906101000a900460ff16925050505b92915050565b606060348054600181600116156101000203166002900480601f016020809104026020016040519081016040528092919081815260200182805460018160011615610100020316600290048015612cb05780601f10612c8557610100808354040283529160200191612cb0565b820191906000526020600020905b815481529060010190602001808311612c9357829003601f168201915b5050505050905090565b612cc333611f1c565b612d18576040517f08c379a000000000000000000000000000000000000000000000000000000000815260040180806020018281038252602e815260200180615a44602e913960400191505060405180910390fd5b612d21816146de565b50565b6040518060400160405280601281526020017f556e6b6e6f776e204572726f7220436f6465000000000000000000000000000081525081565b612d6633611f1c565b612dbb576040517f08c379a000000000000000000000000000000000000000000000000000000000815260040180806020018281038252602e815260200180615a44602e913960400191505060405180910390fd5b612dc48161474f565b50565b6000612dd23361223d565b612e27576040517f08c379a00000000000000000000000000000000000000000000000000000000081526004018080602001828103825260308152602001806159b96030913960400191505060405180910390fd5b612e323384846147c0565b905092915050565b612e43336132ed565b612e98576040517f08c379a00000000000000000000000000000000000000000000000000000000081526004018080602001828103825260328152602001806158dd6032913960400191505060405180910390fd5b612ea18161483c565b50565b6000612f67612eb1613766565b84612f6285604051806060016040528060258152602001615cce6025913960696000612edb613766565b73ffffffffffffffffffffffffffffffffffffffff1673ffffffffffffffffffffffffffffffffffffffff16815260200190815260200160002060008a73ffffffffffffffffffffffffffffffffffffffff1673ffffffffffffffffffffffffffffffffffffffff168152602001908152602001600020546149709092919063ffffffff16565b61376e565b6001905092915050565b6000612f7d8383614a30565b905092915050565b6000612f9b8260a2613c0e90919063ffffffff16565b9050919050565b60007fc5f16f0fcc639fa48a6947836d9850f504798523bf8c9a3a87d5876cf622bcf754905090565b612fd433611f1c565b613029576040517f08c379a000000000000000000000000000000000000000000000000000000000815260040180806020018281038252602e815260200180615a44602e913960400191505060405180910390fd5b61303281614c4f565b50565b6040518060600160405280603c8152602001615c92603c913981565b60a85481106130ab576040517f08c379a0000000000000000000000000000000000000000000000000000000008152600401808060200182810382526021815260200180615b366021913960400191505060405180910390fd5b600060a960008381526020019081526020016000209050600060038111156130cf57fe5b8160040160009054906101000a900460ff1660038111156130ec57fe5b14613142576040517f08c379a000000000000000000000000000000000000000000000000000000000815260040180806020018281038252602b8152602001806159e9602b913960400191505060405180910390fd5b8060000160009054906101000a900473ffffffffffffffffffffffffffffffffffffffff1673ffffffffffffffffffffffffffffffffffffffff163373ffffffffffffffffffffffffffffffffffffffff16146131ea576040517f08c379a000000000000000000000000000000000000000000000000000000000815260040180806020018281038252602b815260200180615a93602b913960400191505060405180910390fd5b6131f681836003614cc0565b613229308260010160009054906101000a900473ffffffffffffffffffffffffffffffffffffffff168360030154614d5f565b5050565b6000606960008473ffffffffffffffffffffffffffffffffffffffff1673ffffffffffffffffffffffffffffffffffffffff16815260200190815260200160002060008373ffffffffffffffffffffffffffffffffffffffff1673ffffffffffffffffffffffffffffffffffffffff16815260200190815260200160002054905092915050565b6040518060400160405280600781526020017f535543434553530000000000000000000000000000000000000000000000000081525081565b60006133038260a7613c0e90919063ffffffff16565b9050919050565b60a16020528160005260406000206020528060005260406000206000915091509054906101000a900460ff1681565b60006133443361347f565b613399576040517f08c379a00000000000000000000000000000000000000000000000000000000081526004018080602001828103825260328152602001806159616032913960400191505060405180910390fd5b6133a38383615019565b905092915050565b6133b433611f1c565b613409576040517f08c379a000000000000000000000000000000000000000000000000000000000815260040180806020018281038252602e815260200180615a44602e913960400191505060405180910390fd5b61341281615095565b50565b61341e33611f1c565b613473576040517f08c379a000000000000000000000000000000000000000000000000000000000815260040180806020018281038252602e815260200180615a44602e913960400191505060405180910390fd5b61347c81615106565b50565b60006134958260a4613c0e90919063ffffffff16565b9050919050565b600060ff168160ff161415613519576040517f08c379a000000000000000000000000000000000000000000000000000000000815260040180806020018281038252601d8152602001807f496e76616c69642077686974656c69737420494420737570706c69656400000081525060200191505060405180910390fd5b600060a060008473ffffffffffffffffffffffffffffffffffffffff1673ffffffffffffffffffffffffffffffffffffffff16815260200190815260200160002060009054906101000a900460ff1690508160a060008573ffffffffffffffffffffffffffffffffffffffff1673ffffffffffffffffffffffffffffffffffffffff16815260200190815260200160002060006101000a81548160ff021916908360ff160217905550600060ff168160ff161461362f573373ffffffffffffffffffffffffffffffffffffffff168160ff168473ffffffffffffffffffffffffffffffffffffffff167fb50a30a0fa972f89fbb2b514d12b31f5a5d64f53603402de7939742cd8507f6e60405160405180910390a45b3373ffffffffffffffffffffffffffffffffffffffff168260ff168473ffffffffffffffffffffffffffffffffffffffff167fca6d1e885708b837a7647aeb7f4163ee4ca96058e08ac767be8d23c972c5027060405160405180910390a4505050565b6136a68160a361517790919063ffffffff16565b3373ffffffffffffffffffffffffffffffffffffffff168173ffffffffffffffffffffffffffffffffffffffff167f85222465e0d438163a28671b59fc9ebeb03bf39f880ddd36c8315da7512b31c060405160405180910390a350565b80609f60006101000a81548160ff0219169083151502179055508015153373ffffffffffffffffffffffffffffffffffffffff167fb535c5f7f150db8dbf22962fc390e7fa9026b9c29ffad714197bee4620572bd660405160405180910390a350565b600033905090565b600073ffffffffffffffffffffffffffffffffffffffff168373ffffffffffffffffffffffffffffffffffffffff1614156137f4576040517f08c379a0000000000000000000000000000000000000000000000000000000008152600401808060200182810382526024815260200180615c6e6024913960400191505060405180910390fd5b600073ffffffffffffffffffffffffffffffffffffffff168273ffffffffffffffffffffffffffffffffffffffff16141561387a576040517f08c379a000000000000000000000000000000000000000000000000000000000815260040180806020018281038252602281526020018061593f6022913960400191505060405180910390fd5b80606960008573ffffffffffffffffffffffffffffffffffffffff1673ffffffffffffffffffffffffffffffffffffffff16815260200190815260200160002060008473ffffffffffffffffffffffffffffffffffffffff1673ffffffffffffffffffffffffffffffffffffffff168152602001908152602001600020819055508173ffffffffffffffffffffffffffffffffffffffff168373ffffffffffffffffffffffffffffffffffffffff167f8c5be1e5ebec7d5bd14f71427d1e84f3dd0314c0f7b2291e5b200ac8c7c3b925836040518082815260200191505060405180910390a3505050565b6000803090506000813b9050600081149250505090565b61399081609d61517790919063ffffffff16565b3373ffffffffffffffffffffffffffffffffffffffff168173ffffffffffffffffffffffffffffffffffffffff167fe594d081b4382713733fe631966432c9cea5199afb2db5c3c1931f9f9300367960405160405180910390a350565b60006040518060a001604052803373ffffffffffffffffffffffffffffffffffffffff1681526020018573ffffffffffffffffffffffffffffffffffffffff1681526020018473ffffffffffffffffffffffffffffffffffffffff16815260200183815260200160006003811115613a6157fe5b81525060a9600060a854815260200190815260200160002060008201518160000160006101000a81548173ffffffffffffffffffffffffffffffffffffffff021916908373ffffffffffffffffffffffffffffffffffffffff16021790555060208201518160010160006101000a81548173ffffffffffffffffffffffffffffffffffffffff021916908373ffffffffffffffffffffffffffffffffffffffff16021790555060408201518160020160006101000a81548173ffffffffffffffffffffffffffffffffffffffff021916908373ffffffffffffffffffffffffffffffffffffffff1602179055506060820151816003015560808201518160040160006101000a81548160ff02191690836003811115613b7c57fe5b02179055509050503373ffffffffffffffffffffffffffffffffffffffff167f37c022e8b41869a28d52a95d97338cc58db90c5e01027e7b5db628b620332d5f60a854600060405180838152602001826003811115613bd757fe5b60ff1681526020019250505060405180910390a2600160a8540160a881905550613c02843084615234565b50600190509392505050565b60008073ffffffffffffffffffffffffffffffffffffffff168273ffffffffffffffffffffffffffffffffffffffff161415613c95576040517f08c379a0000000000000000000000000000000000000000000000000000000008152600401808060200182810382526022815260200180615ae66022913960400191505060405180910390fd5b8260000160008373ffffffffffffffffffffffffffffffffffffffff1673ffffffffffffffffffffffffffffffffffffffff16815260200190815260200160002060009054906101000a900460ff16905092915050565b613d008160a261517790919063ffffffff16565b3373ffffffffffffffffffffffffffffffffffffffff168173ffffffffffffffffffffffffffffffffffffffff167f4b5ef9a786cf64a7d82ebcf2d5132667edc9faef4ac36260d9a9e52c526b623260405160405180910390a350565b600080828401905083811015613ddb576040517f08c379a000000000000000000000000000000000000000000000000000000000815260040180806020018281038252601b8152602001807f536166654d6174683a206164646974696f6e206f766572666c6f77000000000081525060200191505060405180910390fd5b8091505092915050565b600060a160008560ff1660ff16815260200190815260200160002060008460ff1660ff16815260200190815260200160002060009054906101000a900460ff1690508160a160008660ff1660ff16815260200190815260200160002060008560ff1660ff16815260200190815260200160002060006101000a81548160ff0219169083151502179055508260ff168460ff163373ffffffffffffffffffffffffffffffffffffffff167fb0353d563a9aa5231878c83727dc723a3cb8a38c2917f8ac2b777aa564c8a0d584866040518083151515158152602001821515151581526020019250505060405180910390a450505050565b600060a660006101000a81548160ff0219169083151502179055507f5db9ee0a495bf2e6ff9c91a7834c1ba4fdd244a5e8aa4e537bd38aeae4b073aa33604051808273ffffffffffffffffffffffffffffffffffffffff1673ffffffffffffffffffffffffffffffffffffffff16815260200191505060405180910390a1565b6000613f67838361530d565b8273ffffffffffffffffffffffffffffffffffffffff168473ffffffffffffffffffffffffffffffffffffffff167fab8530f87dc9b59234c4623bf917212bb2536d647574c8e7e5da92c2ede0c9f8846040518082815260200191505060405180910390a3600190509392505050565b60a8548110614031576040517f08c379a0000000000000000000000000000000000000000000000000000000008152600401808060200182810382526021815260200180615b366021913960400191505060405180910390fd5b600060a9600083815260200190815260200160002090506000600381111561405557fe5b8160040160009054906101000a900460ff16600381111561407257fe5b146140c8576040517f08c379a000000000000000000000000000000000000000000000000000000000815260040180806020018281038252602b815260200180615890602b913960400191505060405180910390fd5b6140d481836002614cc0565b614107308260010160009054906101000a900473ffffffffffffffffffffffffffffffffffffffff168360030154614d5f565b5050565b61411f8160a561517790919063ffffffff16565b3373ffffffffffffffffffffffffffffffffffffffff168173ffffffffffffffffffffffffffffffffffffffff167fb75903ade4a0fdb07d60c882c22c779e2e1c751883c37aecdcc92a8ec72b046e60405160405180910390a350565b61419081609d6154ca90919063ffffffff16565b3373ffffffffffffffffffffffffffffffffffffffff168173ffffffffffffffffffffffffffffffffffffffff167fc82bdbbf677a2462f2a7e22e4ba9abd209496b69cd7b868b3b1d28f76e09a40a60405160405180910390a350565b61420181609e61517790919063ffffffff16565b3373ffffffffffffffffffffffffffffffffffffffff168173ffffffffffffffffffffffffffffffffffffffff167f3ed21605dd544629fb45f2ccaedcc095ba1dbea540fb6eaf5493a7479856b0be60405160405180910390a350565b6142728160a56154ca90919063ffffffff16565b3373ffffffffffffffffffffffffffffffffffffffff168173ffffffffffffffffffffffffffffffffffffffff167fe0953c403a52f9dc1fef4202a8d33975c958b727bee0d7b5b328965ddad98d8160405160405180910390a350565b600160a660006101000a81548160ff0219169083151502179055507f62e78cea01bee320cd4e420270b5ea74000d11b0c9f74754ebdbfc544b05a25833604051808273ffffffffffffffffffffffffffffffffffffffff1673ffffffffffffffffffffffffffffffffffffffff16815260200191505060405180910390a1565b600060a060008373ffffffffffffffffffffffffffffffffffffffff1673ffffffffffffffffffffffffffffffffffffffff16815260200190815260200160002060009054906101000a900460ff169050600060a060008473ffffffffffffffffffffffffffffffffffffffff1673ffffffffffffffffffffffffffffffffffffffff16815260200190815260200160002060006101000a81548160ff021916908360ff1602179055503373ffffffffffffffffffffffffffffffffffffffff168160ff168373ffffffffffffffffffffffffffffffffffffffff167fb50a30a0fa972f89fbb2b514d12b31f5a5d64f53603402de7939742cd8507f6e60405160405180910390a45050565b61446f8160a76154ca90919063ffffffff16565b3373ffffffffffffffffffffffffffffffffffffffff168173ffffffffffffffffffffffffffffffffffffffff167fc40499ba035b8062e6798e3416432187fdca530d217e788b87357cddd5c56ac660405160405180910390a350565b8073ffffffffffffffffffffffffffffffffffffffff166352d1902d6040518163ffffffff1660e01b815260040160206040518083038186803b15801561451257600080fd5b505afa158015614526573d6000803e3d6000fd5b505050506040513d602081101561453c57600080fd5b81019080805190602001909291905050507fc5f16f0fcc639fa48a6947836d9850f504798523bf8c9a3a87d5876cf622bcf760001b146145e4576040517f08c379a000000000000000000000000000000000000000000000000000000000815260040180806020018281038252600e8152602001807f4e6f7420636f6d70617469626c6500000000000000000000000000000000000081525060200191505060405180910390fd5b807fc5f16f0fcc639fa48a6947836d9850f504798523bf8c9a3a87d5876cf622bcf7557feeaed647dc622e55877c30943e5c1d4feb92d1b8cfcc88d974163e9787bde9af81604051808273ffffffffffffffffffffffffffffffffffffffff1673ffffffffffffffffffffffffffffffffffffffff16815260200191505060405180910390a150565b6146818160a761517790919063ffffffff16565b3373ffffffffffffffffffffffffffffffffffffffff168173ffffffffffffffffffffffffffffffffffffffff167ffc92afc8a5449a0672774ee4b158bd167b5aa87938ddab1c116e96b2be589e8c60405160405180910390a350565b6146f28160a46154ca90919063ffffffff16565b3373ffffffffffffffffffffffffffffffffffffffff168173ffffffffffffffffffffffffffffffffffffffff167f2b5f18afd9a7b21f41bf023b012b3d4c8a22a21b79fa425cd4494ecbe297019660405160405180910390a350565b6147638160a26154ca90919063ffffffff16565b3373ffffffffffffffffffffffffffffffffffffffff168173ffffffffffffffffffffffffffffffffffffffff167f3c091dafb1d99e4a4c333024492eac3b2cd8bf921a3dd547c937db33be307bb860405160405180910390a350565b60006147cc83836155a5565b8273ffffffffffffffffffffffffffffffffffffffff168473ffffffffffffffffffffffffffffffffffffffff167fbac40739b0d4ca32fa2d82fc91630465ba3eddd1598da6fca393b26fb63b9453846040518082815260200191505060405180910390a3600190509392505050565b60a8548110614896576040517f08c379a0000000000000000000000000000000000000000000000000000000008152600401808060200182810382526021815260200180615b366021913960400191505060405180910390fd5b600060a960008381526020019081526020016000209050600060038111156148ba57fe5b8160040160009054906101000a900460ff1660038111156148d757fe5b1461492d576040517f08c379a000000000000000000000000000000000000000000000000000000000815260040180806020018281038252602c815260200180615bb5602c913960400191505060405180910390fd5b61493981836001614cc0565b61496c308260020160009054906101000a900473ffffffffffffffffffffffffffffffffffffffff168360030154614d5f565b5050565b6000838311158290614a1d576040517f08c379a00000000000000000000000000000000000000000000000000000000081526004018080602001828103825283818151815260200191508051906020019080838360005b838110156149e25780820151818401526020810190506149c7565b50505050905090810190601f168015614a0f5780820380516001836020036101000a031916815260200191505b509250505060405180910390fd5b5060008385039050809150509392505050565b60006040518060a001604052803373ffffffffffffffffffffffffffffffffffffffff1681526020013373ffffffffffffffffffffffffffffffffffffffff1681526020018473ffffffffffffffffffffffffffffffffffffffff16815260200183815260200160006003811115614aa457fe5b81525060a9600060a854815260200190815260200160002060008201518160000160006101000a81548173ffffffffffffffffffffffffffffffffffffffff021916908373ffffffffffffffffffffffffffffffffffffffff16021790555060208201518160010160006101000a81548173ffffffffffffffffffffffffffffffffffffffff021916908373ffffffffffffffffffffffffffffffffffffffff16021790555060408201518160020160006101000a81548173ffffffffffffffffffffffffffffffffffffffff021916908373ffffffffffffffffffffffffffffffffffffffff1602179055506060820151816003015560808201518160040160006101000a81548160ff02191690836003811115614bbf57fe5b02179055509050503373ffffffffffffffffffffffffffffffffffffffff167f37c022e8b41869a28d52a95d97338cc58db90c5e01027e7b5db628b620332d5f60a854600060405180838152602001826003811115614c1a57fe5b60ff1681526020019250505060405180910390a2600160a8540160a881905550614c44308361575f565b506001905092915050565b614c638160a461517790919063ffffffff16565b3373ffffffffffffffffffffffffffffffffffffffff168173ffffffffffffffffffffffffffffffffffffffff167fb6fe3ab11eb9ab1d9f1d41c8f42a5d72d10122099ba1548e4a6d1a4d8cefec4b60405160405180910390a350565b808360040160006101000a81548160ff02191690836003811115614ce057fe5b02179055503373ffffffffffffffffffffffffffffffffffffffff167f37c022e8b41869a28d52a95d97338cc58db90c5e01027e7b5db628b620332d5f838560040160009054906101000a900460ff1660405180838152602001826003811115614d4657fe5b60ff1681526020019250505060405180910390a2505050565b600073ffffffffffffffffffffffffffffffffffffffff168373ffffffffffffffffffffffffffffffffffffffff161415614de5576040517f08c379a0000000000000000000000000000000000000000000000000000000008152600401808060200182810382526025815260200180615be16025913960400191505060405180910390fd5b600073ffffffffffffffffffffffffffffffffffffffff168273ffffffffffffffffffffffffffffffffffffffff161415614e6b576040517f08c379a000000000000000000000000000000000000000000000000000000000815260040180806020018281038252602381526020018061586d6023913960400191505060405180910390fd5b614ed78160405180606001604052806026815260200161599360269139606860008773ffffffffffffffffffffffffffffffffffffffff1673ffffffffffffffffffffffffffffffffffffffff168152602001908152602001600020546149709092919063ffffffff16565b606860008573ffffffffffffffffffffffffffffffffffffffff1673ffffffffffffffffffffffffffffffffffffffff16815260200190815260200160002081905550614f6c81606860008573ffffffffffffffffffffffffffffffffffffffff1673ffffffffffffffffffffffffffffffffffffffff16815260200190815260200160002054613d5d90919063ffffffff16565b606860008473ffffffffffffffffffffffffffffffffffffffff1673ffffffffffffffffffffffffffffffffffffffff168152602001908152602001600020819055508173ffffffffffffffffffffffffffffffffffffffff168373ffffffffffffffffffffffffffffffffffffffff167fddf252ad1be2c89b69c2b068fc378daa952ba7f163c4a11628f55a4df523b3ef836040518082815260200191505060405180910390a3505050565b6000615026833384614d5f565b8273ffffffffffffffffffffffffffffffffffffffff163373ffffffffffffffffffffffffffffffffffffffff167fb698e31a2abee5824d0d7bcfd2339aead7f9e9ae413fba50bf554ff3fa470b7b846040518082815260200191505060405180910390a36001905092915050565b6150a981609e6154ca90919063ffffffff16565b3373ffffffffffffffffffffffffffffffffffffffff168173ffffffffffffffffffffffffffffffffffffffff167f5f36f4f5999f34947706fca376b955319b858573bf9d6bc59303c9a4cd80ced060405160405180910390a350565b61511a8160a36154ca90919063ffffffff16565b3373ffffffffffffffffffffffffffffffffffffffff168173ffffffffffffffffffffffffffffffffffffffff167f86515ebaad527298e98929c064c075f5a2604cc80afc0db29e73c01a36f8e98c60405160405180910390a350565b6151818282613c0e565b6151d6576040517f08c379a0000000000000000000000000000000000000000000000000000000008152600401808060200182810382526021815260200180615a726021913960400191505060405180910390fd5b60008260000160008373ffffffffffffffffffffffffffffffffffffffff1673ffffffffffffffffffffffffffffffffffffffff16815260200190815260200160002060006101000a81548160ff0219169083151502179055505050565b6000615241848484614d5f565b6153028461524d613766565b6152fd85604051806060016040528060288152602001615abe60289139606960008b73ffffffffffffffffffffffffffffffffffffffff1673ffffffffffffffffffffffffffffffffffffffff16815260200190815260200160002060006152b3613766565b73ffffffffffffffffffffffffffffffffffffffff1673ffffffffffffffffffffffffffffffffffffffff168152602001908152602001600020546149709092919063ffffffff16565b61376e565b600190509392505050565b600073ffffffffffffffffffffffffffffffffffffffff168273ffffffffffffffffffffffffffffffffffffffff1614156153b0576040517f08c379a000000000000000000000000000000000000000000000000000000000815260040180806020018281038252601f8152602001807f45524332303a206d696e7420746f20746865207a65726f20616464726573730081525060200191505060405180910390fd5b6153c581606a54613d5d90919063ffffffff16565b606a8190555061541d81606860008573ffffffffffffffffffffffffffffffffffffffff1673ffffffffffffffffffffffffffffffffffffffff16815260200190815260200160002054613d5d90919063ffffffff16565b606860008473ffffffffffffffffffffffffffffffffffffffff1673ffffffffffffffffffffffffffffffffffffffff168152602001908152602001600020819055508173ffffffffffffffffffffffffffffffffffffffff16600073ffffffffffffffffffffffffffffffffffffffff167fddf252ad1be2c89b69c2b068fc378daa952ba7f163c4a11628f55a4df523b3ef836040518082815260200191505060405180910390a35050565b6154d48282613c0e565b15615547576040517f08c379a000000000000000000000000000000000000000000000000000000000815260040180806020018281038252601f8152602001807f526f6c65733a206163636f756e7420616c72656164792068617320726f6c650081525060200191505060405180910390fd5b60018260000160008373ffffffffffffffffffffffffffffffffffffffff1673ffffffffffffffffffffffffffffffffffffffff16815260200190815260200160002060006101000a81548160ff0219169083151502179055505050565b600073ffffffffffffffffffffffffffffffffffffffff168273ffffffffffffffffffffffffffffffffffffffff16141561562b576040517f08c379a0000000000000000000000000000000000000000000000000000000008152600401808060200182810382526021815260200180615b946021913960400191505060405180910390fd5b615697816040518060600160405280602281526020016158bb60229139606860008673ffffffffffffffffffffffffffffffffffffffff1673ffffffffffffffffffffffffffffffffffffffff168152602001908152602001600020546149709092919063ffffffff16565b606860008473ffffffffffffffffffffffffffffffffffffffff1673ffffffffffffffffffffffffffffffffffffffff168152602001908152602001600020819055506156ef81606a5461577d90919063ffffffff16565b606a81905550600073ffffffffffffffffffffffffffffffffffffffff168273ffffffffffffffffffffffffffffffffffffffff167fddf252ad1be2c89b69c2b068fc378daa952ba7f163c4a11628f55a4df523b3ef836040518082815260200191505060405180910390a35050565b600061577361576c613766565b8484614d5f565b6001905092915050565b60006157bf83836040518060400160405280601e81526020017f536166654d6174683a207375627472616374696f6e206f766572666c6f770000815250614970565b905092915050565b828054600181600116156101000203166002900490600052602060002090601f016020900481019282601f1061580857805160ff1916838001178555615836565b82800160010185558215615836579182015b8281111561583557825182559160200191906001019061581a565b5b5090506158439190615847565b5090565b61586991905b8082111561586557600081600090555060010161584d565b5090565b9056fe45524332303a207472616e7366657220746f20746865207a65726f206164647265737352657175657374206d75737420626520696e2050656e64696e6720737461746520746f2072656a6563742e45524332303a206275726e20616d6f756e7420657863656564732062616c616e6365457363726f776572526f6c653a2063616c6c657220646f6573206e6f7420686176652074686520457363726f7720726f6c65506175736572526f6c653a2063616c6c657220646f6573206e6f742068617665207468652050617573657220726f6c6545524332303a20617070726f766520746f20746865207a65726f20616464726573735265766f6b6572526f6c653a2063616c6c657220646f6573206e6f74206861766520746865205265766f6b657220726f6c6545524332303a207472616e7366657220616d6f756e7420657863656564732062616c616e63654275726e6572526f6c653a2063616c6c657220646f6573206e6f74206861766520746865204275726e657220726f6c6552657175657374206d75737420626520696e2050656e64696e6720737461746520746f2063616e63656c2e4d696e746572526f6c653a2063616c6c657220646f6573206e6f74206861766520746865204d696e74657220726f6c654f776e6572526f6c653a2063616c6c657220646f6573206e6f74206861766520746865204f776e657220726f6c65526f6c65733a206163636f756e7420646f6573206e6f74206861766520726f6c654f6e6c79207468652063726561746f72206f66206120726571756573742063616e2063616e63656c20697445524332303a207472616e7366657220616d6f756e74206578636565647320616c6c6f77616e6365526f6c65733a206163636f756e7420697320746865207a65726f2061646472657373436f6e747261637420696e7374616e63652068617320616c7265616479206265656e20696e697469616c697a656452657175657374204944206973206e6f7420696e2070726f7065722072616e6765546865207472616e736665722077617320726573747269637465642064756520746f2074686520636f6e7472616374206265696e67207061757365642e45524332303a206275726e2066726f6d20746865207a65726f206164647265737352657175657374206d75737420626520696e2050656e64696e6720737461746520746f20617070726f76652e45524332303a207472616e736665722066726f6d20746865207a65726f206164647265737357686974656c6973746572526f6c653a2063616c6c657220646f6573206e6f742068617665207468652057686974656c697374657220726f6c65457363726f776572732063616e6e6f742072656d6f7665207468656d73656c76657320617320457363726f77657245524332303a20617070726f76652066726f6d20746865207a65726f2061646472657373546865207472616e736665722077617320726573747269637465642064756520746f207768697465206c69737420636f6e66696775726174696f6e2e45524332303a2064656372656173656420616c6c6f77616e63652062656c6f77207a65726fa265627a7a723158201915a00b5e6af2a7c81b78bb79f8ab6dc91ce62917f00c1c831f41c40c5e1e9d64736f6c63430005100032",
  "source": "pragma solidity 0.5.16;\n\nimport \"../capabilities/Proxiable.sol\";\nimport \"@openzeppelin/contracts-ethereum-package/contracts/token/ERC20/ERC20Detailed.sol\";\nimport \"../roles/OwnerRole.sol\";\nimport \"../capabilities/Whitelistable.sol\";\nimport \"../capabilities/Mintable.sol\";\nimport \"../capabilities/Burnable.sol\";\nimport \"../capabilities/Revocable.sol\";\nimport \"../capabilities/Pausable.sol\";\nimport \"./Escrowable.sol\";\n\ncontract TokenSoftTokenEscrow is Proxiable, ERC20Detailed, OwnerRole, Whitelistable, Mintable, Burnable, Revocable, Pausable, Escrowable {\n\n    // ERC1404 Error codes and messages`\n    uint8 public constant SUCCESS_CODE = 0;\n    uint8 public constant FAILURE_NON_WHITELIST = 1;\n    uint8 public constant FAILURE_PAUSED = 2;\n    string public constant SUCCESS_MESSAGE = \"SUCCESS\";\n    string public constant FAILURE_NON_WHITELIST_MESSAGE = \"The transfer was restricted due to white list configuration.\";\n    string public constant FAILURE_PAUSED_MESSAGE = \"The transfer was restricted due to the contract being paused.\";\n    string public constant UNKNOWN_ERROR = \"Unknown Error Code\";\n\n    /**\n    Constructor for the token to set readable details and mint all tokens\n    to the specified owner.\n     */\n    function initialize (address owner, string memory name, string memory symbol, uint8 decimals, uint256 initialSupply, bool whitelistEnabled)\n        public\n        initializer\n    {\n        ERC20Detailed.initialize(name, symbol, decimals);\n        Mintable._mint(msg.sender, owner, initialSupply);\n        OwnerRole._addOwner(owner);\n        Whitelistable._setWhitelistEnabled(whitelistEnabled);\n    }\n\n    /**\n    Public function to update the address of the code contract, retricted to owner\n     */\n    function updateCodeAddress (address newAddress) public onlyOwner {\n        Proxiable._updateCodeAddress(newAddress);\n    }\n\n    /**\n    Restrict rejectTransferProposals to admins only\n     */\n    function rejectTransferProposal(uint requestId) public onlyEscrower {\n      Escrowable._rejectTransferProposal(requestId);\n    }\n\n    /**\n    Restrict approveTransferProposals to admins only\n     */\n    function approveTransferProposal(uint requestId) public onlyEscrower {\n      Escrowable._approveTransferProposal(requestId);\n    }\n\n    /**\n    Overrides the parent class token transfer function to enforce restrictions.\n     */\n    function transfer (address to, uint256 value)\n        public\n        returns (bool success)\n    {\n        success = Escrowable._createTransferProposal(to, value);\n    }\n\n    /**\n    Overrides the parent class token transferFrom function to enforce restrictions.\n    Note that the approved amount of tokens the sender can transfer does not get reimbursed if the\n    Transfer proposal is rejcted or canceled.\n     */\n    function transferFrom (address from, address to, uint256 value)\n        public\n        returns (bool success)\n    {\n        success = Escrowable._createTransferFromProposal(from, to, value);\n    }\n}\n",
  "sourcePath": "/Users/james/Source/tokensoft/tokensoft_token/contracts/testing/TokenSoftTokenEscrow.sol",
  "compiler": {
    "name": "solc",
    "version": "0.5.16+commit.9c3226ce.Emscripten.clang"
  },
  "schemaVersion": "3.1.0",
  "updatedAt": "2020-06-15T18:25:48.583Z",
  "devdoc": {
    "methods": {
      "allowance(address,address)": {
        "details": "See {IERC20-allowance}."
      },
      "approve(address,uint256)": {
        "details": "See {IERC20-approve}.     * Requirements:     * - `spender` cannot be the zero address."
      },
      "balanceOf(address)": {
        "details": "See {IERC20-balanceOf}."
      },
      "decimals()": {
        "details": "Returns the number of decimals used to get its user representation. For example, if `decimals` equals `2`, a balance of `505` tokens should be displayed to a user as `5,05` (`505 / 10 ** 2`).     * Tokens usually opt for a value of 18, imitating the relationship between Ether and Wei.     * NOTE: This information is only used for _display_ purposes: it in no way affects any of the arithmetic of the contract, including {IERC20-balanceOf} and {IERC20-transfer}."
      },
      "decreaseAllowance(address,uint256)": {
        "details": "Atomically decreases the allowance granted to `spender` by the caller.     * This is an alternative to {approve} that can be used as a mitigation for problems described in {IERC20-approve}.     * Emits an {Approval} event indicating the updated allowance.     * Requirements:     * - `spender` cannot be the zero address. - `spender` must have allowance for the caller of at least `subtractedValue`."
      },
      "increaseAllowance(address,uint256)": {
        "details": "Atomically increases the allowance granted to `spender` by the caller.     * This is an alternative to {approve} that can be used as a mitigation for problems described in {IERC20-approve}.     * Emits an {Approval} event indicating the updated allowance.     * Requirements:     * - `spender` cannot be the zero address."
      },
      "initialize(string,string,uint8)": {
        "details": "Sets the values for `name`, `symbol`, and `decimals`. All three of these values are immutable: they can only be set once during construction."
      },
      "name()": {
        "details": "Returns the name of the token."
      },
      "pause()": {
        "details": "Called by an Owner to pause, triggers stopped state."
      },
      "paused()": {
        "details": "Returns true if the contract is paused, and false otherwise."
      },
      "symbol()": {
        "details": "Returns the symbol of the token, usually a shorter version of the name."
      },
      "totalSupply()": {
        "details": "See {IERC20-totalSupply}."
      },
      "unpause()": {
        "details": "Called by an Owner to unpause, returns to normal state."
      }
    }
  },
  "userdoc": {
    "methods": {
      "addToWhitelist(address,uint8)": {
        "notice": "Public function that allows admins to remove an address from a whitelist"
      },
      "approveTransferProposal(uint256)": {
        "notice": "Restrict approveTransferProposals to admins only"
      },
      "burn(address,uint256)": {
        "notice": "Allow Burners to burn tokens from valid addresses"
      },
      "cancelTransferProposal(uint256)": {
        "notice": "If a user locks up funds in a proposal, they can cancel it as long as an administrator has not already approved or rejected it."
      },
      "checkWhitelistAllowed(address,address)": {
        "notice": "Determine if the a sender is allowed to send to the receiver. The source whitelist must be enabled to send to the whitelist where the receive exists."
      },
      "initialize(address,string,string,uint8,uint256,bool)": {
        "notice": "Constructor for the token to set readable details and mint all tokens to the specified owner."
      },
      "mint(address,uint256)": {
        "notice": "Allow Owners to mint tokens to valid addresses"
      },
      "rejectTransferProposal(uint256)": {
        "notice": "Restrict rejectTransferProposals to admins only"
      },
      "removeFromWhitelist(address)": {
        "notice": "Public function that allows admins to remove an address from a whitelist"
      },
      "revoke(address,uint256)": {
        "notice": "Allow Admins to revoke tokens from any address"
      },
      "setWhitelistEnabled(bool)": {
        "notice": "Enable or disable the whitelist enforcement"
      },
      "transfer(address,uint256)": {
        "notice": "Overrides the parent class token transfer function to enforce restrictions."
      },
      "transferFrom(address,address,uint256)": {
        "notice": "Overrides the parent class token transferFrom function to enforce restrictions. Note that the approved amount of tokens the sender can transfer does not get reimbursed if the Transfer proposal is rejcted or canceled."
      },
      "updateCodeAddress(address)": {
        "notice": "Public function to update the address of the code contract, retricted to owner"
      },
      "updateOutboundWhitelistEnabled(uint8,uint8,bool)": {
        "notice": "Public function that allows admins to update outbound whitelists"
      }
    }
  }
}