{
  "contractName": "TokenSoftTokenV3",
  "abi": [
    {
      "anonymous": false,
      "inputs": [
        {
          "indexed": true,
          "internalType": "address",
          "name": "addedAddress",
          "type": "address"
        },
        {
          "indexed": true,
          "internalType": "address",
          "name": "addedBy",
          "type": "address"
        }
      ],
      "name": "AddressAddedToBlacklist",
      "type": "event"
    },
    {
      "anonymous": false,
      "inputs": [
        {
          "indexed": true,
          "internalType": "address",
          "name": "removedAddress",
          "type": "address"
        },
        {
          "indexed": true,
          "internalType": "address",
          "name": "removedBy",
          "type": "address"
        }
      ],
      "name": "AddressRemovedFromBlacklist",
      "type": "event"
    },
    {
      "anonymous": false,
      "inputs": [
        {
          "indexed": true,
          "internalType": "address",
          "name": "owner",
          "type": "address"
        },
        {
          "indexed": true,
          "internalType": "address",
          "name": "spender",
          "type": "address"
        },
        {
          "indexed": false,
          "internalType": "uint256",
          "name": "value",
          "type": "uint256"
        }
      ],
      "name": "Approval",
      "type": "event"
    },
    {
      "anonymous": false,
      "inputs": [
        {
          "indexed": true,
          "internalType": "address",
          "name": "updatedBy",
          "type": "address"
        },
        {
          "indexed": true,
          "internalType": "bool",
          "name": "enabled",
          "type": "bool"
        }
      ],
      "name": "BlacklistEnabledUpdated",
      "type": "event"
    },
    {
      "anonymous": false,
      "inputs": [
        {
          "indexed": true,
          "internalType": "address",
          "name": "addedBlacklister",
          "type": "address"
        },
        {
          "indexed": true,
          "internalType": "address",
          "name": "addedBy",
          "type": "address"
        }
      ],
      "name": "BlacklisterAdded",
      "type": "event"
    },
    {
      "anonymous": false,
      "inputs": [
        {
          "indexed": true,
          "internalType": "address",
          "name": "removedBlacklister",
          "type": "address"
        },
        {
          "indexed": true,
          "internalType": "address",
          "name": "removedBy",
          "type": "address"
        }
      ],
      "name": "BlacklisterRemoved",
      "type": "event"
    },
    {
      "anonymous": false,
      "inputs": [
        {
          "indexed": true,
          "internalType": "address",
          "name": "burner",
          "type": "address"
        },
        {
          "indexed": true,
          "internalType": "address",
          "name": "from",
          "type": "address"
        },
        {
          "indexed": false,
          "internalType": "uint256",
          "name": "amount",
          "type": "uint256"
        }
      ],
      "name": "Burn",
      "type": "event"
    },
    {
      "anonymous": false,
      "inputs": [
        {
          "indexed": true,
          "internalType": "address",
          "name": "burner",
          "type": "address"
        },
        {
          "indexed": true,
          "internalType": "address",
          "name": "from",
          "type": "address"
        },
        {
          "indexed": true,
          "internalType": "address",
          "name": "to",
          "type": "address"
        },
        {
          "indexed": false,
          "internalType": "uint256",
          "name": "amount",
          "type": "uint256"
        }
      ],
      "name": "BurnAndMintInPlace",
      "type": "event"
    },
    {
      "anonymous": false,
      "inputs": [
        {
          "indexed": true,
          "internalType": "address",
          "name": "addedBurner",
          "type": "address"
        },
        {
          "indexed": true,
          "internalType": "address",
          "name": "addedBy",
          "type": "address"
        }
      ],
      "name": "BurnerAdded",
      "type": "event"
    },
    {
      "anonymous": false,
      "inputs": [
        {
          "indexed": true,
          "internalType": "address",
          "name": "removedBurner",
          "type": "address"
        },
        {
          "indexed": true,
          "internalType": "address",
          "name": "removedBy",
          "type": "address"
        }
      ],
      "name": "BurnerRemoved",
      "type": "event"
    },
    {
      "anonymous": false,
      "inputs": [
        {
          "indexed": false,
          "internalType": "address",
          "name": "newAddress",
          "type": "address"
        }
      ],
      "name": "CodeAddressUpdated",
      "type": "event"
    },
    {
      "anonymous": false,
      "inputs": [
        {
          "indexed": true,
          "internalType": "address",
          "name": "minter",
          "type": "address"
        },
        {
          "indexed": true,
          "internalType": "address",
          "name": "to",
          "type": "address"
        },
        {
          "indexed": false,
          "internalType": "uint256",
          "name": "amount",
          "type": "uint256"
        }
      ],
      "name": "Mint",
      "type": "event"
    },
    {
      "anonymous": false,
      "inputs": [
        {
          "indexed": true,
          "internalType": "address",
          "name": "addedMinter",
          "type": "address"
        },
        {
          "indexed": true,
          "internalType": "address",
          "name": "addedBy",
          "type": "address"
        }
      ],
      "name": "MinterAdded",
      "type": "event"
    },
    {
      "anonymous": false,
      "inputs": [
        {
          "indexed": true,
          "internalType": "address",
          "name": "removedMinter",
          "type": "address"
        },
        {
          "indexed": true,
          "internalType": "address",
          "name": "removedBy",
          "type": "address"
        }
      ],
      "name": "MinterRemoved",
      "type": "event"
    },
    {
      "anonymous": false,
      "inputs": [
        {
          "indexed": true,
          "internalType": "address",
          "name": "addedOwner",
          "type": "address"
        },
        {
          "indexed": true,
          "internalType": "address",
          "name": "addedBy",
          "type": "address"
        }
      ],
      "name": "OwnerAdded",
      "type": "event"
    },
    {
      "anonymous": false,
      "inputs": [
        {
          "indexed": true,
          "internalType": "address",
          "name": "removedOwner",
          "type": "address"
        },
        {
          "indexed": true,
          "internalType": "address",
          "name": "removedBy",
          "type": "address"
        }
      ],
      "name": "OwnerRemoved",
      "type": "event"
    },
    {
      "anonymous": false,
      "inputs": [
        {
          "indexed": false,
          "internalType": "address",
          "name": "account",
          "type": "address"
        }
      ],
      "name": "Paused",
      "type": "event"
    },
    {
      "anonymous": false,
      "inputs": [
        {
          "indexed": true,
          "internalType": "address",
          "name": "addedPauser",
          "type": "address"
        },
        {
          "indexed": true,
          "internalType": "address",
          "name": "addedBy",
          "type": "address"
        }
      ],
      "name": "PauserAdded",
      "type": "event"
    },
    {
      "anonymous": false,
      "inputs": [
        {
          "indexed": true,
          "internalType": "address",
          "name": "removedPauser",
          "type": "address"
        },
        {
          "indexed": true,
          "internalType": "address",
          "name": "removedBy",
          "type": "address"
        }
      ],
      "name": "PauserRemoved",
      "type": "event"
    },
    {
      "anonymous": false,
      "inputs": [
        {
          "indexed": true,
          "internalType": "address",
          "name": "revoker",
          "type": "address"
        },
        {
          "indexed": true,
          "internalType": "address",
          "name": "from",
          "type": "address"
        },
        {
          "indexed": false,
          "internalType": "uint256",
          "name": "amount",
          "type": "uint256"
        }
      ],
      "name": "Revoke",
      "type": "event"
    },
    {
      "anonymous": false,
      "inputs": [
        {
          "indexed": true,
          "internalType": "address",
          "name": "revoker",
          "type": "address"
        },
        {
          "indexed": true,
          "internalType": "address",
          "name": "from",
          "type": "address"
        },
        {
          "indexed": true,
          "internalType": "address",
          "name": "to",
          "type": "address"
        },
        {
          "indexed": false,
          "internalType": "uint256",
          "name": "amount",
          "type": "uint256"
        }
      ],
      "name": "RevokeToAddress",
      "type": "event"
    },
    {
      "anonymous": false,
      "inputs": [
        {
          "indexed": true,
          "internalType": "address",
          "name": "addedRevoker",
          "type": "address"
        },
        {
          "indexed": true,
          "internalType": "address",
          "name": "addedBy",
          "type": "address"
        }
      ],
      "name": "RevokerAdded",
      "type": "event"
    },
    {
      "anonymous": false,
      "inputs": [
        {
          "indexed": true,
          "internalType": "address",
          "name": "removedRevoker",
          "type": "address"
        },
        {
          "indexed": true,
          "internalType": "address",
          "name": "removedBy",
          "type": "address"
        }
      ],
      "name": "RevokerRemoved",
      "type": "event"
    },
    {
      "anonymous": false,
      "inputs": [
        {
          "indexed": true,
          "internalType": "address",
          "name": "from",
          "type": "address"
        },
        {
          "indexed": true,
          "internalType": "address",
          "name": "to",
          "type": "address"
        },
        {
          "indexed": false,
          "internalType": "uint256",
          "name": "value",
          "type": "uint256"
        }
      ],
      "name": "Transfer",
      "type": "event"
    },
    {
      "anonymous": false,
      "inputs": [
        {
          "indexed": false,
          "internalType": "address",
          "name": "account",
          "type": "address"
        }
      ],
      "name": "Unpaused",
      "type": "event"
    },
    {
      "inputs": [],
      "name": "FAILURE_BLACKLIST",
      "outputs": [
        {
          "internalType": "uint8",
          "name": "",
          "type": "uint8"
        }
      ],
      "stateMutability": "view",
      "type": "function",
      "constant": true
    },
    {
      "inputs": [],
      "name": "FAILURE_BLACKLIST_MESSAGE",
      "outputs": [
        {
          "internalType": "string",
          "name": "",
          "type": "string"
        }
      ],
      "stateMutability": "view",
      "type": "function",
      "constant": true
    },
    {
      "inputs": [],
      "name": "FAILURE_PAUSED",
      "outputs": [
        {
          "internalType": "uint8",
          "name": "",
          "type": "uint8"
        }
      ],
      "stateMutability": "view",
      "type": "function",
      "constant": true
    },
    {
      "inputs": [],
      "name": "FAILURE_PAUSED_MESSAGE",
      "outputs": [
        {
          "internalType": "string",
          "name": "",
          "type": "string"
        }
      ],
      "stateMutability": "view",
      "type": "function",
      "constant": true
    },
    {
      "inputs": [],
      "name": "SUCCESS_CODE",
      "outputs": [
        {
          "internalType": "uint8",
          "name": "",
          "type": "uint8"
        }
      ],
      "stateMutability": "view",
      "type": "function",
      "constant": true
    },
    {
      "inputs": [],
      "name": "SUCCESS_MESSAGE",
      "outputs": [
        {
          "internalType": "string",
          "name": "",
          "type": "string"
        }
      ],
      "stateMutability": "view",
      "type": "function",
      "constant": true
    },
    {
      "inputs": [],
      "name": "UNKNOWN_ERROR",
      "outputs": [
        {
          "internalType": "string",
          "name": "",
          "type": "string"
        }
      ],
      "stateMutability": "view",
      "type": "function",
      "constant": true
    },
    {
      "inputs": [
        {
          "internalType": "address",
          "name": "account",
          "type": "address"
        }
      ],
      "name": "addBlacklister",
      "outputs": [],
      "stateMutability": "nonpayable",
      "type": "function"
    },
    {
      "inputs": [
        {
          "internalType": "address",
          "name": "account",
          "type": "address"
        }
      ],
      "name": "addBurner",
      "outputs": [],
      "stateMutability": "nonpayable",
      "type": "function"
    },
    {
      "inputs": [
        {
          "internalType": "address",
          "name": "account",
          "type": "address"
        }
      ],
      "name": "addMinter",
      "outputs": [],
      "stateMutability": "nonpayable",
      "type": "function"
    },
    {
      "inputs": [
        {
          "internalType": "address",
          "name": "account",
          "type": "address"
        }
      ],
      "name": "addOwner",
      "outputs": [],
      "stateMutability": "nonpayable",
      "type": "function"
    },
    {
      "inputs": [
        {
          "internalType": "address",
          "name": "account",
          "type": "address"
        }
      ],
      "name": "addPauser",
      "outputs": [],
      "stateMutability": "nonpayable",
      "type": "function"
    },
    {
      "inputs": [
        {
          "internalType": "address",
          "name": "account",
          "type": "address"
        }
      ],
      "name": "addRevoker",
      "outputs": [],
      "stateMutability": "nonpayable",
      "type": "function"
    },
    {
      "inputs": [
        {
          "internalType": "address",
          "name": "addressToAdd",
          "type": "address"
        }
      ],
      "name": "addToBlacklist",
      "outputs": [],
      "stateMutability": "nonpayable",
      "type": "function"
    },
    {
      "inputs": [
        {
          "internalType": "address",
          "name": "",
          "type": "address"
        }
      ],
      "name": "addressBlacklists",
      "outputs": [
        {
          "internalType": "bool",
          "name": "",
          "type": "bool"
        }
      ],
      "stateMutability": "view",
      "type": "function",
      "constant": true
    },
    {
      "inputs": [
        {
          "internalType": "address",
          "name": "owner",
          "type": "address"
        },
        {
          "internalType": "address",
          "name": "spender",
          "type": "address"
        }
      ],
      "name": "allowance",
      "outputs": [
        {
          "internalType": "uint256",
          "name": "",
          "type": "uint256"
        }
      ],
      "stateMutability": "view",
      "type": "function",
      "constant": true
    },
    {
      "inputs": [
        {
          "internalType": "address",
          "name": "spender",
          "type": "address"
        },
        {
          "internalType": "uint256",
          "name": "amount",
          "type": "uint256"
        }
      ],
      "name": "approve",
      "outputs": [
        {
          "internalType": "bool",
          "name": "",
          "type": "bool"
        }
      ],
      "stateMutability": "nonpayable",
      "type": "function"
    },
    {
      "inputs": [
        {
          "internalType": "address",
          "name": "account",
          "type": "address"
        }
      ],
      "name": "balanceOf",
      "outputs": [
        {
          "internalType": "uint256",
          "name": "",
          "type": "uint256"
        }
      ],
      "stateMutability": "view",
      "type": "function",
      "constant": true
    },
    {
      "inputs": [
        {
          "internalType": "address",
          "name": "account",
          "type": "address"
        },
        {
          "internalType": "uint256",
          "name": "amount",
          "type": "uint256"
        }
      ],
      "name": "burn",
      "outputs": [
        {
          "internalType": "bool",
          "name": "",
          "type": "bool"
        }
      ],
      "stateMutability": "nonpayable",
      "type": "function"
    },
    {
      "inputs": [
        {
          "internalType": "address",
          "name": "from",
          "type": "address"
        },
        {
          "internalType": "address",
          "name": "to",
          "type": "address"
        },
        {
          "internalType": "uint256",
          "name": "amount",
          "type": "uint256"
        }
      ],
      "name": "burnAndMintInPlace",
      "outputs": [
        {
          "internalType": "bool",
          "name": "",
          "type": "bool"
        }
      ],
      "stateMutability": "nonpayable",
      "type": "function"
    },
    {
      "inputs": [
        {
          "internalType": "address",
          "name": "sender",
          "type": "address"
        },
        {
          "internalType": "address",
          "name": "receiver",
          "type": "address"
        }
      ],
      "name": "checkBlacklistAllowed",
      "outputs": [
        {
          "internalType": "bool",
          "name": "",
          "type": "bool"
        }
      ],
      "stateMutability": "view",
      "type": "function",
      "constant": true
    },
    {
      "inputs": [],
      "name": "decimals",
      "outputs": [
        {
          "internalType": "uint8",
          "name": "",
          "type": "uint8"
        }
      ],
      "stateMutability": "view",
      "type": "function",
      "constant": true
    },
    {
      "inputs": [
        {
          "internalType": "address",
          "name": "spender",
          "type": "address"
        },
        {
          "internalType": "uint256",
          "name": "subtractedValue",
          "type": "uint256"
        }
      ],
      "name": "decreaseAllowance",
      "outputs": [
        {
          "internalType": "bool",
          "name": "",
          "type": "bool"
        }
      ],
      "stateMutability": "nonpayable",
      "type": "function"
    },
    {
      "inputs": [],
      "name": "getLogicAddress",
      "outputs": [
        {
          "internalType": "address",
          "name": "logicAddress",
          "type": "address"
        }
      ],
      "stateMutability": "view",
      "type": "function",
      "constant": true
    },
    {
      "inputs": [
        {
          "internalType": "address",
          "name": "spender",
          "type": "address"
        },
        {
          "internalType": "uint256",
          "name": "addedValue",
          "type": "uint256"
        }
      ],
      "name": "increaseAllowance",
      "outputs": [
        {
          "internalType": "bool",
          "name": "",
          "type": "bool"
        }
      ],
      "stateMutability": "nonpayable",
      "type": "function"
    },
    {
      "inputs": [],
      "name": "isBlacklistEnabled",
      "outputs": [
        {
          "internalType": "bool",
          "name": "",
          "type": "bool"
        }
      ],
      "stateMutability": "view",
      "type": "function",
      "constant": true
    },
    {
      "inputs": [
        {
          "internalType": "address",
          "name": "account",
          "type": "address"
        }
      ],
      "name": "isBlacklister",
      "outputs": [
        {
          "internalType": "bool",
          "name": "",
          "type": "bool"
        }
      ],
      "stateMutability": "view",
      "type": "function",
      "constant": true
    },
    {
      "inputs": [
        {
          "internalType": "address",
          "name": "account",
          "type": "address"
        }
      ],
      "name": "isBurner",
      "outputs": [
        {
          "internalType": "bool",
          "name": "",
          "type": "bool"
        }
      ],
      "stateMutability": "view",
      "type": "function",
      "constant": true
    },
    {
      "inputs": [
        {
          "internalType": "address",
          "name": "account",
          "type": "address"
        }
      ],
      "name": "isMinter",
      "outputs": [
        {
          "internalType": "bool",
          "name": "",
          "type": "bool"
        }
      ],
      "stateMutability": "view",
      "type": "function",
      "constant": true
    },
    {
      "inputs": [
        {
          "internalType": "address",
          "name": "account",
          "type": "address"
        }
      ],
      "name": "isOwner",
      "outputs": [
        {
          "internalType": "bool",
          "name": "",
          "type": "bool"
        }
      ],
      "stateMutability": "view",
      "type": "function",
      "constant": true
    },
    {
      "inputs": [
        {
          "internalType": "address",
          "name": "account",
          "type": "address"
        }
      ],
      "name": "isPauser",
      "outputs": [
        {
          "internalType": "bool",
          "name": "",
          "type": "bool"
        }
      ],
      "stateMutability": "view",
      "type": "function",
      "constant": true
    },
    {
      "inputs": [
        {
          "internalType": "address",
          "name": "account",
          "type": "address"
        }
      ],
      "name": "isRevoker",
      "outputs": [
        {
          "internalType": "bool",
          "name": "",
          "type": "bool"
        }
      ],
      "stateMutability": "view",
      "type": "function",
      "constant": true
    },
    {
      "inputs": [
        {
          "internalType": "address",
          "name": "account",
          "type": "address"
        },
        {
          "internalType": "uint256",
          "name": "amount",
          "type": "uint256"
        }
      ],
      "name": "mint",
      "outputs": [
        {
          "internalType": "bool",
          "name": "",
          "type": "bool"
        }
      ],
      "stateMutability": "nonpayable",
      "type": "function"
    },
    {
      "inputs": [],
      "name": "name",
      "outputs": [
        {
          "internalType": "string",
          "name": "",
          "type": "string"
        }
      ],
      "stateMutability": "view",
      "type": "function",
      "constant": true
    },
    {
      "inputs": [],
      "name": "pause",
      "outputs": [],
      "stateMutability": "nonpayable",
      "type": "function"
    },
    {
      "inputs": [],
      "name": "paused",
      "outputs": [
        {
          "internalType": "bool",
          "name": "",
          "type": "bool"
        }
      ],
      "stateMutability": "view",
      "type": "function",
      "constant": true
    },
    {
      "inputs": [],
      "name": "proxiableUUID",
      "outputs": [
        {
          "internalType": "bytes32",
          "name": "",
          "type": "bytes32"
        }
      ],
      "stateMutability": "pure",
      "type": "function",
      "constant": true
    },
    {
      "inputs": [
        {
          "internalType": "address",
          "name": "account",
          "type": "address"
        }
      ],
      "name": "removeBlacklister",
      "outputs": [],
      "stateMutability": "nonpayable",
      "type": "function"
    },
    {
      "inputs": [
        {
          "internalType": "address",
          "name": "account",
          "type": "address"
        }
      ],
      "name": "removeBurner",
      "outputs": [],
      "stateMutability": "nonpayable",
      "type": "function"
    },
    {
      "inputs": [
        {
          "internalType": "address",
          "name": "addressToRemove",
          "type": "address"
        }
      ],
      "name": "removeFromBlacklist",
      "outputs": [],
      "stateMutability": "nonpayable",
      "type": "function"
    },
    {
      "inputs": [
        {
          "internalType": "address",
          "name": "account",
          "type": "address"
        }
      ],
      "name": "removeMinter",
      "outputs": [],
      "stateMutability": "nonpayable",
      "type": "function"
    },
    {
      "inputs": [
        {
          "internalType": "address",
          "name": "account",
          "type": "address"
        }
      ],
      "name": "removeOwner",
      "outputs": [],
      "stateMutability": "nonpayable",
      "type": "function"
    },
    {
      "inputs": [
        {
          "internalType": "address",
          "name": "account",
          "type": "address"
        }
      ],
      "name": "removePauser",
      "outputs": [],
      "stateMutability": "nonpayable",
      "type": "function"
    },
    {
      "inputs": [
        {
          "internalType": "address",
          "name": "account",
          "type": "address"
        }
      ],
      "name": "removeRevoker",
      "outputs": [],
      "stateMutability": "nonpayable",
      "type": "function"
    },
    {
      "inputs": [
        {
          "internalType": "address",
          "name": "from",
          "type": "address"
        },
        {
          "internalType": "uint256",
          "name": "amount",
          "type": "uint256"
        }
      ],
      "name": "revoke",
      "outputs": [
        {
          "internalType": "bool",
          "name": "",
          "type": "bool"
        }
      ],
      "stateMutability": "nonpayable",
      "type": "function"
    },
    {
      "inputs": [
        {
          "internalType": "address",
          "name": "from",
          "type": "address"
        },
        {
          "internalType": "address",
          "name": "to",
          "type": "address"
        },
        {
          "internalType": "uint256",
          "name": "amount",
          "type": "uint256"
        }
      ],
      "name": "revokeToAddress",
      "outputs": [
        {
          "internalType": "bool",
          "name": "",
          "type": "bool"
        }
      ],
      "stateMutability": "nonpayable",
      "type": "function"
    },
    {
      "inputs": [
        {
          "internalType": "bool",
          "name": "enabled",
          "type": "bool"
        }
      ],
      "name": "setBlacklistEnabled",
      "outputs": [],
      "stateMutability": "nonpayable",
      "type": "function"
    },
    {
      "inputs": [],
      "name": "symbol",
      "outputs": [
        {
          "internalType": "string",
          "name": "",
          "type": "string"
        }
      ],
      "stateMutability": "view",
      "type": "function",
      "constant": true
    },
    {
      "inputs": [],
      "name": "totalSupply",
      "outputs": [
        {
          "internalType": "uint256",
          "name": "",
          "type": "uint256"
        }
      ],
      "stateMutability": "view",
      "type": "function",
      "constant": true
    },
    {
      "inputs": [],
      "name": "unpause",
      "outputs": [],
      "stateMutability": "nonpayable",
      "type": "function"
    },
    {
      "inputs": [
        {
          "internalType": "string",
          "name": "name",
          "type": "string"
        },
        {
          "internalType": "string",
          "name": "symbol",
          "type": "string"
        },
        {
          "internalType": "uint8",
          "name": "decimals",
          "type": "uint8"
        }
      ],
      "name": "initialize",
      "outputs": [],
      "stateMutability": "nonpayable",
      "type": "function"
    },
    {
      "inputs": [
        {
          "internalType": "address",
          "name": "owner",
          "type": "address"
        },
        {
          "internalType": "string",
          "name": "name",
          "type": "string"
        },
        {
          "internalType": "string",
          "name": "symbol",
          "type": "string"
        },
        {
          "internalType": "uint8",
          "name": "decimals",
          "type": "uint8"
        },
        {
          "internalType": "uint256",
          "name": "initialSupply",
          "type": "uint256"
        }
      ],
      "name": "initialize",
      "outputs": [],
      "stateMutability": "nonpayable",
      "type": "function"
    },
    {
      "inputs": [
        {
          "internalType": "address",
          "name": "newAddress",
          "type": "address"
        }
      ],
      "name": "updateCodeAddress",
      "outputs": [],
      "stateMutability": "nonpayable",
      "type": "function"
    },
    {
      "inputs": [
        {
          "internalType": "address",
          "name": "from",
          "type": "address"
        },
        {
          "internalType": "address",
          "name": "to",
          "type": "address"
        },
        {
          "internalType": "uint256",
          "name": "",
          "type": "uint256"
        }
      ],
      "name": "detectTransferRestriction",
      "outputs": [
        {
          "internalType": "uint8",
          "name": "",
          "type": "uint8"
        }
      ],
      "stateMutability": "view",
      "type": "function",
      "constant": true
    },
    {
      "inputs": [
        {
          "internalType": "uint8",
          "name": "restrictionCode",
          "type": "uint8"
        }
      ],
      "name": "messageForTransferRestriction",
      "outputs": [
        {
          "internalType": "string",
          "name": "",
          "type": "string"
        }
      ],
      "stateMutability": "view",
      "type": "function",
      "constant": true
    },
    {
      "inputs": [
        {
          "internalType": "address",
          "name": "to",
          "type": "address"
        },
        {
          "internalType": "uint256",
          "name": "value",
          "type": "uint256"
        }
      ],
      "name": "transfer",
      "outputs": [
        {
          "internalType": "bool",
          "name": "success",
          "type": "bool"
        }
      ],
      "stateMutability": "nonpayable",
      "type": "function"
    },
    {
      "inputs": [
        {
          "internalType": "address",
          "name": "from",
          "type": "address"
        },
        {
          "internalType": "address",
          "name": "to",
          "type": "address"
        },
        {
          "internalType": "uint256",
          "name": "value",
          "type": "uint256"
        }
      ],
      "name": "transferFrom",
      "outputs": [
        {
          "internalType": "bool",
          "name": "success",
          "type": "bool"
        }
      ],
      "stateMutability": "nonpayable",
      "type": "function"
    }
  ],
  "bytecode": "0x608060405234801561001057600080fd5b506130f0806100206000396000f3fe608060405234801561001057600080fd5b50600436106103835760003560e01c80637bb06eea116101de578063aa271e1a1161010f578063d72bdc53116100ad578063eac449d91161007c578063eac449d914610cb9578063f2c2b9ae14610ce5578063f44637ba14610d13578063f6c4b01f14610d3957610383565b8063d72bdc5314610b1c578063dd62ed3e14610c5d578063e7984d1714610c8b578063ea72d6ee14610c9357610383565b8063ba54b1ce116100e9578063ba54b1ce14610a82578063c06f8b9414610a8a578063cc00551e14610ab0578063d4ce141514610ae657610383565b8063aa271e1a14610a12578063abd108ba14610a38578063b66cd56c14610a5c57610383565b8063961a66f61161017c5780639dc29fac116101565780639dc29fac146109685780639fcf100714610994578063a457c2d7146109ba578063a9059cbb146109e657610383565b8063961a66f61461091457806397af67441461093a578063983b2d561461094257610383565b80638456cb59116101b85780638456cb59146108d6578063878dd332146108de578063912a9885146108e657806395d89b411461090c57610383565b80637bb06eea1461086a5780637f4ab1dd1461089057806382dc1ec4146108b057610383565b80633f713709116102b8578063537df3b6116102565780636b2c0f55116102305780636b2c0f55146107c25780637065cb48146107e857806370a082311461080e578063761b13441461083457610383565b8063537df3b61461078c5780635c975abb146107b2578063611649c1146107ba57610383565b806344337ea11161029257806344337ea11461073057806346fbf68e14610756578063489c1b251461077c57806352d1902d1461078457610383565b80633f713709146106d657806340c10f19146106de5780634334614a1461070a57610383565b806318160ddd116103255780633092afd5116102ff5780633092afd514610674578063313ce5671461069a57806339509351146106a25780633f4ba83a146106ce57610383565b806318160ddd146105fe57806323b872dd146106185780632f54bf6e1461064e57610383565b80630e969a05116103615780630e969a051461046d5780631201cbd01461048b5780631624f6c6146104aa578063173825d9146105d857610383565b8063028468581461038857806306fdde03146103b0578063095ea7b31461042d575b600080fd5b6103ae6004803603602081101561039e57600080fd5b50356001600160a01b0316610d5f565b005b6103b8610daf565b6040805160208082528351818301528351919283929083019185019080838360005b838110156103f25781810151838201526020016103da565b50505050905090810190601f16801561041f5780820380516001836020036101000a031916815260200191505b509250505060405180910390f35b6104596004803603604081101561044357600080fd5b506001600160a01b038135169060200135610e45565b604080519115158252519081900360200190f35b610475610e63565b6040805160ff9092168252519081900360200190f35b6103ae600480360360208110156104a157600080fd5b50351515610e68565b6103ae600480360360608110156104c057600080fd5b810190602081018135600160201b8111156104da57600080fd5b8201836020820111156104ec57600080fd5b803590602001918460018302840111600160201b8311171561050d57600080fd5b91908080601f0160208091040260200160405190810160405280939291908181526020018383808284376000920191909152509295949360208101935035915050600160201b81111561055f57600080fd5b82018360208201111561057157600080fd5b803590602001918460018302840111600160201b8311171561059257600080fd5b91908080601f0160208091040260200160405190810160405280939291908181526020018383808284376000920191909152509295505050903560ff169150610eb59050565b6103ae600480360360208110156105ee57600080fd5b50356001600160a01b0316610f91565b610606610fde565b60408051918252519081900360200190f35b6104596004803603606081101561062e57600080fd5b506001600160a01b03813581169160208101359091169060400135610fe4565b6104596004803603602081101561066457600080fd5b50356001600160a01b03166110a7565b6103ae6004803603602081101561068a57600080fd5b50356001600160a01b03166110bc565b610475611109565b610459600480360360408110156106b857600080fd5b506001600160a01b038135169060200135611112565b6103ae611165565b610475611201565b610459600480360360408110156106f457600080fd5b506001600160a01b038135169060200135611206565b6104596004803603602081101561072057600080fd5b50356001600160a01b031661125e565b6103ae6004803603602081101561074657600080fd5b50356001600160a01b031661126b565b6104596004803603602081101561076c57600080fd5b50356001600160a01b03166112c8565b6103b86112d5565b6106066112f1565b6103ae600480360360208110156107a257600080fd5b50356001600160a01b0316611303565b610459611360565b6103b8611369565b6103ae600480360360208110156107d857600080fd5b50356001600160a01b03166113a2565b6103ae600480360360208110156107fe57600080fd5b50356001600160a01b03166113ef565b6106066004803603602081101561082457600080fd5b50356001600160a01b031661143c565b6104596004803603606081101561084a57600080fd5b506001600160a01b03813581169160208101359091169060400135611457565b6103ae6004803603602081101561088057600080fd5b50356001600160a01b03166114b0565b6103b8600480360360208110156108a657600080fd5b503560ff166114fd565b6103ae600480360360208110156108c657600080fd5b50356001600160a01b03166115cb565b6103ae611618565b6104596116af565b6103ae600480360360208110156108fc57600080fd5b50356001600160a01b03166116b8565b6103b8611705565b6103ae6004803603602081101561092a57600080fd5b50356001600160a01b0316611766565b6103b86117b3565b6103ae6004803603602081101561095857600080fd5b50356001600160a01b03166117e1565b6104596004803603604081101561097e57600080fd5b506001600160a01b03813516906020013561182e565b6103ae600480360360208110156109aa57600080fd5b50356001600160a01b031661187f565b610459600480360360408110156109d057600080fd5b506001600160a01b0381351690602001356118cc565b610459600480360360408110156109fc57600080fd5b506001600160a01b038135169060200135611934565b61045960048036036020811015610a2857600080fd5b50356001600160a01b03166119b8565b610a406119c5565b604080516001600160a01b039092168252519081900360200190f35b61045960048036036020811015610a7257600080fd5b50356001600160a01b03166119d8565b6104756119e5565b6103ae60048036036020811015610aa057600080fd5b50356001600160a01b03166119ea565b61045960048036036060811015610ac657600080fd5b506001600160a01b03813581169160208101359091169060400135611a37565b61047560048036036060811015610afc57600080fd5b506001600160a01b03813581169160208101359091169060400135611a88565b6103ae600480360360a0811015610b3257600080fd5b6001600160a01b038235169190810190604081016020820135600160201b811115610b5c57600080fd5b820183602082011115610b6e57600080fd5b803590602001918460018302840111600160201b83111715610b8f57600080fd5b91908080601f0160208091040260200160405190810160405280939291908181526020018383808284376000920191909152509295949360208101935035915050600160201b811115610be157600080fd5b820183602082011115610bf357600080fd5b803590602001918460018302840111600160201b83111715610c1457600080fd5b91908080601f0160208091040260200160405190810160405280939291908181526020018383808284376000920191909152509295505060ff8335169350505060200135611ad5565b61060660048036036040811015610c7357600080fd5b506001600160a01b0381358116916020013516611b9c565b6103b8611bc7565b61045960048036036020811015610ca957600080fd5b50356001600160a01b0316611bea565b61045960048036036040811015610ccf57600080fd5b506001600160a01b038135169060200135611bff565b61045960048036036040811015610cfb57600080fd5b506001600160a01b0381358116916020013516611c4f565b6103ae60048036036020811015610d2957600080fd5b50356001600160a01b0316611caa565b61045960048036036020811015610d4f57600080fd5b50356001600160a01b0316611cf7565b610d68336110a7565b610da35760405162461bcd60e51b815260040180806020018281038252602e815260200180612f08602e913960400191505060405180910390fd5b610dac81611d04565b50565b60338054604080516020601f6002600019610100600188161502019095169490940493840181900481028201810190925282815260609390929091830182828015610e3b5780601f10610e1057610100808354040283529160200191610e3b565b820191906000526020600020905b815481529060010190602001808311610e1e57829003601f168201915b5050505050905090565b6000610e59610e52611d48565b8484611d4c565b5060015b92915050565b600081565b610e71336110a7565b610eac5760405162461bcd60e51b815260040180806020018281038252602e815260200180612f08602e913960400191505060405180910390fd5b610dac81611e38565b600054610100900460ff1680610ece5750610ece611e77565b80610edc575060005460ff16155b610f175760405162461bcd60e51b815260040180806020018281038252602e815260200180612fc1602e913960400191505060405180910390fd5b600054610100900460ff16158015610f42576000805460ff1961ff0019909116610100171660011790555b8351610f55906033906020870190612d25565b508251610f69906034906020860190612d25565b506035805460ff191660ff84161790558015610f8b576000805461ff00191690555b50505050565b610f9a336110a7565b610fd55760405162461bcd60e51b815260040180806020018281038252602e815260200180612f08602e913960400191505060405180910390fd5b610dac81611e7d565b606a5490565b60008383836000610ff6848484611a88565b905060ff811615611006826114fd565b9061108f5760405162461bcd60e51b81526004018080602001828103825283818151815260200191508051906020019080838360005b8381101561105457818101518382015260200161103c565b50505050905090810190601f1680156110815780820380516001836020036101000a031916815260200191505b509250505060405180910390fd5b5061109b888888611ec1565b98975050505050505050565b60006110b4609d83611f43565b90505b919050565b6110c5336110a7565b6111005760405162461bcd60e51b815260040180806020018281038252602e815260200180612f08602e913960400191505060405180910390fd5b610dac81611faa565b60355460ff1690565b6000610e5961111f611d48565b846111608560696000611130611d48565b6001600160a01b03908116825260208083019390935260409182016000908120918c168152925290205490611fee565b611d4c565b61116e336112c8565b6111a95760405162461bcd60e51b8152600401808060200182810382526030815260200180612dfe6030913960400191505060405180910390fd5b60a25460ff166111f7576040805162461bcd60e51b815260206004820152601460248201527314185d5cd8589b194e881b9bdd081c185d5cd95960621b604482015290519081900360640190fd5b6111ff612048565b565b600281565b6000611211336119b8565b61124c5760405162461bcd60e51b8152600401808060200182810382526030815260200180612ed86030913960400191505060405180910390fd5b611257338484612087565b9392505050565b60006110b4609f83611f43565b611274336119d8565b6112bf576040805162461bcd60e51b8152602060048201526017602482015276426c61636b6c6973746572526f6c65206d697373696e6760481b604482015290519081900360640190fd5b610dac816120e8565b60006110b460a183611f43565b6040518060600160405280603d8152602001612fef603d913981565b600080516020612f5783398151915290565b61130c336119d8565b611357576040805162461bcd60e51b8152602060048201526017602482015276426c61636b6c6973746572526f6c65206d697373696e6760481b604482015290519081900360640190fd5b610dac816121e2565b60a25460ff1690565b6040518060400160405280601b81526020017f526573747269637465642064756520746f20626c61636b6c697374000000000081525081565b6113ab336110a7565b6113e65760405162461bcd60e51b815260040180806020018281038252602e815260200180612f08602e913960400191505060405180910390fd5b610dac816122d7565b6113f8336110a7565b6114335760405162461bcd60e51b815260040180806020018281038252602e815260200180612f08602e913960400191505060405180910390fd5b610dac8161231b565b6001600160a01b031660009081526068602052604090205490565b60006114623361125e565b61149d5760405162461bcd60e51b8152600401808060200182810382526030815260200180612ea86030913960400191505060405180910390fd5b6114a884848461235f565b949350505050565b6114b9336110a7565b6114f45760405162461bcd60e51b815260040180806020018281038252602e815260200180612f08602e913960400191505060405180910390fd5b610dac816123cb565b606060ff821661152b57506040805180820190915260078152665355434345535360c81b60208201526110b7565b60ff821660031415611571575060408051808201909152601b81527f526573747269637465642064756520746f20626c61636b6c697374000000000060208201526110b7565b60ff82166002141561159d576040518060600160405280603d8152602001612fef603d913990506110b7565b5050604080518082019091526012815271556e6b6e6f776e204572726f7220436f646560701b602082015290565b6115d4336110a7565b61160f5760405162461bcd60e51b815260040180806020018281038252602e815260200180612f08602e913960400191505060405180910390fd5b610dac8161240f565b611621336112c8565b61165c5760405162461bcd60e51b8152600401808060200182810382526030815260200180612dfe6030913960400191505060405180910390fd5b60a25460ff16156116a7576040805162461bcd60e51b815260206004820152601060248201526f14185d5cd8589b194e881c185d5cd95960821b604482015290519081900360640190fd5b6111ff612453565b60a45460ff1681565b6116c1336110a7565b6116fc5760405162461bcd60e51b815260040180806020018281038252602e815260200180612f08602e913960400191505060405180910390fd5b610dac81612495565b60348054604080516020601f6002600019610100600188161502019095169490940493840181900481028201810190925282815260609390929091830182828015610e3b5780601f10610e1057610100808354040283529160200191610e3b565b61176f336110a7565b6117aa5760405162461bcd60e51b815260040180806020018281038252602e815260200180612f08602e913960400191505060405180910390fd5b610dac8161259d565b60405180604001604052806012815260200171556e6b6e6f776e204572726f7220436f646560701b81525081565b6117ea336110a7565b6118255760405162461bcd60e51b815260040180806020018281038252602e815260200180612f08602e913960400191505060405180910390fd5b610dac816125e1565b60006118393361125e565b6118745760405162461bcd60e51b8152600401808060200182810382526030815260200180612ea86030913960400191505060405180910390fd5b611257338484612625565b611888336110a7565b6118c35760405162461bcd60e51b815260040180806020018281038252602e815260200180612f08602e913960400191505060405180910390fd5b610dac81612686565b6000610e596118d9611d48565b84611160856040518060600160405280602581526020016130966025913960696000611903611d48565b6001600160a01b03908116825260208083019390935260409182016000908120918d168152925290205491906126ca565b60003383836000611946848484611a88565b905060ff811615611956826114fd565b906119a25760405162461bcd60e51b815260206004820181815283516024840152835190928392604490910191908501908083836000831561105457818101518382015260200161103c565b506119ad8787612724565b979650505050505050565b60006110b4609e83611f43565b600080516020612f578339815191525490565b60006110b460a383611f43565b600381565b6119f3336110a7565b611a2e5760405162461bcd60e51b815260040180806020018281038252602e815260200180612f08602e913960400191505060405180910390fd5b610dac81612738565b6000611a4233611cf7565b611a7d5760405162461bcd60e51b8152600401808060200182810382526032815260200180612e506032913960400191505060405180910390fd5b6114a884848461277c565b6000611a92611360565b15611a9f57506002611257565b611aa8846110a7565b15611ab557506000611257565b611abf8484611c4f565b611acb57506003611257565b5060009392505050565b600054610100900460ff1680611aee5750611aee611e77565b80611afc575060005460ff16155b611b375760405162461bcd60e51b815260040180806020018281038252602e815260200180612fc1602e913960400191505060405180910390fd5b600054610100900460ff16158015611b62576000805460ff1961ff0019909116610100171660011790555b611b6d858585610eb5565b611b78338784612087565b50611b828661231b565b8015611b94576000805461ff00191690555b505050505050565b6001600160a01b03918216600090815260696020908152604080832093909416825291909152205490565b604051806040016040528060078152602001665355434345535360c81b81525081565b60a56020526000908152604090205460ff1681565b6000611c0a33611cf7565b611c455760405162461bcd60e51b8152600401808060200182810382526032815260200180612e506032913960400191505060405180910390fd5b61125783836127e8565b60a45460009060ff16611c6457506001610e5d565b6001600160a01b038316600090815260a5602052604090205460ff161580156112575750506001600160a01b0316600090815260a5602052604090205460ff1615919050565b611cb3336110a7565b611cee5760405162461bcd60e51b815260040180806020018281038252602e815260200180612f08602e913960400191505060405180910390fd5b610dac8161283e565b60006110b460a083611f43565b611d0f609f82612882565b60405133906001600160a01b038316907f85222465e0d438163a28671b59fc9ebeb03bf39f880ddd36c8315da7512b31c090600090a350565b3390565b6001600160a01b038316611d915760405162461bcd60e51b81526004018080602001828103825260248152602001806130726024913960400191505060405180910390fd5b6001600160a01b038216611dd65760405162461bcd60e51b8152600401808060200182810382526022815260200180612e2e6022913960400191505060405180910390fd5b6001600160a01b03808416600081815260696020908152604080832094871680845294825291829020859055815185815291517f8c5be1e5ebec7d5bd14f71427d1e84f3dd0314c0f7b2291e5b200ac8c7c3b9259281900390910190a3505050565b60a4805460ff191682151590811790915560405133907f0254250bff2b56bce9719dfb6237446b9159bfbe2368f9dfe449d85da99b2be090600090a350565b303b1590565b611e88609d82612882565b60405133906001600160a01b038316907fe594d081b4382713733fe631966432c9cea5199afb2db5c3c1931f9f9300367990600090a350565b6000611ece8484846128e9565b611f3984611eda611d48565b61116085604051806060016040528060288152602001612f77602891396001600160a01b038a16600090815260696020526040812090611f18611d48565b6001600160a01b0316815260208101919091526040016000205491906126ca565b5060019392505050565b60006001600160a01b038216611f8a5760405162461bcd60e51b8152600401808060200182810382526022815260200180612f9f6022913960400191505060405180910390fd5b506001600160a01b03166000908152602091909152604090205460ff1690565b611fb5609e82612882565b60405133906001600160a01b038316907f4b5ef9a786cf64a7d82ebcf2d5132667edc9faef4ac36260d9a9e52c526b623290600090a350565b600082820183811015611257576040805162461bcd60e51b815260206004820152601b60248201527f536166654d6174683a206164646974696f6e206f766572666c6f770000000000604482015290519081900360640190fd5b60a2805460ff191690556040805133815290517f5db9ee0a495bf2e6ff9c91a7834c1ba4fdd244a5e8aa4e537bd38aeae4b073aa9181900360200190a1565b60006120938383612a3b565b826001600160a01b0316846001600160a01b03167fab8530f87dc9b59234c4623bf917212bb2536d647574c8e7e5da92c2ede0c9f8846040518082815260200191505060405180910390a35060019392505050565b6001600160a01b038116612134576040805162461bcd60e51b815260206004820152600e60248201526d043616e6e6f7420616464203078360941b604482015290519081900360640190fd5b6001600160a01b038116600090815260a5602052604090205460ff1615612194576040805162461bcd60e51b815260206004820152600f60248201526e105b1c9958591e481bdb881b1a5cdd608a1b604482015290519081900360640190fd5b6001600160a01b038116600081815260a56020526040808220805460ff19166001179055513392917faf6ebb6594c3be37f747a8a4692decee2e128c133145b92b98391af1e942bb5291a350565b6001600160a01b038116612231576040805162461bcd60e51b8152602060048201526011602482015270043616e6e6f742072656d6f76652030783607c1b604482015290519081900360640190fd5b6001600160a01b038116600090815260a5602052604090205460ff1661228c576040805162461bcd60e51b815260206004820152600b60248201526a139bdd081bdb881b1a5cdd60aa1b604482015290519081900360640190fd5b6001600160a01b038116600081815260a56020526040808220805460ff19169055513392917fc5d633221a999da7b50bad97ddd6cff0c917455d8651123a6433642833252b7c91a350565b6122e260a182612882565b60405133906001600160a01b038316907fb75903ade4a0fdb07d60c882c22c779e2e1c751883c37aecdcc92a8ec72b046e90600090a350565b612326609d82612b21565b60405133906001600160a01b038316907fc82bdbbf677a2462f2a7e22e4ba9abd209496b69cd7b868b3b1d28f76e09a40a90600090a350565b600061236c8484846128e9565b826001600160a01b0316846001600160a01b0316336001600160a01b03167f475182e5ae26efe1a0e494ae1d24bbc3627acedefe8c474cce59f8df9a988a3e856040518082815260200191505060405180910390a45060019392505050565b6123d660a382612b21565b60405133906001600160a01b038316907f891e671759c21e48221125d0aa55b5574dc00b3e3225e40f6cb10dde820822ad90600090a350565b61241a60a182612b21565b60405133906001600160a01b038316907fe0953c403a52f9dc1fef4202a8d33975c958b727bee0d7b5b328965ddad98d8190600090a350565b60a2805460ff191660011790556040805133815290517f62e78cea01bee320cd4e420270b5ea74000d11b0c9f74754ebdbfc544b05a2589181900360200190a1565b806001600160a01b03166352d1902d6040518163ffffffff1660e01b815260040160206040518083038186803b1580156124ce57600080fd5b505afa1580156124e2573d6000803e3d6000fd5b505050506040513d60208110156124f857600080fd5b5051600080516020612f578339815191521461254c576040805162461bcd60e51b815260206004820152600e60248201526d4e6f7420636f6d70617469626c6560901b604482015290519081900360640190fd5b600080516020612f57833981519152819055604080516001600160a01b038316815290517feeaed647dc622e55877c30943e5c1d4feb92d1b8cfcc88d974163e9787bde9af9181900360200190a150565b6125a860a082612b21565b60405133906001600160a01b038316907f2b5f18afd9a7b21f41bf023b012b3d4c8a22a21b79fa425cd4494ecbe297019690600090a350565b6125ec609e82612b21565b60405133906001600160a01b038316907f3c091dafb1d99e4a4c333024492eac3b2cd8bf921a3dd547c937db33be307bb890600090a350565b60006126318383612bf3565b826001600160a01b0316846001600160a01b03167fbac40739b0d4ca32fa2d82fc91630465ba3eddd1598da6fca393b26fb63b9453846040518082815260200191505060405180910390a35060019392505050565b61269160a382612882565b60405133906001600160a01b038316907fc76ab32d91026761e52ef1016d8293a11dbb26424e34581575cefc484d10c6f390600090a350565b6000818484111561271c5760405162461bcd60e51b815260206004820181815283516024840152835190928392604490910191908501908083836000831561105457818101518382015260200161103c565b505050900390565b6000610e59612731611d48565b84846128e9565b61274360a082612882565b60405133906001600160a01b038316907fb6fe3ab11eb9ab1d9f1d41c8f42a5d72d10122099ba1548e4a6d1a4d8cefec4b90600090a350565b60006127898484846128e9565b826001600160a01b0316846001600160a01b0316336001600160a01b03167f64a989949bb484d2d275229a9d310b5d9dc273a560dd639c337aaf6f67fb73b6856040518082815260200191505060405180910390a45060019392505050565b60006127f58333846128e9565b6040805183815290516001600160a01b0385169133917fb698e31a2abee5824d0d7bcfd2339aead7f9e9ae413fba50bf554ff3fa470b7b9181900360200190a350600192915050565b612849609f82612b21565b60405133906001600160a01b038316907f86515ebaad527298e98929c064c075f5a2604cc80afc0db29e73c01a36f8e98c90600090a350565b61288c8282611f43565b6128c75760405162461bcd60e51b8152600401808060200182810382526021815260200180612f366021913960400191505060405180910390fd5b6001600160a01b0316600090815260209190915260409020805460ff19169055565b6001600160a01b03831661292e5760405162461bcd60e51b815260040180806020018281038252602581526020018061304d6025913960400191505060405180910390fd5b6001600160a01b0382166129735760405162461bcd60e51b8152600401808060200182810382526023815260200180612db96023913960400191505060405180910390fd5b6129b081604051806060016040528060268152602001612e82602691396001600160a01b03861660009081526068602052604090205491906126ca565b6001600160a01b0380851660009081526068602052604080822093909355908416815220546129df9082611fee565b6001600160a01b0380841660008181526068602090815260409182902094909455805185815290519193928716927fddf252ad1be2c89b69c2b068fc378daa952ba7f163c4a11628f55a4df523b3ef92918290030190a3505050565b6001600160a01b038216612a96576040805162461bcd60e51b815260206004820152601f60248201527f45524332303a206d696e7420746f20746865207a65726f206164647265737300604482015290519081900360640190fd5b606a54612aa39082611fee565b606a556001600160a01b038216600090815260686020526040902054612ac99082611fee565b6001600160a01b03831660008181526068602090815260408083209490945583518581529351929391927fddf252ad1be2c89b69c2b068fc378daa952ba7f163c4a11628f55a4df523b3ef9281900390910190a35050565b6001600160a01b038116612b72576040805162461bcd60e51b8152602060048201526013602482015272496e76616c696420307830206164647265737360681b604482015290519081900360640190fd5b612b7c8282611f43565b15612bce576040805162461bcd60e51b815260206004820152601f60248201527f526f6c65733a206163636f756e7420616c72656164792068617320726f6c6500604482015290519081900360640190fd5b6001600160a01b0316600090815260209190915260409020805460ff19166001179055565b6001600160a01b038216612c385760405162461bcd60e51b815260040180806020018281038252602181526020018061302c6021913960400191505060405180910390fd5b612c7581604051806060016040528060228152602001612ddc602291396001600160a01b03851660009081526068602052604090205491906126ca565b6001600160a01b038316600090815260686020526040902055606a54612c9b9082612ce3565b606a556040805182815290516000916001600160a01b038516917fddf252ad1be2c89b69c2b068fc378daa952ba7f163c4a11628f55a4df523b3ef9181900360200190a35050565b600061125783836040518060400160405280601e81526020017f536166654d6174683a207375627472616374696f6e206f766572666c6f7700008152506126ca565b828054600181600116156101000203166002900490600052602060002090601f016020900481019282601f10612d6657805160ff1916838001178555612d93565b82800160010185558215612d93579182015b82811115612d93578251825591602001919060010190612d78565b50612d9f929150612da3565b5090565b5b80821115612d9f5760008155600101612da456fe45524332303a207472616e7366657220746f20746865207a65726f206164647265737345524332303a206275726e20616d6f756e7420657863656564732062616c616e6365506175736572526f6c653a2063616c6c657220646f6573206e6f742068617665207468652050617573657220726f6c6545524332303a20617070726f766520746f20746865207a65726f20616464726573735265766f6b6572526f6c653a2063616c6c657220646f6573206e6f74206861766520746865205265766f6b657220726f6c6545524332303a207472616e7366657220616d6f756e7420657863656564732062616c616e63654275726e6572526f6c653a2063616c6c657220646f6573206e6f74206861766520746865204275726e657220726f6c654d696e746572526f6c653a2063616c6c657220646f6573206e6f74206861766520746865204d696e74657220726f6c654f776e6572526f6c653a2063616c6c657220646f6573206e6f74206861766520746865204f776e657220726f6c65526f6c65733a206163636f756e7420646f6573206e6f74206861766520726f6c65c5f16f0fcc639fa48a6947836d9850f504798523bf8c9a3a87d5876cf622bcf745524332303a207472616e7366657220616d6f756e74206578636565647320616c6c6f77616e6365526f6c65733a206163636f756e7420697320746865207a65726f2061646472657373436f6e747261637420696e7374616e63652068617320616c7265616479206265656e20696e697469616c697a6564546865207472616e736665722077617320726573747269637465642064756520746f2074686520636f6e7472616374206265696e67207061757365642e45524332303a206275726e2066726f6d20746865207a65726f206164647265737345524332303a207472616e736665722066726f6d20746865207a65726f206164647265737345524332303a20617070726f76652066726f6d20746865207a65726f206164647265737345524332303a2064656372656173656420616c6c6f77616e63652062656c6f77207a65726fa2646970667358221220839a188a7776a7074c37cda8db521e1876b594229c6ea7098ba90da8872b1aff64736f6c634300060c0033",
  "immutableReferences": {},
  "source": "pragma solidity 0.6.12;\n\n/**\n @title Tokensoft Token V3\n @notice This contract implements the ERC1404 Interface to add transfer restrictions to a standard ER20 token.\n The role based access controls allow the Owner accounts to determine which permissions are granted to admin accounts.\n Admin accounts can enable, disable, and configure the token restrictions built into the contract.\n */\n\nimport \"./capabilities/Proxiable.sol\";\nimport \"./@openzeppelin/contracts-ethereum-package/contracts/token/ERC20/ERC20Detailed.sol\";\nimport \"./ERC1404.sol\";\nimport \"./roles/OwnerRole.sol\";\nimport \"./capabilities/Mintable.sol\";\nimport \"./capabilities/Burnable.sol\";\nimport \"./capabilities/Revocable.sol\";\nimport \"./capabilities/Pausable.sol\";\nimport \"./capabilities/Blacklistable.sol\";\nimport \"./capabilities/RevocableToAddress.sol\";\nimport \"./capabilities/BurnAndMintInPlace.sol\";\n\ncontract TokenSoftTokenV3 is Proxiable, ERC20Detailed, ERC1404, OwnerRole, Mintable, Burnable, Revocable, Pausable, Blacklistable, RevocableToAddress, BurnAndMintInPlace  {\n\n    // ERC1404 Error codes and messages\n    /// @notice The from/to account has been explicitly denied the ability to send/receive\n    uint8 public constant SUCCESS_CODE = 0;\n    uint8 public constant FAILURE_PAUSED = 2;\n    string public constant SUCCESS_MESSAGE = \"SUCCESS\";\n    string public constant FAILURE_PAUSED_MESSAGE = \"The transfer was restricted due to the contract being paused.\";\n    string public constant UNKNOWN_ERROR = \"Unknown Error Code\";\n    uint8 public constant FAILURE_BLACKLIST = 3;\n    string public constant FAILURE_BLACKLIST_MESSAGE = \"Restricted due to blacklist\";\n\n\n    /**\n    Constructor for the token to set readable details and mint all tokens\n    to the specified owner.\n     */\n    function initialize (address owner, string memory name, string memory symbol, uint8 decimals, uint256 initialSupply)\n        public\n        initializer\n    {\n        ERC20Detailed.initialize(name, symbol, decimals);\n        Mintable._mint(msg.sender, owner, initialSupply);\n        OwnerRole._addOwner(owner);\n    }\n\n    /**\n    Public function to update the address of the code contract, retricted to owner\n     */\n    function updateCodeAddress (address newAddress) public onlyOwner {\n        Proxiable._updateCodeAddress(newAddress);\n    }\n\n    /**\n    This function detects whether a transfer should be restricted and not allowed.\n    If the function returns SUCCESS_CODE (0) then it should be allowed.\n     */\n    function detectTransferRestriction (address from, address to, uint256)\n        public\n        view\n        virtual\n        override\n        returns (uint8)\n    {\n        // Check the paused status of the contract\n        if (Pausable.paused()) {\n            return FAILURE_PAUSED;\n        }\n\n        // If an owner transferring, then ignore blacklist restrictions\n        if(OwnerRole.isOwner(from)) {\n            return SUCCESS_CODE;\n        }\n\n        // Restrictions are enabled, so verify the blacklist config allows the transfer.\n        // Logic defined in Blacklistable parent class\n        if(!checkBlacklistAllowed(from, to)) {\n            return FAILURE_BLACKLIST;\n        }\n\n        // If no restrictions were triggered return success\n        return SUCCESS_CODE;\n    }\n\n    /**\n    This function allows a wallet or other client to get a human readable string to show\n    a user if a transfer was restricted.  It should return enough information for the user\n    to know why it failed.\n     */\n    function messageForTransferRestriction (uint8 restrictionCode)\n        public\n        view\n        virtual\n        override\n        returns (string memory)\n    {\n        if (restrictionCode == SUCCESS_CODE) {\n            return SUCCESS_MESSAGE;\n        }\n\n        if (restrictionCode == FAILURE_BLACKLIST) {\n            return FAILURE_BLACKLIST_MESSAGE;\n        }\n\n        if (restrictionCode == FAILURE_PAUSED) {\n            return FAILURE_PAUSED_MESSAGE;\n        }\n\n        // An unknown error code was passed in.\n        return UNKNOWN_ERROR;\n    }\n\n    /**\n    Evaluates whether a transfer should be allowed or not.\n     */\n    modifier notRestricted (address from, address to, uint256 value) {\n        uint8 restrictionCode = detectTransferRestriction(from, to, value);\n        require(restrictionCode == SUCCESS_CODE, messageForTransferRestriction(restrictionCode));\n        _;\n    }\n\n    /**\n    Overrides the parent class token transfer function to enforce restrictions.\n     */\n    function transfer (address to, uint256 value)\n        public\n        virtual\n        override(ERC20, IERC20)\n        notRestricted(msg.sender, to, value)\n        returns (bool success)\n    {\n        success = ERC20.transfer(to, value);\n    }\n\n    /**\n    Overrides the parent class token transferFrom function to enforce restrictions.\n     */\n    function transferFrom (address from, address to, uint256 value)\n        public\n        virtual\n        override(ERC20, IERC20)\n        notRestricted(from, to, value)\n        returns (bool success)\n    {\n        success = ERC20.transferFrom(from, to, value);\n    }\n}\n",
  "sourcePath": "/Users/thomasmcinerney/dev/tokensoft_token/contracts/TokenSoftTokenV3.sol",
  "compiler": {
    "name": "solc",
    "version": "0.6.12+commit.27d51765.Emscripten.clang"
  },
  "schemaVersion": "3.4.1",
  "updatedAt": "2021-10-28T23:00:54.515Z",
  "networkType": "ethereum",
  "devdoc": {
    "kind": "dev",
    "methods": {
      "allowance(address,address)": {
        "details": "See {IERC20-allowance}."
      },
      "approve(address,uint256)": {
        "details": "See {IERC20-approve}. Requirements: - `spender` cannot be the zero address."
      },
      "balanceOf(address)": {
        "details": "See {IERC20-balanceOf}."
      },
      "decimals()": {
        "details": "Returns the number of decimals used to get its user representation. For example, if `decimals` equals `2`, a balance of `505` tokens should be displayed to a user as `5,05` (`505 / 10 ** 2`). Tokens usually opt for a value of 18, imitating the relationship between Ether and Wei. NOTE: This information is only used for _display_ purposes: it in no way affects any of the arithmetic of the contract, including {IERC20-balanceOf} and {IERC20-transfer}."
      },
      "decreaseAllowance(address,uint256)": {
        "details": "Atomically decreases the allowance granted to `spender` by the caller. This is an alternative to {approve} that can be used as a mitigation for problems described in {IERC20-approve}. Emits an {Approval} event indicating the updated allowance. Requirements: - `spender` cannot be the zero address. - `spender` must have allowance for the caller of at least `subtractedValue`."
      },
      "increaseAllowance(address,uint256)": {
        "details": "Atomically increases the allowance granted to `spender` by the caller. This is an alternative to {approve} that can be used as a mitigation for problems described in {IERC20-approve}. Emits an {Approval} event indicating the updated allowance. Requirements: - `spender` cannot be the zero address."
      },
      "initialize(string,string,uint8)": {
        "details": "Sets the values for `name`, `symbol`, and `decimals`. All three of these values are immutable: they can only be set once during construction."
      },
      "name()": {
        "details": "Returns the name of the token."
      },
      "pause()": {
        "details": "Called by an Owner to pause, triggers stopped state."
      },
      "paused()": {
        "details": "Returns true if the contract is paused, and false otherwise."
      },
      "symbol()": {
        "details": "Returns the symbol of the token, usually a shorter version of the name."
      },
      "totalSupply()": {
        "details": "See {IERC20-totalSupply}."
      },
      "unpause()": {
        "details": "Called by an Owner to unpause, returns to normal state."
      }
    },
    "version": 1
  },
  "userdoc": {
    "kind": "user",
    "methods": {
      "SUCCESS_CODE()": {
        "notice": "The from/to account has been explicitly denied the ability to send/receive"
      },
      "addToBlacklist(address)": {
        "notice": "Public function that allows admins to remove an address from a Blacklist"
      },
      "burn(address,uint256)": {
        "notice": "Allow Burners to burn tokens from valid addresses"
      },
      "burnAndMintInPlace(address,address,uint256)": {
        "notice": "Allows Burner role to burn and mint "
      },
      "checkBlacklistAllowed(address,address)": {
        "notice": "Determine if the a sender is allowed to send to the receiver. If either the sender or receiver is blacklisted, then the transfer should be denied"
      },
      "detectTransferRestriction(address,address,uint256)": {
        "notice": "This function detects whether a transfer should be restricted and not allowed. If the function returns SUCCESS_CODE (0) then it should be allowed."
      },
      "initialize(address,string,string,uint8,uint256)": {
        "notice": "Constructor for the token to set readable details and mint all tokens to the specified owner."
      },
      "messageForTransferRestriction(uint8)": {
        "notice": "This function allows a wallet or other client to get a human readable string to show a user if a transfer was restricted.  It should return enough information for the user to know why it failed."
      },
      "mint(address,uint256)": {
        "notice": "Allow Owners to mint tokens to valid addresses"
      },
      "removeFromBlacklist(address)": {
        "notice": "Public function that allows admins to remove an address from a Blacklist"
      },
      "revoke(address,uint256)": {
        "notice": "Allow Admins to revoke tokens from any address"
      },
      "revokeToAddress(address,address,uint256)": {
        "notice": "Allow Admins to revoke tokens from any address to any destination"
      },
      "setBlacklistEnabled(bool)": {
        "notice": "Enable or disable the Blacklist enforcement"
      },
      "transfer(address,uint256)": {
        "notice": "Overrides the parent class token transfer function to enforce restrictions."
      },
      "transferFrom(address,address,uint256)": {
        "notice": "Overrides the parent class token transferFrom function to enforce restrictions."
      },
      "updateCodeAddress(address)": {
        "notice": "Public function to update the address of the code contract, retricted to owner"
      }
    },
    "version": 1
  }
}