{
  "contractName": "TokenSoftTokenV2",
  "abi": [
    {
      "anonymous": false,
      "inputs": [
        {
          "indexed": true,
          "internalType": "address",
          "name": "addedAddress",
          "type": "address"
        },
        {
          "indexed": true,
          "internalType": "address",
          "name": "addedBy",
          "type": "address"
        }
      ],
      "name": "AddressAddedToBlacklist",
      "type": "event"
    },
    {
      "anonymous": false,
      "inputs": [
        {
          "indexed": true,
          "internalType": "address",
          "name": "addedAddress",
          "type": "address"
        },
        {
          "indexed": true,
          "internalType": "uint8",
          "name": "whitelist",
          "type": "uint8"
        },
        {
          "indexed": true,
          "internalType": "address",
          "name": "addedBy",
          "type": "address"
        }
      ],
      "name": "AddressAddedToWhitelist",
      "type": "event"
    },
    {
      "anonymous": false,
      "inputs": [
        {
          "indexed": true,
          "internalType": "address",
          "name": "removedAddress",
          "type": "address"
        },
        {
          "indexed": true,
          "internalType": "address",
          "name": "removedBy",
          "type": "address"
        }
      ],
      "name": "AddressRemovedFromBlacklist",
      "type": "event"
    },
    {
      "anonymous": false,
      "inputs": [
        {
          "indexed": true,
          "internalType": "address",
          "name": "removedAddress",
          "type": "address"
        },
        {
          "indexed": true,
          "internalType": "uint8",
          "name": "whitelist",
          "type": "uint8"
        },
        {
          "indexed": true,
          "internalType": "address",
          "name": "removedBy",
          "type": "address"
        }
      ],
      "name": "AddressRemovedFromWhitelist",
      "type": "event"
    },
    {
      "anonymous": false,
      "inputs": [
        {
          "indexed": true,
          "internalType": "address",
          "name": "owner",
          "type": "address"
        },
        {
          "indexed": true,
          "internalType": "address",
          "name": "spender",
          "type": "address"
        },
        {
          "indexed": false,
          "internalType": "uint256",
          "name": "value",
          "type": "uint256"
        }
      ],
      "name": "Approval",
      "type": "event"
    },
    {
      "anonymous": false,
      "inputs": [
        {
          "indexed": true,
          "internalType": "address",
          "name": "updatedBy",
          "type": "address"
        },
        {
          "indexed": true,
          "internalType": "bool",
          "name": "enabled",
          "type": "bool"
        }
      ],
      "name": "BlacklistEnabledUpdated",
      "type": "event"
    },
    {
      "anonymous": false,
      "inputs": [
        {
          "indexed": true,
          "internalType": "address",
          "name": "addedBlacklister",
          "type": "address"
        },
        {
          "indexed": true,
          "internalType": "address",
          "name": "addedBy",
          "type": "address"
        }
      ],
      "name": "BlacklisterAdded",
      "type": "event"
    },
    {
      "anonymous": false,
      "inputs": [
        {
          "indexed": true,
          "internalType": "address",
          "name": "removedBlacklister",
          "type": "address"
        },
        {
          "indexed": true,
          "internalType": "address",
          "name": "removedBy",
          "type": "address"
        }
      ],
      "name": "BlacklisterRemoved",
      "type": "event"
    },
    {
      "anonymous": false,
      "inputs": [
        {
          "indexed": true,
          "internalType": "address",
          "name": "burner",
          "type": "address"
        },
        {
          "indexed": true,
          "internalType": "address",
          "name": "from",
          "type": "address"
        },
        {
          "indexed": false,
          "internalType": "uint256",
          "name": "amount",
          "type": "uint256"
        }
      ],
      "name": "Burn",
      "type": "event"
    },
    {
      "anonymous": false,
      "inputs": [
        {
          "indexed": true,
          "internalType": "address",
          "name": "addedBurner",
          "type": "address"
        },
        {
          "indexed": true,
          "internalType": "address",
          "name": "addedBy",
          "type": "address"
        }
      ],
      "name": "BurnerAdded",
      "type": "event"
    },
    {
      "anonymous": false,
      "inputs": [
        {
          "indexed": true,
          "internalType": "address",
          "name": "removedBurner",
          "type": "address"
        },
        {
          "indexed": true,
          "internalType": "address",
          "name": "removedBy",
          "type": "address"
        }
      ],
      "name": "BurnerRemoved",
      "type": "event"
    },
    {
      "anonymous": false,
      "inputs": [
        {
          "indexed": false,
          "internalType": "address",
          "name": "newAddress",
          "type": "address"
        }
      ],
      "name": "CodeAddressUpdated",
      "type": "event"
    },
    {
      "anonymous": false,
      "inputs": [
        {
          "indexed": true,
          "internalType": "address",
          "name": "minter",
          "type": "address"
        },
        {
          "indexed": true,
          "internalType": "address",
          "name": "to",
          "type": "address"
        },
        {
          "indexed": false,
          "internalType": "uint256",
          "name": "amount",
          "type": "uint256"
        }
      ],
      "name": "Mint",
      "type": "event"
    },
    {
      "anonymous": false,
      "inputs": [
        {
          "indexed": true,
          "internalType": "address",
          "name": "addedMinter",
          "type": "address"
        },
        {
          "indexed": true,
          "internalType": "address",
          "name": "addedBy",
          "type": "address"
        }
      ],
      "name": "MinterAdded",
      "type": "event"
    },
    {
      "anonymous": false,
      "inputs": [
        {
          "indexed": true,
          "internalType": "address",
          "name": "removedMinter",
          "type": "address"
        },
        {
          "indexed": true,
          "internalType": "address",
          "name": "removedBy",
          "type": "address"
        }
      ],
      "name": "MinterRemoved",
      "type": "event"
    },
    {
      "anonymous": false,
      "inputs": [
        {
          "indexed": true,
          "internalType": "address",
          "name": "updatedBy",
          "type": "address"
        },
        {
          "indexed": true,
          "internalType": "uint8",
          "name": "sourceWhitelist",
          "type": "uint8"
        },
        {
          "indexed": true,
          "internalType": "uint8",
          "name": "destinationWhitelist",
          "type": "uint8"
        },
        {
          "indexed": false,
          "internalType": "bool",
          "name": "from",
          "type": "bool"
        },
        {
          "indexed": false,
          "internalType": "bool",
          "name": "to",
          "type": "bool"
        }
      ],
      "name": "OutboundWhitelistUpdated",
      "type": "event"
    },
    {
      "anonymous": false,
      "inputs": [
        {
          "indexed": true,
          "internalType": "address",
          "name": "addedOwner",
          "type": "address"
        },
        {
          "indexed": true,
          "internalType": "address",
          "name": "addedBy",
          "type": "address"
        }
      ],
      "name": "OwnerAdded",
      "type": "event"
    },
    {
      "anonymous": false,
      "inputs": [
        {
          "indexed": true,
          "internalType": "address",
          "name": "removedOwner",
          "type": "address"
        },
        {
          "indexed": true,
          "internalType": "address",
          "name": "removedBy",
          "type": "address"
        }
      ],
      "name": "OwnerRemoved",
      "type": "event"
    },
    {
      "anonymous": false,
      "inputs": [
        {
          "indexed": false,
          "internalType": "address",
          "name": "account",
          "type": "address"
        }
      ],
      "name": "Paused",
      "type": "event"
    },
    {
      "anonymous": false,
      "inputs": [
        {
          "indexed": true,
          "internalType": "address",
          "name": "addedPauser",
          "type": "address"
        },
        {
          "indexed": true,
          "internalType": "address",
          "name": "addedBy",
          "type": "address"
        }
      ],
      "name": "PauserAdded",
      "type": "event"
    },
    {
      "anonymous": false,
      "inputs": [
        {
          "indexed": true,
          "internalType": "address",
          "name": "removedPauser",
          "type": "address"
        },
        {
          "indexed": true,
          "internalType": "address",
          "name": "removedBy",
          "type": "address"
        }
      ],
      "name": "PauserRemoved",
      "type": "event"
    },
    {
      "anonymous": false,
      "inputs": [
        {
          "indexed": true,
          "internalType": "address",
          "name": "revoker",
          "type": "address"
        },
        {
          "indexed": true,
          "internalType": "address",
          "name": "from",
          "type": "address"
        },
        {
          "indexed": false,
          "internalType": "uint256",
          "name": "amount",
          "type": "uint256"
        }
      ],
      "name": "Revoke",
      "type": "event"
    },
    {
      "anonymous": false,
      "inputs": [
        {
          "indexed": true,
          "internalType": "address",
          "name": "revoker",
          "type": "address"
        },
        {
          "indexed": true,
          "internalType": "address",
          "name": "from",
          "type": "address"
        },
        {
          "indexed": true,
          "internalType": "address",
          "name": "to",
          "type": "address"
        },
        {
          "indexed": false,
          "internalType": "uint256",
          "name": "amount",
          "type": "uint256"
        }
      ],
      "name": "RevokeToAddress",
      "type": "event"
    },
    {
      "anonymous": false,
      "inputs": [
        {
          "indexed": true,
          "internalType": "address",
          "name": "addedRevoker",
          "type": "address"
        },
        {
          "indexed": true,
          "internalType": "address",
          "name": "addedBy",
          "type": "address"
        }
      ],
      "name": "RevokerAdded",
      "type": "event"
    },
    {
      "anonymous": false,
      "inputs": [
        {
          "indexed": true,
          "internalType": "address",
          "name": "removedRevoker",
          "type": "address"
        },
        {
          "indexed": true,
          "internalType": "address",
          "name": "removedBy",
          "type": "address"
        }
      ],
      "name": "RevokerRemoved",
      "type": "event"
    },
    {
      "anonymous": false,
      "inputs": [
        {
          "indexed": true,
          "internalType": "address",
          "name": "from",
          "type": "address"
        },
        {
          "indexed": true,
          "internalType": "address",
          "name": "to",
          "type": "address"
        },
        {
          "indexed": false,
          "internalType": "uint256",
          "name": "value",
          "type": "uint256"
        }
      ],
      "name": "Transfer",
      "type": "event"
    },
    {
      "anonymous": false,
      "inputs": [
        {
          "indexed": false,
          "internalType": "address",
          "name": "account",
          "type": "address"
        }
      ],
      "name": "Unpaused",
      "type": "event"
    },
    {
      "anonymous": false,
      "inputs": [
        {
          "indexed": true,
          "internalType": "address",
          "name": "updatedBy",
          "type": "address"
        },
        {
          "indexed": true,
          "internalType": "bool",
          "name": "enabled",
          "type": "bool"
        }
      ],
      "name": "WhitelistEnabledUpdated",
      "type": "event"
    },
    {
      "anonymous": false,
      "inputs": [
        {
          "indexed": true,
          "internalType": "address",
          "name": "addedWhitelister",
          "type": "address"
        },
        {
          "indexed": true,
          "internalType": "address",
          "name": "addedBy",
          "type": "address"
        }
      ],
      "name": "WhitelisterAdded",
      "type": "event"
    },
    {
      "anonymous": false,
      "inputs": [
        {
          "indexed": true,
          "internalType": "address",
          "name": "removedWhitelister",
          "type": "address"
        },
        {
          "indexed": true,
          "internalType": "address",
          "name": "removedBy",
          "type": "address"
        }
      ],
      "name": "WhitelisterRemoved",
      "type": "event"
    },
    {
      "inputs": [],
      "name": "FAILURE_BLACKLIST",
      "outputs": [
        {
          "internalType": "uint8",
          "name": "",
          "type": "uint8"
        }
      ],
      "stateMutability": "view",
      "type": "function"
    },
    {
      "inputs": [],
      "name": "FAILURE_BLACKLIST_MESSAGE",
      "outputs": [
        {
          "internalType": "string",
          "name": "",
          "type": "string"
        }
      ],
      "stateMutability": "view",
      "type": "function"
    },
    {
      "inputs": [],
      "name": "FAILURE_NON_WHITELIST",
      "outputs": [
        {
          "internalType": "uint8",
          "name": "",
          "type": "uint8"
        }
      ],
      "stateMutability": "view",
      "type": "function"
    },
    {
      "inputs": [],
      "name": "FAILURE_NON_WHITELIST_MESSAGE",
      "outputs": [
        {
          "internalType": "string",
          "name": "",
          "type": "string"
        }
      ],
      "stateMutability": "view",
      "type": "function"
    },
    {
      "inputs": [],
      "name": "FAILURE_PAUSED",
      "outputs": [
        {
          "internalType": "uint8",
          "name": "",
          "type": "uint8"
        }
      ],
      "stateMutability": "view",
      "type": "function"
    },
    {
      "inputs": [],
      "name": "FAILURE_PAUSED_MESSAGE",
      "outputs": [
        {
          "internalType": "string",
          "name": "",
          "type": "string"
        }
      ],
      "stateMutability": "view",
      "type": "function"
    },
    {
      "inputs": [],
      "name": "SUCCESS_CODE",
      "outputs": [
        {
          "internalType": "uint8",
          "name": "",
          "type": "uint8"
        }
      ],
      "stateMutability": "view",
      "type": "function"
    },
    {
      "inputs": [],
      "name": "SUCCESS_MESSAGE",
      "outputs": [
        {
          "internalType": "string",
          "name": "",
          "type": "string"
        }
      ],
      "stateMutability": "view",
      "type": "function"
    },
    {
      "inputs": [],
      "name": "UNKNOWN_ERROR",
      "outputs": [
        {
          "internalType": "string",
          "name": "",
          "type": "string"
        }
      ],
      "stateMutability": "view",
      "type": "function"
    },
    {
      "inputs": [
        {
          "internalType": "address",
          "name": "account",
          "type": "address"
        }
      ],
      "name": "addBlacklister",
      "outputs": [],
      "stateMutability": "nonpayable",
      "type": "function"
    },
    {
      "inputs": [
        {
          "internalType": "address",
          "name": "account",
          "type": "address"
        }
      ],
      "name": "addBurner",
      "outputs": [],
      "stateMutability": "nonpayable",
      "type": "function"
    },
    {
      "inputs": [
        {
          "internalType": "address",
          "name": "account",
          "type": "address"
        }
      ],
      "name": "addMinter",
      "outputs": [],
      "stateMutability": "nonpayable",
      "type": "function"
    },
    {
      "inputs": [
        {
          "internalType": "address",
          "name": "account",
          "type": "address"
        }
      ],
      "name": "addOwner",
      "outputs": [],
      "stateMutability": "nonpayable",
      "type": "function"
    },
    {
      "inputs": [
        {
          "internalType": "address",
          "name": "account",
          "type": "address"
        }
      ],
      "name": "addPauser",
      "outputs": [],
      "stateMutability": "nonpayable",
      "type": "function"
    },
    {
      "inputs": [
        {
          "internalType": "address",
          "name": "account",
          "type": "address"
        }
      ],
      "name": "addRevoker",
      "outputs": [],
      "stateMutability": "nonpayable",
      "type": "function"
    },
    {
      "inputs": [
        {
          "internalType": "address",
          "name": "addressToAdd",
          "type": "address"
        }
      ],
      "name": "addToBlacklist",
      "outputs": [],
      "stateMutability": "nonpayable",
      "type": "function"
    },
    {
      "inputs": [
        {
          "internalType": "address",
          "name": "addressToAdd",
          "type": "address"
        },
        {
          "internalType": "uint8",
          "name": "whitelist",
          "type": "uint8"
        }
      ],
      "name": "addToWhitelist",
      "outputs": [],
      "stateMutability": "nonpayable",
      "type": "function"
    },
    {
      "inputs": [
        {
          "internalType": "address",
          "name": "account",
          "type": "address"
        }
      ],
      "name": "addWhitelister",
      "outputs": [],
      "stateMutability": "nonpayable",
      "type": "function"
    },
    {
      "inputs": [
        {
          "internalType": "address",
          "name": "",
          "type": "address"
        }
      ],
      "name": "addressBlacklists",
      "outputs": [
        {
          "internalType": "bool",
          "name": "",
          "type": "bool"
        }
      ],
      "stateMutability": "view",
      "type": "function"
    },
    {
      "inputs": [
        {
          "internalType": "address",
          "name": "",
          "type": "address"
        }
      ],
      "name": "addressWhitelists",
      "outputs": [
        {
          "internalType": "uint8",
          "name": "",
          "type": "uint8"
        }
      ],
      "stateMutability": "view",
      "type": "function"
    },
    {
      "inputs": [
        {
          "internalType": "address",
          "name": "owner",
          "type": "address"
        },
        {
          "internalType": "address",
          "name": "spender",
          "type": "address"
        }
      ],
      "name": "allowance",
      "outputs": [
        {
          "internalType": "uint256",
          "name": "",
          "type": "uint256"
        }
      ],
      "stateMutability": "view",
      "type": "function"
    },
    {
      "inputs": [
        {
          "internalType": "address",
          "name": "spender",
          "type": "address"
        },
        {
          "internalType": "uint256",
          "name": "amount",
          "type": "uint256"
        }
      ],
      "name": "approve",
      "outputs": [
        {
          "internalType": "bool",
          "name": "",
          "type": "bool"
        }
      ],
      "stateMutability": "nonpayable",
      "type": "function"
    },
    {
      "inputs": [
        {
          "internalType": "address",
          "name": "account",
          "type": "address"
        }
      ],
      "name": "balanceOf",
      "outputs": [
        {
          "internalType": "uint256",
          "name": "",
          "type": "uint256"
        }
      ],
      "stateMutability": "view",
      "type": "function"
    },
    {
      "inputs": [
        {
          "internalType": "address",
          "name": "account",
          "type": "address"
        },
        {
          "internalType": "uint256",
          "name": "amount",
          "type": "uint256"
        }
      ],
      "name": "burn",
      "outputs": [
        {
          "internalType": "bool",
          "name": "",
          "type": "bool"
        }
      ],
      "stateMutability": "nonpayable",
      "type": "function"
    },
    {
      "inputs": [
        {
          "internalType": "address",
          "name": "sender",
          "type": "address"
        },
        {
          "internalType": "address",
          "name": "receiver",
          "type": "address"
        }
      ],
      "name": "checkBlacklistAllowed",
      "outputs": [
        {
          "internalType": "bool",
          "name": "",
          "type": "bool"
        }
      ],
      "stateMutability": "view",
      "type": "function"
    },
    {
      "inputs": [
        {
          "internalType": "address",
          "name": "sender",
          "type": "address"
        },
        {
          "internalType": "address",
          "name": "receiver",
          "type": "address"
        }
      ],
      "name": "checkWhitelistAllowed",
      "outputs": [
        {
          "internalType": "bool",
          "name": "",
          "type": "bool"
        }
      ],
      "stateMutability": "view",
      "type": "function"
    },
    {
      "inputs": [],
      "name": "decimals",
      "outputs": [
        {
          "internalType": "uint8",
          "name": "",
          "type": "uint8"
        }
      ],
      "stateMutability": "view",
      "type": "function"
    },
    {
      "inputs": [
        {
          "internalType": "address",
          "name": "spender",
          "type": "address"
        },
        {
          "internalType": "uint256",
          "name": "subtractedValue",
          "type": "uint256"
        }
      ],
      "name": "decreaseAllowance",
      "outputs": [
        {
          "internalType": "bool",
          "name": "",
          "type": "bool"
        }
      ],
      "stateMutability": "nonpayable",
      "type": "function"
    },
    {
      "inputs": [],
      "name": "getLogicAddress",
      "outputs": [
        {
          "internalType": "address",
          "name": "logicAddress",
          "type": "address"
        }
      ],
      "stateMutability": "view",
      "type": "function"
    },
    {
      "inputs": [
        {
          "internalType": "address",
          "name": "spender",
          "type": "address"
        },
        {
          "internalType": "uint256",
          "name": "addedValue",
          "type": "uint256"
        }
      ],
      "name": "increaseAllowance",
      "outputs": [
        {
          "internalType": "bool",
          "name": "",
          "type": "bool"
        }
      ],
      "stateMutability": "nonpayable",
      "type": "function"
    },
    {
      "inputs": [
        {
          "internalType": "string",
          "name": "name",
          "type": "string"
        },
        {
          "internalType": "string",
          "name": "symbol",
          "type": "string"
        },
        {
          "internalType": "uint8",
          "name": "decimals",
          "type": "uint8"
        }
      ],
      "name": "initialize",
      "outputs": [],
      "stateMutability": "nonpayable",
      "type": "function"
    },
    {
      "inputs": [
        {
          "internalType": "address",
          "name": "owner",
          "type": "address"
        },
        {
          "internalType": "string",
          "name": "name",
          "type": "string"
        },
        {
          "internalType": "string",
          "name": "symbol",
          "type": "string"
        },
        {
          "internalType": "uint8",
          "name": "decimals",
          "type": "uint8"
        },
        {
          "internalType": "uint256",
          "name": "initialSupply",
          "type": "uint256"
        },
        {
          "internalType": "bool",
          "name": "whitelistEnabled",
          "type": "bool"
        }
      ],
      "name": "initialize",
      "outputs": [],
      "stateMutability": "nonpayable",
      "type": "function"
    },
    {
      "inputs": [],
      "name": "isBlacklistEnabled",
      "outputs": [
        {
          "internalType": "bool",
          "name": "",
          "type": "bool"
        }
      ],
      "stateMutability": "view",
      "type": "function"
    },
    {
      "inputs": [
        {
          "internalType": "address",
          "name": "account",
          "type": "address"
        }
      ],
      "name": "isBlacklister",
      "outputs": [
        {
          "internalType": "bool",
          "name": "",
          "type": "bool"
        }
      ],
      "stateMutability": "view",
      "type": "function"
    },
    {
      "inputs": [
        {
          "internalType": "address",
          "name": "account",
          "type": "address"
        }
      ],
      "name": "isBurner",
      "outputs": [
        {
          "internalType": "bool",
          "name": "",
          "type": "bool"
        }
      ],
      "stateMutability": "view",
      "type": "function"
    },
    {
      "inputs": [
        {
          "internalType": "address",
          "name": "account",
          "type": "address"
        }
      ],
      "name": "isMinter",
      "outputs": [
        {
          "internalType": "bool",
          "name": "",
          "type": "bool"
        }
      ],
      "stateMutability": "view",
      "type": "function"
    },
    {
      "inputs": [
        {
          "internalType": "address",
          "name": "account",
          "type": "address"
        }
      ],
      "name": "isOwner",
      "outputs": [
        {
          "internalType": "bool",
          "name": "",
          "type": "bool"
        }
      ],
      "stateMutability": "view",
      "type": "function"
    },
    {
      "inputs": [
        {
          "internalType": "address",
          "name": "account",
          "type": "address"
        }
      ],
      "name": "isPauser",
      "outputs": [
        {
          "internalType": "bool",
          "name": "",
          "type": "bool"
        }
      ],
      "stateMutability": "view",
      "type": "function"
    },
    {
      "inputs": [
        {
          "internalType": "address",
          "name": "account",
          "type": "address"
        }
      ],
      "name": "isRevoker",
      "outputs": [
        {
          "internalType": "bool",
          "name": "",
          "type": "bool"
        }
      ],
      "stateMutability": "view",
      "type": "function"
    },
    {
      "inputs": [],
      "name": "isWhitelistEnabled",
      "outputs": [
        {
          "internalType": "bool",
          "name": "",
          "type": "bool"
        }
      ],
      "stateMutability": "view",
      "type": "function"
    },
    {
      "inputs": [
        {
          "internalType": "address",
          "name": "account",
          "type": "address"
        }
      ],
      "name": "isWhitelister",
      "outputs": [
        {
          "internalType": "bool",
          "name": "",
          "type": "bool"
        }
      ],
      "stateMutability": "view",
      "type": "function"
    },
    {
      "inputs": [
        {
          "internalType": "address",
          "name": "account",
          "type": "address"
        },
        {
          "internalType": "uint256",
          "name": "amount",
          "type": "uint256"
        }
      ],
      "name": "mint",
      "outputs": [
        {
          "internalType": "bool",
          "name": "",
          "type": "bool"
        }
      ],
      "stateMutability": "nonpayable",
      "type": "function"
    },
    {
      "inputs": [],
      "name": "name",
      "outputs": [
        {
          "internalType": "string",
          "name": "",
          "type": "string"
        }
      ],
      "stateMutability": "view",
      "type": "function"
    },
    {
      "inputs": [
        {
          "internalType": "uint8",
          "name": "",
          "type": "uint8"
        },
        {
          "internalType": "uint8",
          "name": "",
          "type": "uint8"
        }
      ],
      "name": "outboundWhitelistsEnabled",
      "outputs": [
        {
          "internalType": "bool",
          "name": "",
          "type": "bool"
        }
      ],
      "stateMutability": "view",
      "type": "function"
    },
    {
      "inputs": [],
      "name": "pause",
      "outputs": [],
      "stateMutability": "nonpayable",
      "type": "function"
    },
    {
      "inputs": [],
      "name": "paused",
      "outputs": [
        {
          "internalType": "bool",
          "name": "",
          "type": "bool"
        }
      ],
      "stateMutability": "view",
      "type": "function"
    },
    {
      "inputs": [],
      "name": "proxiableUUID",
      "outputs": [
        {
          "internalType": "bytes32",
          "name": "",
          "type": "bytes32"
        }
      ],
      "stateMutability": "pure",
      "type": "function"
    },
    {
      "inputs": [
        {
          "internalType": "address",
          "name": "account",
          "type": "address"
        }
      ],
      "name": "removeBlacklister",
      "outputs": [],
      "stateMutability": "nonpayable",
      "type": "function"
    },
    {
      "inputs": [
        {
          "internalType": "address",
          "name": "account",
          "type": "address"
        }
      ],
      "name": "removeBurner",
      "outputs": [],
      "stateMutability": "nonpayable",
      "type": "function"
    },
    {
      "inputs": [
        {
          "internalType": "address",
          "name": "addressToRemove",
          "type": "address"
        }
      ],
      "name": "removeFromBlacklist",
      "outputs": [],
      "stateMutability": "nonpayable",
      "type": "function"
    },
    {
      "inputs": [
        {
          "internalType": "address",
          "name": "addressToRemove",
          "type": "address"
        }
      ],
      "name": "removeFromWhitelist",
      "outputs": [],
      "stateMutability": "nonpayable",
      "type": "function"
    },
    {
      "inputs": [
        {
          "internalType": "address",
          "name": "account",
          "type": "address"
        }
      ],
      "name": "removeMinter",
      "outputs": [],
      "stateMutability": "nonpayable",
      "type": "function"
    },
    {
      "inputs": [
        {
          "internalType": "address",
          "name": "account",
          "type": "address"
        }
      ],
      "name": "removeOwner",
      "outputs": [],
      "stateMutability": "nonpayable",
      "type": "function"
    },
    {
      "inputs": [
        {
          "internalType": "address",
          "name": "account",
          "type": "address"
        }
      ],
      "name": "removePauser",
      "outputs": [],
      "stateMutability": "nonpayable",
      "type": "function"
    },
    {
      "inputs": [
        {
          "internalType": "address",
          "name": "account",
          "type": "address"
        }
      ],
      "name": "removeRevoker",
      "outputs": [],
      "stateMutability": "nonpayable",
      "type": "function"
    },
    {
      "inputs": [
        {
          "internalType": "address",
          "name": "account",
          "type": "address"
        }
      ],
      "name": "removeWhitelister",
      "outputs": [],
      "stateMutability": "nonpayable",
      "type": "function"
    },
    {
      "inputs": [
        {
          "internalType": "address",
          "name": "from",
          "type": "address"
        },
        {
          "internalType": "uint256",
          "name": "amount",
          "type": "uint256"
        }
      ],
      "name": "revoke",
      "outputs": [
        {
          "internalType": "bool",
          "name": "",
          "type": "bool"
        }
      ],
      "stateMutability": "nonpayable",
      "type": "function"
    },
    {
      "inputs": [
        {
          "internalType": "address",
          "name": "from",
          "type": "address"
        },
        {
          "internalType": "address",
          "name": "to",
          "type": "address"
        },
        {
          "internalType": "uint256",
          "name": "amount",
          "type": "uint256"
        }
      ],
      "name": "revokeToAddress",
      "outputs": [
        {
          "internalType": "bool",
          "name": "",
          "type": "bool"
        }
      ],
      "stateMutability": "nonpayable",
      "type": "function"
    },
    {
      "inputs": [
        {
          "internalType": "bool",
          "name": "enabled",
          "type": "bool"
        }
      ],
      "name": "setBlacklistEnabled",
      "outputs": [],
      "stateMutability": "nonpayable",
      "type": "function"
    },
    {
      "inputs": [
        {
          "internalType": "bool",
          "name": "enabled",
          "type": "bool"
        }
      ],
      "name": "setWhitelistEnabled",
      "outputs": [],
      "stateMutability": "nonpayable",
      "type": "function"
    },
    {
      "inputs": [],
      "name": "symbol",
      "outputs": [
        {
          "internalType": "string",
          "name": "",
          "type": "string"
        }
      ],
      "stateMutability": "view",
      "type": "function"
    },
    {
      "inputs": [],
      "name": "totalSupply",
      "outputs": [
        {
          "internalType": "uint256",
          "name": "",
          "type": "uint256"
        }
      ],
      "stateMutability": "view",
      "type": "function"
    },
    {
      "inputs": [],
      "name": "unpause",
      "outputs": [],
      "stateMutability": "nonpayable",
      "type": "function"
    },
    {
      "inputs": [
        {
          "internalType": "address",
          "name": "newAddress",
          "type": "address"
        }
      ],
      "name": "updateCodeAddress",
      "outputs": [],
      "stateMutability": "nonpayable",
      "type": "function"
    },
    {
      "inputs": [
        {
          "internalType": "uint8",
          "name": "sourceWhitelist",
          "type": "uint8"
        },
        {
          "internalType": "uint8",
          "name": "destinationWhitelist",
          "type": "uint8"
        },
        {
          "internalType": "bool",
          "name": "newEnabledValue",
          "type": "bool"
        }
      ],
      "name": "updateOutboundWhitelistEnabled",
      "outputs": [],
      "stateMutability": "nonpayable",
      "type": "function"
    },
    {
      "inputs": [
        {
          "internalType": "address",
          "name": "from",
          "type": "address"
        },
        {
          "internalType": "address",
          "name": "to",
          "type": "address"
        },
        {
          "internalType": "uint256",
          "name": "amt",
          "type": "uint256"
        }
      ],
      "name": "detectTransferRestriction",
      "outputs": [
        {
          "internalType": "uint8",
          "name": "",
          "type": "uint8"
        }
      ],
      "stateMutability": "view",
      "type": "function"
    },
    {
      "inputs": [
        {
          "internalType": "uint8",
          "name": "restrictionCode",
          "type": "uint8"
        }
      ],
      "name": "messageForTransferRestriction",
      "outputs": [
        {
          "internalType": "string",
          "name": "",
          "type": "string"
        }
      ],
      "stateMutability": "view",
      "type": "function"
    },
    {
      "inputs": [
        {
          "internalType": "address",
          "name": "to",
          "type": "address"
        },
        {
          "internalType": "uint256",
          "name": "value",
          "type": "uint256"
        }
      ],
      "name": "transfer",
      "outputs": [
        {
          "internalType": "bool",
          "name": "success",
          "type": "bool"
        }
      ],
      "stateMutability": "nonpayable",
      "type": "function"
    },
    {
      "inputs": [
        {
          "internalType": "address",
          "name": "from",
          "type": "address"
        },
        {
          "internalType": "address",
          "name": "to",
          "type": "address"
        },
        {
          "internalType": "uint256",
          "name": "value",
          "type": "uint256"
        }
      ],
      "name": "transferFrom",
      "outputs": [
        {
          "internalType": "bool",
          "name": "success",
          "type": "bool"
        }
      ],
      "stateMutability": "nonpayable",
      "type": "function"
    }
  ],
  "bytecode": "0x608060405234801561001057600080fd5b50613ac0806100206000396000f3fe608060405234801561001057600080fd5b50600436106104075760003560e01c80637f4ab1dd11610220578063a9059cbb11610130578063dd62ed3e116100b8578063eac449d911610087578063eac449d914610e95578063eaf9144a14610ec1578063f2c2b9ae14610ee7578063f44637ba14610f15578063f6c4b01f14610f3b57610407565b8063dd62ed3e14610e11578063e7984d1714610e3f578063e959450814610e47578063ea72d6ee14610e6f57610407565b8063ba54b1ce116100ff578063ba54b1ce14610d6f578063c06f8b9414610d77578063c893446214610d9d578063cc00551e14610da5578063d4ce141514610ddb57610407565b8063a9059cbb14610cd3578063aa271e1a14610cff578063abd108ba14610d25578063b66cd56c14610d4957610407565b806392e6d68b116101b357806397af67441161018257806397af674414610c27578063983b2d5614610c2f5780639dc29fac14610c555780639fcf100714610c81578063a457c2d714610ca757610407565b806392e6d68b14610ba55780639437e2fe14610bcb57806395d89b4114610bf9578063961a66f614610c0157610407565b80638771cd2d116101ef5780638771cd2d14610a08578063878dd33214610b515780638ab1d68114610b59578063912a988514610b7f57610407565b80637f4ab1dd1461099457806382c3f79c146109b457806382dc1ec4146109da5780638456cb5914610a0057610407565b80633973b5961161031b57806352d1902d116102ae5780636b2c0f551161027d5780636b2c0f55146108d65780637065cb48146108fc57806370a08231146109225780637bb06eea146109485780637d0c269f1461096e57610407565b806352d1902d14610898578063537df3b6146108a05780635c975abb146108c6578063611649c1146108ce57610407565b80634334614a116102ea5780634334614a1461081e57806344337ea11461084457806346fbf68e1461086a578063489c1b251461089057610407565b80633973b596146107b05780633f4ba83a146107e25780633f713709146107ea57806340c10f19146107f257610407565b8063173825d91161039e57806323b872dd1161036d57806323b872dd146106fa5780632f54bf6e146107305780633092afd514610756578063313ce5671461077c578063395093511461078457610407565b8063173825d9146106aa57806318160ddd146106d0578063184d69ab146106ea5780631fb45ec0146106f257610407565b8063095ea7b3116103da578063095ea7b3146104ff5780630e969a051461053f5780631201cbd01461055d5780631624f6c61461057c57610407565b80630263b8581461040c578063028468581461043d578063052d9e7e1461046357806306fdde0314610482575b600080fd5b61043b6004803603604081101561042257600080fd5b5080356001600160a01b0316906020013560ff16610f61565b005b61043b6004803603602081101561045357600080fd5b50356001600160a01b0316610fb3565b61043b6004803603602081101561047957600080fd5b50351515611003565b61048a611050565b6040805160208082528351818301528351919283929083019185019080838360005b838110156104c45781810151838201526020016104ac565b50505050905090810190601f1680156104f15780820380516001836020036101000a031916815260200191505b509250505060405180910390f35b61052b6004803603604081101561051557600080fd5b506001600160a01b0381351690602001356110e6565b604080519115158252519081900360200190f35b610547611104565b6040805160ff9092168252519081900360200190f35b61043b6004803603602081101561057357600080fd5b50351515611109565b61043b6004803603606081101561059257600080fd5b810190602081018135600160201b8111156105ac57600080fd5b8201836020820111156105be57600080fd5b803590602001918460018302840111600160201b831117156105df57600080fd5b91908080601f0160208091040260200160405190810160405280939291908181526020018383808284376000920191909152509295949360208101935035915050600160201b81111561063157600080fd5b82018360208201111561064357600080fd5b803590602001918460018302840111600160201b8311171561066457600080fd5b91908080601f0160208091040260200160405190810160405280939291908181526020018383808284376000920191909152509295505050903560ff1691506111569050565b61043b600480360360208110156106c057600080fd5b50356001600160a01b0316611232565b6106d861127f565b60408051918252519081900360200190f35b61052b611285565b61054761128e565b61052b6004803603606081101561071057600080fd5b506001600160a01b03813581169160208101359091169060400135611293565b61052b6004803603602081101561074657600080fd5b50356001600160a01b0316611356565b61043b6004803603602081101561076c57600080fd5b50356001600160a01b031661136b565b6105476113b8565b61052b6004803603604081101561079a57600080fd5b506001600160a01b0381351690602001356113c1565b61043b600480360360608110156107c657600080fd5b5060ff8135811691602081013590911690604001351515611414565b61043b611468565b610547611504565b61052b6004803603604081101561080857600080fd5b506001600160a01b038135169060200135611509565b61052b6004803603602081101561083457600080fd5b50356001600160a01b0316611561565b61043b6004803603602081101561085a57600080fd5b50356001600160a01b031661156e565b61052b6004803603602081101561088057600080fd5b50356001600160a01b03166115cb565b61048a6115d8565b6106d86115f4565b61043b600480360360208110156108b657600080fd5b50356001600160a01b0316611606565b61052b611663565b61048a61166c565b61043b600480360360208110156108ec57600080fd5b50356001600160a01b03166116a5565b61043b6004803603602081101561091257600080fd5b50356001600160a01b03166116f2565b6106d86004803603602081101561093857600080fd5b50356001600160a01b031661173f565b61043b6004803603602081101561095e57600080fd5b50356001600160a01b031661175a565b61052b6004803603602081101561098457600080fd5b50356001600160a01b03166117a7565b61048a600480360360208110156109aa57600080fd5b503560ff166117b4565b61043b600480360360208110156109ca57600080fd5b50356001600160a01b0316611805565b61043b600480360360208110156109f057600080fd5b50356001600160a01b0316611852565b61043b61189f565b61043b600480360360c0811015610a1e57600080fd5b6001600160a01b038235169190810190604081016020820135600160201b811115610a4857600080fd5b820183602082011115610a5a57600080fd5b803590602001918460018302840111600160201b83111715610a7b57600080fd5b91908080601f0160208091040260200160405190810160405280939291908181526020018383808284376000920191909152509295949360208101935035915050600160201b811115610acd57600080fd5b820183602082011115610adf57600080fd5b803590602001918460018302840111600160201b83111715610b0057600080fd5b91908080601f0160208091040260200160405190810160405280939291908181526020018383808284376000920191909152509295505060ff83351693505050602081013590604001351515611936565b61052b611a07565b61043b60048036036020811015610b6f57600080fd5b50356001600160a01b0316611a10565b61043b60048036036020811015610b9557600080fd5b50356001600160a01b0316611a5d565b61054760048036036020811015610bbb57600080fd5b50356001600160a01b0316611aaa565b61052b60048036036040811015610be157600080fd5b506001600160a01b0381358116916020013516611abf565b61048a611b44565b61043b60048036036020811015610c1757600080fd5b50356001600160a01b0316611ba5565b61048a611bf2565b61043b60048036036020811015610c4557600080fd5b50356001600160a01b0316611c20565b61052b60048036036040811015610c6b57600080fd5b506001600160a01b038135169060200135611c6d565b61043b60048036036020811015610c9757600080fd5b50356001600160a01b0316611cbe565b61052b60048036036040811015610cbd57600080fd5b506001600160a01b038135169060200135611d0b565b61052b60048036036040811015610ce957600080fd5b506001600160a01b038135169060200135611d73565b61052b60048036036020811015610d1557600080fd5b50356001600160a01b0316611df7565b610d2d611e04565b604080516001600160a01b039092168252519081900360200190f35b61052b60048036036020811015610d5f57600080fd5b50356001600160a01b0316611e17565b610547611e24565b61043b60048036036020811015610d8d57600080fd5b50356001600160a01b0316611e29565b61048a611e76565b61052b60048036036060811015610dbb57600080fd5b506001600160a01b03813581169160208101359091169060400135611e92565b61054760048036036060811015610df157600080fd5b506001600160a01b03813581169160208101359091169060400135611eeb565b6106d860048036036040811015610e2757600080fd5b506001600160a01b0381358116916020013516611f0e565b61048a611f39565b61052b60048036036040811015610e5d57600080fd5b5060ff81358116916020013516611f5c565b61052b60048036036020811015610e8557600080fd5b50356001600160a01b0316611f7c565b61052b60048036036040811015610eab57600080fd5b506001600160a01b038135169060200135611f91565b61043b60048036036020811015610ed757600080fd5b50356001600160a01b0316611fe1565b61052b60048036036040811015610efd57600080fd5b506001600160a01b038135811691602001351661202e565b61043b60048036036020811015610f2b57600080fd5b50356001600160a01b0316612089565b61052b60048036036020811015610f5157600080fd5b50356001600160a01b03166120d6565b610f6a336117a7565b610fa55760405162461bcd60e51b815260040180806020018281038252603a8152602001806139a1603a913960400191505060405180910390fd5b610faf82826120e3565b5050565b610fbc33611356565b610ff75760405162461bcd60e51b815260040180806020018281038252602e815260200180613837602e913960400191505060405180910390fd5b61100081612228565b50565b61100c33611356565b6110475760405162461bcd60e51b815260040180806020018281038252602e815260200180613837602e913960400191505060405180910390fd5b6110008161226c565b60338054604080516020601f60026000196101006001881615020190951694909404938401819004810282018101909252828152606093909290918301828280156110dc5780601f106110b1576101008083540402835291602001916110dc565b820191906000526020600020905b8154815290600101906020018083116110bf57829003601f168201915b5050505050905090565b60006110fa6110f36122ab565b84846122af565b5060015b92915050565b600081565b61111233611356565b61114d5760405162461bcd60e51b815260040180806020018281038252602e815260200180613837602e913960400191505060405180910390fd5b6110008161239b565b600054610100900460ff168061116f575061116f6123da565b8061117d575060005460ff16155b6111b85760405162461bcd60e51b815260040180806020018281038252602e8152602001806138f0602e913960400191505060405180910390fd5b600054610100900460ff161580156111e3576000805460ff1961ff0019909116610100171660011790555b83516111f69060339060208701906135fd565b50825161120a9060349060208601906135fd565b506035805460ff191660ff8416179055801561122c576000805461ff00191690555b50505050565b61123b33611356565b6112765760405162461bcd60e51b815260040180806020018281038252602e815260200180613837602e913960400191505060405180910390fd5b611000816123e0565b606a5490565b609f5460ff1681565b600181565b600083838360006112a5848484611eeb565b905060ff8116156112b5826117b4565b9061133e5760405162461bcd60e51b81526004018080602001828103825283818151815260200191508051906020019080838360005b838110156113035781810151838201526020016112eb565b50505050905090810190601f1680156113305780820380516001836020036101000a031916815260200191505b509250505060405180910390fd5b5061134a888888612424565b98975050505050505050565b6000611363609d8361249e565b90505b919050565b61137433611356565b6113af5760405162461bcd60e51b815260040180806020018281038252602e815260200180613837602e913960400191505060405180910390fd5b61100081612505565b60355460ff1690565b60006110fa6113ce6122ab565b8461140f85606960006113df6122ab565b6001600160a01b03908116825260208083019390935260409182016000908120918c168152925290205490612549565b6122af565b61141d336117a7565b6114585760405162461bcd60e51b815260040180806020018281038252603a8152602001806139a1603a913960400191505060405180910390fd5b6114638383836125a3565b505050565b611471336115cb565b6114ac5760405162461bcd60e51b81526004018080602001828103825260308152602001806137076030913960400191505060405180910390fd5b60a65460ff166114fa576040805162461bcd60e51b815260206004820152601460248201527314185d5cd8589b194e881b9bdd081c185d5cd95960621b604482015290519081900360640190fd5b61150261261c565b565b600281565b600061151433611df7565b61154f5760405162461bcd60e51b81526004018080602001828103825260308152602001806138076030913960400191505060405180910390fd5b61155a33848461265b565b9392505050565b600061136360a38361249e565b61157733611e17565b6115c2576040805162461bcd60e51b8152602060048201526017602482015276426c61636b6c6973746572526f6c65206d697373696e6760481b604482015290519081900360640190fd5b611000816126bc565b600061136360a58361249e565b6040518060600160405280603d815260200161391e603d913981565b60008051602061388683398151915290565b61160f33611e17565b61165a576040805162461bcd60e51b8152602060048201526017602482015276426c61636b6c6973746572526f6c65206d697373696e6760481b604482015290519081900360640190fd5b611000816127b6565b60a65460ff1690565b6040518060400160405280601b81526020017f526573747269637465642064756520746f20626c61636b6c697374000000000081525081565b6116ae33611356565b6116e95760405162461bcd60e51b815260040180806020018281038252602e815260200180613837602e913960400191505060405180910390fd5b611000816128ab565b6116fb33611356565b6117365760405162461bcd60e51b815260040180806020018281038252602e815260200180613837602e913960400191505060405180910390fd5b611000816128ef565b6001600160a01b031660009081526068602052604090205490565b61176333611356565b61179e5760405162461bcd60e51b815260040180806020018281038252602e815260200180613837602e913960400191505060405180910390fd5b61100081612933565b6000611363609e8361249e565b606060ff8216600314156117fc575060408051808201909152601b81527f526573747269637465642064756520746f20626c61636b6c69737400000000006020820152611366565b61136382612977565b61180e33611356565b6118495760405162461bcd60e51b815260040180806020018281038252602e815260200180613837602e913960400191505060405180910390fd5b61100081612a2b565b61185b33611356565b6118965760405162461bcd60e51b815260040180806020018281038252602e815260200180613837602e913960400191505060405180910390fd5b61100081612a6f565b6118a8336115cb565b6118e35760405162461bcd60e51b81526004018080602001828103825260308152602001806137076030913960400191505060405180910390fd5b60a65460ff161561192e576040805162461bcd60e51b815260206004820152601060248201526f14185d5cd8589b194e881c185d5cd95960821b604482015290519081900360640190fd5b611502612ab3565b600054610100900460ff168061194f575061194f6123da565b8061195d575060005460ff16155b6119985760405162461bcd60e51b815260040180806020018281038252602e8152602001806138f0602e913960400191505060405180910390fd5b600054610100900460ff161580156119c3576000805460ff1961ff0019909116610100171660011790555b6119ce868686611156565b6119d933888561265b565b506119e3876128ef565b6119ec8261226c565b80156119fe576000805461ff00191690555b50505050505050565b60a85460ff1681565b611a19336117a7565b611a545760405162461bcd60e51b815260040180806020018281038252603a8152602001806139a1603a913960400191505060405180910390fd5b61100081612af5565b611a6633611356565b611aa15760405162461bcd60e51b815260040180806020018281038252602e815260200180613837602e913960400191505060405180910390fd5b61100081612be5565b60a06020526000908152604090205460ff1681565b609f5460009060ff16611ad4575060016110fe565b6001600160a01b03808416600090815260a0602052604080822054928516825290205460ff9182169116811580611b0c575060ff8116155b15611b1c576000925050506110fe565b60ff918216600090815260a16020908152604080832093851683529290522054169392505050565b60348054604080516020601f60026000196101006001881615020190951694909404938401819004810282018101909252828152606093909290918301828280156110dc5780601f106110b1576101008083540402835291602001916110dc565b611bae33611356565b611be95760405162461bcd60e51b815260040180806020018281038252602e815260200180613837602e913960400191505060405180910390fd5b61100081612ced565b60405180604001604052806012815260200171556e6b6e6f776e204572726f7220436f646560701b81525081565b611c2933611356565b611c645760405162461bcd60e51b815260040180806020018281038252602e815260200180613837602e913960400191505060405180910390fd5b61100081612d31565b6000611c7833611561565b611cb35760405162461bcd60e51b81526004018080602001828103825260308152602001806137b16030913960400191505060405180910390fd5b61155a338484612d75565b611cc733611356565b611d025760405162461bcd60e51b815260040180806020018281038252602e815260200180613837602e913960400191505060405180910390fd5b61100081612dd6565b60006110fa611d186122ab565b8461140f85604051806060016040528060258152602001613a666025913960696000611d426122ab565b6001600160a01b03908116825260208083019390935260409182016000908120918d16815292529020549190612e1a565b60003383836000611d85848484611eeb565b905060ff811615611d95826117b4565b90611de15760405162461bcd60e51b81526020600482018181528351602484015283519092839260449091019190850190808383600083156113035781810151838201526020016112eb565b50611dec8787612e74565b979650505050505050565b600061136360a28361249e565b6000805160206138868339815191525490565b600061136360a78361249e565b600381565b611e3233611356565b611e6d5760405162461bcd60e51b815260040180806020018281038252602e815260200180613837602e913960400191505060405180910390fd5b61100081612eed565b6040518060600160405280603c81526020016139ff603c913981565b6000611e9d336120d6565b611ed85760405162461bcd60e51b81526004018080602001828103825260328152602001806137596032913960400191505060405180910390fd5b611ee3848484612f31565b949350505050565b6000611ef7848461202e565b611f035750600361155a565b611ee3848484612f9d565b6001600160a01b03918216600090815260696020908152604080832093909416825291909152205490565b604051806040016040528060078152602001665355434345535360c81b81525081565b60a160209081526000928352604080842090915290825290205460ff1681565b60a96020526000908152604090205460ff1681565b6000611f9c336120d6565b611fd75760405162461bcd60e51b81526004018080602001828103825260328152602001806137596032913960400191505060405180910390fd5b61155a8383612fea565b611fea33611356565b6120255760405162461bcd60e51b815260040180806020018281038252602e815260200180613837602e913960400191505060405180910390fd5b61100081613040565b60a85460009060ff16612043575060016110fe565b6001600160a01b038316600090815260a9602052604090205460ff1615801561155a5750506001600160a01b0316600090815260a9602052604090205460ff1615919050565b61209233611356565b6120cd5760405162461bcd60e51b815260040180806020018281038252602e815260200180613837602e913960400191505060405180910390fd5b61100081613084565b600061136360a48361249e565b6001600160a01b0382166121285760405162461bcd60e51b81526004018080602001828103825260268152602001806137e16026913960400191505060405180910390fd5b60ff811661217d576040805162461bcd60e51b815260206004820152601d60248201527f496e76616c69642077686974656c69737420494420737570706c696564000000604482015290519081900360640190fd5b6001600160a01b038216600090815260a060205260409020805460ff83811660ff198316179092551680156121e857604051339060ff8316906001600160a01b038616907fb50a30a0fa972f89fbb2b514d12b31f5a5d64f53603402de7939742cd8507f6e90600090a45b604051339060ff8416906001600160a01b038616907fca6d1e885708b837a7647aeb7f4163ee4ca96058e08ac767be8d23c972c5027090600090a4505050565b61223360a3826130c8565b60405133906001600160a01b038316907f85222465e0d438163a28671b59fc9ebeb03bf39f880ddd36c8315da7512b31c090600090a350565b609f805460ff191682151590811790915560405133907fb535c5f7f150db8dbf22962fc390e7fa9026b9c29ffad714197bee4620572bd690600090a350565b3390565b6001600160a01b0383166122f45760405162461bcd60e51b81526004018080602001828103825260248152602001806139db6024913960400191505060405180910390fd5b6001600160a01b0382166123395760405162461bcd60e51b81526004018080602001828103825260228152602001806137376022913960400191505060405180910390fd5b6001600160a01b03808416600081815260696020908152604080832094871680845294825291829020859055815185815291517f8c5be1e5ebec7d5bd14f71427d1e84f3dd0314c0f7b2291e5b200ac8c7c3b9259281900390910190a3505050565b60a8805460ff191682151590811790915560405133907f0254250bff2b56bce9719dfb6237446b9159bfbe2368f9dfe449d85da99b2be090600090a350565b303b1590565b6123eb609d826130c8565b60405133906001600160a01b038316907fe594d081b4382713733fe631966432c9cea5199afb2db5c3c1931f9f9300367990600090a350565b60008383836000612436848484611eeb565b905060ff811615612446826117b4565b906124925760405162461bcd60e51b81526020600482018181528351602484015283519092839260449091019190850190808383600083156113035781810151838201526020016112eb565b5061134a88888861312f565b60006001600160a01b0382166124e55760405162461bcd60e51b81526004018080602001828103825260228152602001806138ce6022913960400191505060405180910390fd5b506001600160a01b03166000908152602091909152604090205460ff1690565b61251060a2826130c8565b60405133906001600160a01b038316907f4b5ef9a786cf64a7d82ebcf2d5132667edc9faef4ac36260d9a9e52c526b623290600090a350565b60008282018381101561155a576040805162461bcd60e51b815260206004820152601b60248201527f536166654d6174683a206164646974696f6e206f766572666c6f770000000000604482015290519081900360640190fd5b60ff838116600081815260a16020908152604080832087861680855290835292819020805487151560ff1982168117909255825196168015158752928601528051919492939233927fb0353d563a9aa5231878c83727dc723a3cb8a38c2917f8ac2b777aa564c8a0d5929181900390910190a450505050565b60a6805460ff191690556040805133815290517f5db9ee0a495bf2e6ff9c91a7834c1ba4fdd244a5e8aa4e537bd38aeae4b073aa9181900360200190a1565b600061266783836131b1565b826001600160a01b0316846001600160a01b03167fab8530f87dc9b59234c4623bf917212bb2536d647574c8e7e5da92c2ede0c9f8846040518082815260200191505060405180910390a35060019392505050565b6001600160a01b038116612708576040805162461bcd60e51b815260206004820152600e60248201526d043616e6e6f7420616464203078360941b604482015290519081900360640190fd5b6001600160a01b038116600090815260a9602052604090205460ff1615612768576040805162461bcd60e51b815260206004820152600f60248201526e105b1c9958591e481bdb881b1a5cdd608a1b604482015290519081900360640190fd5b6001600160a01b038116600081815260a96020526040808220805460ff19166001179055513392917faf6ebb6594c3be37f747a8a4692decee2e128c133145b92b98391af1e942bb5291a350565b6001600160a01b038116612805576040805162461bcd60e51b8152602060048201526011602482015270043616e6e6f742072656d6f76652030783607c1b604482015290519081900360640190fd5b6001600160a01b038116600090815260a9602052604090205460ff16612860576040805162461bcd60e51b815260206004820152600b60248201526a139bdd081bdb881b1a5cdd60aa1b604482015290519081900360640190fd5b6001600160a01b038116600081815260a96020526040808220805460ff19169055513392917fc5d633221a999da7b50bad97ddd6cff0c917455d8651123a6433642833252b7c91a350565b6128b660a5826130c8565b60405133906001600160a01b038316907fb75903ade4a0fdb07d60c882c22c779e2e1c751883c37aecdcc92a8ec72b046e90600090a350565b6128fa609d82613297565b60405133906001600160a01b038316907fc82bdbbf677a2462f2a7e22e4ba9abd209496b69cd7b868b3b1d28f76e09a40a90600090a350565b61293e60a782613297565b60405133906001600160a01b038316907f891e671759c21e48221125d0aa55b5574dc00b3e3225e40f6cb10dde820822ad90600090a350565b606060ff82166129a557506040805180820190915260078152665355434345535360c81b6020820152611366565b60ff8216600114156129d1576040518060600160405280603c81526020016139ff603c91399050611366565b60ff8216600214156129fd576040518060600160405280603d815260200161391e603d91399050611366565b5050604080518082019091526012815271556e6b6e6f776e204572726f7220436f646560701b602082015290565b612a36609e826130c8565b60405133906001600160a01b038316907f3ed21605dd544629fb45f2ccaedcc095ba1dbea540fb6eaf5493a7479856b0be90600090a350565b612a7a60a582613297565b60405133906001600160a01b038316907fe0953c403a52f9dc1fef4202a8d33975c958b727bee0d7b5b328965ddad98d8190600090a350565b60a6805460ff191660011790556040805133815290517f62e78cea01bee320cd4e420270b5ea74000d11b0c9f74754ebdbfc544b05a2589181900360200190a1565b6001600160a01b038116612b3a5760405162461bcd60e51b815260040180806020018281038252602b815260200180613a3b602b913960400191505060405180910390fd5b6001600160a01b038116600090815260a0602052604090205460ff1680612b925760405162461bcd60e51b81526004018080602001828103825260318152602001806136b46031913960400191505060405180910390fd5b6001600160a01b038216600081815260a06020526040808220805460ff1916905551339260ff85169290917fb50a30a0fa972f89fbb2b514d12b31f5a5d64f53603402de7939742cd8507f6e9190a45050565b806001600160a01b03166352d1902d6040518163ffffffff1660e01b815260040160206040518083038186803b158015612c1e57600080fd5b505afa158015612c32573d6000803e3d6000fd5b505050506040513d6020811015612c4857600080fd5b505160008051602061388683398151915214612c9c576040805162461bcd60e51b815260206004820152600e60248201526d4e6f7420636f6d70617469626c6560901b604482015290519081900360640190fd5b600080516020613886833981519152819055604080516001600160a01b038316815290517feeaed647dc622e55877c30943e5c1d4feb92d1b8cfcc88d974163e9787bde9af9181900360200190a150565b612cf860a482613297565b60405133906001600160a01b038316907f2b5f18afd9a7b21f41bf023b012b3d4c8a22a21b79fa425cd4494ecbe297019690600090a350565b612d3c60a282613297565b60405133906001600160a01b038316907f3c091dafb1d99e4a4c333024492eac3b2cd8bf921a3dd547c937db33be307bb890600090a350565b6000612d818383613369565b826001600160a01b0316846001600160a01b03167fbac40739b0d4ca32fa2d82fc91630465ba3eddd1598da6fca393b26fb63b9453846040518082815260200191505060405180910390a35060019392505050565b612de160a7826130c8565b60405133906001600160a01b038316907fc76ab32d91026761e52ef1016d8293a11dbb26424e34581575cefc484d10c6f390600090a350565b60008184841115612e6c5760405162461bcd60e51b81526020600482018181528351602484015283519092839260449091019190850190808383600083156113035781810151838201526020016112eb565b505050900390565b60003383836000612e86848484611eeb565b905060ff811615612e96826117b4565b90612ee25760405162461bcd60e51b81526020600482018181528351602484015283519092839260449091019190850190808383600083156113035781810151838201526020016112eb565b50611dec8787613459565b612ef860a4826130c8565b60405133906001600160a01b038316907fb6fe3ab11eb9ab1d9f1d41c8f42a5d72d10122099ba1548e4a6d1a4d8cefec4b90600090a350565b6000612f3e848484613469565b826001600160a01b0316846001600160a01b0316336001600160a01b03167f64a989949bb484d2d275229a9d310b5d9dc273a560dd639c337aaf6f67fb73b6856040518082815260200191505060405180910390a45060019392505050565b6000612fa7611663565b15612fb45750600261155a565b612fbd84611356565b15612fca5750600061155a565b612fd48484611abf565b612fe05750600161155a565b5060009392505050565b6000612ff7833384613469565b6040805183815290516001600160a01b0385169133917fb698e31a2abee5824d0d7bcfd2339aead7f9e9ae413fba50bf554ff3fa470b7b9181900360200190a350600192915050565b61304b609e82613297565b60405133906001600160a01b038316907f5f36f4f5999f34947706fca376b955319b858573bf9d6bc59303c9a4cd80ced090600090a350565b61308f60a382613297565b60405133906001600160a01b038316907f86515ebaad527298e98929c064c075f5a2604cc80afc0db29e73c01a36f8e98c90600090a350565b6130d2828261249e565b61310d5760405162461bcd60e51b81526004018080602001828103825260218152602001806138656021913960400191505060405180910390fd5b6001600160a01b0316600090815260209190915260409020805460ff19169055565b600061313c848484613469565b6131a7846131486122ab565b61140f856040518060600160405280602881526020016138a6602891396001600160a01b038a166000908152606960205260408120906131866122ab565b6001600160a01b031681526020810191909152604001600020549190612e1a565b5060019392505050565b6001600160a01b03821661320c576040805162461bcd60e51b815260206004820152601f60248201527f45524332303a206d696e7420746f20746865207a65726f206164647265737300604482015290519081900360640190fd5b606a546132199082612549565b606a556001600160a01b03821660009081526068602052604090205461323f9082612549565b6001600160a01b03831660008181526068602090815260408083209490945583518581529351929391927fddf252ad1be2c89b69c2b068fc378daa952ba7f163c4a11628f55a4df523b3ef9281900390910190a35050565b6001600160a01b0381166132e8576040805162461bcd60e51b8152602060048201526013602482015272496e76616c696420307830206164647265737360681b604482015290519081900360640190fd5b6132f2828261249e565b15613344576040805162461bcd60e51b815260206004820152601f60248201527f526f6c65733a206163636f756e7420616c72656164792068617320726f6c6500604482015290519081900360640190fd5b6001600160a01b0316600090815260209190915260409020805460ff19166001179055565b6001600160a01b0382166133ae5760405162461bcd60e51b815260040180806020018281038252602181526020018061395b6021913960400191505060405180910390fd5b6133eb816040518060600160405280602281526020016136e5602291396001600160a01b0385166000908152606860205260409020549190612e1a565b6001600160a01b038316600090815260686020526040902055606a5461341190826135bb565b606a556040805182815290516000916001600160a01b038516917fddf252ad1be2c89b69c2b068fc378daa952ba7f163c4a11628f55a4df523b3ef9181900360200190a35050565b60006110fa6134666122ab565b84845b6001600160a01b0383166134ae5760405162461bcd60e51b815260040180806020018281038252602581526020018061397c6025913960400191505060405180910390fd5b6001600160a01b0382166134f35760405162461bcd60e51b81526004018080602001828103825260238152602001806136916023913960400191505060405180910390fd5b6135308160405180606001604052806026815260200161378b602691396001600160a01b0386166000908152606860205260409020549190612e1a565b6001600160a01b03808516600090815260686020526040808220939093559084168152205461355f9082612549565b6001600160a01b0380841660008181526068602090815260409182902094909455805185815290519193928716927fddf252ad1be2c89b69c2b068fc378daa952ba7f163c4a11628f55a4df523b3ef92918290030190a3505050565b600061155a83836040518060400160405280601e81526020017f536166654d6174683a207375627472616374696f6e206f766572666c6f770000815250612e1a565b828054600181600116156101000203166002900490600052602060002090601f016020900481019282601f1061363e57805160ff191683800117855561366b565b8280016001018555821561366b579182015b8281111561366b578251825591602001919060010190613650565b5061367792915061367b565b5090565b5b80821115613677576000815560010161367c56fe45524332303a207472616e7366657220746f20746865207a65726f2061646472657373416464726573732063616e6e6f742062652072656d6f7665642066726f6d20696e76616c69642077686974656c6973742e45524332303a206275726e20616d6f756e7420657863656564732062616c616e6365506175736572526f6c653a2063616c6c657220646f6573206e6f742068617665207468652050617573657220726f6c6545524332303a20617070726f766520746f20746865207a65726f20616464726573735265766f6b6572526f6c653a2063616c6c657220646f6573206e6f74206861766520746865205265766f6b657220726f6c6545524332303a207472616e7366657220616d6f756e7420657863656564732062616c616e63654275726e6572526f6c653a2063616c6c657220646f6573206e6f74206861766520746865204275726e657220726f6c6543616e6e6f742061646420616464726573732030783020746f20612077686974656c6973742e4d696e746572526f6c653a2063616c6c657220646f6573206e6f74206861766520746865204d696e74657220726f6c654f776e6572526f6c653a2063616c6c657220646f6573206e6f74206861766520746865204f776e657220726f6c65526f6c65733a206163636f756e7420646f6573206e6f74206861766520726f6c65c5f16f0fcc639fa48a6947836d9850f504798523bf8c9a3a87d5876cf622bcf745524332303a207472616e7366657220616d6f756e74206578636565647320616c6c6f77616e6365526f6c65733a206163636f756e7420697320746865207a65726f2061646472657373436f6e747261637420696e7374616e63652068617320616c7265616479206265656e20696e697469616c697a6564546865207472616e736665722077617320726573747269637465642064756520746f2074686520636f6e7472616374206265696e67207061757365642e45524332303a206275726e2066726f6d20746865207a65726f206164647265737345524332303a207472616e736665722066726f6d20746865207a65726f206164647265737357686974656c6973746572526f6c653a2063616c6c657220646f6573206e6f742068617665207468652057686974656c697374657220726f6c6545524332303a20617070726f76652066726f6d20746865207a65726f2061646472657373546865207472616e736665722077617320726573747269637465642064756520746f207768697465206c69737420636f6e66696775726174696f6e2e43616e6e6f742072656d6f76652061646472657373203078302066726f6d20612077686974656c6973742e45524332303a2064656372656173656420616c6c6f77616e63652062656c6f77207a65726fa2646970667358221220f554656b65ff78ac0208f04e0650695d1d40ad823935cad2f72fb9fc7d23a93364736f6c634300060c0033",
  "immutableReferences": {},
  "source": "pragma solidity 0.6.12;\n\nimport \"./TokenSoftToken.sol\";\nimport \"./capabilities/Blacklistable.sol\";\nimport \"./capabilities/RevocableToAddress.sol\";\n\n/**\n @title Tokensoft Token V2\n @notice This contract implements the ERC1404 Interface to add transfer restrictions to a standard ER20 token.\n The role based access controls allow the Owner accounts to determine which permissions are granted to admin accounts.\n Admin accounts can enable, disable, and configure the token restrictions built into the contract.\n */\ncontract TokenSoftTokenV2 is TokenSoftToken, Blacklistable, RevocableToAddress {\n\n  /// @notice The from/to account has been explicitly denied the ability to send/receive\n  uint8 public constant FAILURE_BLACKLIST = 3;\n  string public constant FAILURE_BLACKLIST_MESSAGE = \"Restricted due to blacklist\";\n\n   /**\n   @notice Used to detect if a proposed transfer will be allowed\n   @dev A 0 return value is success - all other codes should be displayed to user via messageForTransferRestriction\n    */\n  function detectTransferRestriction (address from, address to, uint256 amt)\n        public\n        override\n        view\n        returns (uint8)\n    {\n        // Restrictions are enabled, so verify the whitelist config allows the transfer.\n        // Logic defined in Blacklistable parent class\n        if(!checkBlacklistAllowed(from, to)) {\n            return FAILURE_BLACKLIST;\n        }\n\n        return TokenSoftToken.detectTransferRestriction(from, to, amt);\n    }\n\n  /**\n  @notice Returns a human readable string for the error returned via detectTransferRestriction\n  */ \n  function messageForTransferRestriction (uint8 restrictionCode)\n        public\n        override\n        view\n        returns (string memory)\n    {\n        if (restrictionCode == FAILURE_BLACKLIST) {\n            return FAILURE_BLACKLIST_MESSAGE;\n        }\n        \n        return TokenSoftToken.messageForTransferRestriction(restrictionCode);\n    }\n\n    /**\n     @notice Transfers tokens if they are not restricted\n     @dev Overrides the parent class token transfer function to enforce restrictions.\n     */\n    function transfer (address to, uint256 value)\n        public\n        override(TokenSoftToken, ERC20)\n        notRestricted(msg.sender, to, value)\n        returns (bool success)\n    {\n        return TokenSoftToken.transfer(to, value);\n    }\n\n    /**\n    @notice Transfers from a specified address if they are not restricted\n    @dev Overrides the parent class token transferFrom function to enforce restrictions.\n     */\n    function transferFrom (address from, address to, uint256 value)\n        public\n        override(TokenSoftToken, ERC20)\n        notRestricted(from, to, value)\n        returns (bool success)\n    {\n        return TokenSoftToken.transferFrom(from, to, value);\n    }\n}",
  "sourcePath": "/Users/james/Source/tokensoft/tokensoft_token/contracts/TokenSoftTokenV2.sol",
  "compiler": {
    "name": "solc",
    "version": "0.6.12+commit.27d51765.Emscripten.clang"
  },
  "schemaVersion": "3.3.1",
  "updatedAt": "2020-12-09T02:03:40.415Z",
  "devdoc": {
    "kind": "dev",
    "methods": {
      "allowance(address,address)": {
        "details": "See {IERC20-allowance}."
      },
      "approve(address,uint256)": {
        "details": "See {IERC20-approve}. Requirements: - `spender` cannot be the zero address."
      },
      "balanceOf(address)": {
        "details": "See {IERC20-balanceOf}."
      },
      "decimals()": {
        "details": "Returns the number of decimals used to get its user representation. For example, if `decimals` equals `2`, a balance of `505` tokens should be displayed to a user as `5,05` (`505 / 10 ** 2`). Tokens usually opt for a value of 18, imitating the relationship between Ether and Wei. NOTE: This information is only used for _display_ purposes: it in no way affects any of the arithmetic of the contract, including {IERC20-balanceOf} and {IERC20-transfer}."
      },
      "decreaseAllowance(address,uint256)": {
        "details": "Atomically decreases the allowance granted to `spender` by the caller. This is an alternative to {approve} that can be used as a mitigation for problems described in {IERC20-approve}. Emits an {Approval} event indicating the updated allowance. Requirements: - `spender` cannot be the zero address. - `spender` must have allowance for the caller of at least `subtractedValue`."
      },
      "detectTransferRestriction(address,address,uint256)": {
        "details": "A 0 return value is success - all other codes should be displayed to user via messageForTransferRestriction"
      },
      "increaseAllowance(address,uint256)": {
        "details": "Atomically increases the allowance granted to `spender` by the caller. This is an alternative to {approve} that can be used as a mitigation for problems described in {IERC20-approve}. Emits an {Approval} event indicating the updated allowance. Requirements: - `spender` cannot be the zero address."
      },
      "initialize(string,string,uint8)": {
        "details": "Sets the values for `name`, `symbol`, and `decimals`. All three of these values are immutable: they can only be set once during construction."
      },
      "name()": {
        "details": "Returns the name of the token."
      },
      "pause()": {
        "details": "Called by an Owner to pause, triggers stopped state."
      },
      "paused()": {
        "details": "Returns true if the contract is paused, and false otherwise."
      },
      "symbol()": {
        "details": "Returns the symbol of the token, usually a shorter version of the name."
      },
      "totalSupply()": {
        "details": "See {IERC20-totalSupply}."
      },
      "transfer(address,uint256)": {
        "details": "Overrides the parent class token transfer function to enforce restrictions."
      },
      "transferFrom(address,address,uint256)": {
        "details": "Overrides the parent class token transferFrom function to enforce restrictions."
      },
      "unpause()": {
        "details": "Called by an Owner to unpause, returns to normal state."
      }
    },
    "title": "Tokensoft Token V2",
    "version": 1
  },
  "userdoc": {
    "kind": "user",
    "methods": {
      "FAILURE_BLACKLIST()": {
        "notice": "The from/to account has been explicitly denied the ability to send/receive"
      },
      "addToBlacklist(address)": {
        "notice": "Public function that allows admins to remove an address from a Blacklist"
      },
      "addToWhitelist(address,uint8)": {
        "notice": "Public function that allows admins to remove an address from a whitelist"
      },
      "burn(address,uint256)": {
        "notice": "Allow Burners to burn tokens from valid addresses"
      },
      "checkBlacklistAllowed(address,address)": {
        "notice": "Determine if the a sender is allowed to send to the receiver. If either the sender or receiver is blacklisted, then the transfer should be denied"
      },
      "checkWhitelistAllowed(address,address)": {
        "notice": "Determine if the a sender is allowed to send to the receiver. The source whitelist must be enabled to send to the whitelist where the receive exists."
      },
      "detectTransferRestriction(address,address,uint256)": {
        "notice": "Used to detect if a proposed transfer will be allowed"
      },
      "initialize(address,string,string,uint8,uint256,bool)": {
        "notice": "Constructor for the token to set readable details and mint all tokens to the specified owner."
      },
      "messageForTransferRestriction(uint8)": {
        "notice": "Returns a human readable string for the error returned via detectTransferRestriction"
      },
      "mint(address,uint256)": {
        "notice": "Allow Owners to mint tokens to valid addresses"
      },
      "removeFromBlacklist(address)": {
        "notice": "Public function that allows admins to remove an address from a Blacklist"
      },
      "removeFromWhitelist(address)": {
        "notice": "Public function that allows admins to remove an address from a whitelist"
      },
      "revoke(address,uint256)": {
        "notice": "Allow Admins to revoke tokens from any address"
      },
      "revokeToAddress(address,address,uint256)": {
        "notice": "Allow Admins to revoke tokens from any address to any destination"
      },
      "setBlacklistEnabled(bool)": {
        "notice": "Enable or disable the Blacklist enforcement"
      },
      "setWhitelistEnabled(bool)": {
        "notice": "Enable or disable the whitelist enforcement"
      },
      "transfer(address,uint256)": {
        "notice": "Transfers tokens if they are not restricted"
      },
      "transferFrom(address,address,uint256)": {
        "notice": "Transfers from a specified address if they are not restricted"
      },
      "updateCodeAddress(address)": {
        "notice": "Public function to update the address of the code contract, retricted to owner"
      },
      "updateOutboundWhitelistEnabled(uint8,uint8,bool)": {
        "notice": "Public function that allows admins to update outbound whitelists"
      }
    },
    "notice": "This contract implements the ERC1404 Interface to add transfer restrictions to a standard ER20 token. The role based access controls allow the Owner accounts to determine which permissions are granted to admin accounts. Admin accounts can enable, disable, and configure the token restrictions built into the contract.",
    "version": 1
  }
}