{
  "contractName": "TokenSoftTokenEscrowNotProxiable",
  "abi": [
    {
      "anonymous": false,
      "inputs": [
        {
          "indexed": true,
          "internalType": "address",
          "name": "addedAddress",
          "type": "address"
        },
        {
          "indexed": true,
          "internalType": "uint8",
          "name": "whitelist",
          "type": "uint8"
        },
        {
          "indexed": true,
          "internalType": "address",
          "name": "addedBy",
          "type": "address"
        }
      ],
      "name": "AddressAddedToWhitelist",
      "type": "event"
    },
    {
      "anonymous": false,
      "inputs": [
        {
          "indexed": true,
          "internalType": "address",
          "name": "removedAddress",
          "type": "address"
        },
        {
          "indexed": true,
          "internalType": "uint8",
          "name": "whitelist",
          "type": "uint8"
        },
        {
          "indexed": true,
          "internalType": "address",
          "name": "removedBy",
          "type": "address"
        }
      ],
      "name": "AddressRemovedFromWhitelist",
      "type": "event"
    },
    {
      "anonymous": false,
      "inputs": [
        {
          "indexed": true,
          "internalType": "address",
          "name": "owner",
          "type": "address"
        },
        {
          "indexed": true,
          "internalType": "address",
          "name": "spender",
          "type": "address"
        },
        {
          "indexed": false,
          "internalType": "uint256",
          "name": "value",
          "type": "uint256"
        }
      ],
      "name": "Approval",
      "type": "event"
    },
    {
      "anonymous": false,
      "inputs": [
        {
          "indexed": true,
          "internalType": "address",
          "name": "burner",
          "type": "address"
        },
        {
          "indexed": true,
          "internalType": "address",
          "name": "from",
          "type": "address"
        },
        {
          "indexed": false,
          "internalType": "uint256",
          "name": "amount",
          "type": "uint256"
        }
      ],
      "name": "Burn",
      "type": "event"
    },
    {
      "anonymous": false,
      "inputs": [
        {
          "indexed": true,
          "internalType": "address",
          "name": "addedBurner",
          "type": "address"
        },
        {
          "indexed": true,
          "internalType": "address",
          "name": "addedBy",
          "type": "address"
        }
      ],
      "name": "BurnerAdded",
      "type": "event"
    },
    {
      "anonymous": false,
      "inputs": [
        {
          "indexed": true,
          "internalType": "address",
          "name": "removedBurner",
          "type": "address"
        },
        {
          "indexed": true,
          "internalType": "address",
          "name": "removedBy",
          "type": "address"
        }
      ],
      "name": "BurnerRemoved",
      "type": "event"
    },
    {
      "anonymous": false,
      "inputs": [
        {
          "indexed": true,
          "internalType": "address",
          "name": "addedEscrow",
          "type": "address"
        },
        {
          "indexed": true,
          "internalType": "address",
          "name": "addedBy",
          "type": "address"
        }
      ],
      "name": "EscrowerAdded",
      "type": "event"
    },
    {
      "anonymous": false,
      "inputs": [
        {
          "indexed": true,
          "internalType": "address",
          "name": "removedEscrow",
          "type": "address"
        },
        {
          "indexed": true,
          "internalType": "address",
          "name": "removedBy",
          "type": "address"
        }
      ],
      "name": "EscrowerRemoved",
      "type": "event"
    },
    {
      "anonymous": false,
      "inputs": [
        {
          "indexed": true,
          "internalType": "address",
          "name": "minter",
          "type": "address"
        },
        {
          "indexed": true,
          "internalType": "address",
          "name": "to",
          "type": "address"
        },
        {
          "indexed": false,
          "internalType": "uint256",
          "name": "amount",
          "type": "uint256"
        }
      ],
      "name": "Mint",
      "type": "event"
    },
    {
      "anonymous": false,
      "inputs": [
        {
          "indexed": true,
          "internalType": "address",
          "name": "addedMinter",
          "type": "address"
        },
        {
          "indexed": true,
          "internalType": "address",
          "name": "addedBy",
          "type": "address"
        }
      ],
      "name": "MinterAdded",
      "type": "event"
    },
    {
      "anonymous": false,
      "inputs": [
        {
          "indexed": true,
          "internalType": "address",
          "name": "removedMinter",
          "type": "address"
        },
        {
          "indexed": true,
          "internalType": "address",
          "name": "removedBy",
          "type": "address"
        }
      ],
      "name": "MinterRemoved",
      "type": "event"
    },
    {
      "anonymous": false,
      "inputs": [
        {
          "indexed": true,
          "internalType": "address",
          "name": "updatedBy",
          "type": "address"
        },
        {
          "indexed": true,
          "internalType": "uint8",
          "name": "sourceWhitelist",
          "type": "uint8"
        },
        {
          "indexed": true,
          "internalType": "uint8",
          "name": "destinationWhitelist",
          "type": "uint8"
        },
        {
          "indexed": false,
          "internalType": "bool",
          "name": "from",
          "type": "bool"
        },
        {
          "indexed": false,
          "internalType": "bool",
          "name": "to",
          "type": "bool"
        }
      ],
      "name": "OutboundWhitelistUpdated",
      "type": "event"
    },
    {
      "anonymous": false,
      "inputs": [
        {
          "indexed": true,
          "internalType": "address",
          "name": "addedOwner",
          "type": "address"
        },
        {
          "indexed": true,
          "internalType": "address",
          "name": "addedBy",
          "type": "address"
        }
      ],
      "name": "OwnerAdded",
      "type": "event"
    },
    {
      "anonymous": false,
      "inputs": [
        {
          "indexed": true,
          "internalType": "address",
          "name": "removedOwner",
          "type": "address"
        },
        {
          "indexed": true,
          "internalType": "address",
          "name": "removedBy",
          "type": "address"
        }
      ],
      "name": "OwnerRemoved",
      "type": "event"
    },
    {
      "anonymous": false,
      "inputs": [
        {
          "indexed": false,
          "internalType": "address",
          "name": "account",
          "type": "address"
        }
      ],
      "name": "Paused",
      "type": "event"
    },
    {
      "anonymous": false,
      "inputs": [
        {
          "indexed": true,
          "internalType": "address",
          "name": "addedPauser",
          "type": "address"
        },
        {
          "indexed": true,
          "internalType": "address",
          "name": "addedBy",
          "type": "address"
        }
      ],
      "name": "PauserAdded",
      "type": "event"
    },
    {
      "anonymous": false,
      "inputs": [
        {
          "indexed": true,
          "internalType": "address",
          "name": "removedPauser",
          "type": "address"
        },
        {
          "indexed": true,
          "internalType": "address",
          "name": "removedBy",
          "type": "address"
        }
      ],
      "name": "PauserRemoved",
      "type": "event"
    },
    {
      "anonymous": false,
      "inputs": [
        {
          "indexed": true,
          "internalType": "address",
          "name": "revoker",
          "type": "address"
        },
        {
          "indexed": true,
          "internalType": "address",
          "name": "from",
          "type": "address"
        },
        {
          "indexed": false,
          "internalType": "uint256",
          "name": "amount",
          "type": "uint256"
        }
      ],
      "name": "Revoke",
      "type": "event"
    },
    {
      "anonymous": false,
      "inputs": [
        {
          "indexed": true,
          "internalType": "address",
          "name": "addedRevoker",
          "type": "address"
        },
        {
          "indexed": true,
          "internalType": "address",
          "name": "addedBy",
          "type": "address"
        }
      ],
      "name": "RevokerAdded",
      "type": "event"
    },
    {
      "anonymous": false,
      "inputs": [
        {
          "indexed": true,
          "internalType": "address",
          "name": "removedRevoker",
          "type": "address"
        },
        {
          "indexed": true,
          "internalType": "address",
          "name": "removedBy",
          "type": "address"
        }
      ],
      "name": "RevokerRemoved",
      "type": "event"
    },
    {
      "anonymous": false,
      "inputs": [
        {
          "indexed": true,
          "internalType": "address",
          "name": "from",
          "type": "address"
        },
        {
          "indexed": true,
          "internalType": "address",
          "name": "to",
          "type": "address"
        },
        {
          "indexed": false,
          "internalType": "uint256",
          "name": "value",
          "type": "uint256"
        }
      ],
      "name": "Transfer",
      "type": "event"
    },
    {
      "anonymous": false,
      "inputs": [
        {
          "indexed": true,
          "internalType": "address",
          "name": "updatedBy",
          "type": "address"
        },
        {
          "indexed": false,
          "internalType": "uint256",
          "name": "requestId",
          "type": "uint256"
        },
        {
          "indexed": false,
          "internalType": "enum Escrowable.ProposalState",
          "name": "state",
          "type": "uint8"
        }
      ],
      "name": "TransferProposalUpdated",
      "type": "event"
    },
    {
      "anonymous": false,
      "inputs": [
        {
          "indexed": false,
          "internalType": "address",
          "name": "account",
          "type": "address"
        }
      ],
      "name": "Unpaused",
      "type": "event"
    },
    {
      "anonymous": false,
      "inputs": [
        {
          "indexed": true,
          "internalType": "address",
          "name": "updatedBy",
          "type": "address"
        },
        {
          "indexed": true,
          "internalType": "bool",
          "name": "enabled",
          "type": "bool"
        }
      ],
      "name": "WhitelistEnabledUpdated",
      "type": "event"
    },
    {
      "anonymous": false,
      "inputs": [
        {
          "indexed": true,
          "internalType": "address",
          "name": "addedWhitelister",
          "type": "address"
        },
        {
          "indexed": true,
          "internalType": "address",
          "name": "addedBy",
          "type": "address"
        }
      ],
      "name": "WhitelisterAdded",
      "type": "event"
    },
    {
      "anonymous": false,
      "inputs": [
        {
          "indexed": true,
          "internalType": "address",
          "name": "removedWhitelister",
          "type": "address"
        },
        {
          "indexed": true,
          "internalType": "address",
          "name": "removedBy",
          "type": "address"
        }
      ],
      "name": "WhitelisterRemoved",
      "type": "event"
    },
    {
      "constant": true,
      "inputs": [],
      "name": "FAILURE_NON_WHITELIST",
      "outputs": [
        {
          "internalType": "uint8",
          "name": "",
          "type": "uint8"
        }
      ],
      "payable": false,
      "stateMutability": "view",
      "type": "function"
    },
    {
      "constant": true,
      "inputs": [],
      "name": "FAILURE_NON_WHITELIST_MESSAGE",
      "outputs": [
        {
          "internalType": "string",
          "name": "",
          "type": "string"
        }
      ],
      "payable": false,
      "stateMutability": "view",
      "type": "function"
    },
    {
      "constant": true,
      "inputs": [],
      "name": "FAILURE_PAUSED",
      "outputs": [
        {
          "internalType": "uint8",
          "name": "",
          "type": "uint8"
        }
      ],
      "payable": false,
      "stateMutability": "view",
      "type": "function"
    },
    {
      "constant": true,
      "inputs": [],
      "name": "FAILURE_PAUSED_MESSAGE",
      "outputs": [
        {
          "internalType": "string",
          "name": "",
          "type": "string"
        }
      ],
      "payable": false,
      "stateMutability": "view",
      "type": "function"
    },
    {
      "constant": true,
      "inputs": [],
      "name": "SUCCESS_CODE",
      "outputs": [
        {
          "internalType": "uint8",
          "name": "",
          "type": "uint8"
        }
      ],
      "payable": false,
      "stateMutability": "view",
      "type": "function"
    },
    {
      "constant": true,
      "inputs": [],
      "name": "SUCCESS_MESSAGE",
      "outputs": [
        {
          "internalType": "string",
          "name": "",
          "type": "string"
        }
      ],
      "payable": false,
      "stateMutability": "view",
      "type": "function"
    },
    {
      "constant": true,
      "inputs": [],
      "name": "UNKNOWN_ERROR",
      "outputs": [
        {
          "internalType": "string",
          "name": "",
          "type": "string"
        }
      ],
      "payable": false,
      "stateMutability": "view",
      "type": "function"
    },
    {
      "constant": false,
      "inputs": [
        {
          "internalType": "address",
          "name": "account",
          "type": "address"
        }
      ],
      "name": "addBurner",
      "outputs": [],
      "payable": false,
      "stateMutability": "nonpayable",
      "type": "function"
    },
    {
      "constant": false,
      "inputs": [
        {
          "internalType": "address",
          "name": "account",
          "type": "address"
        }
      ],
      "name": "addEscrower",
      "outputs": [],
      "payable": false,
      "stateMutability": "nonpayable",
      "type": "function"
    },
    {
      "constant": false,
      "inputs": [
        {
          "internalType": "address",
          "name": "account",
          "type": "address"
        }
      ],
      "name": "addMinter",
      "outputs": [],
      "payable": false,
      "stateMutability": "nonpayable",
      "type": "function"
    },
    {
      "constant": false,
      "inputs": [
        {
          "internalType": "address",
          "name": "account",
          "type": "address"
        }
      ],
      "name": "addOwner",
      "outputs": [],
      "payable": false,
      "stateMutability": "nonpayable",
      "type": "function"
    },
    {
      "constant": false,
      "inputs": [
        {
          "internalType": "address",
          "name": "account",
          "type": "address"
        }
      ],
      "name": "addPauser",
      "outputs": [],
      "payable": false,
      "stateMutability": "nonpayable",
      "type": "function"
    },
    {
      "constant": false,
      "inputs": [
        {
          "internalType": "address",
          "name": "account",
          "type": "address"
        }
      ],
      "name": "addRevoker",
      "outputs": [],
      "payable": false,
      "stateMutability": "nonpayable",
      "type": "function"
    },
    {
      "constant": false,
      "inputs": [
        {
          "internalType": "address",
          "name": "addressToAdd",
          "type": "address"
        },
        {
          "internalType": "uint8",
          "name": "whitelist",
          "type": "uint8"
        }
      ],
      "name": "addToWhitelist",
      "outputs": [],
      "payable": false,
      "stateMutability": "nonpayable",
      "type": "function"
    },
    {
      "constant": false,
      "inputs": [
        {
          "internalType": "address",
          "name": "account",
          "type": "address"
        }
      ],
      "name": "addWhitelister",
      "outputs": [],
      "payable": false,
      "stateMutability": "nonpayable",
      "type": "function"
    },
    {
      "constant": true,
      "inputs": [
        {
          "internalType": "address",
          "name": "",
          "type": "address"
        }
      ],
      "name": "addressWhitelists",
      "outputs": [
        {
          "internalType": "uint8",
          "name": "",
          "type": "uint8"
        }
      ],
      "payable": false,
      "stateMutability": "view",
      "type": "function"
    },
    {
      "constant": true,
      "inputs": [
        {
          "internalType": "address",
          "name": "owner",
          "type": "address"
        },
        {
          "internalType": "address",
          "name": "spender",
          "type": "address"
        }
      ],
      "name": "allowance",
      "outputs": [
        {
          "internalType": "uint256",
          "name": "",
          "type": "uint256"
        }
      ],
      "payable": false,
      "stateMutability": "view",
      "type": "function"
    },
    {
      "constant": false,
      "inputs": [
        {
          "internalType": "address",
          "name": "spender",
          "type": "address"
        },
        {
          "internalType": "uint256",
          "name": "amount",
          "type": "uint256"
        }
      ],
      "name": "approve",
      "outputs": [
        {
          "internalType": "bool",
          "name": "",
          "type": "bool"
        }
      ],
      "payable": false,
      "stateMutability": "nonpayable",
      "type": "function"
    },
    {
      "constant": true,
      "inputs": [
        {
          "internalType": "address",
          "name": "account",
          "type": "address"
        }
      ],
      "name": "balanceOf",
      "outputs": [
        {
          "internalType": "uint256",
          "name": "",
          "type": "uint256"
        }
      ],
      "payable": false,
      "stateMutability": "view",
      "type": "function"
    },
    {
      "constant": false,
      "inputs": [
        {
          "internalType": "address",
          "name": "account",
          "type": "address"
        },
        {
          "internalType": "uint256",
          "name": "amount",
          "type": "uint256"
        }
      ],
      "name": "burn",
      "outputs": [
        {
          "internalType": "bool",
          "name": "",
          "type": "bool"
        }
      ],
      "payable": false,
      "stateMutability": "nonpayable",
      "type": "function"
    },
    {
      "constant": false,
      "inputs": [
        {
          "internalType": "uint256",
          "name": "requestId",
          "type": "uint256"
        }
      ],
      "name": "cancelTransferProposal",
      "outputs": [],
      "payable": false,
      "stateMutability": "nonpayable",
      "type": "function"
    },
    {
      "constant": true,
      "inputs": [
        {
          "internalType": "address",
          "name": "sender",
          "type": "address"
        },
        {
          "internalType": "address",
          "name": "receiver",
          "type": "address"
        }
      ],
      "name": "checkWhitelistAllowed",
      "outputs": [
        {
          "internalType": "bool",
          "name": "",
          "type": "bool"
        }
      ],
      "payable": false,
      "stateMutability": "view",
      "type": "function"
    },
    {
      "constant": true,
      "inputs": [],
      "name": "decimals",
      "outputs": [
        {
          "internalType": "uint8",
          "name": "",
          "type": "uint8"
        }
      ],
      "payable": false,
      "stateMutability": "view",
      "type": "function"
    },
    {
      "constant": false,
      "inputs": [
        {
          "internalType": "address",
          "name": "spender",
          "type": "address"
        },
        {
          "internalType": "uint256",
          "name": "subtractedValue",
          "type": "uint256"
        }
      ],
      "name": "decreaseAllowance",
      "outputs": [
        {
          "internalType": "bool",
          "name": "",
          "type": "bool"
        }
      ],
      "payable": false,
      "stateMutability": "nonpayable",
      "type": "function"
    },
    {
      "constant": true,
      "inputs": [
        {
          "internalType": "uint256",
          "name": "requestId",
          "type": "uint256"
        }
      ],
      "name": "getTransferProposal",
      "outputs": [
        {
          "internalType": "address",
          "name": "createdBy",
          "type": "address"
        },
        {
          "internalType": "address",
          "name": "from",
          "type": "address"
        },
        {
          "internalType": "address",
          "name": "to",
          "type": "address"
        },
        {
          "internalType": "uint256",
          "name": "value",
          "type": "uint256"
        },
        {
          "internalType": "enum Escrowable.ProposalState",
          "name": "state",
          "type": "uint8"
        }
      ],
      "payable": false,
      "stateMutability": "view",
      "type": "function"
    },
    {
      "constant": false,
      "inputs": [
        {
          "internalType": "address",
          "name": "spender",
          "type": "address"
        },
        {
          "internalType": "uint256",
          "name": "addedValue",
          "type": "uint256"
        }
      ],
      "name": "increaseAllowance",
      "outputs": [
        {
          "internalType": "bool",
          "name": "",
          "type": "bool"
        }
      ],
      "payable": false,
      "stateMutability": "nonpayable",
      "type": "function"
    },
    {
      "constant": true,
      "inputs": [
        {
          "internalType": "address",
          "name": "account",
          "type": "address"
        }
      ],
      "name": "isBurner",
      "outputs": [
        {
          "internalType": "bool",
          "name": "",
          "type": "bool"
        }
      ],
      "payable": false,
      "stateMutability": "view",
      "type": "function"
    },
    {
      "constant": true,
      "inputs": [
        {
          "internalType": "address",
          "name": "account",
          "type": "address"
        }
      ],
      "name": "isEscrower",
      "outputs": [
        {
          "internalType": "bool",
          "name": "",
          "type": "bool"
        }
      ],
      "payable": false,
      "stateMutability": "view",
      "type": "function"
    },
    {
      "constant": true,
      "inputs": [
        {
          "internalType": "address",
          "name": "account",
          "type": "address"
        }
      ],
      "name": "isMinter",
      "outputs": [
        {
          "internalType": "bool",
          "name": "",
          "type": "bool"
        }
      ],
      "payable": false,
      "stateMutability": "view",
      "type": "function"
    },
    {
      "constant": true,
      "inputs": [
        {
          "internalType": "address",
          "name": "account",
          "type": "address"
        }
      ],
      "name": "isOwner",
      "outputs": [
        {
          "internalType": "bool",
          "name": "",
          "type": "bool"
        }
      ],
      "payable": false,
      "stateMutability": "view",
      "type": "function"
    },
    {
      "constant": true,
      "inputs": [
        {
          "internalType": "address",
          "name": "account",
          "type": "address"
        }
      ],
      "name": "isPauser",
      "outputs": [
        {
          "internalType": "bool",
          "name": "",
          "type": "bool"
        }
      ],
      "payable": false,
      "stateMutability": "view",
      "type": "function"
    },
    {
      "constant": true,
      "inputs": [
        {
          "internalType": "address",
          "name": "account",
          "type": "address"
        }
      ],
      "name": "isRevoker",
      "outputs": [
        {
          "internalType": "bool",
          "name": "",
          "type": "bool"
        }
      ],
      "payable": false,
      "stateMutability": "view",
      "type": "function"
    },
    {
      "constant": true,
      "inputs": [],
      "name": "isWhitelistEnabled",
      "outputs": [
        {
          "internalType": "bool",
          "name": "",
          "type": "bool"
        }
      ],
      "payable": false,
      "stateMutability": "view",
      "type": "function"
    },
    {
      "constant": true,
      "inputs": [
        {
          "internalType": "address",
          "name": "account",
          "type": "address"
        }
      ],
      "name": "isWhitelister",
      "outputs": [
        {
          "internalType": "bool",
          "name": "",
          "type": "bool"
        }
      ],
      "payable": false,
      "stateMutability": "view",
      "type": "function"
    },
    {
      "constant": false,
      "inputs": [
        {
          "internalType": "address",
          "name": "account",
          "type": "address"
        },
        {
          "internalType": "uint256",
          "name": "amount",
          "type": "uint256"
        }
      ],
      "name": "mint",
      "outputs": [
        {
          "internalType": "bool",
          "name": "",
          "type": "bool"
        }
      ],
      "payable": false,
      "stateMutability": "nonpayable",
      "type": "function"
    },
    {
      "constant": true,
      "inputs": [],
      "name": "name",
      "outputs": [
        {
          "internalType": "string",
          "name": "",
          "type": "string"
        }
      ],
      "payable": false,
      "stateMutability": "view",
      "type": "function"
    },
    {
      "constant": true,
      "inputs": [
        {
          "internalType": "uint8",
          "name": "",
          "type": "uint8"
        },
        {
          "internalType": "uint8",
          "name": "",
          "type": "uint8"
        }
      ],
      "name": "outboundWhitelistsEnabled",
      "outputs": [
        {
          "internalType": "bool",
          "name": "",
          "type": "bool"
        }
      ],
      "payable": false,
      "stateMutability": "view",
      "type": "function"
    },
    {
      "constant": false,
      "inputs": [],
      "name": "pause",
      "outputs": [],
      "payable": false,
      "stateMutability": "nonpayable",
      "type": "function"
    },
    {
      "constant": true,
      "inputs": [],
      "name": "paused",
      "outputs": [
        {
          "internalType": "bool",
          "name": "",
          "type": "bool"
        }
      ],
      "payable": false,
      "stateMutability": "view",
      "type": "function"
    },
    {
      "constant": false,
      "inputs": [
        {
          "internalType": "address",
          "name": "account",
          "type": "address"
        }
      ],
      "name": "removeBurner",
      "outputs": [],
      "payable": false,
      "stateMutability": "nonpayable",
      "type": "function"
    },
    {
      "constant": false,
      "inputs": [
        {
          "internalType": "address",
          "name": "account",
          "type": "address"
        }
      ],
      "name": "removeEscrower",
      "outputs": [],
      "payable": false,
      "stateMutability": "nonpayable",
      "type": "function"
    },
    {
      "constant": false,
      "inputs": [
        {
          "internalType": "address",
          "name": "addressToRemove",
          "type": "address"
        }
      ],
      "name": "removeFromWhitelist",
      "outputs": [],
      "payable": false,
      "stateMutability": "nonpayable",
      "type": "function"
    },
    {
      "constant": false,
      "inputs": [
        {
          "internalType": "address",
          "name": "account",
          "type": "address"
        }
      ],
      "name": "removeMinter",
      "outputs": [],
      "payable": false,
      "stateMutability": "nonpayable",
      "type": "function"
    },
    {
      "constant": false,
      "inputs": [
        {
          "internalType": "address",
          "name": "account",
          "type": "address"
        }
      ],
      "name": "removeOwner",
      "outputs": [],
      "payable": false,
      "stateMutability": "nonpayable",
      "type": "function"
    },
    {
      "constant": false,
      "inputs": [
        {
          "internalType": "address",
          "name": "account",
          "type": "address"
        }
      ],
      "name": "removePauser",
      "outputs": [],
      "payable": false,
      "stateMutability": "nonpayable",
      "type": "function"
    },
    {
      "constant": false,
      "inputs": [
        {
          "internalType": "address",
          "name": "account",
          "type": "address"
        }
      ],
      "name": "removeRevoker",
      "outputs": [],
      "payable": false,
      "stateMutability": "nonpayable",
      "type": "function"
    },
    {
      "constant": false,
      "inputs": [
        {
          "internalType": "address",
          "name": "account",
          "type": "address"
        }
      ],
      "name": "removeWhitelister",
      "outputs": [],
      "payable": false,
      "stateMutability": "nonpayable",
      "type": "function"
    },
    {
      "constant": false,
      "inputs": [
        {
          "internalType": "address",
          "name": "from",
          "type": "address"
        },
        {
          "internalType": "uint256",
          "name": "amount",
          "type": "uint256"
        }
      ],
      "name": "revoke",
      "outputs": [
        {
          "internalType": "bool",
          "name": "",
          "type": "bool"
        }
      ],
      "payable": false,
      "stateMutability": "nonpayable",
      "type": "function"
    },
    {
      "constant": false,
      "inputs": [
        {
          "internalType": "bool",
          "name": "enabled",
          "type": "bool"
        }
      ],
      "name": "setWhitelistEnabled",
      "outputs": [],
      "payable": false,
      "stateMutability": "nonpayable",
      "type": "function"
    },
    {
      "constant": true,
      "inputs": [],
      "name": "symbol",
      "outputs": [
        {
          "internalType": "string",
          "name": "",
          "type": "string"
        }
      ],
      "payable": false,
      "stateMutability": "view",
      "type": "function"
    },
    {
      "constant": true,
      "inputs": [],
      "name": "totalSupply",
      "outputs": [
        {
          "internalType": "uint256",
          "name": "",
          "type": "uint256"
        }
      ],
      "payable": false,
      "stateMutability": "view",
      "type": "function"
    },
    {
      "constant": true,
      "inputs": [
        {
          "internalType": "uint256",
          "name": "",
          "type": "uint256"
        }
      ],
      "name": "transferProposals",
      "outputs": [
        {
          "internalType": "address",
          "name": "createdBy",
          "type": "address"
        },
        {
          "internalType": "address",
          "name": "from",
          "type": "address"
        },
        {
          "internalType": "address",
          "name": "to",
          "type": "address"
        },
        {
          "internalType": "uint256",
          "name": "value",
          "type": "uint256"
        },
        {
          "internalType": "enum Escrowable.ProposalState",
          "name": "state",
          "type": "uint8"
        }
      ],
      "payable": false,
      "stateMutability": "view",
      "type": "function"
    },
    {
      "constant": false,
      "inputs": [],
      "name": "unpause",
      "outputs": [],
      "payable": false,
      "stateMutability": "nonpayable",
      "type": "function"
    },
    {
      "constant": false,
      "inputs": [
        {
          "internalType": "uint8",
          "name": "sourceWhitelist",
          "type": "uint8"
        },
        {
          "internalType": "uint8",
          "name": "destinationWhitelist",
          "type": "uint8"
        },
        {
          "internalType": "bool",
          "name": "newEnabledValue",
          "type": "bool"
        }
      ],
      "name": "updateOutboundWhitelistEnabled",
      "outputs": [],
      "payable": false,
      "stateMutability": "nonpayable",
      "type": "function"
    },
    {
      "constant": false,
      "inputs": [
        {
          "internalType": "string",
          "name": "name",
          "type": "string"
        },
        {
          "internalType": "string",
          "name": "symbol",
          "type": "string"
        },
        {
          "internalType": "uint8",
          "name": "decimals",
          "type": "uint8"
        }
      ],
      "name": "initialize",
      "outputs": [],
      "payable": false,
      "stateMutability": "nonpayable",
      "type": "function"
    },
    {
      "constant": false,
      "inputs": [
        {
          "internalType": "address",
          "name": "owner",
          "type": "address"
        },
        {
          "internalType": "string",
          "name": "name",
          "type": "string"
        },
        {
          "internalType": "string",
          "name": "symbol",
          "type": "string"
        },
        {
          "internalType": "uint8",
          "name": "decimals",
          "type": "uint8"
        },
        {
          "internalType": "uint256",
          "name": "initialSupply",
          "type": "uint256"
        },
        {
          "internalType": "bool",
          "name": "whitelistEnabled",
          "type": "bool"
        }
      ],
      "name": "initialize",
      "outputs": [],
      "payable": false,
      "stateMutability": "nonpayable",
      "type": "function"
    },
    {
      "constant": false,
      "inputs": [
        {
          "internalType": "uint256",
          "name": "requestId",
          "type": "uint256"
        }
      ],
      "name": "rejectTransferProposal",
      "outputs": [],
      "payable": false,
      "stateMutability": "nonpayable",
      "type": "function"
    },
    {
      "constant": false,
      "inputs": [
        {
          "internalType": "uint256",
          "name": "requestId",
          "type": "uint256"
        }
      ],
      "name": "approveTransferProposal",
      "outputs": [],
      "payable": false,
      "stateMutability": "nonpayable",
      "type": "function"
    },
    {
      "constant": false,
      "inputs": [
        {
          "internalType": "address",
          "name": "to",
          "type": "address"
        },
        {
          "internalType": "uint256",
          "name": "value",
          "type": "uint256"
        }
      ],
      "name": "transfer",
      "outputs": [
        {
          "internalType": "bool",
          "name": "success",
          "type": "bool"
        }
      ],
      "payable": false,
      "stateMutability": "nonpayable",
      "type": "function"
    },
    {
      "constant": false,
      "inputs": [
        {
          "internalType": "address",
          "name": "from",
          "type": "address"
        },
        {
          "internalType": "address",
          "name": "to",
          "type": "address"
        },
        {
          "internalType": "uint256",
          "name": "value",
          "type": "uint256"
        }
      ],
      "name": "transferFrom",
      "outputs": [
        {
          "internalType": "bool",
          "name": "success",
          "type": "bool"
        }
      ],
      "payable": false,
      "stateMutability": "nonpayable",
      "type": "function"
    }
  ],
  "bytecode": "0x6080604052615c96806100136000396000f3fe608060405234801561001057600080fd5b50600436106103a45760003560e01c80637d0c269f116101e9578063a126bc751161010f578063dd62ed3e116100ad578063eac449d91161007c578063eac449d914611870578063eaf9144a146118d6578063f44637ba1461191a578063f6c4b01f1461195e576103a4565b8063dd62ed3e146116c3578063e7984d171461173b578063e884e1b4146117be578063e95945081461181a576103a4565b8063aa271e1a116100e9578063aa271e1a14611572578063c06f8b94146115ce578063c893446214611612578063cb0c0f3514611695576103a4565b8063a126bc7514611478578063a457c2d7146114a6578063a9059cbb1461150c576103a4565b806392e6d68b11610187578063961a66f611610156578063961a66f61461130757806397af67441461134b578063983b2d56146113ce5780639dc29fac14611412576103a4565b806392e6d68b1461116657806393489f1d146111c45780639437e2fe1461120857806395d89b4114611284576103a4565b80638456cb59116101c35780638456cb5914610f3f5780638771cd2d14610f495780638ab1d681146110de5780638f6aabac14611122576103a4565b80637d0c269f14610e5b57806382c3f79c14610eb757806382dc1ec414610efb576103a4565b8063313ce567116102ce57806346fbf68e1161026c5780635c975abb1161023b5780635c975abb14610d595780636b2c0f5514610d7b5780637065cb4814610dbf57806370a0823114610e03576103a4565b806346fbf68e14610b5c578063489c1b2514610bb85780634c8cb99d14610c3b578063535a7c1814610c69576103a4565b80633f4ba83a116102a85780633f4ba83a14610a6c5780633f71370914610a7657806340c10f1914610a9a5780634334614a14610b00576103a4565b8063313ce5671461099857806339509351146109bc5780633973b59614610a22576103a4565b80631624f6c6116103465780631fb45ec0116103155780631fb45ec01461084e57806323b872dd146108725780632f54bf6e146108f85780633092afd514610954576103a4565b80631624f6c61461066b578063173825d9146107ca57806318160ddd1461080e578063184d69ab1461082c576103a4565b8063052d9e7e11610382578063052d9e7e1461052e57806306fdde031461055e578063095ea7b3146105e15780630e969a0514610647576103a4565b8063012fe7fd146103a95780630263b8581461049957806302846858146104ea575b600080fd5b6103d5600480360360208110156103bf57600080fd5b81019080803590602001909291905050506119ba565b604051808673ffffffffffffffffffffffffffffffffffffffff1673ffffffffffffffffffffffffffffffffffffffff1681526020018573ffffffffffffffffffffffffffffffffffffffff1673ffffffffffffffffffffffffffffffffffffffff1681526020018473ffffffffffffffffffffffffffffffffffffffff1673ffffffffffffffffffffffffffffffffffffffff16815260200183815260200182600381111561048157fe5b60ff1681526020019550505050505060405180910390f35b6104e8600480360360408110156104af57600080fd5b81019080803573ffffffffffffffffffffffffffffffffffffffff169060200190929190803560ff169060200190929190505050611a5d565b005b61052c6004803603602081101561050057600080fd5b81019080803573ffffffffffffffffffffffffffffffffffffffff169060200190929190505050611ac9565b005b61055c6004803603602081101561054457600080fd5b81019080803515159060200190929190505050611b33565b005b610566611b9d565b6040518080602001828103825283818151815260200191508051906020019080838360005b838110156105a657808201518184015260208101905061058b565b50505050905090810190601f1680156105d35780820380516001836020036101000a031916815260200191505b509250505060405180910390f35b61062d600480360360408110156105f757600080fd5b81019080803573ffffffffffffffffffffffffffffffffffffffff16906020019092919080359060200190929190505050611c3f565b604051808215151515815260200191505060405180910390f35b61064f611c5d565b604051808260ff1660ff16815260200191505060405180910390f35b6107c86004803603606081101561068157600080fd5b810190808035906020019064010000000081111561069e57600080fd5b8201836020820111156106b057600080fd5b803590602001918460018302840111640100000000831117156106d257600080fd5b91908080601f016020809104026020016040519081016040528093929190818152602001838380828437600081840152601f19601f8201169050808301925050505050505091929192908035906020019064010000000081111561073557600080fd5b82018360208201111561074757600080fd5b8035906020019184600183028401116401000000008311171561076957600080fd5b91908080601f016020809104026020016040519081016040528093929190818152602001838380828437600081840152601f19601f820116905080830192505050505050509192919290803560ff169060200190929190505050611c62565b005b61080c600480360360208110156107e057600080fd5b81019080803573ffffffffffffffffffffffffffffffffffffffff169060200190929190505050611dad565b005b610816611e9c565b6040518082815260200191505060405180910390f35b610834611ea6565b604051808215151515815260200191505060405180910390f35b610856611eb9565b604051808260ff1660ff16815260200191505060405180910390f35b6108de6004803603606081101561088857600080fd5b81019080803573ffffffffffffffffffffffffffffffffffffffff169060200190929190803573ffffffffffffffffffffffffffffffffffffffff16906020019092919080359060200190929190505050611ebe565b604051808215151515815260200191505060405180910390f35b61093a6004803603602081101561090e57600080fd5b81019080803573ffffffffffffffffffffffffffffffffffffffff169060200190929190505050611ed4565b604051808215151515815260200191505060405180910390f35b6109966004803603602081101561096a57600080fd5b81019080803573ffffffffffffffffffffffffffffffffffffffff169060200190929190505050611ef1565b005b6109a0611f5b565b604051808260ff1660ff16815260200191505060405180910390f35b610a08600480360360408110156109d257600080fd5b81019080803573ffffffffffffffffffffffffffffffffffffffff16906020019092919080359060200190929190505050611f72565b604051808215151515815260200191505060405180910390f35b610a6a60048036036060811015610a3857600080fd5b81019080803560ff169060200190929190803560ff169060200190929190803515159060200190929190505050612025565b005b610a74612093565b005b610a7e61217d565b604051808260ff1660ff16815260200191505060405180910390f35b610ae660048036036040811015610ab057600080fd5b81019080803573ffffffffffffffffffffffffffffffffffffffff16906020019092919080359060200190929190505050612182565b604051808215151515815260200191505060405180910390f35b610b4260048036036020811015610b1657600080fd5b81019080803573ffffffffffffffffffffffffffffffffffffffff1690602001909291905050506121f5565b604051808215151515815260200191505060405180910390f35b610b9e60048036036020811015610b7257600080fd5b81019080803573ffffffffffffffffffffffffffffffffffffffff169060200190929190505050612212565b604051808215151515815260200191505060405180910390f35b610bc061222f565b6040518080602001828103825283818151815260200191508051906020019080838360005b83811015610c00578082015181840152602081019050610be5565b50505050905090810190601f168015610c2d5780820380516001836020036101000a031916815260200191505b509250505060405180910390f35b610c6760048036036020811015610c5157600080fd5b810190808035906020019092919050505061224b565b005b610c9560048036036020811015610c7f57600080fd5b81019080803590602001909291905050506122b5565b604051808673ffffffffffffffffffffffffffffffffffffffff1673ffffffffffffffffffffffffffffffffffffffff1681526020018573ffffffffffffffffffffffffffffffffffffffff1673ffffffffffffffffffffffffffffffffffffffff1681526020018473ffffffffffffffffffffffffffffffffffffffff1673ffffffffffffffffffffffffffffffffffffffff168152602001838152602001826003811115610d4157fe5b60ff1681526020019550505050505060405180910390f35b610d616123e5565b604051808215151515815260200191505060405180910390f35b610dbd60048036036020811015610d9157600080fd5b81019080803573ffffffffffffffffffffffffffffffffffffffff1690602001909291905050506123fc565b005b610e0160048036036020811015610dd557600080fd5b81019080803573ffffffffffffffffffffffffffffffffffffffff169060200190929190505050612466565b005b610e4560048036036020811015610e1957600080fd5b81019080803573ffffffffffffffffffffffffffffffffffffffff1690602001909291905050506124d0565b6040518082815260200191505060405180910390f35b610e9d60048036036020811015610e7157600080fd5b81019080803573ffffffffffffffffffffffffffffffffffffffff169060200190929190505050612519565b604051808215151515815260200191505060405180910390f35b610ef960048036036020811015610ecd57600080fd5b81019080803573ffffffffffffffffffffffffffffffffffffffff169060200190929190505050612536565b005b610f3d60048036036020811015610f1157600080fd5b81019080803573ffffffffffffffffffffffffffffffffffffffff1690602001909291905050506125a0565b005b610f4761260a565b005b6110dc600480360360c0811015610f5f57600080fd5b81019080803573ffffffffffffffffffffffffffffffffffffffff16906020019092919080359060200190640100000000811115610f9c57600080fd5b820183602082011115610fae57600080fd5b80359060200191846001830284011164010000000083111715610fd057600080fd5b91908080601f016020809104026020016040519081016040528093929190818152602001838380828437600081840152601f19601f8201169050808301925050505050505091929192908035906020019064010000000081111561103357600080fd5b82018360208201111561104557600080fd5b8035906020019184600183028401116401000000008311171561106757600080fd5b91908080601f016020809104026020016040519081016040528093929190818152602001838380828437600081840152601f19601f820116905080830192505050505050509192919290803560ff169060200190929190803590602001909291908035151590602001909291905050506126f5565b005b611120600480360360208110156110f457600080fd5b81019080803573ffffffffffffffffffffffffffffffffffffffff169060200190929190505050612823565b005b6111646004803603602081101561113857600080fd5b81019080803573ffffffffffffffffffffffffffffffffffffffff16906020019092919050505061288d565b005b6111a86004803603602081101561117c57600080fd5b81019080803573ffffffffffffffffffffffffffffffffffffffff1690602001909291905050506128f7565b604051808260ff1660ff16815260200191505060405180910390f35b611206600480360360208110156111da57600080fd5b81019080803573ffffffffffffffffffffffffffffffffffffffff169060200190929190505050612917565b005b61126a6004803603604081101561121e57600080fd5b81019080803573ffffffffffffffffffffffffffffffffffffffff169060200190929190803573ffffffffffffffffffffffffffffffffffffffff169060200190929190505050612a06565b604051808215151515815260200191505060405180910390f35b61128c612b3b565b6040518080602001828103825283818151815260200191508051906020019080838360005b838110156112cc5780820151818401526020810190506112b1565b50505050905090810190601f1680156112f95780820380516001836020036101000a031916815260200191505b509250505060405180910390f35b6113496004803603602081101561131d57600080fd5b81019080803573ffffffffffffffffffffffffffffffffffffffff169060200190929190505050612bdd565b005b611353612c47565b6040518080602001828103825283818151815260200191508051906020019080838360005b83811015611393578082015181840152602081019050611378565b50505050905090810190601f1680156113c05780820380516001836020036101000a031916815260200191505b509250505060405180910390f35b611410600480360360208110156113e457600080fd5b81019080803573ffffffffffffffffffffffffffffffffffffffff169060200190929190505050612c80565b005b61145e6004803603604081101561142857600080fd5b81019080803573ffffffffffffffffffffffffffffffffffffffff16906020019092919080359060200190929190505050612cea565b604051808215151515815260200191505060405180910390f35b6114a46004803603602081101561148e57600080fd5b8101908080359060200190929190505050612d5d565b005b6114f2600480360360408110156114bc57600080fd5b81019080803573ffffffffffffffffffffffffffffffffffffffff16906020019092919080359060200190929190505050612dc7565b604051808215151515815260200191505060405180910390f35b6115586004803603604081101561152257600080fd5b81019080803573ffffffffffffffffffffffffffffffffffffffff16906020019092919080359060200190929190505050612e94565b604051808215151515815260200191505060405180910390f35b6115b46004803603602081101561158857600080fd5b81019080803573ffffffffffffffffffffffffffffffffffffffff169060200190929190505050612ea8565b604051808215151515815260200191505060405180910390f35b611610600480360360208110156115e457600080fd5b81019080803573ffffffffffffffffffffffffffffffffffffffff169060200190929190505050612ec5565b005b61161a612f2f565b6040518080602001828103825283818151815260200191508051906020019080838360005b8381101561165a57808201518184015260208101905061163f565b50505050905090810190601f1680156116875780820380516001836020036101000a031916815260200191505b509250505060405180910390f35b6116c1600480360360208110156116ab57600080fd5b8101908080359060200190929190505050612f4b565b005b611725600480360360408110156116d957600080fd5b81019080803573ffffffffffffffffffffffffffffffffffffffff169060200190929190803573ffffffffffffffffffffffffffffffffffffffff169060200190929190505050613127565b6040518082815260200191505060405180910390f35b6117436131ae565b6040518080602001828103825283818151815260200191508051906020019080838360005b83811015611783578082015181840152602081019050611768565b50505050905090810190601f1680156117b05780820380516001836020036101000a031916815260200191505b509250505060405180910390f35b611800600480360360208110156117d457600080fd5b81019080803573ffffffffffffffffffffffffffffffffffffffff1690602001909291905050506131e7565b604051808215151515815260200191505060405180910390f35b6118566004803603604081101561183057600080fd5b81019080803560ff169060200190929190803560ff169060200190929190505050613204565b604051808215151515815260200191505060405180910390f35b6118bc6004803603604081101561188657600080fd5b81019080803573ffffffffffffffffffffffffffffffffffffffff16906020019092919080359060200190929190505050613233565b604051808215151515815260200191505060405180910390f35b611918600480360360208110156118ec57600080fd5b81019080803573ffffffffffffffffffffffffffffffffffffffff1690602001909291905050506132a5565b005b61195c6004803603602081101561193057600080fd5b81019080803573ffffffffffffffffffffffffffffffffffffffff16906020019092919050505061330f565b005b6119a06004803603602081101561197457600080fd5b81019080803573ffffffffffffffffffffffffffffffffffffffff169060200190929190505050613379565b604051808215151515815260200191505060405180910390f35b60a96020528060005260406000206000915090508060000160009054906101000a900473ffffffffffffffffffffffffffffffffffffffff16908060010160009054906101000a900473ffffffffffffffffffffffffffffffffffffffff16908060020160009054906101000a900473ffffffffffffffffffffffffffffffffffffffff16908060030154908060040160009054906101000a900460ff16905085565b611a6633612519565b611abb576040517f08c379a000000000000000000000000000000000000000000000000000000000815260040180806020018281038252603a815260200180615b4a603a913960400191505060405180910390fd5b611ac58282613396565b5050565b611ad233611ed4565b611b27576040517f08c379a000000000000000000000000000000000000000000000000000000000815260040180806020018281038252602e815260200180615960602e913960400191505060405180910390fd5b611b3081613612565b50565b611b3c33611ed4565b611b91576040517f08c379a000000000000000000000000000000000000000000000000000000000815260040180806020018281038252602e815260200180615960602e913960400191505060405180910390fd5b611b9a81613683565b50565b606060338054600181600116156101000203166002900480601f016020809104026020016040519081016040528092919081815260200182805460018160011615610100020316600290048015611c355780601f10611c0a57610100808354040283529160200191611c35565b820191906000526020600020905b815481529060010190602001808311611c1857829003601f168201915b5050505050905090565b6000611c53611c4c6136e6565b84846136ee565b6001905092915050565b600081565b600060019054906101000a900460ff1680611c815750611c806138e5565b5b80611c9857506000809054906101000a900460ff16155b611ced576040517f08c379a000000000000000000000000000000000000000000000000000000000815260040180806020018281038252602e815260200180615a24602e913960400191505060405180910390fd5b60008060019054906101000a900460ff161590508015611d3d576001600060016101000a81548160ff02191690831515021790555060016000806101000a81548160ff0219169083151502179055505b8360339080519060200190611d5392919061568c565b508260349080519060200190611d6a92919061568c565b5081603560006101000a81548160ff021916908360ff1602179055508015611da75760008060016101000a81548160ff0219169083151502179055505b50505050565b611db633611ed4565b611e0b576040517f08c379a000000000000000000000000000000000000000000000000000000000815260040180806020018281038252602e815260200180615960602e913960400191505060405180910390fd5b8073ffffffffffffffffffffffffffffffffffffffff163373ffffffffffffffffffffffffffffffffffffffff161415611e90576040517f08c379a0000000000000000000000000000000000000000000000000000000008152600401808060200182810382526028815260200180615a526028913960400191505060405180910390fd5b611e99816138fc565b50565b6000606a54905090565b609f60009054906101000a900460ff1681565b600181565b6000611ecb84848461396d565b90509392505050565b6000611eea82609d613b8e90919063ffffffff16565b9050919050565b611efa33611ed4565b611f4f576040517f08c379a000000000000000000000000000000000000000000000000000000000815260040180806020018281038252602e815260200180615960602e913960400191505060405180910390fd5b611f5881613c6c565b50565b6000603560009054906101000a900460ff16905090565b600061201b611f7f6136e6565b846120168560696000611f906136e6565b73ffffffffffffffffffffffffffffffffffffffff1673ffffffffffffffffffffffffffffffffffffffff16815260200190815260200160002060008973ffffffffffffffffffffffffffffffffffffffff1673ffffffffffffffffffffffffffffffffffffffff16815260200190815260200160002054613cdd90919063ffffffff16565b6136ee565b6001905092915050565b61202e33612519565b612083576040517f08c379a000000000000000000000000000000000000000000000000000000000815260040180806020018281038252603a815260200180615b4a603a913960400191505060405180910390fd5b61208e838383613d65565b505050565b61209c33612212565b6120f1576040517f08c379a00000000000000000000000000000000000000000000000000000000081526004018080602001828103825260308152602001806158056030913960400191505060405180910390fd5b60a660009054906101000a900460ff16612173576040517f08c379a00000000000000000000000000000000000000000000000000000000081526004018080602001828103825260148152602001807f5061757361626c653a206e6f742070617573656400000000000000000000000081525060200191505060405180910390fd5b61217b613e5b565b565b600281565b600061218d33612ea8565b6121e2576040517f08c379a00000000000000000000000000000000000000000000000000000000081526004018080602001828103825260308152602001806159306030913960400191505060405180910390fd5b6121ed338484613edb565b905092915050565b600061220b8260a3613b8e90919063ffffffff16565b9050919050565b60006122288260a5613b8e90919063ffffffff16565b9050919050565b6040518060600160405280603d8152602001615a9b603d913981565b612254336131e7565b6122a9576040517f08c379a00000000000000000000000000000000000000000000000000000000081526004018080602001828103825260328152602001806157d36032913960400191505060405180910390fd5b6122b281613f57565b50565b600080600080600060a8548610612334576040517f08c379a00000000000000000000000000000000000000000000000000000000081526004018080602001828103825260198152602001807f726571756573744964206973206f7574206f662072616e67650000000000000081525060200191505060405180910390fd5b600060a9600088815260200190815260200160002090508060000160009054906101000a900473ffffffffffffffffffffffffffffffffffffffff1695508060010160009054906101000a900473ffffffffffffffffffffffffffffffffffffffff1694508060020160009054906101000a900473ffffffffffffffffffffffffffffffffffffffff169350806003015492508060040160009054906101000a900460ff1691505091939590929450565b600060a660009054906101000a900460ff16905090565b61240533611ed4565b61245a576040517f08c379a000000000000000000000000000000000000000000000000000000000815260040180806020018281038252602e815260200180615960602e913960400191505060405180910390fd5b6124638161408b565b50565b61246f33611ed4565b6124c4576040517f08c379a000000000000000000000000000000000000000000000000000000000815260040180806020018281038252602e815260200180615960602e913960400191505060405180910390fd5b6124cd816140fc565b50565b6000606860008373ffffffffffffffffffffffffffffffffffffffff1673ffffffffffffffffffffffffffffffffffffffff168152602001908152602001600020549050919050565b600061252f82609e613b8e90919063ffffffff16565b9050919050565b61253f33611ed4565b612594576040517f08c379a000000000000000000000000000000000000000000000000000000000815260040180806020018281038252602e815260200180615960602e913960400191505060405180910390fd5b61259d8161416d565b50565b6125a933611ed4565b6125fe576040517f08c379a000000000000000000000000000000000000000000000000000000000815260040180806020018281038252602e815260200180615960602e913960400191505060405180910390fd5b612607816141de565b50565b61261333612212565b612668576040517f08c379a00000000000000000000000000000000000000000000000000000000081526004018080602001828103825260308152602001806158056030913960400191505060405180910390fd5b60a660009054906101000a900460ff16156126eb576040517f08c379a00000000000000000000000000000000000000000000000000000000081526004018080602001828103825260108152602001807f5061757361626c653a207061757365640000000000000000000000000000000081525060200191505060405180910390fd5b6126f361424f565b565b600060019054906101000a900460ff168061271457506127136138e5565b5b8061272b57506000809054906101000a900460ff16155b612780576040517f08c379a000000000000000000000000000000000000000000000000000000000815260040180806020018281038252602e815260200180615a24602e913960400191505060405180910390fd5b60008060019054906101000a900460ff1615905080156127d0576001600060016101000a81548160ff02191690831515021790555060016000806101000a81548160ff0219169083151502179055505b6127db868686611c62565b6127e6338885613edb565b506127f0876140fc565b6127f982613683565b801561281a5760008060016101000a81548160ff0219169083151502179055505b50505050505050565b61282c33612519565b612881576040517f08c379a000000000000000000000000000000000000000000000000000000000815260040180806020018281038252603a815260200180615b4a603a913960400191505060405180910390fd5b61288a816142cf565b50565b61289633611ed4565b6128eb576040517f08c379a000000000000000000000000000000000000000000000000000000000815260040180806020018281038252602e815260200180615960602e913960400191505060405180910390fd5b6128f4816144c1565b50565b60a06020528060005260406000206000915054906101000a900460ff1681565b61292033611ed4565b612975576040517f08c379a000000000000000000000000000000000000000000000000000000000815260040180806020018281038252602e815260200180615960602e913960400191505060405180910390fd5b8073ffffffffffffffffffffffffffffffffffffffff163373ffffffffffffffffffffffffffffffffffffffff1614156129fa576040517f08c379a000000000000000000000000000000000000000000000000000000000815260040180806020018281038252602e815260200180615b84602e913960400191505060405180910390fd5b612a0381614532565b50565b6000609f60009054906101000a900460ff16612a255760019050612b35565b600060a060008573ffffffffffffffffffffffffffffffffffffffff1673ffffffffffffffffffffffffffffffffffffffff16815260200190815260200160002060009054906101000a900460ff169050600060a060008573ffffffffffffffffffffffffffffffffffffffff1673ffffffffffffffffffffffffffffffffffffffff16815260200190815260200160002060009054906101000a900460ff169050600060ff168260ff161480612ae25750600060ff168160ff16145b15612af257600092505050612b35565b60a160008360ff1660ff16815260200190815260200160002060008260ff1660ff16815260200190815260200160002060009054906101000a900460ff16925050505b92915050565b606060348054600181600116156101000203166002900480601f016020809104026020016040519081016040528092919081815260200182805460018160011615610100020316600290048015612bd35780601f10612ba857610100808354040283529160200191612bd3565b820191906000526020600020905b815481529060010190602001808311612bb657829003601f168201915b5050505050905090565b612be633611ed4565b612c3b576040517f08c379a000000000000000000000000000000000000000000000000000000000815260040180806020018281038252602e815260200180615960602e913960400191505060405180910390fd5b612c44816145a3565b50565b6040518060400160405280601281526020017f556e6b6e6f776e204572726f7220436f6465000000000000000000000000000081525081565b612c8933611ed4565b612cde576040517f08c379a000000000000000000000000000000000000000000000000000000000815260040180806020018281038252602e815260200180615960602e913960400191505060405180910390fd5b612ce781614614565b50565b6000612cf5336121f5565b612d4a576040517f08c379a00000000000000000000000000000000000000000000000000000000081526004018080602001828103825260308152602001806158af6030913960400191505060405180910390fd5b612d55338484614685565b905092915050565b612d66336131e7565b612dbb576040517f08c379a00000000000000000000000000000000000000000000000000000000081526004018080602001828103825260328152602001806157d36032913960400191505060405180910390fd5b612dc481614701565b50565b6000612e8a612dd46136e6565b84612e8585604051806060016040528060258152602001615c3d6025913960696000612dfe6136e6565b73ffffffffffffffffffffffffffffffffffffffff1673ffffffffffffffffffffffffffffffffffffffff16815260200190815260200160002060008a73ffffffffffffffffffffffffffffffffffffffff1673ffffffffffffffffffffffffffffffffffffffff168152602001908152602001600020546148359092919063ffffffff16565b6136ee565b6001905092915050565b6000612ea083836148f5565b905092915050565b6000612ebe8260a2613b8e90919063ffffffff16565b9050919050565b612ece33611ed4565b612f23576040517f08c379a000000000000000000000000000000000000000000000000000000000815260040180806020018281038252602e815260200180615960602e913960400191505060405180910390fd5b612f2c81614b14565b50565b6040518060600160405280603c8152602001615bd6603c913981565b60a8548110612fa5576040517f08c379a0000000000000000000000000000000000000000000000000000000008152600401808060200182810382526021815260200180615a7a6021913960400191505060405180910390fd5b600060a96000838152602001908152602001600020905060006003811115612fc957fe5b8160040160009054906101000a900460ff166003811115612fe657fe5b1461303c576040517f08c379a000000000000000000000000000000000000000000000000000000000815260040180806020018281038252602b8152602001806158df602b913960400191505060405180910390fd5b8060000160009054906101000a900473ffffffffffffffffffffffffffffffffffffffff1673ffffffffffffffffffffffffffffffffffffffff163373ffffffffffffffffffffffffffffffffffffffff16146130e4576040517f08c379a000000000000000000000000000000000000000000000000000000000815260040180806020018281038252602b8152602001806159af602b913960400191505060405180910390fd5b6130f081836003614b85565b613123308260010160009054906101000a900473ffffffffffffffffffffffffffffffffffffffff168360030154614c24565b5050565b6000606960008473ffffffffffffffffffffffffffffffffffffffff1673ffffffffffffffffffffffffffffffffffffffff16815260200190815260200160002060008373ffffffffffffffffffffffffffffffffffffffff1673ffffffffffffffffffffffffffffffffffffffff16815260200190815260200160002054905092915050565b6040518060400160405280600781526020017f535543434553530000000000000000000000000000000000000000000000000081525081565b60006131fd8260a7613b8e90919063ffffffff16565b9050919050565b60a16020528160005260406000206020528060005260406000206000915091509054906101000a900460ff1681565b600061323e33613379565b613293576040517f08c379a00000000000000000000000000000000000000000000000000000000081526004018080602001828103825260328152602001806158576032913960400191505060405180910390fd5b61329d8383614ede565b905092915050565b6132ae33611ed4565b613303576040517f08c379a000000000000000000000000000000000000000000000000000000000815260040180806020018281038252602e815260200180615960602e913960400191505060405180910390fd5b61330c81614f5a565b50565b61331833611ed4565b61336d576040517f08c379a000000000000000000000000000000000000000000000000000000000815260040180806020018281038252602e815260200180615960602e913960400191505060405180910390fd5b61337681614fcb565b50565b600061338f8260a4613b8e90919063ffffffff16565b9050919050565b600073ffffffffffffffffffffffffffffffffffffffff168273ffffffffffffffffffffffffffffffffffffffff16141561341c576040517f08c379a000000000000000000000000000000000000000000000000000000000815260040180806020018281038252602681526020018061590a6026913960400191505060405180910390fd5b600060ff168160ff161415613499576040517f08c379a000000000000000000000000000000000000000000000000000000000815260040180806020018281038252601d8152602001807f496e76616c69642077686974656c69737420494420737570706c69656400000081525060200191505060405180910390fd5b600060a060008473ffffffffffffffffffffffffffffffffffffffff1673ffffffffffffffffffffffffffffffffffffffff16815260200190815260200160002060009054906101000a900460ff1690508160a060008573ffffffffffffffffffffffffffffffffffffffff1673ffffffffffffffffffffffffffffffffffffffff16815260200190815260200160002060006101000a81548160ff021916908360ff160217905550600060ff168160ff16146135af573373ffffffffffffffffffffffffffffffffffffffff168160ff168473ffffffffffffffffffffffffffffffffffffffff167fb50a30a0fa972f89fbb2b514d12b31f5a5d64f53603402de7939742cd8507f6e60405160405180910390a45b3373ffffffffffffffffffffffffffffffffffffffff168260ff168473ffffffffffffffffffffffffffffffffffffffff167fca6d1e885708b837a7647aeb7f4163ee4ca96058e08ac767be8d23c972c5027060405160405180910390a4505050565b6136268160a361503c90919063ffffffff16565b3373ffffffffffffffffffffffffffffffffffffffff168173ffffffffffffffffffffffffffffffffffffffff167f85222465e0d438163a28671b59fc9ebeb03bf39f880ddd36c8315da7512b31c060405160405180910390a350565b80609f60006101000a81548160ff0219169083151502179055508015153373ffffffffffffffffffffffffffffffffffffffff167fb535c5f7f150db8dbf22962fc390e7fa9026b9c29ffad714197bee4620572bd660405160405180910390a350565b600033905090565b600073ffffffffffffffffffffffffffffffffffffffff168373ffffffffffffffffffffffffffffffffffffffff161415613774576040517f08c379a0000000000000000000000000000000000000000000000000000000008152600401808060200182810382526024815260200180615bb26024913960400191505060405180910390fd5b600073ffffffffffffffffffffffffffffffffffffffff168273ffffffffffffffffffffffffffffffffffffffff1614156137fa576040517f08c379a00000000000000000000000000000000000000000000000000000000081526004018080602001828103825260228152602001806158356022913960400191505060405180910390fd5b80606960008573ffffffffffffffffffffffffffffffffffffffff1673ffffffffffffffffffffffffffffffffffffffff16815260200190815260200160002060008473ffffffffffffffffffffffffffffffffffffffff1673ffffffffffffffffffffffffffffffffffffffff168152602001908152602001600020819055508173ffffffffffffffffffffffffffffffffffffffff168373ffffffffffffffffffffffffffffffffffffffff167f8c5be1e5ebec7d5bd14f71427d1e84f3dd0314c0f7b2291e5b200ac8c7c3b925836040518082815260200191505060405180910390a3505050565b6000803090506000813b9050600081149250505090565b61391081609d61503c90919063ffffffff16565b3373ffffffffffffffffffffffffffffffffffffffff168173ffffffffffffffffffffffffffffffffffffffff167fe594d081b4382713733fe631966432c9cea5199afb2db5c3c1931f9f9300367960405160405180910390a350565b60006040518060a001604052803373ffffffffffffffffffffffffffffffffffffffff1681526020018573ffffffffffffffffffffffffffffffffffffffff1681526020018473ffffffffffffffffffffffffffffffffffffffff168152602001838152602001600060038111156139e157fe5b81525060a9600060a854815260200190815260200160002060008201518160000160006101000a81548173ffffffffffffffffffffffffffffffffffffffff021916908373ffffffffffffffffffffffffffffffffffffffff16021790555060208201518160010160006101000a81548173ffffffffffffffffffffffffffffffffffffffff021916908373ffffffffffffffffffffffffffffffffffffffff16021790555060408201518160020160006101000a81548173ffffffffffffffffffffffffffffffffffffffff021916908373ffffffffffffffffffffffffffffffffffffffff1602179055506060820151816003015560808201518160040160006101000a81548160ff02191690836003811115613afc57fe5b02179055509050503373ffffffffffffffffffffffffffffffffffffffff167f37c022e8b41869a28d52a95d97338cc58db90c5e01027e7b5db628b620332d5f60a854600060405180838152602001826003811115613b5757fe5b60ff1681526020019250505060405180910390a2600160a8540160a881905550613b828430846150f9565b50600190509392505050565b60008073ffffffffffffffffffffffffffffffffffffffff168273ffffffffffffffffffffffffffffffffffffffff161415613c15576040517f08c379a0000000000000000000000000000000000000000000000000000000008152600401808060200182810382526022815260200180615a026022913960400191505060405180910390fd5b8260000160008373ffffffffffffffffffffffffffffffffffffffff1673ffffffffffffffffffffffffffffffffffffffff16815260200190815260200160002060009054906101000a900460ff16905092915050565b613c808160a261503c90919063ffffffff16565b3373ffffffffffffffffffffffffffffffffffffffff168173ffffffffffffffffffffffffffffffffffffffff167f4b5ef9a786cf64a7d82ebcf2d5132667edc9faef4ac36260d9a9e52c526b623260405160405180910390a350565b600080828401905083811015613d5b576040517f08c379a000000000000000000000000000000000000000000000000000000000815260040180806020018281038252601b8152602001807f536166654d6174683a206164646974696f6e206f766572666c6f77000000000081525060200191505060405180910390fd5b8091505092915050565b600060a160008560ff1660ff16815260200190815260200160002060008460ff1660ff16815260200190815260200160002060009054906101000a900460ff1690508160a160008660ff1660ff16815260200190815260200160002060008560ff1660ff16815260200190815260200160002060006101000a81548160ff0219169083151502179055508260ff168460ff163373ffffffffffffffffffffffffffffffffffffffff167fb0353d563a9aa5231878c83727dc723a3cb8a38c2917f8ac2b777aa564c8a0d584866040518083151515158152602001821515151581526020019250505060405180910390a450505050565b600060a660006101000a81548160ff0219169083151502179055507f5db9ee0a495bf2e6ff9c91a7834c1ba4fdd244a5e8aa4e537bd38aeae4b073aa33604051808273ffffffffffffffffffffffffffffffffffffffff1673ffffffffffffffffffffffffffffffffffffffff16815260200191505060405180910390a1565b6000613ee783836151d2565b8273ffffffffffffffffffffffffffffffffffffffff168473ffffffffffffffffffffffffffffffffffffffff167fab8530f87dc9b59234c4623bf917212bb2536d647574c8e7e5da92c2ede0c9f8846040518082815260200191505060405180910390a3600190509392505050565b60a8548110613fb1576040517f08c379a0000000000000000000000000000000000000000000000000000000008152600401808060200182810382526021815260200180615a7a6021913960400191505060405180910390fd5b600060a96000838152602001908152602001600020905060006003811115613fd557fe5b8160040160009054906101000a900460ff166003811115613ff257fe5b14614048576040517f08c379a000000000000000000000000000000000000000000000000000000000815260040180806020018281038252602b815260200180615755602b913960400191505060405180910390fd5b61405481836002614b85565b614087308260010160009054906101000a900473ffffffffffffffffffffffffffffffffffffffff168360030154614c24565b5050565b61409f8160a561503c90919063ffffffff16565b3373ffffffffffffffffffffffffffffffffffffffff168173ffffffffffffffffffffffffffffffffffffffff167fb75903ade4a0fdb07d60c882c22c779e2e1c751883c37aecdcc92a8ec72b046e60405160405180910390a350565b61411081609d61538f90919063ffffffff16565b3373ffffffffffffffffffffffffffffffffffffffff168173ffffffffffffffffffffffffffffffffffffffff167fc82bdbbf677a2462f2a7e22e4ba9abd209496b69cd7b868b3b1d28f76e09a40a60405160405180910390a350565b61418181609e61503c90919063ffffffff16565b3373ffffffffffffffffffffffffffffffffffffffff168173ffffffffffffffffffffffffffffffffffffffff167f3ed21605dd544629fb45f2ccaedcc095ba1dbea540fb6eaf5493a7479856b0be60405160405180910390a350565b6141f28160a561538f90919063ffffffff16565b3373ffffffffffffffffffffffffffffffffffffffff168173ffffffffffffffffffffffffffffffffffffffff167fe0953c403a52f9dc1fef4202a8d33975c958b727bee0d7b5b328965ddad98d8160405160405180910390a350565b600160a660006101000a81548160ff0219169083151502179055507f62e78cea01bee320cd4e420270b5ea74000d11b0c9f74754ebdbfc544b05a25833604051808273ffffffffffffffffffffffffffffffffffffffff1673ffffffffffffffffffffffffffffffffffffffff16815260200191505060405180910390a1565b600073ffffffffffffffffffffffffffffffffffffffff168173ffffffffffffffffffffffffffffffffffffffff161415614355576040517f08c379a000000000000000000000000000000000000000000000000000000000815260040180806020018281038252602b815260200180615c12602b913960400191505060405180910390fd5b600060a060008373ffffffffffffffffffffffffffffffffffffffff1673ffffffffffffffffffffffffffffffffffffffff16815260200190815260200160002060009054906101000a900460ff169050600060ff168160ff161415614406576040517f08c379a00000000000000000000000000000000000000000000000000000000081526004018080602001828103825260318152602001806157806031913960400191505060405180910390fd5b600060a060008473ffffffffffffffffffffffffffffffffffffffff1673ffffffffffffffffffffffffffffffffffffffff16815260200190815260200160002060006101000a81548160ff021916908360ff1602179055503373ffffffffffffffffffffffffffffffffffffffff168160ff168373ffffffffffffffffffffffffffffffffffffffff167fb50a30a0fa972f89fbb2b514d12b31f5a5d64f53603402de7939742cd8507f6e60405160405180910390a45050565b6144d58160a761538f90919063ffffffff16565b3373ffffffffffffffffffffffffffffffffffffffff168173ffffffffffffffffffffffffffffffffffffffff167fc40499ba035b8062e6798e3416432187fdca530d217e788b87357cddd5c56ac660405160405180910390a350565b6145468160a761503c90919063ffffffff16565b3373ffffffffffffffffffffffffffffffffffffffff168173ffffffffffffffffffffffffffffffffffffffff167ffc92afc8a5449a0672774ee4b158bd167b5aa87938ddab1c116e96b2be589e8c60405160405180910390a350565b6145b78160a461538f90919063ffffffff16565b3373ffffffffffffffffffffffffffffffffffffffff168173ffffffffffffffffffffffffffffffffffffffff167f2b5f18afd9a7b21f41bf023b012b3d4c8a22a21b79fa425cd4494ecbe297019660405160405180910390a350565b6146288160a261538f90919063ffffffff16565b3373ffffffffffffffffffffffffffffffffffffffff168173ffffffffffffffffffffffffffffffffffffffff167f3c091dafb1d99e4a4c333024492eac3b2cd8bf921a3dd547c937db33be307bb860405160405180910390a350565b6000614691838361546a565b8273ffffffffffffffffffffffffffffffffffffffff168473ffffffffffffffffffffffffffffffffffffffff167fbac40739b0d4ca32fa2d82fc91630465ba3eddd1598da6fca393b26fb63b9453846040518082815260200191505060405180910390a3600190509392505050565b60a854811061475b576040517f08c379a0000000000000000000000000000000000000000000000000000000008152600401808060200182810382526021815260200180615a7a6021913960400191505060405180910390fd5b600060a9600083815260200190815260200160002090506000600381111561477f57fe5b8160040160009054906101000a900460ff16600381111561479c57fe5b146147f2576040517f08c379a000000000000000000000000000000000000000000000000000000000815260040180806020018281038252602c815260200180615af9602c913960400191505060405180910390fd5b6147fe81836001614b85565b614831308260020160009054906101000a900473ffffffffffffffffffffffffffffffffffffffff168360030154614c24565b5050565b60008383111582906148e2576040517f08c379a00000000000000000000000000000000000000000000000000000000081526004018080602001828103825283818151815260200191508051906020019080838360005b838110156148a757808201518184015260208101905061488c565b50505050905090810190601f1680156148d45780820380516001836020036101000a031916815260200191505b509250505060405180910390fd5b5060008385039050809150509392505050565b60006040518060a001604052803373ffffffffffffffffffffffffffffffffffffffff1681526020013373ffffffffffffffffffffffffffffffffffffffff1681526020018473ffffffffffffffffffffffffffffffffffffffff1681526020018381526020016000600381111561496957fe5b81525060a9600060a854815260200190815260200160002060008201518160000160006101000a81548173ffffffffffffffffffffffffffffffffffffffff021916908373ffffffffffffffffffffffffffffffffffffffff16021790555060208201518160010160006101000a81548173ffffffffffffffffffffffffffffffffffffffff021916908373ffffffffffffffffffffffffffffffffffffffff16021790555060408201518160020160006101000a81548173ffffffffffffffffffffffffffffffffffffffff021916908373ffffffffffffffffffffffffffffffffffffffff1602179055506060820151816003015560808201518160040160006101000a81548160ff02191690836003811115614a8457fe5b02179055509050503373ffffffffffffffffffffffffffffffffffffffff167f37c022e8b41869a28d52a95d97338cc58db90c5e01027e7b5db628b620332d5f60a854600060405180838152602001826003811115614adf57fe5b60ff1681526020019250505060405180910390a2600160a8540160a881905550614b093083615624565b506001905092915050565b614b288160a461503c90919063ffffffff16565b3373ffffffffffffffffffffffffffffffffffffffff168173ffffffffffffffffffffffffffffffffffffffff167fb6fe3ab11eb9ab1d9f1d41c8f42a5d72d10122099ba1548e4a6d1a4d8cefec4b60405160405180910390a350565b808360040160006101000a81548160ff02191690836003811115614ba557fe5b02179055503373ffffffffffffffffffffffffffffffffffffffff167f37c022e8b41869a28d52a95d97338cc58db90c5e01027e7b5db628b620332d5f838560040160009054906101000a900460ff1660405180838152602001826003811115614c0b57fe5b60ff1681526020019250505060405180910390a2505050565b600073ffffffffffffffffffffffffffffffffffffffff168373ffffffffffffffffffffffffffffffffffffffff161415614caa576040517f08c379a0000000000000000000000000000000000000000000000000000000008152600401808060200182810382526025815260200180615b256025913960400191505060405180910390fd5b600073ffffffffffffffffffffffffffffffffffffffff168273ffffffffffffffffffffffffffffffffffffffff161415614d30576040517f08c379a00000000000000000000000000000000000000000000000000000000081526004018080602001828103825260238152602001806157326023913960400191505060405180910390fd5b614d9c8160405180606001604052806026815260200161588960269139606860008773ffffffffffffffffffffffffffffffffffffffff1673ffffffffffffffffffffffffffffffffffffffff168152602001908152602001600020546148359092919063ffffffff16565b606860008573ffffffffffffffffffffffffffffffffffffffff1673ffffffffffffffffffffffffffffffffffffffff16815260200190815260200160002081905550614e3181606860008573ffffffffffffffffffffffffffffffffffffffff1673ffffffffffffffffffffffffffffffffffffffff16815260200190815260200160002054613cdd90919063ffffffff16565b606860008473ffffffffffffffffffffffffffffffffffffffff1673ffffffffffffffffffffffffffffffffffffffff168152602001908152602001600020819055508173ffffffffffffffffffffffffffffffffffffffff168373ffffffffffffffffffffffffffffffffffffffff167fddf252ad1be2c89b69c2b068fc378daa952ba7f163c4a11628f55a4df523b3ef836040518082815260200191505060405180910390a3505050565b6000614eeb833384614c24565b8273ffffffffffffffffffffffffffffffffffffffff163373ffffffffffffffffffffffffffffffffffffffff167fb698e31a2abee5824d0d7bcfd2339aead7f9e9ae413fba50bf554ff3fa470b7b846040518082815260200191505060405180910390a36001905092915050565b614f6e81609e61538f90919063ffffffff16565b3373ffffffffffffffffffffffffffffffffffffffff168173ffffffffffffffffffffffffffffffffffffffff167f5f36f4f5999f34947706fca376b955319b858573bf9d6bc59303c9a4cd80ced060405160405180910390a350565b614fdf8160a361538f90919063ffffffff16565b3373ffffffffffffffffffffffffffffffffffffffff168173ffffffffffffffffffffffffffffffffffffffff167f86515ebaad527298e98929c064c075f5a2604cc80afc0db29e73c01a36f8e98c60405160405180910390a350565b6150468282613b8e565b61509b576040517f08c379a000000000000000000000000000000000000000000000000000000000815260040180806020018281038252602181526020018061598e6021913960400191505060405180910390fd5b60008260000160008373ffffffffffffffffffffffffffffffffffffffff1673ffffffffffffffffffffffffffffffffffffffff16815260200190815260200160002060006101000a81548160ff0219169083151502179055505050565b6000615106848484614c24565b6151c7846151126136e6565b6151c2856040518060600160405280602881526020016159da60289139606960008b73ffffffffffffffffffffffffffffffffffffffff1673ffffffffffffffffffffffffffffffffffffffff16815260200190815260200160002060006151786136e6565b73ffffffffffffffffffffffffffffffffffffffff1673ffffffffffffffffffffffffffffffffffffffff168152602001908152602001600020546148359092919063ffffffff16565b6136ee565b600190509392505050565b600073ffffffffffffffffffffffffffffffffffffffff168273ffffffffffffffffffffffffffffffffffffffff161415615275576040517f08c379a000000000000000000000000000000000000000000000000000000000815260040180806020018281038252601f8152602001807f45524332303a206d696e7420746f20746865207a65726f20616464726573730081525060200191505060405180910390fd5b61528a81606a54613cdd90919063ffffffff16565b606a819055506152e281606860008573ffffffffffffffffffffffffffffffffffffffff1673ffffffffffffffffffffffffffffffffffffffff16815260200190815260200160002054613cdd90919063ffffffff16565b606860008473ffffffffffffffffffffffffffffffffffffffff1673ffffffffffffffffffffffffffffffffffffffff168152602001908152602001600020819055508173ffffffffffffffffffffffffffffffffffffffff16600073ffffffffffffffffffffffffffffffffffffffff167fddf252ad1be2c89b69c2b068fc378daa952ba7f163c4a11628f55a4df523b3ef836040518082815260200191505060405180910390a35050565b6153998282613b8e565b1561540c576040517f08c379a000000000000000000000000000000000000000000000000000000000815260040180806020018281038252601f8152602001807f526f6c65733a206163636f756e7420616c72656164792068617320726f6c650081525060200191505060405180910390fd5b60018260000160008373ffffffffffffffffffffffffffffffffffffffff1673ffffffffffffffffffffffffffffffffffffffff16815260200190815260200160002060006101000a81548160ff0219169083151502179055505050565b600073ffffffffffffffffffffffffffffffffffffffff168273ffffffffffffffffffffffffffffffffffffffff1614156154f0576040517f08c379a0000000000000000000000000000000000000000000000000000000008152600401808060200182810382526021815260200180615ad86021913960400191505060405180910390fd5b61555c816040518060600160405280602281526020016157b160229139606860008673ffffffffffffffffffffffffffffffffffffffff1673ffffffffffffffffffffffffffffffffffffffff168152602001908152602001600020546148359092919063ffffffff16565b606860008473ffffffffffffffffffffffffffffffffffffffff1673ffffffffffffffffffffffffffffffffffffffff168152602001908152602001600020819055506155b481606a5461564290919063ffffffff16565b606a81905550600073ffffffffffffffffffffffffffffffffffffffff168273ffffffffffffffffffffffffffffffffffffffff167fddf252ad1be2c89b69c2b068fc378daa952ba7f163c4a11628f55a4df523b3ef836040518082815260200191505060405180910390a35050565b60006156386156316136e6565b8484614c24565b6001905092915050565b600061568483836040518060400160405280601e81526020017f536166654d6174683a207375627472616374696f6e206f766572666c6f770000815250614835565b905092915050565b828054600181600116156101000203166002900490600052602060002090601f016020900481019282601f106156cd57805160ff19168380011785556156fb565b828001600101855582156156fb579182015b828111156156fa5782518255916020019190600101906156df565b5b509050615708919061570c565b5090565b61572e91905b8082111561572a576000816000905550600101615712565b5090565b9056fe45524332303a207472616e7366657220746f20746865207a65726f206164647265737352657175657374206d75737420626520696e2050656e64696e6720737461746520746f2072656a6563742e416464726573732063616e6e6f742062652072656d6f7665642066726f6d20696e76616c69642077686974656c6973742e45524332303a206275726e20616d6f756e7420657863656564732062616c616e6365457363726f776572526f6c653a2063616c6c657220646f6573206e6f7420686176652074686520457363726f7720726f6c65506175736572526f6c653a2063616c6c657220646f6573206e6f742068617665207468652050617573657220726f6c6545524332303a20617070726f766520746f20746865207a65726f20616464726573735265766f6b6572526f6c653a2063616c6c657220646f6573206e6f74206861766520746865205265766f6b657220726f6c6545524332303a207472616e7366657220616d6f756e7420657863656564732062616c616e63654275726e6572526f6c653a2063616c6c657220646f6573206e6f74206861766520746865204275726e657220726f6c6552657175657374206d75737420626520696e2050656e64696e6720737461746520746f2063616e63656c2e43616e6e6f742061646420616464726573732030783020746f20612077686974656c6973742e4d696e746572526f6c653a2063616c6c657220646f6573206e6f74206861766520746865204d696e74657220726f6c654f776e6572526f6c653a2063616c6c657220646f6573206e6f74206861766520746865204f776e657220726f6c65526f6c65733a206163636f756e7420646f6573206e6f74206861766520726f6c654f6e6c79207468652063726561746f72206f66206120726571756573742063616e2063616e63656c20697445524332303a207472616e7366657220616d6f756e74206578636565647320616c6c6f77616e6365526f6c65733a206163636f756e7420697320746865207a65726f2061646472657373436f6e747261637420696e7374616e63652068617320616c7265616479206265656e20696e697469616c697a65644f776e6572732063616e6e6f742072656d6f7665207468656d73656c766573206173206f776e657252657175657374204944206973206e6f7420696e2070726f7065722072616e6765546865207472616e736665722077617320726573747269637465642064756520746f2074686520636f6e7472616374206265696e67207061757365642e45524332303a206275726e2066726f6d20746865207a65726f206164647265737352657175657374206d75737420626520696e2050656e64696e6720737461746520746f20617070726f76652e45524332303a207472616e736665722066726f6d20746865207a65726f206164647265737357686974656c6973746572526f6c653a2063616c6c657220646f6573206e6f742068617665207468652057686974656c697374657220726f6c65457363726f776572732063616e6e6f742072656d6f7665207468656d73656c76657320617320457363726f77657245524332303a20617070726f76652066726f6d20746865207a65726f2061646472657373546865207472616e736665722077617320726573747269637465642064756520746f207768697465206c69737420636f6e66696775726174696f6e2e43616e6e6f742072656d6f76652061646472657373203078302066726f6d20612077686974656c6973742e45524332303a2064656372656173656420616c6c6f77616e63652062656c6f77207a65726fa265627a7a723158201137b09c3d547df435b2b23525797d372497dea5fc3b55456da78dd6a36d5beb64736f6c63430005100032",
  "source": "pragma solidity 0.5.16;\n\nimport \"@openzeppelin/contracts-ethereum-package/contracts/token/ERC20/ERC20Detailed.sol\";\nimport \"../roles/OwnerRole.sol\";\nimport \"../capabilities/Whitelistable.sol\";\nimport \"../capabilities/Mintable.sol\";\nimport \"../capabilities/Burnable.sol\";\nimport \"../capabilities/Revocable.sol\";\nimport \"../capabilities/Pausable.sol\";\nimport \"./Escrowable.sol\";\n\ncontract TokenSoftTokenEscrowNotProxiable is ERC20Detailed, OwnerRole, Whitelistable, Mintable, Burnable, Revocable, Pausable, Escrowable {\n\n    // ERC1404 Error codes and messages\n    uint8 public constant SUCCESS_CODE = 0;\n    uint8 public constant FAILURE_NON_WHITELIST = 1;\n    uint8 public constant FAILURE_PAUSED = 2;\n    string public constant SUCCESS_MESSAGE = \"SUCCESS\";\n    string public constant FAILURE_NON_WHITELIST_MESSAGE = \"The transfer was restricted due to white list configuration.\";\n    string public constant FAILURE_PAUSED_MESSAGE = \"The transfer was restricted due to the contract being paused.\";\n    string public constant UNKNOWN_ERROR = \"Unknown Error Code\";\n\n    /**\n    Constructor for the token to set readable details and mint all tokens\n    to the specified owner.\n     */\n    function initialize (address owner, string memory name, string memory symbol, uint8 decimals, uint256 initialSupply, bool whitelistEnabled)\n        public\n        initializer\n    {\n        ERC20Detailed.initialize(name, symbol, decimals);\n        Mintable._mint(msg.sender, owner, initialSupply);\n        OwnerRole._addOwner(owner);\n        Whitelistable._setWhitelistEnabled(whitelistEnabled);\n    }\n\n    /**\n    Restrict rejectTransferProposals to admins only\n     */\n    function rejectTransferProposal(uint requestId) public onlyEscrower {\n      Escrowable._rejectTransferProposal(requestId);\n    }\n\n    /**\n    Restrict approveTransferProposals to admins only\n     */\n    function approveTransferProposal(uint requestId) public onlyEscrower {\n      Escrowable._approveTransferProposal(requestId);\n    }\n\n    /**\n    Overrides the parent class token transfer function to enforce restrictions.\n     */\n    function transfer (address to, uint256 value)\n        public\n        returns (bool success)\n    {\n        success = Escrowable._createTransferProposal(to, value);\n    }\n\n    /**\n    Overrides the parent class token transferFrom function to enforce restrictions.\n    Note that the approved amount of tokens the sender can transfer does not get reimbursed if the\n    Transfer proposal is rejcted or canceled.\n     */\n    function transferFrom (address from, address to, uint256 value)\n        public\n        returns (bool success)\n    {\n        success = Escrowable._createTransferFromProposal(from, to, value);\n    }\n}\n",
  "sourcePath": "/Users/james/Source/tokensoft/tokensoft_token/contracts/testing/TokenSoftTokenEscrowNotProxiable.sol",
  "compiler": {
    "name": "solc",
    "version": "0.5.16+commit.9c3226ce.Emscripten.clang"
  },
  "schemaVersion": "3.1.0",
  "updatedAt": "2020-06-15T20:19:35.463Z",
  "devdoc": {
    "methods": {
      "allowance(address,address)": {
        "details": "See {IERC20-allowance}."
      },
      "approve(address,uint256)": {
        "details": "See {IERC20-approve}.     * Requirements:     * - `spender` cannot be the zero address."
      },
      "balanceOf(address)": {
        "details": "See {IERC20-balanceOf}."
      },
      "decimals()": {
        "details": "Returns the number of decimals used to get its user representation. For example, if `decimals` equals `2`, a balance of `505` tokens should be displayed to a user as `5,05` (`505 / 10 ** 2`).     * Tokens usually opt for a value of 18, imitating the relationship between Ether and Wei.     * NOTE: This information is only used for _display_ purposes: it in no way affects any of the arithmetic of the contract, including {IERC20-balanceOf} and {IERC20-transfer}."
      },
      "decreaseAllowance(address,uint256)": {
        "details": "Atomically decreases the allowance granted to `spender` by the caller.     * This is an alternative to {approve} that can be used as a mitigation for problems described in {IERC20-approve}.     * Emits an {Approval} event indicating the updated allowance.     * Requirements:     * - `spender` cannot be the zero address. - `spender` must have allowance for the caller of at least `subtractedValue`."
      },
      "increaseAllowance(address,uint256)": {
        "details": "Atomically increases the allowance granted to `spender` by the caller.     * This is an alternative to {approve} that can be used as a mitigation for problems described in {IERC20-approve}.     * Emits an {Approval} event indicating the updated allowance.     * Requirements:     * - `spender` cannot be the zero address."
      },
      "initialize(string,string,uint8)": {
        "details": "Sets the values for `name`, `symbol`, and `decimals`. All three of these values are immutable: they can only be set once during construction."
      },
      "name()": {
        "details": "Returns the name of the token."
      },
      "pause()": {
        "details": "Called by an Owner to pause, triggers stopped state."
      },
      "paused()": {
        "details": "Returns true if the contract is paused, and false otherwise."
      },
      "symbol()": {
        "details": "Returns the symbol of the token, usually a shorter version of the name."
      },
      "totalSupply()": {
        "details": "See {IERC20-totalSupply}."
      },
      "unpause()": {
        "details": "Called by an Owner to unpause, returns to normal state."
      }
    }
  },
  "userdoc": {
    "methods": {
      "addToWhitelist(address,uint8)": {
        "notice": "Public function that allows admins to remove an address from a whitelist"
      },
      "approveTransferProposal(uint256)": {
        "notice": "Restrict approveTransferProposals to admins only"
      },
      "burn(address,uint256)": {
        "notice": "Allow Burners to burn tokens from valid addresses"
      },
      "cancelTransferProposal(uint256)": {
        "notice": "If a user locks up funds in a proposal, they can cancel it as long as an administrator has not already approved or rejected it."
      },
      "checkWhitelistAllowed(address,address)": {
        "notice": "Determine if the a sender is allowed to send to the receiver. The source whitelist must be enabled to send to the whitelist where the receive exists."
      },
      "initialize(address,string,string,uint8,uint256,bool)": {
        "notice": "Constructor for the token to set readable details and mint all tokens to the specified owner."
      },
      "mint(address,uint256)": {
        "notice": "Allow Owners to mint tokens to valid addresses"
      },
      "rejectTransferProposal(uint256)": {
        "notice": "Restrict rejectTransferProposals to admins only"
      },
      "removeFromWhitelist(address)": {
        "notice": "Public function that allows admins to remove an address from a whitelist"
      },
      "revoke(address,uint256)": {
        "notice": "Allow Admins to revoke tokens from any address"
      },
      "setWhitelistEnabled(bool)": {
        "notice": "Enable or disable the whitelist enforcement"
      },
      "transfer(address,uint256)": {
        "notice": "Overrides the parent class token transfer function to enforce restrictions."
      },
      "transferFrom(address,address,uint256)": {
        "notice": "Overrides the parent class token transferFrom function to enforce restrictions. Note that the approved amount of tokens the sender can transfer does not get reimbursed if the Transfer proposal is rejcted or canceled."
      },
      "updateOutboundWhitelistEnabled(uint8,uint8,bool)": {
        "notice": "Public function that allows admins to update outbound whitelists"
      }
    }
  }
}