{
  "contractName": "TokenSoftToken",
  "abi": [
    {
      "anonymous": false,
      "inputs": [
        {
          "indexed": true,
          "internalType": "address",
          "name": "addedAddress",
          "type": "address"
        },
        {
          "indexed": true,
          "internalType": "uint8",
          "name": "whitelist",
          "type": "uint8"
        },
        {
          "indexed": true,
          "internalType": "address",
          "name": "addedBy",
          "type": "address"
        }
      ],
      "name": "AddressAddedToWhitelist",
      "type": "event"
    },
    {
      "anonymous": false,
      "inputs": [
        {
          "indexed": true,
          "internalType": "address",
          "name": "removedAddress",
          "type": "address"
        },
        {
          "indexed": true,
          "internalType": "uint8",
          "name": "whitelist",
          "type": "uint8"
        },
        {
          "indexed": true,
          "internalType": "address",
          "name": "removedBy",
          "type": "address"
        }
      ],
      "name": "AddressRemovedFromWhitelist",
      "type": "event"
    },
    {
      "anonymous": false,
      "inputs": [
        {
          "indexed": true,
          "internalType": "address",
          "name": "owner",
          "type": "address"
        },
        {
          "indexed": true,
          "internalType": "address",
          "name": "spender",
          "type": "address"
        },
        {
          "indexed": false,
          "internalType": "uint256",
          "name": "value",
          "type": "uint256"
        }
      ],
      "name": "Approval",
      "type": "event"
    },
    {
      "anonymous": false,
      "inputs": [
        {
          "indexed": true,
          "internalType": "address",
          "name": "burner",
          "type": "address"
        },
        {
          "indexed": true,
          "internalType": "address",
          "name": "from",
          "type": "address"
        },
        {
          "indexed": false,
          "internalType": "uint256",
          "name": "amount",
          "type": "uint256"
        }
      ],
      "name": "Burn",
      "type": "event"
    },
    {
      "anonymous": false,
      "inputs": [
        {
          "indexed": true,
          "internalType": "address",
          "name": "addedBurner",
          "type": "address"
        },
        {
          "indexed": true,
          "internalType": "address",
          "name": "addedBy",
          "type": "address"
        }
      ],
      "name": "BurnerAdded",
      "type": "event"
    },
    {
      "anonymous": false,
      "inputs": [
        {
          "indexed": true,
          "internalType": "address",
          "name": "removedBurner",
          "type": "address"
        },
        {
          "indexed": true,
          "internalType": "address",
          "name": "removedBy",
          "type": "address"
        }
      ],
      "name": "BurnerRemoved",
      "type": "event"
    },
    {
      "anonymous": false,
      "inputs": [
        {
          "indexed": false,
          "internalType": "address",
          "name": "newAddress",
          "type": "address"
        }
      ],
      "name": "CodeAddressUpdated",
      "type": "event"
    },
    {
      "anonymous": false,
      "inputs": [
        {
          "indexed": true,
          "internalType": "address",
          "name": "minter",
          "type": "address"
        },
        {
          "indexed": true,
          "internalType": "address",
          "name": "to",
          "type": "address"
        },
        {
          "indexed": false,
          "internalType": "uint256",
          "name": "amount",
          "type": "uint256"
        }
      ],
      "name": "Mint",
      "type": "event"
    },
    {
      "anonymous": false,
      "inputs": [
        {
          "indexed": true,
          "internalType": "address",
          "name": "addedMinter",
          "type": "address"
        },
        {
          "indexed": true,
          "internalType": "address",
          "name": "addedBy",
          "type": "address"
        }
      ],
      "name": "MinterAdded",
      "type": "event"
    },
    {
      "anonymous": false,
      "inputs": [
        {
          "indexed": true,
          "internalType": "address",
          "name": "removedMinter",
          "type": "address"
        },
        {
          "indexed": true,
          "internalType": "address",
          "name": "removedBy",
          "type": "address"
        }
      ],
      "name": "MinterRemoved",
      "type": "event"
    },
    {
      "anonymous": false,
      "inputs": [
        {
          "indexed": true,
          "internalType": "address",
          "name": "updatedBy",
          "type": "address"
        },
        {
          "indexed": true,
          "internalType": "uint8",
          "name": "sourceWhitelist",
          "type": "uint8"
        },
        {
          "indexed": true,
          "internalType": "uint8",
          "name": "destinationWhitelist",
          "type": "uint8"
        },
        {
          "indexed": false,
          "internalType": "bool",
          "name": "from",
          "type": "bool"
        },
        {
          "indexed": false,
          "internalType": "bool",
          "name": "to",
          "type": "bool"
        }
      ],
      "name": "OutboundWhitelistUpdated",
      "type": "event"
    },
    {
      "anonymous": false,
      "inputs": [
        {
          "indexed": true,
          "internalType": "address",
          "name": "addedOwner",
          "type": "address"
        },
        {
          "indexed": true,
          "internalType": "address",
          "name": "addedBy",
          "type": "address"
        }
      ],
      "name": "OwnerAdded",
      "type": "event"
    },
    {
      "anonymous": false,
      "inputs": [
        {
          "indexed": true,
          "internalType": "address",
          "name": "removedOwner",
          "type": "address"
        },
        {
          "indexed": true,
          "internalType": "address",
          "name": "removedBy",
          "type": "address"
        }
      ],
      "name": "OwnerRemoved",
      "type": "event"
    },
    {
      "anonymous": false,
      "inputs": [
        {
          "indexed": false,
          "internalType": "address",
          "name": "account",
          "type": "address"
        }
      ],
      "name": "Paused",
      "type": "event"
    },
    {
      "anonymous": false,
      "inputs": [
        {
          "indexed": true,
          "internalType": "address",
          "name": "addedPauser",
          "type": "address"
        },
        {
          "indexed": true,
          "internalType": "address",
          "name": "addedBy",
          "type": "address"
        }
      ],
      "name": "PauserAdded",
      "type": "event"
    },
    {
      "anonymous": false,
      "inputs": [
        {
          "indexed": true,
          "internalType": "address",
          "name": "removedPauser",
          "type": "address"
        },
        {
          "indexed": true,
          "internalType": "address",
          "name": "removedBy",
          "type": "address"
        }
      ],
      "name": "PauserRemoved",
      "type": "event"
    },
    {
      "anonymous": false,
      "inputs": [
        {
          "indexed": true,
          "internalType": "address",
          "name": "revoker",
          "type": "address"
        },
        {
          "indexed": true,
          "internalType": "address",
          "name": "from",
          "type": "address"
        },
        {
          "indexed": false,
          "internalType": "uint256",
          "name": "amount",
          "type": "uint256"
        }
      ],
      "name": "Revoke",
      "type": "event"
    },
    {
      "anonymous": false,
      "inputs": [
        {
          "indexed": true,
          "internalType": "address",
          "name": "addedRevoker",
          "type": "address"
        },
        {
          "indexed": true,
          "internalType": "address",
          "name": "addedBy",
          "type": "address"
        }
      ],
      "name": "RevokerAdded",
      "type": "event"
    },
    {
      "anonymous": false,
      "inputs": [
        {
          "indexed": true,
          "internalType": "address",
          "name": "removedRevoker",
          "type": "address"
        },
        {
          "indexed": true,
          "internalType": "address",
          "name": "removedBy",
          "type": "address"
        }
      ],
      "name": "RevokerRemoved",
      "type": "event"
    },
    {
      "anonymous": false,
      "inputs": [
        {
          "indexed": true,
          "internalType": "address",
          "name": "from",
          "type": "address"
        },
        {
          "indexed": true,
          "internalType": "address",
          "name": "to",
          "type": "address"
        },
        {
          "indexed": false,
          "internalType": "uint256",
          "name": "value",
          "type": "uint256"
        }
      ],
      "name": "Transfer",
      "type": "event"
    },
    {
      "anonymous": false,
      "inputs": [
        {
          "indexed": false,
          "internalType": "address",
          "name": "account",
          "type": "address"
        }
      ],
      "name": "Unpaused",
      "type": "event"
    },
    {
      "anonymous": false,
      "inputs": [
        {
          "indexed": true,
          "internalType": "address",
          "name": "updatedBy",
          "type": "address"
        },
        {
          "indexed": true,
          "internalType": "bool",
          "name": "enabled",
          "type": "bool"
        }
      ],
      "name": "WhitelistEnabledUpdated",
      "type": "event"
    },
    {
      "anonymous": false,
      "inputs": [
        {
          "indexed": true,
          "internalType": "address",
          "name": "addedWhitelister",
          "type": "address"
        },
        {
          "indexed": true,
          "internalType": "address",
          "name": "addedBy",
          "type": "address"
        }
      ],
      "name": "WhitelisterAdded",
      "type": "event"
    },
    {
      "anonymous": false,
      "inputs": [
        {
          "indexed": true,
          "internalType": "address",
          "name": "removedWhitelister",
          "type": "address"
        },
        {
          "indexed": true,
          "internalType": "address",
          "name": "removedBy",
          "type": "address"
        }
      ],
      "name": "WhitelisterRemoved",
      "type": "event"
    },
    {
      "inputs": [],
      "name": "FAILURE_NON_WHITELIST",
      "outputs": [
        {
          "internalType": "uint8",
          "name": "",
          "type": "uint8"
        }
      ],
      "stateMutability": "view",
      "type": "function"
    },
    {
      "inputs": [],
      "name": "FAILURE_NON_WHITELIST_MESSAGE",
      "outputs": [
        {
          "internalType": "string",
          "name": "",
          "type": "string"
        }
      ],
      "stateMutability": "view",
      "type": "function"
    },
    {
      "inputs": [],
      "name": "FAILURE_PAUSED",
      "outputs": [
        {
          "internalType": "uint8",
          "name": "",
          "type": "uint8"
        }
      ],
      "stateMutability": "view",
      "type": "function"
    },
    {
      "inputs": [],
      "name": "FAILURE_PAUSED_MESSAGE",
      "outputs": [
        {
          "internalType": "string",
          "name": "",
          "type": "string"
        }
      ],
      "stateMutability": "view",
      "type": "function"
    },
    {
      "inputs": [],
      "name": "SUCCESS_CODE",
      "outputs": [
        {
          "internalType": "uint8",
          "name": "",
          "type": "uint8"
        }
      ],
      "stateMutability": "view",
      "type": "function"
    },
    {
      "inputs": [],
      "name": "SUCCESS_MESSAGE",
      "outputs": [
        {
          "internalType": "string",
          "name": "",
          "type": "string"
        }
      ],
      "stateMutability": "view",
      "type": "function"
    },
    {
      "inputs": [],
      "name": "UNKNOWN_ERROR",
      "outputs": [
        {
          "internalType": "string",
          "name": "",
          "type": "string"
        }
      ],
      "stateMutability": "view",
      "type": "function"
    },
    {
      "inputs": [
        {
          "internalType": "address",
          "name": "account",
          "type": "address"
        }
      ],
      "name": "addBurner",
      "outputs": [],
      "stateMutability": "nonpayable",
      "type": "function"
    },
    {
      "inputs": [
        {
          "internalType": "address",
          "name": "account",
          "type": "address"
        }
      ],
      "name": "addMinter",
      "outputs": [],
      "stateMutability": "nonpayable",
      "type": "function"
    },
    {
      "inputs": [
        {
          "internalType": "address",
          "name": "account",
          "type": "address"
        }
      ],
      "name": "addOwner",
      "outputs": [],
      "stateMutability": "nonpayable",
      "type": "function"
    },
    {
      "inputs": [
        {
          "internalType": "address",
          "name": "account",
          "type": "address"
        }
      ],
      "name": "addPauser",
      "outputs": [],
      "stateMutability": "nonpayable",
      "type": "function"
    },
    {
      "inputs": [
        {
          "internalType": "address",
          "name": "account",
          "type": "address"
        }
      ],
      "name": "addRevoker",
      "outputs": [],
      "stateMutability": "nonpayable",
      "type": "function"
    },
    {
      "inputs": [
        {
          "internalType": "address",
          "name": "addressToAdd",
          "type": "address"
        },
        {
          "internalType": "uint8",
          "name": "whitelist",
          "type": "uint8"
        }
      ],
      "name": "addToWhitelist",
      "outputs": [],
      "stateMutability": "nonpayable",
      "type": "function"
    },
    {
      "inputs": [
        {
          "internalType": "address",
          "name": "account",
          "type": "address"
        }
      ],
      "name": "addWhitelister",
      "outputs": [],
      "stateMutability": "nonpayable",
      "type": "function"
    },
    {
      "inputs": [
        {
          "internalType": "address",
          "name": "",
          "type": "address"
        }
      ],
      "name": "addressWhitelists",
      "outputs": [
        {
          "internalType": "uint8",
          "name": "",
          "type": "uint8"
        }
      ],
      "stateMutability": "view",
      "type": "function"
    },
    {
      "inputs": [
        {
          "internalType": "address",
          "name": "owner",
          "type": "address"
        },
        {
          "internalType": "address",
          "name": "spender",
          "type": "address"
        }
      ],
      "name": "allowance",
      "outputs": [
        {
          "internalType": "uint256",
          "name": "",
          "type": "uint256"
        }
      ],
      "stateMutability": "view",
      "type": "function"
    },
    {
      "inputs": [
        {
          "internalType": "address",
          "name": "spender",
          "type": "address"
        },
        {
          "internalType": "uint256",
          "name": "amount",
          "type": "uint256"
        }
      ],
      "name": "approve",
      "outputs": [
        {
          "internalType": "bool",
          "name": "",
          "type": "bool"
        }
      ],
      "stateMutability": "nonpayable",
      "type": "function"
    },
    {
      "inputs": [
        {
          "internalType": "address",
          "name": "account",
          "type": "address"
        }
      ],
      "name": "balanceOf",
      "outputs": [
        {
          "internalType": "uint256",
          "name": "",
          "type": "uint256"
        }
      ],
      "stateMutability": "view",
      "type": "function"
    },
    {
      "inputs": [
        {
          "internalType": "address",
          "name": "account",
          "type": "address"
        },
        {
          "internalType": "uint256",
          "name": "amount",
          "type": "uint256"
        }
      ],
      "name": "burn",
      "outputs": [
        {
          "internalType": "bool",
          "name": "",
          "type": "bool"
        }
      ],
      "stateMutability": "nonpayable",
      "type": "function"
    },
    {
      "inputs": [
        {
          "internalType": "address",
          "name": "sender",
          "type": "address"
        },
        {
          "internalType": "address",
          "name": "receiver",
          "type": "address"
        }
      ],
      "name": "checkWhitelistAllowed",
      "outputs": [
        {
          "internalType": "bool",
          "name": "",
          "type": "bool"
        }
      ],
      "stateMutability": "view",
      "type": "function"
    },
    {
      "inputs": [],
      "name": "decimals",
      "outputs": [
        {
          "internalType": "uint8",
          "name": "",
          "type": "uint8"
        }
      ],
      "stateMutability": "view",
      "type": "function"
    },
    {
      "inputs": [
        {
          "internalType": "address",
          "name": "spender",
          "type": "address"
        },
        {
          "internalType": "uint256",
          "name": "subtractedValue",
          "type": "uint256"
        }
      ],
      "name": "decreaseAllowance",
      "outputs": [
        {
          "internalType": "bool",
          "name": "",
          "type": "bool"
        }
      ],
      "stateMutability": "nonpayable",
      "type": "function"
    },
    {
      "inputs": [],
      "name": "getLogicAddress",
      "outputs": [
        {
          "internalType": "address",
          "name": "logicAddress",
          "type": "address"
        }
      ],
      "stateMutability": "view",
      "type": "function"
    },
    {
      "inputs": [
        {
          "internalType": "address",
          "name": "spender",
          "type": "address"
        },
        {
          "internalType": "uint256",
          "name": "addedValue",
          "type": "uint256"
        }
      ],
      "name": "increaseAllowance",
      "outputs": [
        {
          "internalType": "bool",
          "name": "",
          "type": "bool"
        }
      ],
      "stateMutability": "nonpayable",
      "type": "function"
    },
    {
      "inputs": [
        {
          "internalType": "address",
          "name": "account",
          "type": "address"
        }
      ],
      "name": "isBurner",
      "outputs": [
        {
          "internalType": "bool",
          "name": "",
          "type": "bool"
        }
      ],
      "stateMutability": "view",
      "type": "function"
    },
    {
      "inputs": [
        {
          "internalType": "address",
          "name": "account",
          "type": "address"
        }
      ],
      "name": "isMinter",
      "outputs": [
        {
          "internalType": "bool",
          "name": "",
          "type": "bool"
        }
      ],
      "stateMutability": "view",
      "type": "function"
    },
    {
      "inputs": [
        {
          "internalType": "address",
          "name": "account",
          "type": "address"
        }
      ],
      "name": "isOwner",
      "outputs": [
        {
          "internalType": "bool",
          "name": "",
          "type": "bool"
        }
      ],
      "stateMutability": "view",
      "type": "function"
    },
    {
      "inputs": [
        {
          "internalType": "address",
          "name": "account",
          "type": "address"
        }
      ],
      "name": "isPauser",
      "outputs": [
        {
          "internalType": "bool",
          "name": "",
          "type": "bool"
        }
      ],
      "stateMutability": "view",
      "type": "function"
    },
    {
      "inputs": [
        {
          "internalType": "address",
          "name": "account",
          "type": "address"
        }
      ],
      "name": "isRevoker",
      "outputs": [
        {
          "internalType": "bool",
          "name": "",
          "type": "bool"
        }
      ],
      "stateMutability": "view",
      "type": "function"
    },
    {
      "inputs": [],
      "name": "isWhitelistEnabled",
      "outputs": [
        {
          "internalType": "bool",
          "name": "",
          "type": "bool"
        }
      ],
      "stateMutability": "view",
      "type": "function"
    },
    {
      "inputs": [
        {
          "internalType": "address",
          "name": "account",
          "type": "address"
        }
      ],
      "name": "isWhitelister",
      "outputs": [
        {
          "internalType": "bool",
          "name": "",
          "type": "bool"
        }
      ],
      "stateMutability": "view",
      "type": "function"
    },
    {
      "inputs": [
        {
          "internalType": "address",
          "name": "account",
          "type": "address"
        },
        {
          "internalType": "uint256",
          "name": "amount",
          "type": "uint256"
        }
      ],
      "name": "mint",
      "outputs": [
        {
          "internalType": "bool",
          "name": "",
          "type": "bool"
        }
      ],
      "stateMutability": "nonpayable",
      "type": "function"
    },
    {
      "inputs": [],
      "name": "name",
      "outputs": [
        {
          "internalType": "string",
          "name": "",
          "type": "string"
        }
      ],
      "stateMutability": "view",
      "type": "function"
    },
    {
      "inputs": [
        {
          "internalType": "uint8",
          "name": "",
          "type": "uint8"
        },
        {
          "internalType": "uint8",
          "name": "",
          "type": "uint8"
        }
      ],
      "name": "outboundWhitelistsEnabled",
      "outputs": [
        {
          "internalType": "bool",
          "name": "",
          "type": "bool"
        }
      ],
      "stateMutability": "view",
      "type": "function"
    },
    {
      "inputs": [],
      "name": "pause",
      "outputs": [],
      "stateMutability": "nonpayable",
      "type": "function"
    },
    {
      "inputs": [],
      "name": "paused",
      "outputs": [
        {
          "internalType": "bool",
          "name": "",
          "type": "bool"
        }
      ],
      "stateMutability": "view",
      "type": "function"
    },
    {
      "inputs": [],
      "name": "proxiableUUID",
      "outputs": [
        {
          "internalType": "bytes32",
          "name": "",
          "type": "bytes32"
        }
      ],
      "stateMutability": "pure",
      "type": "function"
    },
    {
      "inputs": [
        {
          "internalType": "address",
          "name": "account",
          "type": "address"
        }
      ],
      "name": "removeBurner",
      "outputs": [],
      "stateMutability": "nonpayable",
      "type": "function"
    },
    {
      "inputs": [
        {
          "internalType": "address",
          "name": "addressToRemove",
          "type": "address"
        }
      ],
      "name": "removeFromWhitelist",
      "outputs": [],
      "stateMutability": "nonpayable",
      "type": "function"
    },
    {
      "inputs": [
        {
          "internalType": "address",
          "name": "account",
          "type": "address"
        }
      ],
      "name": "removeMinter",
      "outputs": [],
      "stateMutability": "nonpayable",
      "type": "function"
    },
    {
      "inputs": [
        {
          "internalType": "address",
          "name": "account",
          "type": "address"
        }
      ],
      "name": "removeOwner",
      "outputs": [],
      "stateMutability": "nonpayable",
      "type": "function"
    },
    {
      "inputs": [
        {
          "internalType": "address",
          "name": "account",
          "type": "address"
        }
      ],
      "name": "removePauser",
      "outputs": [],
      "stateMutability": "nonpayable",
      "type": "function"
    },
    {
      "inputs": [
        {
          "internalType": "address",
          "name": "account",
          "type": "address"
        }
      ],
      "name": "removeRevoker",
      "outputs": [],
      "stateMutability": "nonpayable",
      "type": "function"
    },
    {
      "inputs": [
        {
          "internalType": "address",
          "name": "account",
          "type": "address"
        }
      ],
      "name": "removeWhitelister",
      "outputs": [],
      "stateMutability": "nonpayable",
      "type": "function"
    },
    {
      "inputs": [
        {
          "internalType": "address",
          "name": "from",
          "type": "address"
        },
        {
          "internalType": "uint256",
          "name": "amount",
          "type": "uint256"
        }
      ],
      "name": "revoke",
      "outputs": [
        {
          "internalType": "bool",
          "name": "",
          "type": "bool"
        }
      ],
      "stateMutability": "nonpayable",
      "type": "function"
    },
    {
      "inputs": [
        {
          "internalType": "bool",
          "name": "enabled",
          "type": "bool"
        }
      ],
      "name": "setWhitelistEnabled",
      "outputs": [],
      "stateMutability": "nonpayable",
      "type": "function"
    },
    {
      "inputs": [],
      "name": "symbol",
      "outputs": [
        {
          "internalType": "string",
          "name": "",
          "type": "string"
        }
      ],
      "stateMutability": "view",
      "type": "function"
    },
    {
      "inputs": [],
      "name": "totalSupply",
      "outputs": [
        {
          "internalType": "uint256",
          "name": "",
          "type": "uint256"
        }
      ],
      "stateMutability": "view",
      "type": "function"
    },
    {
      "inputs": [],
      "name": "unpause",
      "outputs": [],
      "stateMutability": "nonpayable",
      "type": "function"
    },
    {
      "inputs": [
        {
          "internalType": "uint8",
          "name": "sourceWhitelist",
          "type": "uint8"
        },
        {
          "internalType": "uint8",
          "name": "destinationWhitelist",
          "type": "uint8"
        },
        {
          "internalType": "bool",
          "name": "newEnabledValue",
          "type": "bool"
        }
      ],
      "name": "updateOutboundWhitelistEnabled",
      "outputs": [],
      "stateMutability": "nonpayable",
      "type": "function"
    },
    {
      "inputs": [
        {
          "internalType": "string",
          "name": "name",
          "type": "string"
        },
        {
          "internalType": "string",
          "name": "symbol",
          "type": "string"
        },
        {
          "internalType": "uint8",
          "name": "decimals",
          "type": "uint8"
        }
      ],
      "name": "initialize",
      "outputs": [],
      "stateMutability": "nonpayable",
      "type": "function"
    },
    {
      "inputs": [
        {
          "internalType": "address",
          "name": "owner",
          "type": "address"
        },
        {
          "internalType": "string",
          "name": "name",
          "type": "string"
        },
        {
          "internalType": "string",
          "name": "symbol",
          "type": "string"
        },
        {
          "internalType": "uint8",
          "name": "decimals",
          "type": "uint8"
        },
        {
          "internalType": "uint256",
          "name": "initialSupply",
          "type": "uint256"
        },
        {
          "internalType": "bool",
          "name": "whitelistEnabled",
          "type": "bool"
        }
      ],
      "name": "initialize",
      "outputs": [],
      "stateMutability": "nonpayable",
      "type": "function"
    },
    {
      "inputs": [
        {
          "internalType": "address",
          "name": "newAddress",
          "type": "address"
        }
      ],
      "name": "updateCodeAddress",
      "outputs": [],
      "stateMutability": "nonpayable",
      "type": "function"
    },
    {
      "inputs": [
        {
          "internalType": "address",
          "name": "from",
          "type": "address"
        },
        {
          "internalType": "address",
          "name": "to",
          "type": "address"
        },
        {
          "internalType": "uint256",
          "name": "",
          "type": "uint256"
        }
      ],
      "name": "detectTransferRestriction",
      "outputs": [
        {
          "internalType": "uint8",
          "name": "",
          "type": "uint8"
        }
      ],
      "stateMutability": "view",
      "type": "function"
    },
    {
      "inputs": [
        {
          "internalType": "uint8",
          "name": "restrictionCode",
          "type": "uint8"
        }
      ],
      "name": "messageForTransferRestriction",
      "outputs": [
        {
          "internalType": "string",
          "name": "",
          "type": "string"
        }
      ],
      "stateMutability": "view",
      "type": "function"
    },
    {
      "inputs": [
        {
          "internalType": "address",
          "name": "to",
          "type": "address"
        },
        {
          "internalType": "uint256",
          "name": "value",
          "type": "uint256"
        }
      ],
      "name": "transfer",
      "outputs": [
        {
          "internalType": "bool",
          "name": "success",
          "type": "bool"
        }
      ],
      "stateMutability": "nonpayable",
      "type": "function"
    },
    {
      "inputs": [
        {
          "internalType": "address",
          "name": "from",
          "type": "address"
        },
        {
          "internalType": "address",
          "name": "to",
          "type": "address"
        },
        {
          "internalType": "uint256",
          "name": "value",
          "type": "uint256"
        }
      ],
      "name": "transferFrom",
      "outputs": [
        {
          "internalType": "bool",
          "name": "success",
          "type": "bool"
        }
      ],
      "stateMutability": "nonpayable",
      "type": "function"
    }
  ],
  "bytecode": "0x608060405234801561001057600080fd5b5061317a806100206000396000f3fe608060405234801561001057600080fd5b50600436106103835760003560e01c80637d0c269f116101de5780639dc29fac1161010f578063d4ce1415116100ad578063eac449d91161007c578063eac449d914610cc0578063eaf9144a14610cec578063f44637ba14610d12578063f6c4b01f14610d3857610383565b8063d4ce141514610c2c578063dd62ed3e14610c62578063e7984d1714610c90578063e959450814610c9857610383565b8063aa271e1a116100e9578063aa271e1a14610bb4578063abd108ba14610bda578063c06f8b9414610bfe578063c893446214610c2457610383565b80639dc29fac14610b30578063a457c2d714610b5c578063a9059cbb14610b8857610383565b8063912a98851161017c57806395d89b411161015657806395d89b4114610ad4578063961a66f614610adc57806397af674414610b02578063983b2d5614610b0a57610383565b8063912a988514610a5a57806392e6d68b14610a805780639437e2fe14610aa657610383565b806382dc1ec4116101b857806382dc1ec4146108bd5780638456cb59146108e35780638771cd2d146108eb5780638ab1d68114610a3457610383565b80637d0c269f146108515780637f4ab1dd1461087757806382c3f79c1461089757610383565b8063313ce567116102b857806346fbf68e116102565780635c975abb116102305780635c975abb146107d75780636b2c0f55146107df5780637065cb481461080557806370a082311461082b57610383565b806346fbf68e146107a1578063489c1b25146107c757806352d1902d146107cf57610383565b80633f4ba83a116102925780633f4ba83a1461073f5780633f7137091461074757806340c10f191461074f5780634334614a1461077b57610383565b8063313ce567146106d957806339509351146106e15780633973b5961461070d57610383565b8063173825d9116103255780631fb45ec0116102ff5780631fb45ec01461064f57806323b872dd146106575780632f54bf6e1461068d5780633092afd5146106b357610383565b8063173825d91461060757806318160ddd1461062d578063184d69ab1461064757610383565b806306fdde031161036157806306fdde03146103fe578063095ea7b31461047b5780630e969a05146104bb5780631624f6c6146104d957610383565b80630263b8581461038857806302846858146103b9578063052d9e7e146103df575b600080fd5b6103b76004803603604081101561039e57600080fd5b5080356001600160a01b0316906020013560ff16610d5e565b005b6103b7600480360360208110156103cf57600080fd5b50356001600160a01b0316610db0565b6103b7600480360360208110156103f557600080fd5b50351515610e00565b610406610e4d565b6040805160208082528351818301528351919283929083019185019080838360005b83811015610440578181015183820152602001610428565b50505050905090810190601f16801561046d5780820380516001836020036101000a031916815260200191505b509250505060405180910390f35b6104a76004803603604081101561049157600080fd5b506001600160a01b038135169060200135610ee3565b604080519115158252519081900360200190f35b6104c3610f01565b6040805160ff9092168252519081900360200190f35b6103b7600480360360608110156104ef57600080fd5b810190602081018135600160201b81111561050957600080fd5b82018360208201111561051b57600080fd5b803590602001918460018302840111600160201b8311171561053c57600080fd5b91908080601f0160208091040260200160405190810160405280939291908181526020018383808284376000920191909152509295949360208101935035915050600160201b81111561058e57600080fd5b8201836020820111156105a057600080fd5b803590602001918460018302840111600160201b831117156105c157600080fd5b91908080601f0160208091040260200160405190810160405280939291908181526020018383808284376000920191909152509295505050903560ff169150610f069050565b6103b76004803603602081101561061d57600080fd5b50356001600160a01b0316610fe2565b61063561102f565b60408051918252519081900360200190f35b6104a7611035565b6104c361103e565b6104a76004803603606081101561066d57600080fd5b506001600160a01b03813581169160208101359091169060400135611043565b6104a7600480360360208110156106a357600080fd5b50356001600160a01b0316611106565b6103b7600480360360208110156106c957600080fd5b50356001600160a01b031661111b565b6104c3611168565b6104a7600480360360408110156106f757600080fd5b506001600160a01b038135169060200135611171565b6103b76004803603606081101561072357600080fd5b5060ff81358116916020810135909116906040013515156111c4565b6103b7611218565b6104c36112b4565b6104a76004803603604081101561076557600080fd5b506001600160a01b0381351690602001356112b9565b6104a76004803603602081101561079157600080fd5b50356001600160a01b0316611311565b6104a7600480360360208110156107b757600080fd5b50356001600160a01b031661131e565b61040661132b565b610635611347565b6104a7611359565b6103b7600480360360208110156107f557600080fd5b50356001600160a01b0316611362565b6103b76004803603602081101561081b57600080fd5b50356001600160a01b03166113af565b6106356004803603602081101561084157600080fd5b50356001600160a01b03166113fc565b6104a76004803603602081101561086757600080fd5b50356001600160a01b0316611417565b6104066004803603602081101561088d57600080fd5b503560ff16611424565b6103b7600480360360208110156108ad57600080fd5b50356001600160a01b03166114d8565b6103b7600480360360208110156108d357600080fd5b50356001600160a01b0316611525565b6103b7611572565b6103b7600480360360c081101561090157600080fd5b6001600160a01b038235169190810190604081016020820135600160201b81111561092b57600080fd5b82018360208201111561093d57600080fd5b803590602001918460018302840111600160201b8311171561095e57600080fd5b91908080601f0160208091040260200160405190810160405280939291908181526020018383808284376000920191909152509295949360208101935035915050600160201b8111156109b057600080fd5b8201836020820111156109c257600080fd5b803590602001918460018302840111600160201b831117156109e357600080fd5b91908080601f0160208091040260200160405190810160405280939291908181526020018383808284376000920191909152509295505060ff83351693505050602081013590604001351515611609565b6103b760048036036020811015610a4a57600080fd5b50356001600160a01b03166116da565b6103b760048036036020811015610a7057600080fd5b50356001600160a01b0316611727565b6104c360048036036020811015610a9657600080fd5b50356001600160a01b0316611774565b6104a760048036036040811015610abc57600080fd5b506001600160a01b0381358116916020013516611789565b61040661180e565b6103b760048036036020811015610af257600080fd5b50356001600160a01b031661186f565b6104066118bc565b6103b760048036036020811015610b2057600080fd5b50356001600160a01b03166118ea565b6104a760048036036040811015610b4657600080fd5b506001600160a01b038135169060200135611937565b6104a760048036036040811015610b7257600080fd5b506001600160a01b038135169060200135611988565b6104a760048036036040811015610b9e57600080fd5b506001600160a01b0381351690602001356119f0565b6104a760048036036020811015610bca57600080fd5b50356001600160a01b0316611a74565b610be2611a81565b604080516001600160a01b039092168252519081900360200190f35b6103b760048036036020811015610c1457600080fd5b50356001600160a01b0316611a94565b610406611ae1565b6104c360048036036060811015610c4257600080fd5b506001600160a01b03813581169160208101359091169060400135611afd565b61063560048036036040811015610c7857600080fd5b506001600160a01b0381358116916020013516611b4a565b610406611b75565b6104a760048036036040811015610cae57600080fd5b5060ff81358116916020013516611b98565b6104a760048036036040811015610cd657600080fd5b506001600160a01b038135169060200135611bb8565b6103b760048036036020811015610d0257600080fd5b50356001600160a01b0316611c08565b6103b760048036036020811015610d2857600080fd5b50356001600160a01b0316611c55565b6104a760048036036020811015610d4e57600080fd5b50356001600160a01b0316611ca2565b610d6733611417565b610da25760405162461bcd60e51b815260040180806020018281038252603a81526020018061305b603a913960400191505060405180910390fd5b610dac8282611caf565b5050565b610db933611106565b610df45760405162461bcd60e51b815260040180806020018281038252602e815260200180612ef1602e913960400191505060405180910390fd5b610dfd81611df4565b50565b610e0933611106565b610e445760405162461bcd60e51b815260040180806020018281038252602e815260200180612ef1602e913960400191505060405180910390fd5b610dfd81611e38565b60338054604080516020601f6002600019610100600188161502019095169490940493840181900481028201810190925282815260609390929091830182828015610ed95780601f10610eae57610100808354040283529160200191610ed9565b820191906000526020600020905b815481529060010190602001808311610ebc57829003601f168201915b5050505050905090565b6000610ef7610ef0611e77565b8484611e7b565b5060015b92915050565b600081565b600054610100900460ff1680610f1f5750610f1f611f67565b80610f2d575060005460ff16155b610f685760405162461bcd60e51b815260040180806020018281038252602e815260200180612faa602e913960400191505060405180910390fd5b600054610100900460ff16158015610f93576000805460ff1961ff0019909116610100171660011790555b8351610fa6906033906020870190612cb7565b508251610fba906034906020860190612cb7565b506035805460ff191660ff84161790558015610fdc576000805461ff00191690555b50505050565b610feb33611106565b6110265760405162461bcd60e51b815260040180806020018281038252602e815260200180612ef1602e913960400191505060405180910390fd5b610dfd81611f6d565b606a5490565b609f5460ff1681565b600181565b60008383836000611055848484611afd565b905060ff81161561106582611424565b906110ee5760405162461bcd60e51b81526004018080602001828103825283818151815260200191508051906020019080838360005b838110156110b357818101518382015260200161109b565b50505050905090810190601f1680156110e05780820380516001836020036101000a031916815260200191505b509250505060405180910390fd5b506110fa888888611fb1565b98975050505050505050565b6000611113609d83612033565b90505b919050565b61112433611106565b61115f5760405162461bcd60e51b815260040180806020018281038252602e815260200180612ef1602e913960400191505060405180910390fd5b610dfd8161209a565b60355460ff1690565b6000610ef761117e611e77565b846111bf856069600061118f611e77565b6001600160a01b03908116825260208083019390935260409182016000908120918c1681529252902054906120de565b611e7b565b6111cd33611417565b6112085760405162461bcd60e51b815260040180806020018281038252603a81526020018061305b603a913960400191505060405180910390fd5b611213838383612138565b505050565b6112213361131e565b61125c5760405162461bcd60e51b8152600401808060200182810382526030815260200180612dc16030913960400191505060405180910390fd5b60a65460ff166112aa576040805162461bcd60e51b815260206004820152601460248201527314185d5cd8589b194e881b9bdd081c185d5cd95960621b604482015290519081900360640190fd5b6112b26121b1565b565b600281565b60006112c433611a74565b6112ff5760405162461bcd60e51b8152600401808060200182810382526030815260200180612ec16030913960400191505060405180910390fd5b61130a3384846121f0565b9392505050565b600061111360a383612033565b600061111360a583612033565b6040518060600160405280603d8152602001612fd8603d913981565b600080516020612f4083398151915290565b60a65460ff1690565b61136b33611106565b6113a65760405162461bcd60e51b815260040180806020018281038252602e815260200180612ef1602e913960400191505060405180910390fd5b610dfd81612251565b6113b833611106565b6113f35760405162461bcd60e51b815260040180806020018281038252602e815260200180612ef1602e913960400191505060405180910390fd5b610dfd81612295565b6001600160a01b031660009081526068602052604090205490565b6000611113609e83612033565b606060ff821661145257506040805180820190915260078152665355434345535360c81b6020820152611116565b60ff82166001141561147e576040518060600160405280603c81526020016130b9603c91399050611116565b60ff8216600214156114aa576040518060600160405280603d8152602001612fd8603d91399050611116565b5050604080518082019091526012815271556e6b6e6f776e204572726f7220436f646560701b602082015290565b6114e133611106565b61151c5760405162461bcd60e51b815260040180806020018281038252602e815260200180612ef1602e913960400191505060405180910390fd5b610dfd816122d9565b61152e33611106565b6115695760405162461bcd60e51b815260040180806020018281038252602e815260200180612ef1602e913960400191505060405180910390fd5b610dfd8161231d565b61157b3361131e565b6115b65760405162461bcd60e51b8152600401808060200182810382526030815260200180612dc16030913960400191505060405180910390fd5b60a65460ff1615611601576040805162461bcd60e51b815260206004820152601060248201526f14185d5cd8589b194e881c185d5cd95960821b604482015290519081900360640190fd5b6112b2612361565b600054610100900460ff16806116225750611622611f67565b80611630575060005460ff16155b61166b5760405162461bcd60e51b815260040180806020018281038252602e815260200180612faa602e913960400191505060405180910390fd5b600054610100900460ff16158015611696576000805460ff1961ff0019909116610100171660011790555b6116a1868686610f06565b6116ac3388856121f0565b506116b687612295565b6116bf82611e38565b80156116d1576000805461ff00191690555b50505050505050565b6116e333611417565b61171e5760405162461bcd60e51b815260040180806020018281038252603a81526020018061305b603a913960400191505060405180910390fd5b610dfd816123a3565b61173033611106565b61176b5760405162461bcd60e51b815260040180806020018281038252602e815260200180612ef1602e913960400191505060405180910390fd5b610dfd81612493565b60a06020526000908152604090205460ff1681565b609f5460009060ff1661179e57506001610efb565b6001600160a01b03808416600090815260a0602052604080822054928516825290205460ff91821691168115806117d6575060ff8116155b156117e657600092505050610efb565b60ff918216600090815260a16020908152604080832093851683529290522054169392505050565b60348054604080516020601f6002600019610100600188161502019095169490940493840181900481028201810190925282815260609390929091830182828015610ed95780601f10610eae57610100808354040283529160200191610ed9565b61187833611106565b6118b35760405162461bcd60e51b815260040180806020018281038252602e815260200180612ef1602e913960400191505060405180910390fd5b610dfd8161259b565b60405180604001604052806012815260200171556e6b6e6f776e204572726f7220436f646560701b81525081565b6118f333611106565b61192e5760405162461bcd60e51b815260040180806020018281038252602e815260200180612ef1602e913960400191505060405180910390fd5b610dfd816125df565b600061194233611311565b61197d5760405162461bcd60e51b8152600401808060200182810382526030815260200180612e6b6030913960400191505060405180910390fd5b61130a338484612623565b6000610ef7611995611e77565b846111bf8560405180606001604052806025815260200161312060259139606960006119bf611e77565b6001600160a01b03908116825260208083019390935260409182016000908120918d16815292529020549190612684565b60003383836000611a02848484611afd565b905060ff811615611a1282611424565b90611a5e5760405162461bcd60e51b81526020600482018181528351602484015283519092839260449091019190850190808383600083156110b357818101518382015260200161109b565b50611a6987876126de565b979650505050505050565b600061111360a283612033565b600080516020612f408339815191525490565b611a9d33611106565b611ad85760405162461bcd60e51b815260040180806020018281038252602e815260200180612ef1602e913960400191505060405180910390fd5b610dfd816126f2565b6040518060600160405280603c81526020016130b9603c913981565b6000611b07611359565b15611b145750600261130a565b611b1d84611106565b15611b2a5750600061130a565b611b348484611789565b611b405750600161130a565b5060009392505050565b6001600160a01b03918216600090815260696020908152604080832093909416825291909152205490565b604051806040016040528060078152602001665355434345535360c81b81525081565b60a160209081526000928352604080842090915290825290205460ff1681565b6000611bc333611ca2565b611bfe5760405162461bcd60e51b8152600401808060200182810382526032815260200180612e136032913960400191505060405180910390fd5b61130a8383612736565b611c1133611106565b611c4c5760405162461bcd60e51b815260040180806020018281038252602e815260200180612ef1602e913960400191505060405180910390fd5b610dfd8161278c565b611c5e33611106565b611c995760405162461bcd60e51b815260040180806020018281038252602e815260200180612ef1602e913960400191505060405180910390fd5b610dfd816127d0565b600061111360a483612033565b6001600160a01b038216611cf45760405162461bcd60e51b8152600401808060200182810382526026815260200180612e9b6026913960400191505060405180910390fd5b60ff8116611d49576040805162461bcd60e51b815260206004820152601d60248201527f496e76616c69642077686974656c69737420494420737570706c696564000000604482015290519081900360640190fd5b6001600160a01b038216600090815260a060205260409020805460ff83811660ff19831617909255168015611db457604051339060ff8316906001600160a01b038616907fb50a30a0fa972f89fbb2b514d12b31f5a5d64f53603402de7939742cd8507f6e90600090a45b604051339060ff8416906001600160a01b038616907fca6d1e885708b837a7647aeb7f4163ee4ca96058e08ac767be8d23c972c5027090600090a4505050565b611dff60a382612814565b60405133906001600160a01b038316907f85222465e0d438163a28671b59fc9ebeb03bf39f880ddd36c8315da7512b31c090600090a350565b609f805460ff191682151590811790915560405133907fb535c5f7f150db8dbf22962fc390e7fa9026b9c29ffad714197bee4620572bd690600090a350565b3390565b6001600160a01b038316611ec05760405162461bcd60e51b81526004018080602001828103825260248152602001806130956024913960400191505060405180910390fd5b6001600160a01b038216611f055760405162461bcd60e51b8152600401808060200182810382526022815260200180612df16022913960400191505060405180910390fd5b6001600160a01b03808416600081815260696020908152604080832094871680845294825291829020859055815185815291517f8c5be1e5ebec7d5bd14f71427d1e84f3dd0314c0f7b2291e5b200ac8c7c3b9259281900390910190a3505050565b303b1590565b611f78609d82612814565b60405133906001600160a01b038316907fe594d081b4382713733fe631966432c9cea5199afb2db5c3c1931f9f9300367990600090a350565b6000611fbe84848461287b565b61202984611fca611e77565b6111bf85604051806060016040528060288152602001612f60602891396001600160a01b038a16600090815260696020526040812090612008611e77565b6001600160a01b031681526020810191909152604001600020549190612684565b5060019392505050565b60006001600160a01b03821661207a5760405162461bcd60e51b8152600401808060200182810382526022815260200180612f886022913960400191505060405180910390fd5b506001600160a01b03166000908152602091909152604090205460ff1690565b6120a560a282612814565b60405133906001600160a01b038316907f4b5ef9a786cf64a7d82ebcf2d5132667edc9faef4ac36260d9a9e52c526b623290600090a350565b60008282018381101561130a576040805162461bcd60e51b815260206004820152601b60248201527f536166654d6174683a206164646974696f6e206f766572666c6f770000000000604482015290519081900360640190fd5b60ff838116600081815260a16020908152604080832087861680855290835292819020805487151560ff1982168117909255825196168015158752928601528051919492939233927fb0353d563a9aa5231878c83727dc723a3cb8a38c2917f8ac2b777aa564c8a0d5929181900390910190a450505050565b60a6805460ff191690556040805133815290517f5db9ee0a495bf2e6ff9c91a7834c1ba4fdd244a5e8aa4e537bd38aeae4b073aa9181900360200190a1565b60006121fc83836129cd565b826001600160a01b0316846001600160a01b03167fab8530f87dc9b59234c4623bf917212bb2536d647574c8e7e5da92c2ede0c9f8846040518082815260200191505060405180910390a35060019392505050565b61225c60a582612814565b60405133906001600160a01b038316907fb75903ade4a0fdb07d60c882c22c779e2e1c751883c37aecdcc92a8ec72b046e90600090a350565b6122a0609d82612ab3565b60405133906001600160a01b038316907fc82bdbbf677a2462f2a7e22e4ba9abd209496b69cd7b868b3b1d28f76e09a40a90600090a350565b6122e4609e82612814565b60405133906001600160a01b038316907f3ed21605dd544629fb45f2ccaedcc095ba1dbea540fb6eaf5493a7479856b0be90600090a350565b61232860a582612ab3565b60405133906001600160a01b038316907fe0953c403a52f9dc1fef4202a8d33975c958b727bee0d7b5b328965ddad98d8190600090a350565b60a6805460ff191660011790556040805133815290517f62e78cea01bee320cd4e420270b5ea74000d11b0c9f74754ebdbfc544b05a2589181900360200190a1565b6001600160a01b0381166123e85760405162461bcd60e51b815260040180806020018281038252602b8152602001806130f5602b913960400191505060405180910390fd5b6001600160a01b038116600090815260a0602052604090205460ff16806124405760405162461bcd60e51b8152600401808060200182810382526031815260200180612d6e6031913960400191505060405180910390fd5b6001600160a01b038216600081815260a06020526040808220805460ff1916905551339260ff85169290917fb50a30a0fa972f89fbb2b514d12b31f5a5d64f53603402de7939742cd8507f6e9190a45050565b806001600160a01b03166352d1902d6040518163ffffffff1660e01b815260040160206040518083038186803b1580156124cc57600080fd5b505afa1580156124e0573d6000803e3d6000fd5b505050506040513d60208110156124f657600080fd5b5051600080516020612f408339815191521461254a576040805162461bcd60e51b815260206004820152600e60248201526d4e6f7420636f6d70617469626c6560901b604482015290519081900360640190fd5b600080516020612f40833981519152819055604080516001600160a01b038316815290517feeaed647dc622e55877c30943e5c1d4feb92d1b8cfcc88d974163e9787bde9af9181900360200190a150565b6125a660a482612ab3565b60405133906001600160a01b038316907f2b5f18afd9a7b21f41bf023b012b3d4c8a22a21b79fa425cd4494ecbe297019690600090a350565b6125ea60a282612ab3565b60405133906001600160a01b038316907f3c091dafb1d99e4a4c333024492eac3b2cd8bf921a3dd547c937db33be307bb890600090a350565b600061262f8383612b85565b826001600160a01b0316846001600160a01b03167fbac40739b0d4ca32fa2d82fc91630465ba3eddd1598da6fca393b26fb63b9453846040518082815260200191505060405180910390a35060019392505050565b600081848411156126d65760405162461bcd60e51b81526020600482018181528351602484015283519092839260449091019190850190808383600083156110b357818101518382015260200161109b565b505050900390565b6000610ef76126eb611e77565b848461287b565b6126fd60a482612814565b60405133906001600160a01b038316907fb6fe3ab11eb9ab1d9f1d41c8f42a5d72d10122099ba1548e4a6d1a4d8cefec4b90600090a350565b600061274383338461287b565b6040805183815290516001600160a01b0385169133917fb698e31a2abee5824d0d7bcfd2339aead7f9e9ae413fba50bf554ff3fa470b7b9181900360200190a350600192915050565b612797609e82612ab3565b60405133906001600160a01b038316907f5f36f4f5999f34947706fca376b955319b858573bf9d6bc59303c9a4cd80ced090600090a350565b6127db60a382612ab3565b60405133906001600160a01b038316907f86515ebaad527298e98929c064c075f5a2604cc80afc0db29e73c01a36f8e98c90600090a350565b61281e8282612033565b6128595760405162461bcd60e51b8152600401808060200182810382526021815260200180612f1f6021913960400191505060405180910390fd5b6001600160a01b0316600090815260209190915260409020805460ff19169055565b6001600160a01b0383166128c05760405162461bcd60e51b81526004018080602001828103825260258152602001806130366025913960400191505060405180910390fd5b6001600160a01b0382166129055760405162461bcd60e51b8152600401808060200182810382526023815260200180612d4b6023913960400191505060405180910390fd5b61294281604051806060016040528060268152602001612e45602691396001600160a01b0386166000908152606860205260409020549190612684565b6001600160a01b03808516600090815260686020526040808220939093559084168152205461297190826120de565b6001600160a01b0380841660008181526068602090815260409182902094909455805185815290519193928716927fddf252ad1be2c89b69c2b068fc378daa952ba7f163c4a11628f55a4df523b3ef92918290030190a3505050565b6001600160a01b038216612a28576040805162461bcd60e51b815260206004820152601f60248201527f45524332303a206d696e7420746f20746865207a65726f206164647265737300604482015290519081900360640190fd5b606a54612a3590826120de565b606a556001600160a01b038216600090815260686020526040902054612a5b90826120de565b6001600160a01b03831660008181526068602090815260408083209490945583518581529351929391927fddf252ad1be2c89b69c2b068fc378daa952ba7f163c4a11628f55a4df523b3ef9281900390910190a35050565b6001600160a01b038116612b04576040805162461bcd60e51b8152602060048201526013602482015272496e76616c696420307830206164647265737360681b604482015290519081900360640190fd5b612b0e8282612033565b15612b60576040805162461bcd60e51b815260206004820152601f60248201527f526f6c65733a206163636f756e7420616c72656164792068617320726f6c6500604482015290519081900360640190fd5b6001600160a01b0316600090815260209190915260409020805460ff19166001179055565b6001600160a01b038216612bca5760405162461bcd60e51b81526004018080602001828103825260218152602001806130156021913960400191505060405180910390fd5b612c0781604051806060016040528060228152602001612d9f602291396001600160a01b0385166000908152606860205260409020549190612684565b6001600160a01b038316600090815260686020526040902055606a54612c2d9082612c75565b606a556040805182815290516000916001600160a01b038516917fddf252ad1be2c89b69c2b068fc378daa952ba7f163c4a11628f55a4df523b3ef9181900360200190a35050565b600061130a83836040518060400160405280601e81526020017f536166654d6174683a207375627472616374696f6e206f766572666c6f770000815250612684565b828054600181600116156101000203166002900490600052602060002090601f016020900481019282601f10612cf857805160ff1916838001178555612d25565b82800160010185558215612d25579182015b82811115612d25578251825591602001919060010190612d0a565b50612d31929150612d35565b5090565b5b80821115612d315760008155600101612d3656fe45524332303a207472616e7366657220746f20746865207a65726f2061646472657373416464726573732063616e6e6f742062652072656d6f7665642066726f6d20696e76616c69642077686974656c6973742e45524332303a206275726e20616d6f756e7420657863656564732062616c616e6365506175736572526f6c653a2063616c6c657220646f6573206e6f742068617665207468652050617573657220726f6c6545524332303a20617070726f766520746f20746865207a65726f20616464726573735265766f6b6572526f6c653a2063616c6c657220646f6573206e6f74206861766520746865205265766f6b657220726f6c6545524332303a207472616e7366657220616d6f756e7420657863656564732062616c616e63654275726e6572526f6c653a2063616c6c657220646f6573206e6f74206861766520746865204275726e657220726f6c6543616e6e6f742061646420616464726573732030783020746f20612077686974656c6973742e4d696e746572526f6c653a2063616c6c657220646f6573206e6f74206861766520746865204d696e74657220726f6c654f776e6572526f6c653a2063616c6c657220646f6573206e6f74206861766520746865204f776e657220726f6c65526f6c65733a206163636f756e7420646f6573206e6f74206861766520726f6c65c5f16f0fcc639fa48a6947836d9850f504798523bf8c9a3a87d5876cf622bcf745524332303a207472616e7366657220616d6f756e74206578636565647320616c6c6f77616e6365526f6c65733a206163636f756e7420697320746865207a65726f2061646472657373436f6e747261637420696e7374616e63652068617320616c7265616479206265656e20696e697469616c697a6564546865207472616e736665722077617320726573747269637465642064756520746f2074686520636f6e7472616374206265696e67207061757365642e45524332303a206275726e2066726f6d20746865207a65726f206164647265737345524332303a207472616e736665722066726f6d20746865207a65726f206164647265737357686974656c6973746572526f6c653a2063616c6c657220646f6573206e6f742068617665207468652057686974656c697374657220726f6c6545524332303a20617070726f76652066726f6d20746865207a65726f2061646472657373546865207472616e736665722077617320726573747269637465642064756520746f207768697465206c69737420636f6e66696775726174696f6e2e43616e6e6f742072656d6f76652061646472657373203078302066726f6d20612077686974656c6973742e45524332303a2064656372656173656420616c6c6f77616e63652062656c6f77207a65726fa26469706673582212206c01cd1305b4def4428adedf77c6451687eea7177f5f51bb94747f94961b033364736f6c634300060c0033",
  "immutableReferences": {},
  "source": "pragma solidity 0.6.12;\n\nimport \"./capabilities/Proxiable.sol\";\nimport \"./@openzeppelin/contracts-ethereum-package/contracts/token/ERC20/ERC20Detailed.sol\";\nimport \"./ERC1404.sol\";\nimport \"./roles/OwnerRole.sol\";\nimport \"./capabilities/Whitelistable.sol\";\nimport \"./capabilities/Mintable.sol\";\nimport \"./capabilities/Burnable.sol\";\nimport \"./capabilities/Revocable.sol\";\nimport \"./capabilities/Pausable.sol\";\n\ncontract TokenSoftToken is Proxiable, ERC20Detailed, ERC1404, OwnerRole, Whitelistable, Mintable, Burnable, Revocable, Pausable {\n\n    // ERC1404 Error codes and messages\n    uint8 public constant SUCCESS_CODE = 0;\n    uint8 public constant FAILURE_NON_WHITELIST = 1;\n    uint8 public constant FAILURE_PAUSED = 2;\n    string public constant SUCCESS_MESSAGE = \"SUCCESS\";\n    string public constant FAILURE_NON_WHITELIST_MESSAGE = \"The transfer was restricted due to white list configuration.\";\n    string public constant FAILURE_PAUSED_MESSAGE = \"The transfer was restricted due to the contract being paused.\";\n    string public constant UNKNOWN_ERROR = \"Unknown Error Code\";\n\n\n    /**\n    Constructor for the token to set readable details and mint all tokens\n    to the specified owner.\n     */\n    function initialize (address owner, string memory name, string memory symbol, uint8 decimals, uint256 initialSupply, bool whitelistEnabled)\n        public\n        initializer\n    {\n        ERC20Detailed.initialize(name, symbol, decimals);\n        Mintable._mint(msg.sender, owner, initialSupply);\n        OwnerRole._addOwner(owner);\n        Whitelistable._setWhitelistEnabled(whitelistEnabled);\n    }\n\n    /**\n    Public function to update the address of the code contract, retricted to owner\n     */\n    function updateCodeAddress (address newAddress) public onlyOwner {\n        Proxiable._updateCodeAddress(newAddress);\n    }\n\n    /**\n    This function detects whether a transfer should be restricted and not allowed.\n    If the function returns SUCCESS_CODE (0) then it should be allowed.\n     */\n    function detectTransferRestriction (address from, address to, uint256)\n        public\n        view\n        virtual\n        override\n        returns (uint8)\n    {\n        // Check the paused status of the contract\n        if (Pausable.paused()) {\n            return FAILURE_PAUSED;\n        }\n\n        // If an owner transferring, then ignore whitelist restrictions\n        if(OwnerRole.isOwner(from)) {\n            return SUCCESS_CODE;\n        }\n\n        // Restrictions are enabled, so verify the whitelist config allows the transfer.\n        // Logic defined in Whitelistable parent class\n        if(!checkWhitelistAllowed(from, to)) {\n            return FAILURE_NON_WHITELIST;\n        }\n\n        // If no restrictions were triggered return success\n        return SUCCESS_CODE;\n    }\n\n    /**\n    This function allows a wallet or other client to get a human readable string to show\n    a user if a transfer was restricted.  It should return enough information for the user\n    to know why it failed.\n     */\n    function messageForTransferRestriction (uint8 restrictionCode)\n        public\n        view\n        virtual\n        override\n        returns (string memory)\n    {\n        if (restrictionCode == SUCCESS_CODE) {\n            return SUCCESS_MESSAGE;\n        }\n\n        if (restrictionCode == FAILURE_NON_WHITELIST) {\n            return FAILURE_NON_WHITELIST_MESSAGE;\n        }\n\n        if (restrictionCode == FAILURE_PAUSED) {\n            return FAILURE_PAUSED_MESSAGE;\n        }\n\n        // An unknown error code was passed in.\n        return UNKNOWN_ERROR;\n    }\n\n    /**\n    Evaluates whether a transfer should be allowed or not.\n     */\n    modifier notRestricted (address from, address to, uint256 value) {\n        uint8 restrictionCode = detectTransferRestriction(from, to, value);\n        require(restrictionCode == SUCCESS_CODE, messageForTransferRestriction(restrictionCode));\n        _;\n    }\n\n    /**\n    Overrides the parent class token transfer function to enforce restrictions.\n     */\n    function transfer (address to, uint256 value)\n        public\n        virtual\n        override(ERC20, IERC20)\n        notRestricted(msg.sender, to, value)\n        returns (bool success)\n    {\n        success = ERC20.transfer(to, value);\n    }\n\n    /**\n    Overrides the parent class token transferFrom function to enforce restrictions.\n     */\n    function transferFrom (address from, address to, uint256 value)\n        public\n        virtual\n        override(ERC20, IERC20)\n        notRestricted(from, to, value)\n        returns (bool success)\n    {\n        success = ERC20.transferFrom(from, to, value);\n    }\n}\n",
  "sourcePath": "/Users/james/Source/tokensoft/tokensoft_token/contracts/TokenSoftToken.sol",
  "compiler": {
    "name": "solc",
    "version": "0.6.12+commit.27d51765.Emscripten.clang"
  },
  "schemaVersion": "3.3.1",
  "updatedAt": "2020-12-09T02:03:40.409Z",
  "devdoc": {
    "kind": "dev",
    "methods": {
      "allowance(address,address)": {
        "details": "See {IERC20-allowance}."
      },
      "approve(address,uint256)": {
        "details": "See {IERC20-approve}. Requirements: - `spender` cannot be the zero address."
      },
      "balanceOf(address)": {
        "details": "See {IERC20-balanceOf}."
      },
      "decimals()": {
        "details": "Returns the number of decimals used to get its user representation. For example, if `decimals` equals `2`, a balance of `505` tokens should be displayed to a user as `5,05` (`505 / 10 ** 2`). Tokens usually opt for a value of 18, imitating the relationship between Ether and Wei. NOTE: This information is only used for _display_ purposes: it in no way affects any of the arithmetic of the contract, including {IERC20-balanceOf} and {IERC20-transfer}."
      },
      "decreaseAllowance(address,uint256)": {
        "details": "Atomically decreases the allowance granted to `spender` by the caller. This is an alternative to {approve} that can be used as a mitigation for problems described in {IERC20-approve}. Emits an {Approval} event indicating the updated allowance. Requirements: - `spender` cannot be the zero address. - `spender` must have allowance for the caller of at least `subtractedValue`."
      },
      "increaseAllowance(address,uint256)": {
        "details": "Atomically increases the allowance granted to `spender` by the caller. This is an alternative to {approve} that can be used as a mitigation for problems described in {IERC20-approve}. Emits an {Approval} event indicating the updated allowance. Requirements: - `spender` cannot be the zero address."
      },
      "initialize(string,string,uint8)": {
        "details": "Sets the values for `name`, `symbol`, and `decimals`. All three of these values are immutable: they can only be set once during construction."
      },
      "name()": {
        "details": "Returns the name of the token."
      },
      "pause()": {
        "details": "Called by an Owner to pause, triggers stopped state."
      },
      "paused()": {
        "details": "Returns true if the contract is paused, and false otherwise."
      },
      "symbol()": {
        "details": "Returns the symbol of the token, usually a shorter version of the name."
      },
      "totalSupply()": {
        "details": "See {IERC20-totalSupply}."
      },
      "unpause()": {
        "details": "Called by an Owner to unpause, returns to normal state."
      }
    },
    "version": 1
  },
  "userdoc": {
    "kind": "user",
    "methods": {
      "addToWhitelist(address,uint8)": {
        "notice": "Public function that allows admins to remove an address from a whitelist"
      },
      "burn(address,uint256)": {
        "notice": "Allow Burners to burn tokens from valid addresses"
      },
      "checkWhitelistAllowed(address,address)": {
        "notice": "Determine if the a sender is allowed to send to the receiver. The source whitelist must be enabled to send to the whitelist where the receive exists."
      },
      "detectTransferRestriction(address,address,uint256)": {
        "notice": "This function detects whether a transfer should be restricted and not allowed. If the function returns SUCCESS_CODE (0) then it should be allowed."
      },
      "initialize(address,string,string,uint8,uint256,bool)": {
        "notice": "Constructor for the token to set readable details and mint all tokens to the specified owner."
      },
      "messageForTransferRestriction(uint8)": {
        "notice": "This function allows a wallet or other client to get a human readable string to show a user if a transfer was restricted.  It should return enough information for the user to know why it failed."
      },
      "mint(address,uint256)": {
        "notice": "Allow Owners to mint tokens to valid addresses"
      },
      "removeFromWhitelist(address)": {
        "notice": "Public function that allows admins to remove an address from a whitelist"
      },
      "revoke(address,uint256)": {
        "notice": "Allow Admins to revoke tokens from any address"
      },
      "setWhitelistEnabled(bool)": {
        "notice": "Enable or disable the whitelist enforcement"
      },
      "transfer(address,uint256)": {
        "notice": "Overrides the parent class token transfer function to enforce restrictions."
      },
      "transferFrom(address,address,uint256)": {
        "notice": "Overrides the parent class token transferFrom function to enforce restrictions."
      },
      "updateCodeAddress(address)": {
        "notice": "Public function to update the address of the code contract, retricted to owner"
      },
      "updateOutboundWhitelistEnabled(uint8,uint8,bool)": {
        "notice": "Public function that allows admins to update outbound whitelists"
      }
    },
    "version": 1
  }
}