{
  "contractName": "TokenSoftTokenEscrow",
  "abi": [
    {
      "anonymous": false,
      "inputs": [
        {
          "indexed": true,
          "internalType": "address",
          "name": "addedAddress",
          "type": "address"
        },
        {
          "indexed": true,
          "internalType": "uint8",
          "name": "whitelist",
          "type": "uint8"
        },
        {
          "indexed": true,
          "internalType": "address",
          "name": "addedBy",
          "type": "address"
        }
      ],
      "name": "AddressAddedToWhitelist",
      "type": "event"
    },
    {
      "anonymous": false,
      "inputs": [
        {
          "indexed": true,
          "internalType": "address",
          "name": "removedAddress",
          "type": "address"
        },
        {
          "indexed": true,
          "internalType": "uint8",
          "name": "whitelist",
          "type": "uint8"
        },
        {
          "indexed": true,
          "internalType": "address",
          "name": "removedBy",
          "type": "address"
        }
      ],
      "name": "AddressRemovedFromWhitelist",
      "type": "event"
    },
    {
      "anonymous": false,
      "inputs": [
        {
          "indexed": true,
          "internalType": "address",
          "name": "owner",
          "type": "address"
        },
        {
          "indexed": true,
          "internalType": "address",
          "name": "spender",
          "type": "address"
        },
        {
          "indexed": false,
          "internalType": "uint256",
          "name": "value",
          "type": "uint256"
        }
      ],
      "name": "Approval",
      "type": "event"
    },
    {
      "anonymous": false,
      "inputs": [
        {
          "indexed": true,
          "internalType": "address",
          "name": "burner",
          "type": "address"
        },
        {
          "indexed": true,
          "internalType": "address",
          "name": "from",
          "type": "address"
        },
        {
          "indexed": false,
          "internalType": "uint256",
          "name": "amount",
          "type": "uint256"
        }
      ],
      "name": "Burn",
      "type": "event"
    },
    {
      "anonymous": false,
      "inputs": [
        {
          "indexed": true,
          "internalType": "address",
          "name": "addedBurner",
          "type": "address"
        },
        {
          "indexed": true,
          "internalType": "address",
          "name": "addedBy",
          "type": "address"
        }
      ],
      "name": "BurnerAdded",
      "type": "event"
    },
    {
      "anonymous": false,
      "inputs": [
        {
          "indexed": true,
          "internalType": "address",
          "name": "removedBurner",
          "type": "address"
        },
        {
          "indexed": true,
          "internalType": "address",
          "name": "removedBy",
          "type": "address"
        }
      ],
      "name": "BurnerRemoved",
      "type": "event"
    },
    {
      "anonymous": false,
      "inputs": [
        {
          "indexed": false,
          "internalType": "address",
          "name": "newAddress",
          "type": "address"
        }
      ],
      "name": "CodeAddressUpdated",
      "type": "event"
    },
    {
      "anonymous": false,
      "inputs": [
        {
          "indexed": true,
          "internalType": "address",
          "name": "addedEscrow",
          "type": "address"
        },
        {
          "indexed": true,
          "internalType": "address",
          "name": "addedBy",
          "type": "address"
        }
      ],
      "name": "EscrowerAdded",
      "type": "event"
    },
    {
      "anonymous": false,
      "inputs": [
        {
          "indexed": true,
          "internalType": "address",
          "name": "removedEscrow",
          "type": "address"
        },
        {
          "indexed": true,
          "internalType": "address",
          "name": "removedBy",
          "type": "address"
        }
      ],
      "name": "EscrowerRemoved",
      "type": "event"
    },
    {
      "anonymous": false,
      "inputs": [
        {
          "indexed": true,
          "internalType": "address",
          "name": "minter",
          "type": "address"
        },
        {
          "indexed": true,
          "internalType": "address",
          "name": "to",
          "type": "address"
        },
        {
          "indexed": false,
          "internalType": "uint256",
          "name": "amount",
          "type": "uint256"
        }
      ],
      "name": "Mint",
      "type": "event"
    },
    {
      "anonymous": false,
      "inputs": [
        {
          "indexed": true,
          "internalType": "address",
          "name": "addedMinter",
          "type": "address"
        },
        {
          "indexed": true,
          "internalType": "address",
          "name": "addedBy",
          "type": "address"
        }
      ],
      "name": "MinterAdded",
      "type": "event"
    },
    {
      "anonymous": false,
      "inputs": [
        {
          "indexed": true,
          "internalType": "address",
          "name": "removedMinter",
          "type": "address"
        },
        {
          "indexed": true,
          "internalType": "address",
          "name": "removedBy",
          "type": "address"
        }
      ],
      "name": "MinterRemoved",
      "type": "event"
    },
    {
      "anonymous": false,
      "inputs": [
        {
          "indexed": true,
          "internalType": "address",
          "name": "updatedBy",
          "type": "address"
        },
        {
          "indexed": true,
          "internalType": "uint8",
          "name": "sourceWhitelist",
          "type": "uint8"
        },
        {
          "indexed": true,
          "internalType": "uint8",
          "name": "destinationWhitelist",
          "type": "uint8"
        },
        {
          "indexed": false,
          "internalType": "bool",
          "name": "from",
          "type": "bool"
        },
        {
          "indexed": false,
          "internalType": "bool",
          "name": "to",
          "type": "bool"
        }
      ],
      "name": "OutboundWhitelistUpdated",
      "type": "event"
    },
    {
      "anonymous": false,
      "inputs": [
        {
          "indexed": true,
          "internalType": "address",
          "name": "addedOwner",
          "type": "address"
        },
        {
          "indexed": true,
          "internalType": "address",
          "name": "addedBy",
          "type": "address"
        }
      ],
      "name": "OwnerAdded",
      "type": "event"
    },
    {
      "anonymous": false,
      "inputs": [
        {
          "indexed": true,
          "internalType": "address",
          "name": "removedOwner",
          "type": "address"
        },
        {
          "indexed": true,
          "internalType": "address",
          "name": "removedBy",
          "type": "address"
        }
      ],
      "name": "OwnerRemoved",
      "type": "event"
    },
    {
      "anonymous": false,
      "inputs": [
        {
          "indexed": false,
          "internalType": "address",
          "name": "account",
          "type": "address"
        }
      ],
      "name": "Paused",
      "type": "event"
    },
    {
      "anonymous": false,
      "inputs": [
        {
          "indexed": true,
          "internalType": "address",
          "name": "addedPauser",
          "type": "address"
        },
        {
          "indexed": true,
          "internalType": "address",
          "name": "addedBy",
          "type": "address"
        }
      ],
      "name": "PauserAdded",
      "type": "event"
    },
    {
      "anonymous": false,
      "inputs": [
        {
          "indexed": true,
          "internalType": "address",
          "name": "removedPauser",
          "type": "address"
        },
        {
          "indexed": true,
          "internalType": "address",
          "name": "removedBy",
          "type": "address"
        }
      ],
      "name": "PauserRemoved",
      "type": "event"
    },
    {
      "anonymous": false,
      "inputs": [
        {
          "indexed": true,
          "internalType": "address",
          "name": "revoker",
          "type": "address"
        },
        {
          "indexed": true,
          "internalType": "address",
          "name": "from",
          "type": "address"
        },
        {
          "indexed": false,
          "internalType": "uint256",
          "name": "amount",
          "type": "uint256"
        }
      ],
      "name": "Revoke",
      "type": "event"
    },
    {
      "anonymous": false,
      "inputs": [
        {
          "indexed": true,
          "internalType": "address",
          "name": "addedRevoker",
          "type": "address"
        },
        {
          "indexed": true,
          "internalType": "address",
          "name": "addedBy",
          "type": "address"
        }
      ],
      "name": "RevokerAdded",
      "type": "event"
    },
    {
      "anonymous": false,
      "inputs": [
        {
          "indexed": true,
          "internalType": "address",
          "name": "removedRevoker",
          "type": "address"
        },
        {
          "indexed": true,
          "internalType": "address",
          "name": "removedBy",
          "type": "address"
        }
      ],
      "name": "RevokerRemoved",
      "type": "event"
    },
    {
      "anonymous": false,
      "inputs": [
        {
          "indexed": true,
          "internalType": "address",
          "name": "from",
          "type": "address"
        },
        {
          "indexed": true,
          "internalType": "address",
          "name": "to",
          "type": "address"
        },
        {
          "indexed": false,
          "internalType": "uint256",
          "name": "value",
          "type": "uint256"
        }
      ],
      "name": "Transfer",
      "type": "event"
    },
    {
      "anonymous": false,
      "inputs": [
        {
          "indexed": true,
          "internalType": "address",
          "name": "updatedBy",
          "type": "address"
        },
        {
          "indexed": false,
          "internalType": "uint256",
          "name": "requestId",
          "type": "uint256"
        },
        {
          "indexed": false,
          "internalType": "enum Escrowable.ProposalState",
          "name": "state",
          "type": "uint8"
        }
      ],
      "name": "TransferProposalUpdated",
      "type": "event"
    },
    {
      "anonymous": false,
      "inputs": [
        {
          "indexed": false,
          "internalType": "address",
          "name": "account",
          "type": "address"
        }
      ],
      "name": "Unpaused",
      "type": "event"
    },
    {
      "anonymous": false,
      "inputs": [
        {
          "indexed": true,
          "internalType": "address",
          "name": "updatedBy",
          "type": "address"
        },
        {
          "indexed": true,
          "internalType": "bool",
          "name": "enabled",
          "type": "bool"
        }
      ],
      "name": "WhitelistEnabledUpdated",
      "type": "event"
    },
    {
      "anonymous": false,
      "inputs": [
        {
          "indexed": true,
          "internalType": "address",
          "name": "addedWhitelister",
          "type": "address"
        },
        {
          "indexed": true,
          "internalType": "address",
          "name": "addedBy",
          "type": "address"
        }
      ],
      "name": "WhitelisterAdded",
      "type": "event"
    },
    {
      "anonymous": false,
      "inputs": [
        {
          "indexed": true,
          "internalType": "address",
          "name": "removedWhitelister",
          "type": "address"
        },
        {
          "indexed": true,
          "internalType": "address",
          "name": "removedBy",
          "type": "address"
        }
      ],
      "name": "WhitelisterRemoved",
      "type": "event"
    },
    {
      "inputs": [],
      "name": "FAILURE_NON_WHITELIST",
      "outputs": [
        {
          "internalType": "uint8",
          "name": "",
          "type": "uint8"
        }
      ],
      "stateMutability": "view",
      "type": "function"
    },
    {
      "inputs": [],
      "name": "FAILURE_NON_WHITELIST_MESSAGE",
      "outputs": [
        {
          "internalType": "string",
          "name": "",
          "type": "string"
        }
      ],
      "stateMutability": "view",
      "type": "function"
    },
    {
      "inputs": [],
      "name": "FAILURE_PAUSED",
      "outputs": [
        {
          "internalType": "uint8",
          "name": "",
          "type": "uint8"
        }
      ],
      "stateMutability": "view",
      "type": "function"
    },
    {
      "inputs": [],
      "name": "FAILURE_PAUSED_MESSAGE",
      "outputs": [
        {
          "internalType": "string",
          "name": "",
          "type": "string"
        }
      ],
      "stateMutability": "view",
      "type": "function"
    },
    {
      "inputs": [],
      "name": "SUCCESS_CODE",
      "outputs": [
        {
          "internalType": "uint8",
          "name": "",
          "type": "uint8"
        }
      ],
      "stateMutability": "view",
      "type": "function"
    },
    {
      "inputs": [],
      "name": "SUCCESS_MESSAGE",
      "outputs": [
        {
          "internalType": "string",
          "name": "",
          "type": "string"
        }
      ],
      "stateMutability": "view",
      "type": "function"
    },
    {
      "inputs": [],
      "name": "UNKNOWN_ERROR",
      "outputs": [
        {
          "internalType": "string",
          "name": "",
          "type": "string"
        }
      ],
      "stateMutability": "view",
      "type": "function"
    },
    {
      "inputs": [
        {
          "internalType": "address",
          "name": "account",
          "type": "address"
        }
      ],
      "name": "addBurner",
      "outputs": [],
      "stateMutability": "nonpayable",
      "type": "function"
    },
    {
      "inputs": [
        {
          "internalType": "address",
          "name": "account",
          "type": "address"
        }
      ],
      "name": "addEscrower",
      "outputs": [],
      "stateMutability": "nonpayable",
      "type": "function"
    },
    {
      "inputs": [
        {
          "internalType": "address",
          "name": "account",
          "type": "address"
        }
      ],
      "name": "addMinter",
      "outputs": [],
      "stateMutability": "nonpayable",
      "type": "function"
    },
    {
      "inputs": [
        {
          "internalType": "address",
          "name": "account",
          "type": "address"
        }
      ],
      "name": "addOwner",
      "outputs": [],
      "stateMutability": "nonpayable",
      "type": "function"
    },
    {
      "inputs": [
        {
          "internalType": "address",
          "name": "account",
          "type": "address"
        }
      ],
      "name": "addPauser",
      "outputs": [],
      "stateMutability": "nonpayable",
      "type": "function"
    },
    {
      "inputs": [
        {
          "internalType": "address",
          "name": "account",
          "type": "address"
        }
      ],
      "name": "addRevoker",
      "outputs": [],
      "stateMutability": "nonpayable",
      "type": "function"
    },
    {
      "inputs": [
        {
          "internalType": "address",
          "name": "addressToAdd",
          "type": "address"
        },
        {
          "internalType": "uint8",
          "name": "whitelist",
          "type": "uint8"
        }
      ],
      "name": "addToWhitelist",
      "outputs": [],
      "stateMutability": "nonpayable",
      "type": "function"
    },
    {
      "inputs": [
        {
          "internalType": "address",
          "name": "account",
          "type": "address"
        }
      ],
      "name": "addWhitelister",
      "outputs": [],
      "stateMutability": "nonpayable",
      "type": "function"
    },
    {
      "inputs": [
        {
          "internalType": "address",
          "name": "",
          "type": "address"
        }
      ],
      "name": "addressWhitelists",
      "outputs": [
        {
          "internalType": "uint8",
          "name": "",
          "type": "uint8"
        }
      ],
      "stateMutability": "view",
      "type": "function"
    },
    {
      "inputs": [
        {
          "internalType": "address",
          "name": "owner",
          "type": "address"
        },
        {
          "internalType": "address",
          "name": "spender",
          "type": "address"
        }
      ],
      "name": "allowance",
      "outputs": [
        {
          "internalType": "uint256",
          "name": "",
          "type": "uint256"
        }
      ],
      "stateMutability": "view",
      "type": "function"
    },
    {
      "inputs": [
        {
          "internalType": "address",
          "name": "spender",
          "type": "address"
        },
        {
          "internalType": "uint256",
          "name": "amount",
          "type": "uint256"
        }
      ],
      "name": "approve",
      "outputs": [
        {
          "internalType": "bool",
          "name": "",
          "type": "bool"
        }
      ],
      "stateMutability": "nonpayable",
      "type": "function"
    },
    {
      "inputs": [
        {
          "internalType": "address",
          "name": "account",
          "type": "address"
        }
      ],
      "name": "balanceOf",
      "outputs": [
        {
          "internalType": "uint256",
          "name": "",
          "type": "uint256"
        }
      ],
      "stateMutability": "view",
      "type": "function"
    },
    {
      "inputs": [
        {
          "internalType": "address",
          "name": "account",
          "type": "address"
        },
        {
          "internalType": "uint256",
          "name": "amount",
          "type": "uint256"
        }
      ],
      "name": "burn",
      "outputs": [
        {
          "internalType": "bool",
          "name": "",
          "type": "bool"
        }
      ],
      "stateMutability": "nonpayable",
      "type": "function"
    },
    {
      "inputs": [
        {
          "internalType": "uint256",
          "name": "requestId",
          "type": "uint256"
        }
      ],
      "name": "cancelTransferProposal",
      "outputs": [],
      "stateMutability": "nonpayable",
      "type": "function"
    },
    {
      "inputs": [
        {
          "internalType": "address",
          "name": "sender",
          "type": "address"
        },
        {
          "internalType": "address",
          "name": "receiver",
          "type": "address"
        }
      ],
      "name": "checkWhitelistAllowed",
      "outputs": [
        {
          "internalType": "bool",
          "name": "",
          "type": "bool"
        }
      ],
      "stateMutability": "view",
      "type": "function"
    },
    {
      "inputs": [],
      "name": "decimals",
      "outputs": [
        {
          "internalType": "uint8",
          "name": "",
          "type": "uint8"
        }
      ],
      "stateMutability": "view",
      "type": "function"
    },
    {
      "inputs": [
        {
          "internalType": "address",
          "name": "spender",
          "type": "address"
        },
        {
          "internalType": "uint256",
          "name": "subtractedValue",
          "type": "uint256"
        }
      ],
      "name": "decreaseAllowance",
      "outputs": [
        {
          "internalType": "bool",
          "name": "",
          "type": "bool"
        }
      ],
      "stateMutability": "nonpayable",
      "type": "function"
    },
    {
      "inputs": [],
      "name": "getLogicAddress",
      "outputs": [
        {
          "internalType": "address",
          "name": "logicAddress",
          "type": "address"
        }
      ],
      "stateMutability": "view",
      "type": "function"
    },
    {
      "inputs": [
        {
          "internalType": "uint256",
          "name": "requestId",
          "type": "uint256"
        }
      ],
      "name": "getTransferProposal",
      "outputs": [
        {
          "internalType": "address",
          "name": "createdBy",
          "type": "address"
        },
        {
          "internalType": "address",
          "name": "from",
          "type": "address"
        },
        {
          "internalType": "address",
          "name": "to",
          "type": "address"
        },
        {
          "internalType": "uint256",
          "name": "value",
          "type": "uint256"
        },
        {
          "internalType": "enum Escrowable.ProposalState",
          "name": "state",
          "type": "uint8"
        }
      ],
      "stateMutability": "view",
      "type": "function"
    },
    {
      "inputs": [
        {
          "internalType": "address",
          "name": "spender",
          "type": "address"
        },
        {
          "internalType": "uint256",
          "name": "addedValue",
          "type": "uint256"
        }
      ],
      "name": "increaseAllowance",
      "outputs": [
        {
          "internalType": "bool",
          "name": "",
          "type": "bool"
        }
      ],
      "stateMutability": "nonpayable",
      "type": "function"
    },
    {
      "inputs": [
        {
          "internalType": "address",
          "name": "account",
          "type": "address"
        }
      ],
      "name": "isBurner",
      "outputs": [
        {
          "internalType": "bool",
          "name": "",
          "type": "bool"
        }
      ],
      "stateMutability": "view",
      "type": "function"
    },
    {
      "inputs": [
        {
          "internalType": "address",
          "name": "account",
          "type": "address"
        }
      ],
      "name": "isEscrower",
      "outputs": [
        {
          "internalType": "bool",
          "name": "",
          "type": "bool"
        }
      ],
      "stateMutability": "view",
      "type": "function"
    },
    {
      "inputs": [
        {
          "internalType": "address",
          "name": "account",
          "type": "address"
        }
      ],
      "name": "isMinter",
      "outputs": [
        {
          "internalType": "bool",
          "name": "",
          "type": "bool"
        }
      ],
      "stateMutability": "view",
      "type": "function"
    },
    {
      "inputs": [
        {
          "internalType": "address",
          "name": "account",
          "type": "address"
        }
      ],
      "name": "isOwner",
      "outputs": [
        {
          "internalType": "bool",
          "name": "",
          "type": "bool"
        }
      ],
      "stateMutability": "view",
      "type": "function"
    },
    {
      "inputs": [
        {
          "internalType": "address",
          "name": "account",
          "type": "address"
        }
      ],
      "name": "isPauser",
      "outputs": [
        {
          "internalType": "bool",
          "name": "",
          "type": "bool"
        }
      ],
      "stateMutability": "view",
      "type": "function"
    },
    {
      "inputs": [
        {
          "internalType": "address",
          "name": "account",
          "type": "address"
        }
      ],
      "name": "isRevoker",
      "outputs": [
        {
          "internalType": "bool",
          "name": "",
          "type": "bool"
        }
      ],
      "stateMutability": "view",
      "type": "function"
    },
    {
      "inputs": [],
      "name": "isWhitelistEnabled",
      "outputs": [
        {
          "internalType": "bool",
          "name": "",
          "type": "bool"
        }
      ],
      "stateMutability": "view",
      "type": "function"
    },
    {
      "inputs": [
        {
          "internalType": "address",
          "name": "account",
          "type": "address"
        }
      ],
      "name": "isWhitelister",
      "outputs": [
        {
          "internalType": "bool",
          "name": "",
          "type": "bool"
        }
      ],
      "stateMutability": "view",
      "type": "function"
    },
    {
      "inputs": [
        {
          "internalType": "address",
          "name": "account",
          "type": "address"
        },
        {
          "internalType": "uint256",
          "name": "amount",
          "type": "uint256"
        }
      ],
      "name": "mint",
      "outputs": [
        {
          "internalType": "bool",
          "name": "",
          "type": "bool"
        }
      ],
      "stateMutability": "nonpayable",
      "type": "function"
    },
    {
      "inputs": [],
      "name": "name",
      "outputs": [
        {
          "internalType": "string",
          "name": "",
          "type": "string"
        }
      ],
      "stateMutability": "view",
      "type": "function"
    },
    {
      "inputs": [
        {
          "internalType": "uint8",
          "name": "",
          "type": "uint8"
        },
        {
          "internalType": "uint8",
          "name": "",
          "type": "uint8"
        }
      ],
      "name": "outboundWhitelistsEnabled",
      "outputs": [
        {
          "internalType": "bool",
          "name": "",
          "type": "bool"
        }
      ],
      "stateMutability": "view",
      "type": "function"
    },
    {
      "inputs": [],
      "name": "pause",
      "outputs": [],
      "stateMutability": "nonpayable",
      "type": "function"
    },
    {
      "inputs": [],
      "name": "paused",
      "outputs": [
        {
          "internalType": "bool",
          "name": "",
          "type": "bool"
        }
      ],
      "stateMutability": "view",
      "type": "function"
    },
    {
      "inputs": [],
      "name": "proxiableUUID",
      "outputs": [
        {
          "internalType": "bytes32",
          "name": "",
          "type": "bytes32"
        }
      ],
      "stateMutability": "pure",
      "type": "function"
    },
    {
      "inputs": [
        {
          "internalType": "address",
          "name": "account",
          "type": "address"
        }
      ],
      "name": "removeBurner",
      "outputs": [],
      "stateMutability": "nonpayable",
      "type": "function"
    },
    {
      "inputs": [
        {
          "internalType": "address",
          "name": "account",
          "type": "address"
        }
      ],
      "name": "removeEscrower",
      "outputs": [],
      "stateMutability": "nonpayable",
      "type": "function"
    },
    {
      "inputs": [
        {
          "internalType": "address",
          "name": "addressToRemove",
          "type": "address"
        }
      ],
      "name": "removeFromWhitelist",
      "outputs": [],
      "stateMutability": "nonpayable",
      "type": "function"
    },
    {
      "inputs": [
        {
          "internalType": "address",
          "name": "account",
          "type": "address"
        }
      ],
      "name": "removeMinter",
      "outputs": [],
      "stateMutability": "nonpayable",
      "type": "function"
    },
    {
      "inputs": [
        {
          "internalType": "address",
          "name": "account",
          "type": "address"
        }
      ],
      "name": "removeOwner",
      "outputs": [],
      "stateMutability": "nonpayable",
      "type": "function"
    },
    {
      "inputs": [
        {
          "internalType": "address",
          "name": "account",
          "type": "address"
        }
      ],
      "name": "removePauser",
      "outputs": [],
      "stateMutability": "nonpayable",
      "type": "function"
    },
    {
      "inputs": [
        {
          "internalType": "address",
          "name": "account",
          "type": "address"
        }
      ],
      "name": "removeRevoker",
      "outputs": [],
      "stateMutability": "nonpayable",
      "type": "function"
    },
    {
      "inputs": [
        {
          "internalType": "address",
          "name": "account",
          "type": "address"
        }
      ],
      "name": "removeWhitelister",
      "outputs": [],
      "stateMutability": "nonpayable",
      "type": "function"
    },
    {
      "inputs": [
        {
          "internalType": "address",
          "name": "from",
          "type": "address"
        },
        {
          "internalType": "uint256",
          "name": "amount",
          "type": "uint256"
        }
      ],
      "name": "revoke",
      "outputs": [
        {
          "internalType": "bool",
          "name": "",
          "type": "bool"
        }
      ],
      "stateMutability": "nonpayable",
      "type": "function"
    },
    {
      "inputs": [
        {
          "internalType": "bool",
          "name": "enabled",
          "type": "bool"
        }
      ],
      "name": "setWhitelistEnabled",
      "outputs": [],
      "stateMutability": "nonpayable",
      "type": "function"
    },
    {
      "inputs": [],
      "name": "symbol",
      "outputs": [
        {
          "internalType": "string",
          "name": "",
          "type": "string"
        }
      ],
      "stateMutability": "view",
      "type": "function"
    },
    {
      "inputs": [],
      "name": "totalSupply",
      "outputs": [
        {
          "internalType": "uint256",
          "name": "",
          "type": "uint256"
        }
      ],
      "stateMutability": "view",
      "type": "function"
    },
    {
      "inputs": [
        {
          "internalType": "uint256",
          "name": "",
          "type": "uint256"
        }
      ],
      "name": "transferProposals",
      "outputs": [
        {
          "internalType": "address",
          "name": "createdBy",
          "type": "address"
        },
        {
          "internalType": "address",
          "name": "from",
          "type": "address"
        },
        {
          "internalType": "address",
          "name": "to",
          "type": "address"
        },
        {
          "internalType": "uint256",
          "name": "value",
          "type": "uint256"
        },
        {
          "internalType": "enum Escrowable.ProposalState",
          "name": "state",
          "type": "uint8"
        }
      ],
      "stateMutability": "view",
      "type": "function"
    },
    {
      "inputs": [],
      "name": "unpause",
      "outputs": [],
      "stateMutability": "nonpayable",
      "type": "function"
    },
    {
      "inputs": [
        {
          "internalType": "uint8",
          "name": "sourceWhitelist",
          "type": "uint8"
        },
        {
          "internalType": "uint8",
          "name": "destinationWhitelist",
          "type": "uint8"
        },
        {
          "internalType": "bool",
          "name": "newEnabledValue",
          "type": "bool"
        }
      ],
      "name": "updateOutboundWhitelistEnabled",
      "outputs": [],
      "stateMutability": "nonpayable",
      "type": "function"
    },
    {
      "inputs": [
        {
          "internalType": "string",
          "name": "name",
          "type": "string"
        },
        {
          "internalType": "string",
          "name": "symbol",
          "type": "string"
        },
        {
          "internalType": "uint8",
          "name": "decimals",
          "type": "uint8"
        }
      ],
      "name": "initialize",
      "outputs": [],
      "stateMutability": "nonpayable",
      "type": "function"
    },
    {
      "inputs": [
        {
          "internalType": "address",
          "name": "owner",
          "type": "address"
        },
        {
          "internalType": "string",
          "name": "name",
          "type": "string"
        },
        {
          "internalType": "string",
          "name": "symbol",
          "type": "string"
        },
        {
          "internalType": "uint8",
          "name": "decimals",
          "type": "uint8"
        },
        {
          "internalType": "uint256",
          "name": "initialSupply",
          "type": "uint256"
        },
        {
          "internalType": "bool",
          "name": "whitelistEnabled",
          "type": "bool"
        }
      ],
      "name": "initialize",
      "outputs": [],
      "stateMutability": "nonpayable",
      "type": "function"
    },
    {
      "inputs": [
        {
          "internalType": "address",
          "name": "newAddress",
          "type": "address"
        }
      ],
      "name": "updateCodeAddress",
      "outputs": [],
      "stateMutability": "nonpayable",
      "type": "function"
    },
    {
      "inputs": [
        {
          "internalType": "uint256",
          "name": "requestId",
          "type": "uint256"
        }
      ],
      "name": "rejectTransferProposal",
      "outputs": [],
      "stateMutability": "nonpayable",
      "type": "function"
    },
    {
      "inputs": [
        {
          "internalType": "uint256",
          "name": "requestId",
          "type": "uint256"
        }
      ],
      "name": "approveTransferProposal",
      "outputs": [],
      "stateMutability": "nonpayable",
      "type": "function"
    },
    {
      "inputs": [
        {
          "internalType": "address",
          "name": "to",
          "type": "address"
        },
        {
          "internalType": "uint256",
          "name": "value",
          "type": "uint256"
        }
      ],
      "name": "transfer",
      "outputs": [
        {
          "internalType": "bool",
          "name": "success",
          "type": "bool"
        }
      ],
      "stateMutability": "nonpayable",
      "type": "function"
    },
    {
      "inputs": [
        {
          "internalType": "address",
          "name": "from",
          "type": "address"
        },
        {
          "internalType": "address",
          "name": "to",
          "type": "address"
        },
        {
          "internalType": "uint256",
          "name": "value",
          "type": "uint256"
        }
      ],
      "name": "transferFrom",
      "outputs": [
        {
          "internalType": "bool",
          "name": "success",
          "type": "bool"
        }
      ],
      "stateMutability": "nonpayable",
      "type": "function"
    }
  ],
  "bytecode": "0x608060405234801561001057600080fd5b50613a42806100206000396000f3fe608060405234801561001057600080fd5b50600436106103c55760003560e01c80637d0c269f116101ff578063a126bc751161011a578063dd62ed3e116100ad578063eac449d91161007c578063eac449d914610e07578063eaf9144a14610e33578063f44637ba14610e59578063f6c4b01f14610e7f576103c5565b8063dd62ed3e14610d83578063e7984d1714610db1578063e884e1b414610db9578063e959450814610ddf576103c5565b8063abd108ba116100e9578063abd108ba14610d14578063c06f8b9414610d38578063c893446214610d5e578063cb0c0f3514610d66576103c5565b8063a126bc7514610c79578063a457c2d714610c96578063a9059cbb14610cc2578063aa271e1a14610cee576103c5565b806392e6d68b11610192578063961a66f611610161578063961a66f614610bf957806397af674414610c1f578063983b2d5614610c275780639dc29fac14610c4d576103c5565b806392e6d68b14610b7757806393489f1d14610b9d5780639437e2fe14610bc357806395d89b4114610bf1576103c5565b80638771cd2d116101ce5780638771cd2d146109bc5780638ab1d68114610b055780638f6aabac14610b2b578063912a988514610b51576103c5565b80637d0c269f1461094257806382c3f79c1461096857806382dc1ec41461098e5780638456cb59146109b4576103c5565b8063313ce567116102ef578063489c1b25116102825780635c975abb116102515780635c975abb146108c85780636b2c0f55146108d05780637065cb48146108f657806370a082311461091c576103c5565b8063489c1b251461087e5780634c8cb99d1461088657806352d1902d146108a3578063535a7c18146108ab576103c5565b80633f713709116102be5780633f713709146107fe57806340c10f19146108065780634334614a1461083257806346fbf68e14610858576103c5565b8063313ce5671461079057806339509351146107985780633973b596146107c45780633f4ba83a146107f6576103c5565b80631624f6c6116103675780631fb45ec0116103365780631fb45ec01461070657806323b872dd1461070e5780632f54bf6e146107445780633092afd51461076a576103c5565b80631624f6c614610590578063173825d9146106be57806318160ddd146106e4578063184d69ab146106fe576103c5565b8063052d9e7e116103a3578063052d9e7e1461049657806306fdde03146104b5578063095ea7b3146105325780630e969a0514610572576103c5565b8063012fe7fd146103ca5780630263b8581461043f5780630284685814610470575b600080fd5b6103e7600480360360208110156103e057600080fd5b5035610ea5565b60405180866001600160a01b03168152602001856001600160a01b03168152602001846001600160a01b0316815260200183815260200182600381111561042a57fe5b81526020019550505050505060405180910390f35b61046e6004803603604081101561045557600080fd5b5080356001600160a01b0316906020013560ff16610ee5565b005b61046e6004803603602081101561048657600080fd5b50356001600160a01b0316610f37565b61046e600480360360208110156104ac57600080fd5b50351515610f87565b6104bd610fd4565b6040805160208082528351818301528351919283929083019185019080838360005b838110156104f75781810151838201526020016104df565b50505050905090810190601f1680156105245780820380516001836020036101000a031916815260200191505b509250505060405180910390f35b61055e6004803603604081101561054857600080fd5b506001600160a01b03813516906020013561106a565b604080519115158252519081900360200190f35b61057a611088565b6040805160ff9092168252519081900360200190f35b61046e600480360360608110156105a657600080fd5b810190602081018135600160201b8111156105c057600080fd5b8201836020820111156105d257600080fd5b803590602001918460018302840111600160201b831117156105f357600080fd5b91908080601f0160208091040260200160405190810160405280939291908181526020018383808284376000920191909152509295949360208101935035915050600160201b81111561064557600080fd5b82018360208201111561065757600080fd5b803590602001918460018302840111600160201b8311171561067857600080fd5b91908080601f0160208091040260200160405190810160405280939291908181526020018383808284376000920191909152509295505050903560ff16915061108d9050565b61046e600480360360208110156106d457600080fd5b50356001600160a01b0316611169565b6106ec6111b6565b60408051918252519081900360200190f35b61055e6111bc565b61057a6111c5565b61055e6004803603606081101561072457600080fd5b506001600160a01b038135811691602081013590911690604001356111ca565b61055e6004803603602081101561075a57600080fd5b50356001600160a01b03166111df565b61046e6004803603602081101561078057600080fd5b50356001600160a01b03166111ec565b61057a611239565b61055e600480360360408110156107ae57600080fd5b506001600160a01b038135169060200135611242565b61046e600480360360608110156107da57600080fd5b5060ff8135811691602081013590911690604001351515611295565b61046e6112e9565b61057a611385565b61055e6004803603604081101561081c57600080fd5b506001600160a01b03813516906020013561138a565b61055e6004803603602081101561084857600080fd5b50356001600160a01b03166113e2565b61055e6004803603602081101561086e57600080fd5b50356001600160a01b03166113ef565b6104bd6113fc565b61046e6004803603602081101561089c57600080fd5b5035611418565b6106ec611465565b6103e7600480360360208110156108c157600080fd5b5035611477565b61055e61151d565b61046e600480360360208110156108e657600080fd5b50356001600160a01b0316611526565b61046e6004803603602081101561090c57600080fd5b50356001600160a01b0316611573565b6106ec6004803603602081101561093257600080fd5b50356001600160a01b03166115c0565b61055e6004803603602081101561095857600080fd5b50356001600160a01b03166115db565b61046e6004803603602081101561097e57600080fd5b50356001600160a01b03166115e8565b61046e600480360360208110156109a457600080fd5b50356001600160a01b0316611635565b61046e611682565b61046e600480360360c08110156109d257600080fd5b6001600160a01b038235169190810190604081016020820135600160201b8111156109fc57600080fd5b820183602082011115610a0e57600080fd5b803590602001918460018302840111600160201b83111715610a2f57600080fd5b91908080601f0160208091040260200160405190810160405280939291908181526020018383808284376000920191909152509295949360208101935035915050600160201b811115610a8157600080fd5b820183602082011115610a9357600080fd5b803590602001918460018302840111600160201b83111715610ab457600080fd5b91908080601f0160208091040260200160405190810160405280939291908181526020018383808284376000920191909152509295505060ff83351693505050602081013590604001351515611719565b61046e60048036036020811015610b1b57600080fd5b50356001600160a01b03166117ea565b61046e60048036036020811015610b4157600080fd5b50356001600160a01b0316611837565b61046e60048036036020811015610b6757600080fd5b50356001600160a01b0316611884565b61057a60048036036020811015610b8d57600080fd5b50356001600160a01b03166118d1565b61046e60048036036020811015610bb357600080fd5b50356001600160a01b03166118e6565b61055e60048036036040811015610bd957600080fd5b506001600160a01b038135811691602001351661197b565b6104bd611a00565b61046e60048036036020811015610c0f57600080fd5b50356001600160a01b0316611a61565b6104bd611aae565b61046e60048036036020811015610c3d57600080fd5b50356001600160a01b0316611adc565b61055e60048036036040811015610c6357600080fd5b506001600160a01b038135169060200135611b29565b61046e60048036036020811015610c8f57600080fd5b5035611b7a565b61055e60048036036040811015610cac57600080fd5b506001600160a01b038135169060200135611bc7565b61055e60048036036040811015610cd857600080fd5b506001600160a01b038135169060200135611c2f565b61055e60048036036020811015610d0457600080fd5b50356001600160a01b0316611c3b565b610d1c611c48565b604080516001600160a01b039092168252519081900360200190f35b61046e60048036036020811015610d4e57600080fd5b50356001600160a01b0316611c5b565b6104bd611ca8565b61046e60048036036020811015610d7c57600080fd5b5035611cc4565b6106ec60048036036040811015610d9957600080fd5b506001600160a01b0381358116916020013516611dd7565b6104bd611e02565b61055e60048036036020811015610dcf57600080fd5b50356001600160a01b0316611e25565b61055e60048036036040811015610df557600080fd5b5060ff81358116916020013516611e32565b61055e60048036036040811015610e1d57600080fd5b506001600160a01b038135169060200135611e52565b61046e60048036036020811015610e4957600080fd5b50356001600160a01b0316611ea2565b61046e60048036036020811015610e6f57600080fd5b50356001600160a01b0316611eef565b61055e60048036036020811015610e9557600080fd5b50356001600160a01b0316611f3c565b60a960205260009081526040902080546001820154600283015460038401546004909401546001600160a01b039384169492841693909116919060ff1685565b610eee336115db565b610f295760405162461bcd60e51b815260040180806020018281038252603a8152602001806138f5603a913960400191505060405180910390fd5b610f338282611f49565b5050565b610f40336111df565b610f7b5760405162461bcd60e51b815260040180806020018281038252602e815260200180613713602e913960400191505060405180910390fd5b610f848161208e565b50565b610f90336111df565b610fcb5760405162461bcd60e51b815260040180806020018281038252602e815260200180613713602e913960400191505060405180910390fd5b610f84816120d2565b60338054604080516020601f60026000196101006001881615020190951694909404938401819004810282018101909252828152606093909290918301828280156110605780601f1061103557610100808354040283529160200191611060565b820191906000526020600020905b81548152906001019060200180831161104357829003601f168201915b5050505050905090565b600061107e611077612111565b8484612115565b5060015b92915050565b600081565b600054610100900460ff16806110a657506110a6612201565b806110b4575060005460ff16155b6110ef5760405162461bcd60e51b815260040180806020018281038252602e8152602001806137f7602e913960400191505060405180910390fd5b600054610100900460ff1615801561111a576000805460ff1961ff0019909116610100171660011790555b835161112d906033906020870190613451565b508251611141906034906020860190613451565b506035805460ff191660ff84161790558015611163576000805461ff00191690555b50505050565b611172336111df565b6111ad5760405162461bcd60e51b815260040180806020018281038252602e815260200180613713602e913960400191505060405180910390fd5b610f8481612207565b606a5490565b609f5460ff1681565b600181565b60006111d784848461224b565b949350505050565b6000611082609d8361238e565b6111f5336111df565b6112305760405162461bcd60e51b815260040180806020018281038252602e815260200180613713602e913960400191505060405180910390fd5b610f84816123f5565b60355460ff1690565b600061107e61124f612111565b846112908560696000611260612111565b6001600160a01b03908116825260208083019390935260409182016000908120918c168152925290205490612439565b612115565b61129e336115db565b6112d95760405162461bcd60e51b815260040180806020018281038252603a8152602001806138f5603a913960400191505060405180910390fd5b6112e4838383612493565b505050565b6112f2336113ef565b61132d5760405162461bcd60e51b81526004018080602001828103825260308152602001806135b86030913960400191505060405180910390fd5b60a65460ff1661137b576040805162461bcd60e51b815260206004820152601460248201527314185d5cd8589b194e881b9bdd081c185d5cd95960621b604482015290519081900360640190fd5b61138361250c565b565b600281565b600061139533611c3b565b6113d05760405162461bcd60e51b81526004018080602001828103825260308152602001806136e36030913960400191505060405180910390fd5b6113db33848461254b565b9392505050565b600061108260a38361238e565b600061108260a58361238e565b6040518060600160405280603d8152602001613846603d913981565b61142133611e25565b61145c5760405162461bcd60e51b81526004018080602001828103825260328152602001806135866032913960400191505060405180910390fd5b610f84816125ac565b60008051602061376283398151915290565b600080600080600060a85486106114d5576040805162461bcd60e51b815260206004820152601960248201527f726571756573744964206973206f7574206f662072616e676500000000000000604482015290519081900360640190fd5b5050506000928352505060a96020526040902080546001820154600283015460038401546004909401546001600160a01b03938416959284169493909116929160ff90911690565b60a65460ff1690565b61152f336111df565b61156a5760405162461bcd60e51b815260040180806020018281038252602e815260200180613713602e913960400191505060405180910390fd5b610f8481612656565b61157c336111df565b6115b75760405162461bcd60e51b815260040180806020018281038252602e815260200180613713602e913960400191505060405180910390fd5b610f848161269a565b6001600160a01b031660009081526068602052604090205490565b6000611082609e8361238e565b6115f1336111df565b61162c5760405162461bcd60e51b815260040180806020018281038252602e815260200180613713602e913960400191505060405180910390fd5b610f84816126de565b61163e336111df565b6116795760405162461bcd60e51b815260040180806020018281038252602e815260200180613713602e913960400191505060405180910390fd5b610f8481612722565b61168b336113ef565b6116c65760405162461bcd60e51b81526004018080602001828103825260308152602001806135b86030913960400191505060405180910390fd5b60a65460ff1615611711576040805162461bcd60e51b815260206004820152601060248201526f14185d5cd8589b194e881c185d5cd95960821b604482015290519081900360640190fd5b611383612766565b600054610100900460ff16806117325750611732612201565b80611740575060005460ff16155b61177b5760405162461bcd60e51b815260040180806020018281038252602e8152602001806137f7602e913960400191505060405180910390fd5b600054610100900460ff161580156117a6576000805460ff1961ff0019909116610100171660011790555b6117b186868661108d565b6117bc33888561254b565b506117c68761269a565b6117cf826120d2565b80156117e1576000805461ff00191690555b50505050505050565b6117f3336115db565b61182e5760405162461bcd60e51b815260040180806020018281038252603a8152602001806138f5603a913960400191505060405180910390fd5b610f84816127a8565b611840336111df565b61187b5760405162461bcd60e51b815260040180806020018281038252602e815260200180613713602e913960400191505060405180910390fd5b610f8481612898565b61188d336111df565b6118c85760405162461bcd60e51b815260040180806020018281038252602e815260200180613713602e913960400191505060405180910390fd5b610f84816128dc565b60a06020526000908152604090205460ff1681565b6118ef336111df565b61192a5760405162461bcd60e51b815260040180806020018281038252602e815260200180613713602e913960400191505060405180910390fd5b336001600160a01b03821614156119725760405162461bcd60e51b815260040180806020018281038252602e81526020018061392f602e913960400191505060405180910390fd5b610f84816129e4565b609f5460009060ff1661199057506001611082565b6001600160a01b03808416600090815260a0602052604080822054928516825290205460ff91821691168115806119c8575060ff8116155b156119d857600092505050611082565b60ff918216600090815260a16020908152604080832093851683529290522054169392505050565b60348054604080516020601f60026000196101006001881615020190951694909404938401819004810282018101909252828152606093909290918301828280156110605780601f1061103557610100808354040283529160200191611060565b611a6a336111df565b611aa55760405162461bcd60e51b815260040180806020018281038252602e815260200180613713602e913960400191505060405180910390fd5b610f8481612a28565b60405180604001604052806012815260200171556e6b6e6f776e204572726f7220436f646560701b81525081565b611ae5336111df565b611b205760405162461bcd60e51b815260040180806020018281038252602e815260200180613713602e913960400191505060405180910390fd5b610f8481612a6c565b6000611b34336113e2565b611b6f5760405162461bcd60e51b81526004018080602001828103825260308152602001806136626030913960400191505060405180910390fd5b6113db338484612ab0565b611b8333611e25565b611bbe5760405162461bcd60e51b81526004018080602001828103825260328152602001806135866032913960400191505060405180910390fd5b610f8481612b11565b600061107e611bd4612111565b84611290856040518060600160405280602581526020016139e86025913960696000611bfe612111565b6001600160a01b03908116825260208083019390935260409182016000908120918d16815292529020549190612bdc565b60006113db8383612c73565b600061108260a28361238e565b6000805160206137628339815191525490565b611c64336111df565b611c9f5760405162461bcd60e51b815260040180806020018281038252602e815260200180613713602e913960400191505060405180910390fd5b610f8481612d85565b6040518060600160405280603c8152602001613981603c913981565b60a8548110611d045760405162461bcd60e51b81526004018080602001828103825260218152602001806138256021913960400191505060405180910390fd5b600081815260a96020526040812090600482015460ff166003811115611d2657fe5b14611d625760405162461bcd60e51b815260040180806020018281038252602b815260200180613692602b913960400191505060405180910390fd5b80546001600160a01b03163314611daa5760405162461bcd60e51b815260040180806020018281038252602b815260200180613782602b913960400191505060405180910390fd5b611db681836003612dc9565b60018101546003820154610f339130916001600160a01b0390911690612e44565b6001600160a01b03918216600090815260696020908152604080832093909416825291909152205490565b604051806040016040528060078152602001665355434345535360c81b81525081565b600061108260a78361238e565b60a160209081526000928352604080842090915290825290205460ff1681565b6000611e5d33611f3c565b611e985760405162461bcd60e51b815260040180806020018281038252603281526020018061360a6032913960400191505060405180910390fd5b6113db8383612f96565b611eab336111df565b611ee65760405162461bcd60e51b815260040180806020018281038252602e815260200180613713602e913960400191505060405180910390fd5b610f8481612fec565b611ef8336111df565b611f335760405162461bcd60e51b815260040180806020018281038252602e815260200180613713602e913960400191505060405180910390fd5b610f8481613030565b600061108260a48361238e565b6001600160a01b038216611f8e5760405162461bcd60e51b81526004018080602001828103825260268152602001806136bd6026913960400191505060405180910390fd5b60ff8116611fe3576040805162461bcd60e51b815260206004820152601d60248201527f496e76616c69642077686974656c69737420494420737570706c696564000000604482015290519081900360640190fd5b6001600160a01b038216600090815260a060205260409020805460ff83811660ff1983161790925516801561204e57604051339060ff8316906001600160a01b038616907fb50a30a0fa972f89fbb2b514d12b31f5a5d64f53603402de7939742cd8507f6e90600090a45b604051339060ff8416906001600160a01b038616907fca6d1e885708b837a7647aeb7f4163ee4ca96058e08ac767be8d23c972c5027090600090a4505050565b61209960a382613074565b60405133906001600160a01b038316907f85222465e0d438163a28671b59fc9ebeb03bf39f880ddd36c8315da7512b31c090600090a350565b609f805460ff191682151590811790915560405133907fb535c5f7f150db8dbf22962fc390e7fa9026b9c29ffad714197bee4620572bd690600090a350565b3390565b6001600160a01b03831661215a5760405162461bcd60e51b815260040180806020018281038252602481526020018061395d6024913960400191505060405180910390fd5b6001600160a01b03821661219f5760405162461bcd60e51b81526004018080602001828103825260228152602001806135e86022913960400191505060405180910390fd5b6001600160a01b03808416600081815260696020908152604080832094871680845294825291829020859055815185815291517f8c5be1e5ebec7d5bd14f71427d1e84f3dd0314c0f7b2291e5b200ac8c7c3b9259281900390910190a3505050565b303b1590565b612212609d82613074565b60405133906001600160a01b038316907fe594d081b4382713733fe631966432c9cea5199afb2db5c3c1931f9f9300367990600090a350565b60006040518060a00160405280336001600160a01b03168152602001856001600160a01b03168152602001846001600160a01b031681526020018381526020016000600381111561229857fe5b905260a854600090815260a96020908152604091829020835181546001600160a01b03199081166001600160a01b039283161783559285015160018084018054861692841692909217909155938501516002830180549094169116179091556060830151600380830191909155608084015160048301805493949193909260ff199091169190849081111561232957fe5b02179055505060a854604080519182526000602083015280513393507f37c022e8b41869a28d52a95d97338cc58db90c5e01027e7b5db628b620332d5f9281900390910190a260a8805460010190556123838430846130db565b506001949350505050565b60006001600160a01b0382166123d55760405162461bcd60e51b81526004018080602001828103825260228152602001806137d56022913960400191505060405180910390fd5b506001600160a01b03166000908152602091909152604090205460ff1690565b61240060a282613074565b60405133906001600160a01b038316907f4b5ef9a786cf64a7d82ebcf2d5132667edc9faef4ac36260d9a9e52c526b623290600090a350565b6000828201838110156113db576040805162461bcd60e51b815260206004820152601b60248201527f536166654d6174683a206164646974696f6e206f766572666c6f770000000000604482015290519081900360640190fd5b60ff838116600081815260a16020908152604080832087861680855290835292819020805487151560ff1982168117909255825196168015158752928601528051919492939233927fb0353d563a9aa5231878c83727dc723a3cb8a38c2917f8ac2b777aa564c8a0d5929181900390910190a450505050565b60a6805460ff191690556040805133815290517f5db9ee0a495bf2e6ff9c91a7834c1ba4fdd244a5e8aa4e537bd38aeae4b073aa9181900360200190a1565b60006125578383613153565b826001600160a01b0316846001600160a01b03167fab8530f87dc9b59234c4623bf917212bb2536d647574c8e7e5da92c2ede0c9f8846040518082815260200191505060405180910390a35060019392505050565b60a85481106125ec5760405162461bcd60e51b81526004018080602001828103825260218152602001806138256021913960400191505060405180910390fd5b600081815260a96020526040812090600482015460ff16600381111561260e57fe5b1461264a5760405162461bcd60e51b815260040180806020018281038252602b815260200180613508602b913960400191505060405180910390fd5b611db681836002612dc9565b61266160a582613074565b60405133906001600160a01b038316907fb75903ade4a0fdb07d60c882c22c779e2e1c751883c37aecdcc92a8ec72b046e90600090a350565b6126a5609d82613239565b60405133906001600160a01b038316907fc82bdbbf677a2462f2a7e22e4ba9abd209496b69cd7b868b3b1d28f76e09a40a90600090a350565b6126e9609e82613074565b60405133906001600160a01b038316907f3ed21605dd544629fb45f2ccaedcc095ba1dbea540fb6eaf5493a7479856b0be90600090a350565b61272d60a582613239565b60405133906001600160a01b038316907fe0953c403a52f9dc1fef4202a8d33975c958b727bee0d7b5b328965ddad98d8190600090a350565b60a6805460ff191660011790556040805133815290517f62e78cea01bee320cd4e420270b5ea74000d11b0c9f74754ebdbfc544b05a2589181900360200190a1565b6001600160a01b0381166127ed5760405162461bcd60e51b815260040180806020018281038252602b8152602001806139bd602b913960400191505060405180910390fd5b6001600160a01b038116600090815260a0602052604090205460ff16806128455760405162461bcd60e51b81526004018080602001828103825260318152602001806135336031913960400191505060405180910390fd5b6001600160a01b038216600081815260a06020526040808220805460ff1916905551339260ff85169290917fb50a30a0fa972f89fbb2b514d12b31f5a5d64f53603402de7939742cd8507f6e9190a45050565b6128a360a782613239565b60405133906001600160a01b038316907fc40499ba035b8062e6798e3416432187fdca530d217e788b87357cddd5c56ac690600090a350565b806001600160a01b03166352d1902d6040518163ffffffff1660e01b815260040160206040518083038186803b15801561291557600080fd5b505afa158015612929573d6000803e3d6000fd5b505050506040513d602081101561293f57600080fd5b505160008051602061376283398151915214612993576040805162461bcd60e51b815260206004820152600e60248201526d4e6f7420636f6d70617469626c6560901b604482015290519081900360640190fd5b600080516020613762833981519152819055604080516001600160a01b038316815290517feeaed647dc622e55877c30943e5c1d4feb92d1b8cfcc88d974163e9787bde9af9181900360200190a150565b6129ef60a782613074565b60405133906001600160a01b038316907ffc92afc8a5449a0672774ee4b158bd167b5aa87938ddab1c116e96b2be589e8c90600090a350565b612a3360a482613239565b60405133906001600160a01b038316907f2b5f18afd9a7b21f41bf023b012b3d4c8a22a21b79fa425cd4494ecbe297019690600090a350565b612a7760a282613239565b60405133906001600160a01b038316907f3c091dafb1d99e4a4c333024492eac3b2cd8bf921a3dd547c937db33be307bb890600090a350565b6000612abc838361330b565b826001600160a01b0316846001600160a01b03167fbac40739b0d4ca32fa2d82fc91630465ba3eddd1598da6fca393b26fb63b9453846040518082815260200191505060405180910390a35060019392505050565b60a8548110612b515760405162461bcd60e51b81526004018080602001828103825260218152602001806138256021913960400191505060405180910390fd5b600081815260a96020526040812090600482015460ff166003811115612b7357fe5b14612baf5760405162461bcd60e51b815260040180806020018281038252602c8152602001806138a4602c913960400191505060405180910390fd5b612bbb81836001612dc9565b60028101546003820154610f339130916001600160a01b0390911690612e44565b60008184841115612c6b5760405162461bcd60e51b81526004018080602001828103825283818151815260200191508051906020019080838360005b83811015612c30578181015183820152602001612c18565b50505050905090810190601f168015612c5d5780820380516001836020036101000a031916815260200191505b509250505060405180910390fd5b505050900390565b6040805160a0810182523380825260208083019182526001600160a01b038681168486019081526060850187815260006080870181815260a854825260a9909552968720865181549085166001600160a01b031991821617825595516001808301805492871692891692909217909155925160028201805491909516961695909517909255905160038085019190915591516004840180549193909260ff1990921691908490811115612d2257fe5b02179055505060a854604080519182526000602083015280513393507f37c022e8b41869a28d52a95d97338cc58db90c5e01027e7b5db628b620332d5f9281900390910190a260a880546001019055612d7b30836133fb565b5060019392505050565b612d9060a482613074565b60405133906001600160a01b038316907fb6fe3ab11eb9ab1d9f1d41c8f42a5d72d10122099ba1548e4a6d1a4d8cefec4b90600090a350565b60048301805482919060ff19166001836003811115612de457fe5b0217905550600483015460405183815233917f37c022e8b41869a28d52a95d97338cc58db90c5e01027e7b5db628b620332d5f91859160ff169060208101826003811115612e2e57fe5b81526020019250505060405180910390a2505050565b6001600160a01b038316612e895760405162461bcd60e51b81526004018080602001828103825260258152602001806138d06025913960400191505060405180910390fd5b6001600160a01b038216612ece5760405162461bcd60e51b81526004018080602001828103825260238152602001806134e56023913960400191505060405180910390fd5b612f0b8160405180606001604052806026815260200161363c602691396001600160a01b0386166000908152606860205260409020549190612bdc565b6001600160a01b038085166000908152606860205260408082209390935590841681522054612f3a9082612439565b6001600160a01b0380841660008181526068602090815260409182902094909455805185815290519193928716927fddf252ad1be2c89b69c2b068fc378daa952ba7f163c4a11628f55a4df523b3ef92918290030190a3505050565b6000612fa3833384612e44565b6040805183815290516001600160a01b0385169133917fb698e31a2abee5824d0d7bcfd2339aead7f9e9ae413fba50bf554ff3fa470b7b9181900360200190a350600192915050565b612ff7609e82613239565b60405133906001600160a01b038316907f5f36f4f5999f34947706fca376b955319b858573bf9d6bc59303c9a4cd80ced090600090a350565b61303b60a382613239565b60405133906001600160a01b038316907f86515ebaad527298e98929c064c075f5a2604cc80afc0db29e73c01a36f8e98c90600090a350565b61307e828261238e565b6130b95760405162461bcd60e51b81526004018080602001828103825260218152602001806137416021913960400191505060405180910390fd5b6001600160a01b0316600090815260209190915260409020805460ff19169055565b60006130e8848484612e44565b612d7b846130f4612111565b611290856040518060600160405280602881526020016137ad602891396001600160a01b038a16600090815260696020526040812090613132612111565b6001600160a01b031681526020810191909152604001600020549190612bdc565b6001600160a01b0382166131ae576040805162461bcd60e51b815260206004820152601f60248201527f45524332303a206d696e7420746f20746865207a65726f206164647265737300604482015290519081900360640190fd5b606a546131bb9082612439565b606a556001600160a01b0382166000908152606860205260409020546131e19082612439565b6001600160a01b03831660008181526068602090815260408083209490945583518581529351929391927fddf252ad1be2c89b69c2b068fc378daa952ba7f163c4a11628f55a4df523b3ef9281900390910190a35050565b6001600160a01b03811661328a576040805162461bcd60e51b8152602060048201526013602482015272496e76616c696420307830206164647265737360681b604482015290519081900360640190fd5b613294828261238e565b156132e6576040805162461bcd60e51b815260206004820152601f60248201527f526f6c65733a206163636f756e7420616c72656164792068617320726f6c6500604482015290519081900360640190fd5b6001600160a01b0316600090815260209190915260409020805460ff19166001179055565b6001600160a01b0382166133505760405162461bcd60e51b81526004018080602001828103825260218152602001806138836021913960400191505060405180910390fd5b61338d81604051806060016040528060228152602001613564602291396001600160a01b0385166000908152606860205260409020549190612bdc565b6001600160a01b038316600090815260686020526040902055606a546133b3908261340f565b606a556040805182815290516000916001600160a01b038516917fddf252ad1be2c89b69c2b068fc378daa952ba7f163c4a11628f55a4df523b3ef9181900360200190a35050565b600061107e613408612111565b8484612e44565b60006113db83836040518060400160405280601e81526020017f536166654d6174683a207375627472616374696f6e206f766572666c6f770000815250612bdc565b828054600181600116156101000203166002900490600052602060002090601f016020900481019282601f1061349257805160ff19168380011785556134bf565b828001600101855582156134bf579182015b828111156134bf5782518255916020019190600101906134a4565b506134cb9291506134cf565b5090565b5b808211156134cb57600081556001016134d056fe45524332303a207472616e7366657220746f20746865207a65726f206164647265737352657175657374206d75737420626520696e2050656e64696e6720737461746520746f2072656a6563742e416464726573732063616e6e6f742062652072656d6f7665642066726f6d20696e76616c69642077686974656c6973742e45524332303a206275726e20616d6f756e7420657863656564732062616c616e6365457363726f776572526f6c653a2063616c6c657220646f6573206e6f7420686176652074686520457363726f7720726f6c65506175736572526f6c653a2063616c6c657220646f6573206e6f742068617665207468652050617573657220726f6c6545524332303a20617070726f766520746f20746865207a65726f20616464726573735265766f6b6572526f6c653a2063616c6c657220646f6573206e6f74206861766520746865205265766f6b657220726f6c6545524332303a207472616e7366657220616d6f756e7420657863656564732062616c616e63654275726e6572526f6c653a2063616c6c657220646f6573206e6f74206861766520746865204275726e657220726f6c6552657175657374206d75737420626520696e2050656e64696e6720737461746520746f2063616e63656c2e43616e6e6f742061646420616464726573732030783020746f20612077686974656c6973742e4d696e746572526f6c653a2063616c6c657220646f6573206e6f74206861766520746865204d696e74657220726f6c654f776e6572526f6c653a2063616c6c657220646f6573206e6f74206861766520746865204f776e657220726f6c65526f6c65733a206163636f756e7420646f6573206e6f74206861766520726f6c65c5f16f0fcc639fa48a6947836d9850f504798523bf8c9a3a87d5876cf622bcf74f6e6c79207468652063726561746f72206f66206120726571756573742063616e2063616e63656c20697445524332303a207472616e7366657220616d6f756e74206578636565647320616c6c6f77616e6365526f6c65733a206163636f756e7420697320746865207a65726f2061646472657373436f6e747261637420696e7374616e63652068617320616c7265616479206265656e20696e697469616c697a656452657175657374204944206973206e6f7420696e2070726f7065722072616e6765546865207472616e736665722077617320726573747269637465642064756520746f2074686520636f6e7472616374206265696e67207061757365642e45524332303a206275726e2066726f6d20746865207a65726f206164647265737352657175657374206d75737420626520696e2050656e64696e6720737461746520746f20617070726f76652e45524332303a207472616e736665722066726f6d20746865207a65726f206164647265737357686974656c6973746572526f6c653a2063616c6c657220646f6573206e6f742068617665207468652057686974656c697374657220726f6c65457363726f776572732063616e6e6f742072656d6f7665207468656d73656c76657320617320457363726f77657245524332303a20617070726f76652066726f6d20746865207a65726f2061646472657373546865207472616e736665722077617320726573747269637465642064756520746f207768697465206c69737420636f6e66696775726174696f6e2e43616e6e6f742072656d6f76652061646472657373203078302066726f6d20612077686974656c6973742e45524332303a2064656372656173656420616c6c6f77616e63652062656c6f77207a65726fa2646970667358221220225528dc80f09d46e03eb5c48180b86af6632e397e4cfea57015eff54005a84064736f6c634300060c0033",
  "immutableReferences": {},
  "source": "pragma solidity 0.6.12;\n\nimport \"../capabilities/Proxiable.sol\";\nimport \"../@openzeppelin/contracts-ethereum-package/contracts/token/ERC20/ERC20Detailed.sol\";\nimport \"../roles/OwnerRole.sol\";\nimport \"../capabilities/Whitelistable.sol\";\nimport \"../capabilities/Mintable.sol\";\nimport \"../capabilities/Burnable.sol\";\nimport \"../capabilities/Revocable.sol\";\nimport \"../capabilities/Pausable.sol\";\nimport \"./Escrowable.sol\";\n\ncontract TokenSoftTokenEscrow is Proxiable, ERC20Detailed, OwnerRole, Whitelistable, Mintable, Burnable, Revocable, Pausable, Escrowable {\n\n    // ERC1404 Error codes and messages`\n    uint8 public constant SUCCESS_CODE = 0;\n    uint8 public constant FAILURE_NON_WHITELIST = 1;\n    uint8 public constant FAILURE_PAUSED = 2;\n    string public constant SUCCESS_MESSAGE = \"SUCCESS\";\n    string public constant FAILURE_NON_WHITELIST_MESSAGE = \"The transfer was restricted due to white list configuration.\";\n    string public constant FAILURE_PAUSED_MESSAGE = \"The transfer was restricted due to the contract being paused.\";\n    string public constant UNKNOWN_ERROR = \"Unknown Error Code\";\n\n    /**\n    Constructor for the token to set readable details and mint all tokens\n    to the specified owner.\n     */\n    function initialize (address owner, string memory name, string memory symbol, uint8 decimals, uint256 initialSupply, bool whitelistEnabled)\n        public\n        initializer\n    {\n        ERC20Detailed.initialize(name, symbol, decimals);\n        Mintable._mint(msg.sender, owner, initialSupply);\n        OwnerRole._addOwner(owner);\n        Whitelistable._setWhitelistEnabled(whitelistEnabled);\n    }\n\n    /**\n    Public function to update the address of the code contract, retricted to owner\n     */\n    function updateCodeAddress (address newAddress) public onlyOwner {\n        Proxiable._updateCodeAddress(newAddress);\n    }\n\n    /**\n    Restrict rejectTransferProposals to admins only\n     */\n    function rejectTransferProposal(uint requestId) public onlyEscrower {\n      Escrowable._rejectTransferProposal(requestId);\n    }\n\n    /**\n    Restrict approveTransferProposals to admins only\n     */\n    function approveTransferProposal(uint requestId) public onlyEscrower {\n      Escrowable._approveTransferProposal(requestId);\n    }\n\n    /**\n    Overrides the parent class token transfer function to enforce restrictions.\n     */\n    function transfer (address to, uint256 value)\n        public\n        override(IERC20, ERC20)\n        returns (bool success)\n    {\n        success = Escrowable._createTransferProposal(to, value);\n    }\n\n    /**\n    Overrides the parent class token transferFrom function to enforce restrictions.\n    Note that the approved amount of tokens the sender can transfer does not get reimbursed if the\n    Transfer proposal is rejcted or canceled.\n     */\n    function transferFrom (address from, address to, uint256 value)\n        public\n        override(IERC20, ERC20)\n        returns (bool success)\n    {\n        success = Escrowable._createTransferFromProposal(from, to, value);\n    }\n}\n",
  "sourcePath": "/Users/thomasmcinerney/dev/tokensoft_token/contracts/testing/TokenSoftTokenEscrow.sol",
  "compiler": {
    "name": "solc",
    "version": "0.6.12+commit.27d51765.Emscripten.clang"
  },
  "schemaVersion": "3.4.1",
  "updatedAt": "2021-10-28T23:00:53.254Z",
  "devdoc": {
    "kind": "dev",
    "methods": {
      "allowance(address,address)": {
        "details": "See {IERC20-allowance}."
      },
      "approve(address,uint256)": {
        "details": "See {IERC20-approve}. Requirements: - `spender` cannot be the zero address."
      },
      "balanceOf(address)": {
        "details": "See {IERC20-balanceOf}."
      },
      "decimals()": {
        "details": "Returns the number of decimals used to get its user representation. For example, if `decimals` equals `2`, a balance of `505` tokens should be displayed to a user as `5,05` (`505 / 10 ** 2`). Tokens usually opt for a value of 18, imitating the relationship between Ether and Wei. NOTE: This information is only used for _display_ purposes: it in no way affects any of the arithmetic of the contract, including {IERC20-balanceOf} and {IERC20-transfer}."
      },
      "decreaseAllowance(address,uint256)": {
        "details": "Atomically decreases the allowance granted to `spender` by the caller. This is an alternative to {approve} that can be used as a mitigation for problems described in {IERC20-approve}. Emits an {Approval} event indicating the updated allowance. Requirements: - `spender` cannot be the zero address. - `spender` must have allowance for the caller of at least `subtractedValue`."
      },
      "increaseAllowance(address,uint256)": {
        "details": "Atomically increases the allowance granted to `spender` by the caller. This is an alternative to {approve} that can be used as a mitigation for problems described in {IERC20-approve}. Emits an {Approval} event indicating the updated allowance. Requirements: - `spender` cannot be the zero address."
      },
      "initialize(string,string,uint8)": {
        "details": "Sets the values for `name`, `symbol`, and `decimals`. All three of these values are immutable: they can only be set once during construction."
      },
      "name()": {
        "details": "Returns the name of the token."
      },
      "pause()": {
        "details": "Called by an Owner to pause, triggers stopped state."
      },
      "paused()": {
        "details": "Returns true if the contract is paused, and false otherwise."
      },
      "symbol()": {
        "details": "Returns the symbol of the token, usually a shorter version of the name."
      },
      "totalSupply()": {
        "details": "See {IERC20-totalSupply}."
      },
      "unpause()": {
        "details": "Called by an Owner to unpause, returns to normal state."
      }
    },
    "version": 1
  },
  "userdoc": {
    "kind": "user",
    "methods": {
      "addToWhitelist(address,uint8)": {
        "notice": "Public function that allows admins to remove an address from a whitelist"
      },
      "approveTransferProposal(uint256)": {
        "notice": "Restrict approveTransferProposals to admins only"
      },
      "burn(address,uint256)": {
        "notice": "Allow Burners to burn tokens from valid addresses"
      },
      "cancelTransferProposal(uint256)": {
        "notice": "If a user locks up funds in a proposal, they can cancel it as long as an administrator has not already approved or rejected it."
      },
      "checkWhitelistAllowed(address,address)": {
        "notice": "Determine if the a sender is allowed to send to the receiver. The source whitelist must be enabled to send to the whitelist where the receive exists."
      },
      "initialize(address,string,string,uint8,uint256,bool)": {
        "notice": "Constructor for the token to set readable details and mint all tokens to the specified owner."
      },
      "mint(address,uint256)": {
        "notice": "Allow Owners to mint tokens to valid addresses"
      },
      "rejectTransferProposal(uint256)": {
        "notice": "Restrict rejectTransferProposals to admins only"
      },
      "removeFromWhitelist(address)": {
        "notice": "Public function that allows admins to remove an address from a whitelist"
      },
      "revoke(address,uint256)": {
        "notice": "Allow Admins to revoke tokens from any address"
      },
      "setWhitelistEnabled(bool)": {
        "notice": "Enable or disable the whitelist enforcement"
      },
      "transfer(address,uint256)": {
        "notice": "Overrides the parent class token transfer function to enforce restrictions."
      },
      "transferFrom(address,address,uint256)": {
        "notice": "Overrides the parent class token transferFrom function to enforce restrictions. Note that the approved amount of tokens the sender can transfer does not get reimbursed if the Transfer proposal is rejcted or canceled."
      },
      "updateCodeAddress(address)": {
        "notice": "Public function to update the address of the code contract, retricted to owner"
      },
      "updateOutboundWhitelistEnabled(uint8,uint8,bool)": {
        "notice": "Public function that allows admins to update outbound whitelists"
      }
    },
    "version": 1
  }
}