{
  "contractName": "TokenSoftToken",
  "abi": [
    {
      "anonymous": false,
      "inputs": [
        {
          "indexed": true,
          "internalType": "address",
          "name": "addedAddress",
          "type": "address"
        },
        {
          "indexed": true,
          "internalType": "uint8",
          "name": "whitelist",
          "type": "uint8"
        },
        {
          "indexed": true,
          "internalType": "address",
          "name": "addedBy",
          "type": "address"
        }
      ],
      "name": "AddressAddedToWhitelist",
      "type": "event"
    },
    {
      "anonymous": false,
      "inputs": [
        {
          "indexed": true,
          "internalType": "address",
          "name": "removedAddress",
          "type": "address"
        },
        {
          "indexed": true,
          "internalType": "uint8",
          "name": "whitelist",
          "type": "uint8"
        },
        {
          "indexed": true,
          "internalType": "address",
          "name": "removedBy",
          "type": "address"
        }
      ],
      "name": "AddressRemovedFromWhitelist",
      "type": "event"
    },
    {
      "anonymous": false,
      "inputs": [
        {
          "indexed": true,
          "internalType": "address",
          "name": "addedAdmin",
          "type": "address"
        },
        {
          "indexed": true,
          "internalType": "address",
          "name": "addedBy",
          "type": "address"
        }
      ],
      "name": "AdminAdded",
      "type": "event"
    },
    {
      "anonymous": false,
      "inputs": [
        {
          "indexed": true,
          "internalType": "address",
          "name": "removedAdmin",
          "type": "address"
        },
        {
          "indexed": true,
          "internalType": "address",
          "name": "removedBy",
          "type": "address"
        }
      ],
      "name": "AdminRemoved",
      "type": "event"
    },
    {
      "anonymous": false,
      "inputs": [
        {
          "indexed": true,
          "internalType": "address",
          "name": "owner",
          "type": "address"
        },
        {
          "indexed": true,
          "internalType": "address",
          "name": "spender",
          "type": "address"
        },
        {
          "indexed": false,
          "internalType": "uint256",
          "name": "value",
          "type": "uint256"
        }
      ],
      "name": "Approval",
      "type": "event"
    },
    {
      "anonymous": false,
      "inputs": [
        {
          "indexed": false,
          "internalType": "address",
          "name": "newAddress",
          "type": "address"
        }
      ],
      "name": "CodeAddressUpdated",
      "type": "event"
    },
    {
      "anonymous": false,
      "inputs": [
        {
          "indexed": true,
          "internalType": "address",
          "name": "minter",
          "type": "address"
        },
        {
          "indexed": true,
          "internalType": "address",
          "name": "to",
          "type": "address"
        },
        {
          "indexed": false,
          "internalType": "uint256",
          "name": "amount",
          "type": "uint256"
        }
      ],
      "name": "Mint",
      "type": "event"
    },
    {
      "anonymous": false,
      "inputs": [
        {
          "indexed": true,
          "internalType": "address",
          "name": "updatedBy",
          "type": "address"
        },
        {
          "indexed": true,
          "internalType": "uint8",
          "name": "sourceWhitelist",
          "type": "uint8"
        },
        {
          "indexed": true,
          "internalType": "uint8",
          "name": "destinationWhitelist",
          "type": "uint8"
        },
        {
          "indexed": false,
          "internalType": "bool",
          "name": "from",
          "type": "bool"
        },
        {
          "indexed": false,
          "internalType": "bool",
          "name": "to",
          "type": "bool"
        }
      ],
      "name": "OutboundWhitelistUpdated",
      "type": "event"
    },
    {
      "anonymous": false,
      "inputs": [
        {
          "indexed": true,
          "internalType": "address",
          "name": "addedOwner",
          "type": "address"
        },
        {
          "indexed": true,
          "internalType": "address",
          "name": "addedBy",
          "type": "address"
        }
      ],
      "name": "OwnerAdded",
      "type": "event"
    },
    {
      "anonymous": false,
      "inputs": [
        {
          "indexed": true,
          "internalType": "address",
          "name": "removedOwner",
          "type": "address"
        },
        {
          "indexed": true,
          "internalType": "address",
          "name": "removedBy",
          "type": "address"
        }
      ],
      "name": "OwnerRemoved",
      "type": "event"
    },
    {
      "anonymous": false,
      "inputs": [
        {
          "indexed": false,
          "internalType": "address",
          "name": "account",
          "type": "address"
        }
      ],
      "name": "Paused",
      "type": "event"
    },
    {
      "anonymous": false,
      "inputs": [
        {
          "indexed": true,
          "internalType": "address",
          "name": "revoker",
          "type": "address"
        },
        {
          "indexed": true,
          "internalType": "address",
          "name": "from",
          "type": "address"
        },
        {
          "indexed": false,
          "internalType": "uint256",
          "name": "amount",
          "type": "uint256"
        }
      ],
      "name": "Revoke",
      "type": "event"
    },
    {
      "anonymous": false,
      "inputs": [
        {
          "indexed": true,
          "internalType": "address",
          "name": "from",
          "type": "address"
        },
        {
          "indexed": true,
          "internalType": "address",
          "name": "to",
          "type": "address"
        },
        {
          "indexed": false,
          "internalType": "uint256",
          "name": "value",
          "type": "uint256"
        }
      ],
      "name": "Transfer",
      "type": "event"
    },
    {
      "anonymous": false,
      "inputs": [
        {
          "indexed": false,
          "internalType": "address",
          "name": "account",
          "type": "address"
        }
      ],
      "name": "Unpaused",
      "type": "event"
    },
    {
      "constant": true,
      "inputs": [],
      "name": "FAILURE_NON_WHITELIST",
      "outputs": [
        {
          "internalType": "uint8",
          "name": "",
          "type": "uint8"
        }
      ],
      "payable": false,
      "stateMutability": "view",
      "type": "function"
    },
    {
      "constant": true,
      "inputs": [],
      "name": "FAILURE_NON_WHITELIST_MESSAGE",
      "outputs": [
        {
          "internalType": "string",
          "name": "",
          "type": "string"
        }
      ],
      "payable": false,
      "stateMutability": "view",
      "type": "function"
    },
    {
      "constant": true,
      "inputs": [],
      "name": "FAILURE_PAUSED",
      "outputs": [
        {
          "internalType": "uint8",
          "name": "",
          "type": "uint8"
        }
      ],
      "payable": false,
      "stateMutability": "view",
      "type": "function"
    },
    {
      "constant": true,
      "inputs": [],
      "name": "FAILURE_PAUSED_MESSAGE",
      "outputs": [
        {
          "internalType": "string",
          "name": "",
          "type": "string"
        }
      ],
      "payable": false,
      "stateMutability": "view",
      "type": "function"
    },
    {
      "constant": true,
      "inputs": [],
      "name": "SUCCESS_CODE",
      "outputs": [
        {
          "internalType": "uint8",
          "name": "",
          "type": "uint8"
        }
      ],
      "payable": false,
      "stateMutability": "view",
      "type": "function"
    },
    {
      "constant": true,
      "inputs": [],
      "name": "SUCCESS_MESSAGE",
      "outputs": [
        {
          "internalType": "string",
          "name": "",
          "type": "string"
        }
      ],
      "payable": false,
      "stateMutability": "view",
      "type": "function"
    },
    {
      "constant": true,
      "inputs": [],
      "name": "UNKNOWN_ERROR",
      "outputs": [
        {
          "internalType": "string",
          "name": "",
          "type": "string"
        }
      ],
      "payable": false,
      "stateMutability": "view",
      "type": "function"
    },
    {
      "constant": false,
      "inputs": [
        {
          "internalType": "address",
          "name": "account",
          "type": "address"
        }
      ],
      "name": "addAdmin",
      "outputs": [],
      "payable": false,
      "stateMutability": "nonpayable",
      "type": "function"
    },
    {
      "constant": false,
      "inputs": [
        {
          "internalType": "address",
          "name": "account",
          "type": "address"
        }
      ],
      "name": "addOwner",
      "outputs": [],
      "payable": false,
      "stateMutability": "nonpayable",
      "type": "function"
    },
    {
      "constant": true,
      "inputs": [
        {
          "internalType": "address",
          "name": "",
          "type": "address"
        }
      ],
      "name": "addressWhitelists",
      "outputs": [
        {
          "internalType": "uint8",
          "name": "",
          "type": "uint8"
        }
      ],
      "payable": false,
      "stateMutability": "view",
      "type": "function"
    },
    {
      "constant": true,
      "inputs": [
        {
          "internalType": "address",
          "name": "owner",
          "type": "address"
        },
        {
          "internalType": "address",
          "name": "spender",
          "type": "address"
        }
      ],
      "name": "allowance",
      "outputs": [
        {
          "internalType": "uint256",
          "name": "",
          "type": "uint256"
        }
      ],
      "payable": false,
      "stateMutability": "view",
      "type": "function"
    },
    {
      "constant": false,
      "inputs": [
        {
          "internalType": "address",
          "name": "spender",
          "type": "address"
        },
        {
          "internalType": "uint256",
          "name": "amount",
          "type": "uint256"
        }
      ],
      "name": "approve",
      "outputs": [
        {
          "internalType": "bool",
          "name": "",
          "type": "bool"
        }
      ],
      "payable": false,
      "stateMutability": "nonpayable",
      "type": "function"
    },
    {
      "constant": true,
      "inputs": [
        {
          "internalType": "address",
          "name": "account",
          "type": "address"
        }
      ],
      "name": "balanceOf",
      "outputs": [
        {
          "internalType": "uint256",
          "name": "",
          "type": "uint256"
        }
      ],
      "payable": false,
      "stateMutability": "view",
      "type": "function"
    },
    {
      "constant": true,
      "inputs": [
        {
          "internalType": "address",
          "name": "sender",
          "type": "address"
        },
        {
          "internalType": "address",
          "name": "receiver",
          "type": "address"
        }
      ],
      "name": "checkWhitelistAllowed",
      "outputs": [
        {
          "internalType": "bool",
          "name": "",
          "type": "bool"
        }
      ],
      "payable": false,
      "stateMutability": "view",
      "type": "function"
    },
    {
      "constant": true,
      "inputs": [],
      "name": "decimals",
      "outputs": [
        {
          "internalType": "uint8",
          "name": "",
          "type": "uint8"
        }
      ],
      "payable": false,
      "stateMutability": "view",
      "type": "function"
    },
    {
      "constant": false,
      "inputs": [
        {
          "internalType": "address",
          "name": "spender",
          "type": "address"
        },
        {
          "internalType": "uint256",
          "name": "subtractedValue",
          "type": "uint256"
        }
      ],
      "name": "decreaseAllowance",
      "outputs": [
        {
          "internalType": "bool",
          "name": "",
          "type": "bool"
        }
      ],
      "payable": false,
      "stateMutability": "nonpayable",
      "type": "function"
    },
    {
      "constant": true,
      "inputs": [],
      "name": "getLogicAddress",
      "outputs": [
        {
          "internalType": "address",
          "name": "logicAddress",
          "type": "address"
        }
      ],
      "payable": false,
      "stateMutability": "view",
      "type": "function"
    },
    {
      "constant": false,
      "inputs": [
        {
          "internalType": "address",
          "name": "spender",
          "type": "address"
        },
        {
          "internalType": "uint256",
          "name": "addedValue",
          "type": "uint256"
        }
      ],
      "name": "increaseAllowance",
      "outputs": [
        {
          "internalType": "bool",
          "name": "",
          "type": "bool"
        }
      ],
      "payable": false,
      "stateMutability": "nonpayable",
      "type": "function"
    },
    {
      "constant": true,
      "inputs": [
        {
          "internalType": "address",
          "name": "account",
          "type": "address"
        }
      ],
      "name": "isAdmin",
      "outputs": [
        {
          "internalType": "bool",
          "name": "",
          "type": "bool"
        }
      ],
      "payable": false,
      "stateMutability": "view",
      "type": "function"
    },
    {
      "constant": true,
      "inputs": [
        {
          "internalType": "address",
          "name": "account",
          "type": "address"
        }
      ],
      "name": "isOwner",
      "outputs": [
        {
          "internalType": "bool",
          "name": "",
          "type": "bool"
        }
      ],
      "payable": false,
      "stateMutability": "view",
      "type": "function"
    },
    {
      "constant": true,
      "inputs": [],
      "name": "name",
      "outputs": [
        {
          "internalType": "string",
          "name": "",
          "type": "string"
        }
      ],
      "payable": false,
      "stateMutability": "view",
      "type": "function"
    },
    {
      "constant": true,
      "inputs": [
        {
          "internalType": "uint8",
          "name": "",
          "type": "uint8"
        },
        {
          "internalType": "uint8",
          "name": "",
          "type": "uint8"
        }
      ],
      "name": "outboundWhitelistsEnabled",
      "outputs": [
        {
          "internalType": "bool",
          "name": "",
          "type": "bool"
        }
      ],
      "payable": false,
      "stateMutability": "view",
      "type": "function"
    },
    {
      "constant": true,
      "inputs": [],
      "name": "paused",
      "outputs": [
        {
          "internalType": "bool",
          "name": "",
          "type": "bool"
        }
      ],
      "payable": false,
      "stateMutability": "view",
      "type": "function"
    },
    {
      "constant": true,
      "inputs": [],
      "name": "proxiableUUID",
      "outputs": [
        {
          "internalType": "bytes32",
          "name": "",
          "type": "bytes32"
        }
      ],
      "payable": false,
      "stateMutability": "pure",
      "type": "function"
    },
    {
      "constant": false,
      "inputs": [
        {
          "internalType": "address",
          "name": "account",
          "type": "address"
        }
      ],
      "name": "removeAdmin",
      "outputs": [],
      "payable": false,
      "stateMutability": "nonpayable",
      "type": "function"
    },
    {
      "constant": false,
      "inputs": [
        {
          "internalType": "address",
          "name": "account",
          "type": "address"
        }
      ],
      "name": "removeOwner",
      "outputs": [],
      "payable": false,
      "stateMutability": "nonpayable",
      "type": "function"
    },
    {
      "constant": true,
      "inputs": [],
      "name": "symbol",
      "outputs": [
        {
          "internalType": "string",
          "name": "",
          "type": "string"
        }
      ],
      "payable": false,
      "stateMutability": "view",
      "type": "function"
    },
    {
      "constant": true,
      "inputs": [],
      "name": "totalSupply",
      "outputs": [
        {
          "internalType": "uint256",
          "name": "",
          "type": "uint256"
        }
      ],
      "payable": false,
      "stateMutability": "view",
      "type": "function"
    },
    {
      "constant": false,
      "inputs": [
        {
          "internalType": "string",
          "name": "name",
          "type": "string"
        },
        {
          "internalType": "string",
          "name": "symbol",
          "type": "string"
        },
        {
          "internalType": "uint8",
          "name": "decimals",
          "type": "uint8"
        }
      ],
      "name": "initialize",
      "outputs": [],
      "payable": false,
      "stateMutability": "nonpayable",
      "type": "function"
    },
    {
      "constant": false,
      "inputs": [
        {
          "internalType": "address",
          "name": "owner",
          "type": "address"
        }
      ],
      "name": "initialize",
      "outputs": [],
      "payable": false,
      "stateMutability": "nonpayable",
      "type": "function"
    },
    {
      "constant": false,
      "inputs": [
        {
          "internalType": "address",
          "name": "newAddress",
          "type": "address"
        }
      ],
      "name": "updateCodeAddress",
      "outputs": [],
      "payable": false,
      "stateMutability": "nonpayable",
      "type": "function"
    },
    {
      "constant": true,
      "inputs": [
        {
          "internalType": "address",
          "name": "from",
          "type": "address"
        },
        {
          "internalType": "address",
          "name": "to",
          "type": "address"
        },
        {
          "internalType": "uint256",
          "name": "",
          "type": "uint256"
        }
      ],
      "name": "detectTransferRestriction",
      "outputs": [
        {
          "internalType": "uint8",
          "name": "",
          "type": "uint8"
        }
      ],
      "payable": false,
      "stateMutability": "view",
      "type": "function"
    },
    {
      "constant": true,
      "inputs": [
        {
          "internalType": "uint8",
          "name": "restrictionCode",
          "type": "uint8"
        }
      ],
      "name": "messageForTransferRestriction",
      "outputs": [
        {
          "internalType": "string",
          "name": "",
          "type": "string"
        }
      ],
      "payable": false,
      "stateMutability": "view",
      "type": "function"
    },
    {
      "constant": true,
      "inputs": [
        {
          "internalType": "address",
          "name": "_address",
          "type": "address"
        }
      ],
      "name": "isValidAddress",
      "outputs": [
        {
          "internalType": "bool",
          "name": "",
          "type": "bool"
        }
      ],
      "payable": false,
      "stateMutability": "view",
      "type": "function"
    },
    {
      "constant": false,
      "inputs": [],
      "name": "pause",
      "outputs": [],
      "payable": false,
      "stateMutability": "nonpayable",
      "type": "function"
    },
    {
      "constant": false,
      "inputs": [],
      "name": "unpause",
      "outputs": [],
      "payable": false,
      "stateMutability": "nonpayable",
      "type": "function"
    },
    {
      "constant": false,
      "inputs": [
        {
          "internalType": "address",
          "name": "account",
          "type": "address"
        },
        {
          "internalType": "uint256",
          "name": "amount",
          "type": "uint256"
        }
      ],
      "name": "mint",
      "outputs": [
        {
          "internalType": "bool",
          "name": "",
          "type": "bool"
        }
      ],
      "payable": false,
      "stateMutability": "nonpayable",
      "type": "function"
    },
    {
      "constant": false,
      "inputs": [
        {
          "internalType": "address",
          "name": "from",
          "type": "address"
        },
        {
          "internalType": "uint256",
          "name": "amount",
          "type": "uint256"
        }
      ],
      "name": "revoke",
      "outputs": [
        {
          "internalType": "bool",
          "name": "",
          "type": "bool"
        }
      ],
      "payable": false,
      "stateMutability": "nonpayable",
      "type": "function"
    },
    {
      "constant": false,
      "inputs": [
        {
          "internalType": "address",
          "name": "addressToAdd",
          "type": "address"
        },
        {
          "internalType": "uint8",
          "name": "whitelist",
          "type": "uint8"
        }
      ],
      "name": "addToWhitelist",
      "outputs": [],
      "payable": false,
      "stateMutability": "nonpayable",
      "type": "function"
    },
    {
      "constant": false,
      "inputs": [
        {
          "internalType": "address",
          "name": "addressToRemove",
          "type": "address"
        }
      ],
      "name": "removeFromWhitelist",
      "outputs": [],
      "payable": false,
      "stateMutability": "nonpayable",
      "type": "function"
    },
    {
      "constant": false,
      "inputs": [
        {
          "internalType": "uint8",
          "name": "sourceWhitelist",
          "type": "uint8"
        },
        {
          "internalType": "uint8",
          "name": "destinationWhitelist",
          "type": "uint8"
        },
        {
          "internalType": "bool",
          "name": "newEnabledValue",
          "type": "bool"
        }
      ],
      "name": "updateOutboundWhitelistEnabled",
      "outputs": [],
      "payable": false,
      "stateMutability": "nonpayable",
      "type": "function"
    },
    {
      "constant": false,
      "inputs": [
        {
          "internalType": "address",
          "name": "to",
          "type": "address"
        },
        {
          "internalType": "uint256",
          "name": "value",
          "type": "uint256"
        }
      ],
      "name": "transfer",
      "outputs": [
        {
          "internalType": "bool",
          "name": "success",
          "type": "bool"
        }
      ],
      "payable": false,
      "stateMutability": "nonpayable",
      "type": "function"
    },
    {
      "constant": false,
      "inputs": [
        {
          "internalType": "address",
          "name": "from",
          "type": "address"
        },
        {
          "internalType": "address",
          "name": "to",
          "type": "address"
        },
        {
          "internalType": "uint256",
          "name": "value",
          "type": "uint256"
        }
      ],
      "name": "transferFrom",
      "outputs": [
        {
          "internalType": "bool",
          "name": "success",
          "type": "bool"
        }
      ],
      "payable": false,
      "stateMutability": "nonpayable",
      "type": "function"
    }
  ],
  "bytecode": "0x6080604052613e1a806100136000396000f3fe608060405234801561001057600080fd5b5060043610610285576000357c0100000000000000000000000000000000000000000000000000000000900480635c975abb1161016e57806397af6744116100e0578063c8934462116100a4578063c893446214610f2c578063d4ce141514610faf578063dd62ed3e14611037578063e7984d17146110af578063e959450814611132578063eac449d91461118857610285565b806397af674414610d4f578063a457c2d714610dd2578063a9059cbb14610e38578063abd108ba14610e9e578063c4d66de814610ee857610285565b80638456cb59116101325780638456cb5914610b605780638ab1d68114610b6a578063912a988514610bae57806392e6d68b14610bf25780639437e2fe14610c5057806395d89b4114610ccc57610285565b80635c975abb146109b457806370480275146109d65780637065cb4814610a1a57806370a0823114610a5e5780637f4ab1dd14610ab657610285565b806323b872dd116102075780633973b596116101cb5780633973b596146108355780633f4ba83a1461087f5780633f7137091461088957806340c10f19146108ad578063489c1b251461091357806352d1902d1461099657610285565b806323b872dd1461066d57806324d7806c146106f35780632f54bf6e1461074f578063313ce567146107ab57806339509351146107cf57610285565b80631624f6c61161024e5780631624f6c614610444578063173825d9146105a35780631785f53c146105e757806318160ddd1461062b5780631fb45ec01461064957610285565b80623f07fa1461028a5780630263b858146102e657806306fdde0314610337578063095ea7b3146103ba5780630e969a0514610420575b600080fd5b6102cc600480360360208110156102a057600080fd5b81019080803573ffffffffffffffffffffffffffffffffffffffff1690602001909291905050506111ee565b604051808215151515815260200191505060405180910390f35b610335600480360360408110156102fc57600080fd5b81019080803573ffffffffffffffffffffffffffffffffffffffff169060200190929190803560ff16906020019092919050505061126b565b005b61033f6112d7565b6040518080602001828103825283818151815260200191508051906020019080838360005b8381101561037f578082015181840152602081019050610364565b50505050905090810190601f1680156103ac5780820380516001836020036101000a031916815260200191505b509250505060405180910390f35b610406600480360360408110156103d057600080fd5b81019080803573ffffffffffffffffffffffffffffffffffffffff16906020019092919080359060200190929190505050611379565b604051808215151515815260200191505060405180910390f35b610428611397565b604051808260ff1660ff16815260200191505060405180910390f35b6105a16004803603606081101561045a57600080fd5b810190808035906020019064010000000081111561047757600080fd5b82018360208201111561048957600080fd5b803590602001918460018302840111640100000000831117156104ab57600080fd5b91908080601f016020809104026020016040519081016040528093929190818152602001838380828437600081840152601f19601f8201169050808301925050505050505091929192908035906020019064010000000081111561050e57600080fd5b82018360208201111561052057600080fd5b8035906020019184600183028401116401000000008311171561054257600080fd5b91908080601f016020809104026020016040519081016040528093929190818152602001838380828437600081840152601f19601f820116905080830192505050505050509192919290803560ff16906020019092919050505061139c565b005b6105e5600480360360208110156105b957600080fd5b81019080803573ffffffffffffffffffffffffffffffffffffffff1690602001909291905050506114e7565b005b610629600480360360208110156105fd57600080fd5b81019080803573ffffffffffffffffffffffffffffffffffffffff1690602001909291905050506115d6565b005b610633611640565b6040518082815260200191505060405180910390f35b61065161164a565b604051808260ff1660ff16815260200191505060405180910390f35b6106d96004803603606081101561068357600080fd5b81019080803573ffffffffffffffffffffffffffffffffffffffff169060200190929190803573ffffffffffffffffffffffffffffffffffffffff1690602001909291908035906020019092919050505061164f565b604051808215151515815260200191505060405180910390f35b6107356004803603602081101561070957600080fd5b81019080803573ffffffffffffffffffffffffffffffffffffffff169060200190929190505050611735565b604051808215151515815260200191505060405180910390f35b6107916004803603602081101561076557600080fd5b81019080803573ffffffffffffffffffffffffffffffffffffffff169060200190929190505050611752565b604051808215151515815260200191505060405180910390f35b6107b361176f565b604051808260ff1660ff16815260200191505060405180910390f35b61081b600480360360408110156107e557600080fd5b81019080803573ffffffffffffffffffffffffffffffffffffffff16906020019092919080359060200190929190505050611786565b604051808215151515815260200191505060405180910390f35b61087d6004803603606081101561084b57600080fd5b81019080803560ff169060200190929190803560ff169060200190929190803515159060200190929190505050611839565b005b6108876118a7565b005b610891611991565b604051808260ff1660ff16815260200191505060405180910390f35b6108f9600480360360408110156108c357600080fd5b81019080803573ffffffffffffffffffffffffffffffffffffffff16906020019092919080359060200190929190505050611996565b604051808215151515815260200191505060405180910390f35b61091b611a84565b6040518080602001828103825283818151815260200191508051906020019080838360005b8381101561095b578082015181840152602081019050610940565b50505050905090810190601f1680156109885780820380516001836020036101000a031916815260200191505b509250505060405180910390f35b61099e611aa0565b6040518082815260200191505060405180910390f35b6109bc611acb565b604051808215151515815260200191505060405180910390f35b610a18600480360360208110156109ec57600080fd5b81019080803573ffffffffffffffffffffffffffffffffffffffff169060200190929190505050611ae2565b005b610a5c60048036036020811015610a3057600080fd5b81019080803573ffffffffffffffffffffffffffffffffffffffff169060200190929190505050611b4c565b005b610aa060048036036020811015610a7457600080fd5b81019080803573ffffffffffffffffffffffffffffffffffffffff169060200190929190505050611bb6565b6040518082815260200191505060405180910390f35b610ae560048036036020811015610acc57600080fd5b81019080803560ff169060200190929190505050611bff565b6040518080602001828103825283818151815260200191508051906020019080838360005b83811015610b25578082015181840152602081019050610b0a565b50505050905090810190601f168015610b525780820380516001836020036101000a031916815260200191505b509250505060405180910390f35b610b68611ce9565b005b610bac60048036036020811015610b8057600080fd5b81019080803573ffffffffffffffffffffffffffffffffffffffff169060200190929190505050611dd4565b005b610bf060048036036020811015610bc457600080fd5b81019080803573ffffffffffffffffffffffffffffffffffffffff169060200190929190505050611e3e565b005b610c3460048036036020811015610c0857600080fd5b81019080803573ffffffffffffffffffffffffffffffffffffffff169060200190929190505050611ea8565b604051808260ff1660ff16815260200191505060405180910390f35b610cb260048036036040811015610c6657600080fd5b81019080803573ffffffffffffffffffffffffffffffffffffffff169060200190929190803573ffffffffffffffffffffffffffffffffffffffff169060200190929190505050611ec8565b604051808215151515815260200191505060405180910390f35b610cd4611fdf565b6040518080602001828103825283818151815260200191508051906020019080838360005b83811015610d14578082015181840152602081019050610cf9565b50505050905090810190601f168015610d415780820380516001836020036101000a031916815260200191505b509250505060405180910390f35b610d57612081565b6040518080602001828103825283818151815260200191508051906020019080838360005b83811015610d97578082015181840152602081019050610d7c565b50505050905090810190601f168015610dc45780820380516001836020036101000a031916815260200191505b509250505060405180910390f35b610e1e60048036036040811015610de857600080fd5b81019080803573ffffffffffffffffffffffffffffffffffffffff169060200190929190803590602001909291905050506120ba565b604051808215151515815260200191505060405180910390f35b610e8460048036036040811015610e4e57600080fd5b81019080803573ffffffffffffffffffffffffffffffffffffffff16906020019092919080359060200190929190505050612187565b604051808215151515815260200191505060405180910390f35b610ea661226b565b604051808273ffffffffffffffffffffffffffffffffffffffff1673ffffffffffffffffffffffffffffffffffffffff16815260200191505060405180910390f35b610f2a60048036036020811015610efe57600080fd5b81019080803573ffffffffffffffffffffffffffffffffffffffff169060200190929190505050612294565b005b610f3461242f565b6040518080602001828103825283818151815260200191508051906020019080838360005b83811015610f74578082015181840152602081019050610f59565b50505050905090810190601f168015610fa15780820380516001836020036101000a031916815260200191505b509250505060405180910390f35b61101b60048036036060811015610fc557600080fd5b81019080803573ffffffffffffffffffffffffffffffffffffffff169060200190929190803573ffffffffffffffffffffffffffffffffffffffff1690602001909291908035906020019092919050505061244b565b604051808260ff1660ff16815260200191505060405180910390f35b6110996004803603604081101561104d57600080fd5b81019080803573ffffffffffffffffffffffffffffffffffffffff169060200190929190803573ffffffffffffffffffffffffffffffffffffffff1690602001909291905050506124c3565b6040518082815260200191505060405180910390f35b6110b761254a565b6040518080602001828103825283818151815260200191508051906020019080838360005b838110156110f75780820151818401526020810190506110dc565b50505050905090810190601f1680156111245780820380516001836020036101000a031916815260200191505b509250505060405180910390f35b61116e6004803603604081101561114857600080fd5b81019080803560ff169060200190929190803560ff169060200190929190505050612583565b604051808215151515815260200191505060405180910390f35b6111d46004803603604081101561119e57600080fd5b81019080803573ffffffffffffffffffffffffffffffffffffffff169060200190929190803590602001909291905050506125b2565b604051808215151515815260200191505060405180910390f35b60006111f982611752565b80611209575061120882611735565b5b8061126457506000609f60008473ffffffffffffffffffffffffffffffffffffffff1673ffffffffffffffffffffffffffffffffffffffff16815260200190815260200160002060009054906101000a900460ff1660ff1614155b9050919050565b61127433611735565b6112c9576040517f08c379a000000000000000000000000000000000000000000000000000000000815260040180806020018281038252602e815260200180613d0e602e913960400191505060405180910390fd5b6112d38282612624565b5050565b606060338054600181600116156101000203166002900480601f01602080910402602001604051908101604052809291908181526020018280546001816001161561010002031660029004801561136f5780601f106113445761010080835404028352916020019161136f565b820191906000526020600020905b81548152906001019060200180831161135257829003601f168201915b5050505050905090565b600061138d61138661281a565b8484612822565b6001905092915050565b600081565b600060019054906101000a900460ff16806113bb57506113ba612a19565b5b806113d257506000809054906101000a900460ff16155b611427576040517f08c379a000000000000000000000000000000000000000000000000000000000815260040180806020018281038252602e815260200180613c7b602e913960400191505060405180910390fd5b60008060019054906101000a900460ff161590508015611477576001600060016101000a81548160ff02191690831515021790555060016000806101000a81548160ff0219169083151502179055505b836033908051906020019061148d929190613ad1565b5082603490805190602001906114a4929190613ad1565b5081603560006101000a81548160ff021916908360ff16021790555080156114e15760008060016101000a81548160ff0219169083151502179055505b50505050565b6114f033611752565b611545576040517f08c379a000000000000000000000000000000000000000000000000000000000815260040180806020018281038252602e815260200180613be2602e913960400191505060405180910390fd5b8073ffffffffffffffffffffffffffffffffffffffff163373ffffffffffffffffffffffffffffffffffffffff1614156115ca576040517f08c379a0000000000000000000000000000000000000000000000000000000008152600401808060200182810382526028815260200180613ca96028913960400191505060405180910390fd5b6115d381612a2a565b50565b6115df33611752565b611634576040517f08c379a000000000000000000000000000000000000000000000000000000000815260040180806020018281038252602e815260200180613be2602e913960400191505060405180910390fd5b61163d81612a9b565b50565b6000606a54905090565b600181565b6000838383600061166184848461244b565b9050600060ff168160ff161461167682611bff565b9061171c576040517f08c379a00000000000000000000000000000000000000000000000000000000081526004018080602001828103825283818151815260200191508051906020019080838360005b838110156116e15780820151818401526020810190506116c6565b50505050905090810190601f16801561170e5780820380516001836020036101000a031916815260200191505b509250505060405180910390fd5b50611728888888612b0c565b9450505050509392505050565b600061174b82609e612be590919063ffffffff16565b9050919050565b600061176882609d612be590919063ffffffff16565b9050919050565b6000603560009054906101000a900460ff16905090565b600061182f61179361281a565b8461182a85606960006117a461281a565b73ffffffffffffffffffffffffffffffffffffffff1673ffffffffffffffffffffffffffffffffffffffff16815260200190815260200160002060008973ffffffffffffffffffffffffffffffffffffffff1673ffffffffffffffffffffffffffffffffffffffff16815260200190815260200160002054612cc390919063ffffffff16565b612822565b6001905092915050565b61184233611735565b611897576040517f08c379a000000000000000000000000000000000000000000000000000000000815260040180806020018281038252602e815260200180613d0e602e913960400191505060405180910390fd5b6118a2838383612d4b565b505050565b6118b033611752565b611905576040517f08c379a000000000000000000000000000000000000000000000000000000000815260040180806020018281038252602e815260200180613be2602e913960400191505060405180910390fd5b60a160009054906101000a900460ff16611987576040517f08c379a00000000000000000000000000000000000000000000000000000000081526004018080602001828103825260148152602001807f5061757361626c653a206e6f742070617573656400000000000000000000000081525060200191505060405180910390fd5b61198f612e41565b565b600281565b60006119a133611752565b6119f6576040517f08c379a000000000000000000000000000000000000000000000000000000000815260040180806020018281038252602e815260200180613be2602e913960400191505060405180910390fd5b6119ff836111ee565b611a71576040517f08c379a00000000000000000000000000000000000000000000000000000000081526004018080602001828103825260208152602001807f43616e206f6e6c79206d696e7420746f20612076616c6964206164647265737381525060200191505060405180910390fd5b611a7c338484612ec1565b905092915050565b6040518060600160405280603d8152602001613cd1603d913981565b60007fc5f16f0fcc639fa48a6947836d9850f504798523bf8c9a3a87d5876cf622bcf7600102905090565b600060a160009054906101000a900460ff16905090565b611aeb33611752565b611b40576040517f08c379a000000000000000000000000000000000000000000000000000000000815260040180806020018281038252602e815260200180613be2602e913960400191505060405180910390fd5b611b4981612f3d565b50565b611b5533611752565b611baa576040517f08c379a000000000000000000000000000000000000000000000000000000000815260040180806020018281038252602e815260200180613be2602e913960400191505060405180910390fd5b611bb381612fae565b50565b6000606860008373ffffffffffffffffffffffffffffffffffffffff1673ffffffffffffffffffffffffffffffffffffffff168152602001908152602001600020549050919050565b6060600060ff168260ff161415611c4d576040518060400160405280600781526020017f53554343455353000000000000000000000000000000000000000000000000008152509050611ce4565b600160ff168260ff161415611c7c576040518060600160405280603c8152602001613d85603c91399050611ce4565b600260ff168260ff161415611cab576040518060600160405280603d8152602001613cd1603d91399050611ce4565b6040518060400160405280601281526020017f556e6b6e6f776e204572726f7220436f6465000000000000000000000000000081525090505b919050565b611cf233611752565b611d47576040517f08c379a000000000000000000000000000000000000000000000000000000000815260040180806020018281038252602e815260200180613be2602e913960400191505060405180910390fd5b60a160009054906101000a900460ff1615611dca576040517f08c379a00000000000000000000000000000000000000000000000000000000081526004018080602001828103825260108152602001807f5061757361626c653a207061757365640000000000000000000000000000000081525060200191505060405180910390fd5b611dd261301f565b565b611ddd33611735565b611e32576040517f08c379a000000000000000000000000000000000000000000000000000000000815260040180806020018281038252602e815260200180613d0e602e913960400191505060405180910390fd5b611e3b8161309f565b50565b611e4733611752565b611e9c576040517f08c379a000000000000000000000000000000000000000000000000000000000815260040180806020018281038252602e815260200180613be2602e913960400191505060405180910390fd5b611ea5816131ab565b50565b609f6020528060005260406000206000915054906101000a900460ff1681565b600080609f60008573ffffffffffffffffffffffffffffffffffffffff1673ffffffffffffffffffffffffffffffffffffffff16815260200190815260200160002060009054906101000a900460ff1690506000609f60008573ffffffffffffffffffffffffffffffffffffffff1673ffffffffffffffffffffffffffffffffffffffff16815260200190815260200160002060009054906101000a900460ff169050600060ff168260ff161480611f865750600060ff168160ff16145b15611f9657600092505050611fd9565b60a060008360ff1660ff16815260200190815260200160002060008260ff1660ff16815260200190815260200160002060009054906101000a900460ff16925050505b92915050565b606060348054600181600116156101000203166002900480601f0160208091040260200160405190810160405280929190818152602001828054600181600116156101000203166002900480156120775780601f1061204c57610100808354040283529160200191612077565b820191906000526020600020905b81548152906001019060200180831161205a57829003601f168201915b5050505050905090565b6040518060400160405280601281526020017f556e6b6e6f776e204572726f7220436f6465000000000000000000000000000081525081565b600061217d6120c761281a565b8461217885604051806060016040528060258152602001613dc160259139606960006120f161281a565b73ffffffffffffffffffffffffffffffffffffffff1673ffffffffffffffffffffffffffffffffffffffff16815260200190815260200160002060008a73ffffffffffffffffffffffffffffffffffffffff1673ffffffffffffffffffffffffffffffffffffffff168152602001908152602001600020546133689092919063ffffffff16565b612822565b6001905092915050565b6000338383600061219984848461244b565b9050600060ff168160ff16146121ae82611bff565b90612254576040517f08c379a00000000000000000000000000000000000000000000000000000000081526004018080602001828103825283818151815260200191508051906020019080838360005b838110156122195780820151818401526020810190506121fe565b50505050905090810190601f1680156122465780820380516001836020036101000a031916815260200191505b509250505060405180910390fd5b5061225f8787613428565b94505050505092915050565b60007fc5f16f0fcc639fa48a6947836d9850f504798523bf8c9a3a87d5876cf622bcf754905090565b600060019054906101000a900460ff16806122b357506122b2612a19565b5b806122ca57506000809054906101000a900460ff16155b61231f576040517f08c379a000000000000000000000000000000000000000000000000000000000815260040180806020018281038252602e815260200180613c7b602e913960400191505060405180910390fd5b60008060019054906101000a900460ff16159050801561236f576001600060016101000a81548160ff02191690831515021790555060016000806101000a81548160ff0219169083151502179055505b6123e56040518060400160405280600f81526020017f546f6b656e536f667420546f6b656e00000000000000000000000000000000008152506040518060400160405280600481526020017f534f465400000000000000000000000000000000000000000000000000000000815250601261139c565b6124003383601260ff16600a0a633b9aca0060320202612ec1565b5061240a82612fae565b801561242b5760008060016101000a81548160ff0219169083151502179055505b5050565b6040518060600160405280603c8152602001613d85603c913981565b6000612455611acb565b1561246357600290506124bc565b61246c836111ee565b61247957600190506124bc565b61248284611752565b80612492575061249184611735565b5b156124a057600090506124bc565b6124aa8484611ec8565b6124b757600190506124bc565b600090505b9392505050565b6000606960008473ffffffffffffffffffffffffffffffffffffffff1673ffffffffffffffffffffffffffffffffffffffff16815260200190815260200160002060008373ffffffffffffffffffffffffffffffffffffffff1673ffffffffffffffffffffffffffffffffffffffff16815260200190815260200160002054905092915050565b6040518060400160405280600781526020017f535543434553530000000000000000000000000000000000000000000000000081525081565b60a06020528160005260406000206020528060005260406000206000915091509054906101000a900460ff1681565b60006125bd33611735565b612612576040517f08c379a000000000000000000000000000000000000000000000000000000000815260040180806020018281038252602e815260200180613d0e602e913960400191505060405180910390fd5b61261c8383613446565b905092915050565b600060ff168160ff1614156126a1576040517f08c379a000000000000000000000000000000000000000000000000000000000815260040180806020018281038252601d8152602001807f496e76616c69642077686974656c69737420494420737570706c69656400000081525060200191505060405180910390fd5b6000609f60008473ffffffffffffffffffffffffffffffffffffffff1673ffffffffffffffffffffffffffffffffffffffff16815260200190815260200160002060009054906101000a900460ff16905081609f60008573ffffffffffffffffffffffffffffffffffffffff1673ffffffffffffffffffffffffffffffffffffffff16815260200190815260200160002060006101000a81548160ff021916908360ff160217905550600060ff168160ff16146127b7573373ffffffffffffffffffffffffffffffffffffffff168160ff168473ffffffffffffffffffffffffffffffffffffffff167fb50a30a0fa972f89fbb2b514d12b31f5a5d64f53603402de7939742cd8507f6e60405160405180910390a45b3373ffffffffffffffffffffffffffffffffffffffff168260ff168473ffffffffffffffffffffffffffffffffffffffff167fca6d1e885708b837a7647aeb7f4163ee4ca96058e08ac767be8d23c972c5027060405160405180910390a4505050565b600033905090565b600073ffffffffffffffffffffffffffffffffffffffff168373ffffffffffffffffffffffffffffffffffffffff1614156128a8576040517f08c379a0000000000000000000000000000000000000000000000000000000008152600401808060200182810382526024815260200180613d616024913960400191505060405180910390fd5b600073ffffffffffffffffffffffffffffffffffffffff168273ffffffffffffffffffffffffffffffffffffffff16141561292e576040517f08c379a0000000000000000000000000000000000000000000000000000000008152600401808060200182810382526022815260200180613b9a6022913960400191505060405180910390fd5b80606960008573ffffffffffffffffffffffffffffffffffffffff1673ffffffffffffffffffffffffffffffffffffffff16815260200190815260200160002060008473ffffffffffffffffffffffffffffffffffffffff1673ffffffffffffffffffffffffffffffffffffffff168152602001908152602001600020819055508173ffffffffffffffffffffffffffffffffffffffff168373ffffffffffffffffffffffffffffffffffffffff167f8c5be1e5ebec7d5bd14f71427d1e84f3dd0314c0f7b2291e5b200ac8c7c3b925836040518082815260200191505060405180910390a3505050565b600080303b90506000811491505090565b612a3e81609d6134c290919063ffffffff16565b3373ffffffffffffffffffffffffffffffffffffffff168173ffffffffffffffffffffffffffffffffffffffff167fe594d081b4382713733fe631966432c9cea5199afb2db5c3c1931f9f9300367960405160405180910390a350565b612aaf81609e6134c290919063ffffffff16565b3373ffffffffffffffffffffffffffffffffffffffff168173ffffffffffffffffffffffffffffffffffffffff167fdb9d5d31320daf5bc7181d565b6da4d12e30f0f4d5aa324a992426c14a1d19ce60405160405180910390a350565b6000612b1984848461357f565b612bda84612b2561281a565b612bd585604051806060016040528060288152602001613c3160289139606960008b73ffffffffffffffffffffffffffffffffffffffff1673ffffffffffffffffffffffffffffffffffffffff1681526020019081526020016000206000612b8b61281a565b73ffffffffffffffffffffffffffffffffffffffff1673ffffffffffffffffffffffffffffffffffffffff168152602001908152602001600020546133689092919063ffffffff16565b612822565b600190509392505050565b60008073ffffffffffffffffffffffffffffffffffffffff168273ffffffffffffffffffffffffffffffffffffffff161415612c6c576040517f08c379a0000000000000000000000000000000000000000000000000000000008152600401808060200182810382526022815260200180613c596022913960400191505060405180910390fd5b8260000160008373ffffffffffffffffffffffffffffffffffffffff1673ffffffffffffffffffffffffffffffffffffffff16815260200190815260200160002060009054906101000a900460ff16905092915050565b600080828401905083811015612d41576040517f08c379a000000000000000000000000000000000000000000000000000000000815260040180806020018281038252601b8152602001807f536166654d6174683a206164646974696f6e206f766572666c6f77000000000081525060200191505060405180910390fd5b8091505092915050565b600060a060008560ff1660ff16815260200190815260200160002060008460ff1660ff16815260200190815260200160002060009054906101000a900460ff1690508160a060008660ff1660ff16815260200190815260200160002060008560ff1660ff16815260200190815260200160002060006101000a81548160ff0219169083151502179055508260ff168460ff163373ffffffffffffffffffffffffffffffffffffffff167fb0353d563a9aa5231878c83727dc723a3cb8a38c2917f8ac2b777aa564c8a0d584866040518083151515158152602001821515151581526020019250505060405180910390a450505050565b600060a160006101000a81548160ff0219169083151502179055507f5db9ee0a495bf2e6ff9c91a7834c1ba4fdd244a5e8aa4e537bd38aeae4b073aa33604051808273ffffffffffffffffffffffffffffffffffffffff1673ffffffffffffffffffffffffffffffffffffffff16815260200191505060405180910390a1565b6000612ecd8383613839565b8273ffffffffffffffffffffffffffffffffffffffff168473ffffffffffffffffffffffffffffffffffffffff167fab8530f87dc9b59234c4623bf917212bb2536d647574c8e7e5da92c2ede0c9f8846040518082815260200191505060405180910390a3600190509392505050565b612f5181609e6139f690919063ffffffff16565b3373ffffffffffffffffffffffffffffffffffffffff168173ffffffffffffffffffffffffffffffffffffffff167fbf3f493c772c8c283fd124432c2d0f539ab343faa04258fe88e52912d36b102b60405160405180910390a350565b612fc281609d6139f690919063ffffffff16565b3373ffffffffffffffffffffffffffffffffffffffff168173ffffffffffffffffffffffffffffffffffffffff167fc82bdbbf677a2462f2a7e22e4ba9abd209496b69cd7b868b3b1d28f76e09a40a60405160405180910390a350565b600160a160006101000a81548160ff0219169083151502179055507f62e78cea01bee320cd4e420270b5ea74000d11b0c9f74754ebdbfc544b05a25833604051808273ffffffffffffffffffffffffffffffffffffffff1673ffffffffffffffffffffffffffffffffffffffff16815260200191505060405180910390a1565b6000609f60008373ffffffffffffffffffffffffffffffffffffffff1673ffffffffffffffffffffffffffffffffffffffff16815260200190815260200160002060009054906101000a900460ff1690506000609f60008473ffffffffffffffffffffffffffffffffffffffff1673ffffffffffffffffffffffffffffffffffffffff16815260200190815260200160002060006101000a81548160ff021916908360ff1602179055503373ffffffffffffffffffffffffffffffffffffffff168160ff168373ffffffffffffffffffffffffffffffffffffffff167fb50a30a0fa972f89fbb2b514d12b31f5a5d64f53603402de7939742cd8507f6e60405160405180910390a45050565b8073ffffffffffffffffffffffffffffffffffffffff166352d1902d6040518163ffffffff167c010000000000000000000000000000000000000000000000000000000002815260040160206040518083038186803b15801561320d57600080fd5b505afa158015613221573d6000803e3d6000fd5b505050506040513d602081101561323757600080fd5b81019080805190602001909291905050507fc5f16f0fcc639fa48a6947836d9850f504798523bf8c9a3a87d5876cf622bcf7600102146132df576040517f08c379a000000000000000000000000000000000000000000000000000000000815260040180806020018281038252600e8152602001807f4e6f7420636f6d70617469626c6500000000000000000000000000000000000081525060200191505060405180910390fd5b807fc5f16f0fcc639fa48a6947836d9850f504798523bf8c9a3a87d5876cf622bcf7557feeaed647dc622e55877c30943e5c1d4feb92d1b8cfcc88d974163e9787bde9af81604051808273ffffffffffffffffffffffffffffffffffffffff1673ffffffffffffffffffffffffffffffffffffffff16815260200191505060405180910390a150565b6000838311158290613415576040517f08c379a00000000000000000000000000000000000000000000000000000000081526004018080602001828103825283818151815260200191508051906020019080838360005b838110156133da5780820151818401526020810190506133bf565b50505050905090810190601f1680156134075780820380516001836020036101000a031916815260200191505b509250505060405180910390fd5b5060008385039050809150509392505050565b600061343c61343561281a565b848461357f565b6001905092915050565b600061345383338461357f565b8273ffffffffffffffffffffffffffffffffffffffff163373ffffffffffffffffffffffffffffffffffffffff167fb698e31a2abee5824d0d7bcfd2339aead7f9e9ae413fba50bf554ff3fa470b7b846040518082815260200191505060405180910390a36001905092915050565b6134cc8282612be5565b613521576040517f08c379a0000000000000000000000000000000000000000000000000000000008152600401808060200182810382526021815260200180613c106021913960400191505060405180910390fd5b60008260000160008373ffffffffffffffffffffffffffffffffffffffff1673ffffffffffffffffffffffffffffffffffffffff16815260200190815260200160002060006101000a81548160ff0219169083151502179055505050565b600073ffffffffffffffffffffffffffffffffffffffff168373ffffffffffffffffffffffffffffffffffffffff161415613605576040517f08c379a0000000000000000000000000000000000000000000000000000000008152600401808060200182810382526025815260200180613d3c6025913960400191505060405180910390fd5b600073ffffffffffffffffffffffffffffffffffffffff168273ffffffffffffffffffffffffffffffffffffffff16141561368b576040517f08c379a0000000000000000000000000000000000000000000000000000000008152600401808060200182810382526023815260200180613b776023913960400191505060405180910390fd5b6136f781604051806060016040528060268152602001613bbc60269139606860008773ffffffffffffffffffffffffffffffffffffffff1673ffffffffffffffffffffffffffffffffffffffff168152602001908152602001600020546133689092919063ffffffff16565b606860008573ffffffffffffffffffffffffffffffffffffffff1673ffffffffffffffffffffffffffffffffffffffff1681526020019081526020016000208190555061378c81606860008573ffffffffffffffffffffffffffffffffffffffff1673ffffffffffffffffffffffffffffffffffffffff16815260200190815260200160002054612cc390919063ffffffff16565b606860008473ffffffffffffffffffffffffffffffffffffffff1673ffffffffffffffffffffffffffffffffffffffff168152602001908152602001600020819055508173ffffffffffffffffffffffffffffffffffffffff168373ffffffffffffffffffffffffffffffffffffffff167fddf252ad1be2c89b69c2b068fc378daa952ba7f163c4a11628f55a4df523b3ef836040518082815260200191505060405180910390a3505050565b600073ffffffffffffffffffffffffffffffffffffffff168273ffffffffffffffffffffffffffffffffffffffff1614156138dc576040517f08c379a000000000000000000000000000000000000000000000000000000000815260040180806020018281038252601f8152602001807f45524332303a206d696e7420746f20746865207a65726f20616464726573730081525060200191505060405180910390fd5b6138f181606a54612cc390919063ffffffff16565b606a8190555061394981606860008573ffffffffffffffffffffffffffffffffffffffff1673ffffffffffffffffffffffffffffffffffffffff16815260200190815260200160002054612cc390919063ffffffff16565b606860008473ffffffffffffffffffffffffffffffffffffffff1673ffffffffffffffffffffffffffffffffffffffff168152602001908152602001600020819055508173ffffffffffffffffffffffffffffffffffffffff16600073ffffffffffffffffffffffffffffffffffffffff167fddf252ad1be2c89b69c2b068fc378daa952ba7f163c4a11628f55a4df523b3ef836040518082815260200191505060405180910390a35050565b613a008282612be5565b15613a73576040517f08c379a000000000000000000000000000000000000000000000000000000000815260040180806020018281038252601f8152602001807f526f6c65733a206163636f756e7420616c72656164792068617320726f6c650081525060200191505060405180910390fd5b60018260000160008373ffffffffffffffffffffffffffffffffffffffff1673ffffffffffffffffffffffffffffffffffffffff16815260200190815260200160002060006101000a81548160ff0219169083151502179055505050565b828054600181600116156101000203166002900490600052602060002090601f016020900481019282601f10613b1257805160ff1916838001178555613b40565b82800160010185558215613b40579182015b82811115613b3f578251825591602001919060010190613b24565b5b509050613b4d9190613b51565b5090565b613b7391905b80821115613b6f576000816000905550600101613b57565b5090565b9056fe45524332303a207472616e7366657220746f20746865207a65726f206164647265737345524332303a20617070726f766520746f20746865207a65726f206164647265737345524332303a207472616e7366657220616d6f756e7420657863656564732062616c616e63654f776e6572526f6c653a2063616c6c657220646f6573206e6f74206861766520746865204f776e657220726f6c65526f6c65733a206163636f756e7420646f6573206e6f74206861766520726f6c6545524332303a207472616e7366657220616d6f756e74206578636565647320616c6c6f77616e6365526f6c65733a206163636f756e7420697320746865207a65726f2061646472657373436f6e747261637420696e7374616e63652068617320616c7265616479206265656e20696e697469616c697a65644f776e6572732063616e6e6f742072656d6f7665207468656d73656c766573206173206f776e6572546865207472616e736665722077617320726573747269637465642064756520746f2074686520636f6e7472616374206265696e67207061757365642e41646d696e526f6c653a2063616c6c657220646f6573206e6f742068617665207468652041646d696e20726f6c6545524332303a207472616e736665722066726f6d20746865207a65726f206164647265737345524332303a20617070726f76652066726f6d20746865207a65726f2061646472657373546865207472616e736665722077617320726573747269637465642064756520746f207768697465206c69737420636f6e66696775726174696f6e2e45524332303a2064656372656173656420616c6c6f77616e63652062656c6f77207a65726fa265627a7a72315820981be1f9b4c2031b4c310739168ba5f9149a9f7f62be566cfb3982ff63d82aad64736f6c634300050c0032",
  "source": "pragma solidity 0.5.12;\n\nimport \"./capabilities/Proxiable.sol\";\nimport \"@openzeppelin/contracts-ethereum-package/contracts/token/ERC20/ERC20Detailed.sol\";\nimport \"./ERC1404.sol\";\nimport \"./roles/OwnerRole.sol\";\nimport \"./roles/AdminRole.sol\";\nimport \"./capabilities/Whitelistable.sol\";\nimport \"./capabilities/Mintable.sol\";\nimport \"./capabilities/Revocable.sol\";\nimport \"./capabilities/Pausable.sol\";\n\ncontract TokenSoftToken is Proxiable, ERC20Detailed, ERC1404, OwnerRole, AdminRole, Whitelistable, Mintable, Revocable, Pausable {\n\n    // Token Details\n    string constant TOKEN_NAME = \"TokenSoft Token\";\n    string constant TOKEN_SYMBOL = \"SOFT\";\n    uint8 constant TOKEN_DECIMALS = 18;\n\n    // Token supply - 50 Billion Tokens, with 18 decimal precision\n    uint256 constant BILLION = 1000000000;\n    uint256 constant TOKEN_SUPPLY = 50 * BILLION * (10 ** uint256(TOKEN_DECIMALS));\n\n    // ERC1404 Error codes and messages\n    uint8 public constant SUCCESS_CODE = 0;\n    uint8 public constant FAILURE_NON_WHITELIST = 1;\n    uint8 public constant FAILURE_PAUSED = 2;\n    string public constant SUCCESS_MESSAGE = \"SUCCESS\";\n    string public constant FAILURE_NON_WHITELIST_MESSAGE = \"The transfer was restricted due to white list configuration.\";\n    string public constant FAILURE_PAUSED_MESSAGE = \"The transfer was restricted due to the contract being paused.\";\n    string public constant UNKNOWN_ERROR = \"Unknown Error Code\";\n\n\n    /**\n    Constructor for the token to set readable details and mint all tokens\n    to the specified owner.\n     */\n    function initialize (address owner)\n        public\n        initializer\n    {\n        ERC20Detailed.initialize(TOKEN_NAME, TOKEN_SYMBOL, TOKEN_DECIMALS);\n        Mintable._mint(msg.sender, owner, TOKEN_SUPPLY);\n        _addOwner(owner);\n    }\n\n    /**\n    Public function to update the address of the code contract, retricted to owner\n     */\n    function updateCodeAddress (address newAddress) public onlyOwner {\n        Proxiable._updateCodeAddress(newAddress);\n    }\n\n    /**\n    This function detects whether a transfer should be restricted and not allowed.\n    If the function returns SUCCESS_CODE (0) then it should be allowed.\n     */\n    function detectTransferRestriction (address from, address to, uint256)\n        public\n        view\n        returns (uint8)\n    {\n        // Check the paused status of the contract\n        if (Pausable.paused()) {\n            return FAILURE_PAUSED;\n        }\n\n        // Confirm that that destination address is either an Owner, Admin, or whitelisted\n        if(!isValidAddress(to)) {\n            return FAILURE_NON_WHITELIST;\n        }\n\n        // If an owner or an admin is transferring, then ignore reistrictions\n        if(isOwner(from) || isAdmin(from)) {\n            return SUCCESS_CODE;\n        }\n\n        // Restrictions are enabled, so verify the whitelist config allows the transfer.\n        // Logic defined in Whitelistable parent class\n        if(!checkWhitelistAllowed(from, to)) {\n            return FAILURE_NON_WHITELIST;\n        }\n\n        // If no restrictions were triggered return success\n        return SUCCESS_CODE;\n    }\n\n    /**\n    This function allows a wallet or other client to get a human readable string to show\n    a user if a transfer was restricted.  It should return enough information for the user\n    to know why it failed.\n     */\n    function messageForTransferRestriction (uint8 restrictionCode)\n        public\n        view\n        returns (string memory)\n    {\n        if (restrictionCode == SUCCESS_CODE) {\n            return SUCCESS_MESSAGE;\n        }\n\n        if (restrictionCode == FAILURE_NON_WHITELIST) {\n            return FAILURE_NON_WHITELIST_MESSAGE;\n        }\n\n        if (restrictionCode == FAILURE_PAUSED) {\n            return FAILURE_PAUSED_MESSAGE;\n        }\n\n        // An unknown error code was passed in.\n        return UNKNOWN_ERROR;\n    }\n\n    /**\n    Evaluates whether a transfer should be allowed or not.\n     */\n    modifier notRestricted (address from, address to, uint256 value) {\n        uint8 restrictionCode = detectTransferRestriction(from, to, value);\n        require(restrictionCode == SUCCESS_CODE, messageForTransferRestriction(restrictionCode));\n        _;\n    }\n\n    /**\n    Validate that address is one of Owner, Admin, or Whitelisted\n     */\n    function isValidAddress(address _address) public view returns (bool) {\n         return isOwner(_address) || isAdmin(_address) || addressWhitelists[_address] != 0;\n    }\n\n    /**\n     * @dev Called by an Owner to pause, triggers stopped state.\n     */\n    function pause() public onlyOwner whenNotPaused {\n        Pausable._pause();\n    }\n\n    /**\n     * @dev Called by an Owner to unpause, returns to normal state.\n     */\n    function unpause() public onlyOwner whenPaused {\n        Pausable._unpause();\n    }\n\n    /**\n    Allow Owners to mint tokens to valid addresses\n    */\n    function mint(address account, uint256 amount) public onlyOwner returns (bool) {\n        require(isValidAddress(account), \"Can only mint to a valid address\");\n        return Mintable._mint(msg.sender, account, amount);\n    }\n\n\n    /**\n    Allow Admins to revoke tokens from any address\n     */\n    function revoke(address from, uint256 amount) public onlyAdmin returns (bool) {\n        return Revocable._revoke(from, amount);\n    }\n\n    /**\n    Public function that allows admins to remove an address from a whitelist\n     */\n    function addToWhitelist(address addressToAdd, uint8 whitelist) public onlyAdmin {\n        Whitelistable._addToWhitelist(addressToAdd, whitelist);\n    }\n\n    /**\n    Public function that allows admins to remove an address from a whitelist\n     */\n    function removeFromWhitelist(address addressToRemove) public onlyAdmin {\n        Whitelistable._removeFromWhitelist(addressToRemove);\n    }\n\n    /**\n    Public function that allows admins to update outbound whitelists\n     */\n    function updateOutboundWhitelistEnabled(uint8 sourceWhitelist, uint8 destinationWhitelist, bool newEnabledValue) public onlyAdmin {\n        Whitelistable._updateOutboundWhitelistEnabled(sourceWhitelist, destinationWhitelist, newEnabledValue);\n    }\n\n    /**\n    Overrides the parent class token transfer function to enforce restrictions.\n     */\n    function transfer (address to, uint256 value)\n        public\n        notRestricted(msg.sender, to, value)\n        returns (bool success)\n    {\n        success = ERC20.transfer(to, value);\n    }\n\n    /**\n    Overrides the parent class token transferFrom function to enforce restrictions.\n     */\n    function transferFrom (address from, address to, uint256 value)\n        public\n        notRestricted(from, to, value)\n        returns (bool success)\n    {\n        success = ERC20.transferFrom(from, to, value);\n    }\n}\n",
  "sourcePath": "/Users/james/Source/tokensoft/tokensoft_token/contracts/TokenSoftToken.sol",
  "compiler": {
    "name": "solc",
    "version": "0.5.12+commit.7709ece9.Emscripten.clang"
  },
  "schemaVersion": "3.0.2",
  "updatedAt": "2020-05-05T22:43:24.334Z",
  "devdoc": {
    "methods": {
      "allowance(address,address)": {
        "details": "See {IERC20-allowance}."
      },
      "approve(address,uint256)": {
        "details": "See {IERC20-approve}.     * Requirements:     * - `spender` cannot be the zero address."
      },
      "balanceOf(address)": {
        "details": "See {IERC20-balanceOf}."
      },
      "decimals()": {
        "details": "Returns the number of decimals used to get its user representation. For example, if `decimals` equals `2`, a balance of `505` tokens should be displayed to a user as `5,05` (`505 / 10 ** 2`).     * Tokens usually opt for a value of 18, imitating the relationship between Ether and Wei.     * NOTE: This information is only used for _display_ purposes: it in no way affects any of the arithmetic of the contract, including {IERC20-balanceOf} and {IERC20-transfer}."
      },
      "decreaseAllowance(address,uint256)": {
        "details": "Atomically decreases the allowance granted to `spender` by the caller.     * This is an alternative to {approve} that can be used as a mitigation for problems described in {IERC20-approve}.     * Emits an {Approval} event indicating the updated allowance.     * Requirements:     * - `spender` cannot be the zero address. - `spender` must have allowance for the caller of at least `subtractedValue`."
      },
      "increaseAllowance(address,uint256)": {
        "details": "Atomically increases the allowance granted to `spender` by the caller.     * This is an alternative to {approve} that can be used as a mitigation for problems described in {IERC20-approve}.     * Emits an {Approval} event indicating the updated allowance.     * Requirements:     * - `spender` cannot be the zero address."
      },
      "initialize(string,string,uint8)": {
        "details": "Sets the values for `name`, `symbol`, and `decimals`. All three of these values are immutable: they can only be set once during construction."
      },
      "name()": {
        "details": "Returns the name of the token."
      },
      "pause()": {
        "details": "Called by an Owner to pause, triggers stopped state."
      },
      "paused()": {
        "details": "Returns true if the contract is paused, and false otherwise."
      },
      "symbol()": {
        "details": "Returns the symbol of the token, usually a shorter version of the name."
      },
      "totalSupply()": {
        "details": "See {IERC20-totalSupply}."
      },
      "unpause()": {
        "details": "Called by an Owner to unpause, returns to normal state."
      }
    }
  },
  "userdoc": {
    "methods": {
      "addToWhitelist(address,uint8)": {
        "notice": "Public function that allows admins to remove an address from a whitelist"
      },
      "checkWhitelistAllowed(address,address)": {
        "notice": "Determine if the a sender is allowed to send to the receiver. The source whitelist must be enabled to send to the whitelist where the receive exists."
      },
      "detectTransferRestriction(address,address,uint256)": {
        "notice": "This function detects whether a transfer should be restricted and not allowed. If the function returns SUCCESS_CODE (0) then it should be allowed."
      },
      "initialize(address)": {
        "notice": "Constructor for the token to set readable details and mint all tokens to the specified owner."
      },
      "isValidAddress(address)": {
        "notice": "Validate that address is one of Owner, Admin, or Whitelisted"
      },
      "messageForTransferRestriction(uint8)": {
        "notice": "This function allows a wallet or other client to get a human readable string to show a user if a transfer was restricted.  It should return enough information for the user to know why it failed."
      },
      "mint(address,uint256)": {
        "notice": "Allow Owners to mint tokens to valid addresses"
      },
      "removeFromWhitelist(address)": {
        "notice": "Public function that allows admins to remove an address from a whitelist"
      },
      "revoke(address,uint256)": {
        "notice": "Allow Admins to revoke tokens from any address"
      },
      "transfer(address,uint256)": {
        "notice": "Overrides the parent class token transfer function to enforce restrictions."
      },
      "transferFrom(address,address,uint256)": {
        "notice": "Overrides the parent class token transferFrom function to enforce restrictions."
      },
      "updateCodeAddress(address)": {
        "notice": "Public function to update the address of the code contract, retricted to owner"
      },
      "updateOutboundWhitelistEnabled(uint8,uint8,bool)": {
        "notice": "Public function that allows admins to update outbound whitelists"
      }
    }
  }
}