{
  "contractName": "Whitelistable",
  "abi": [
    {
      "anonymous": false,
      "inputs": [
        {
          "indexed": true,
          "internalType": "address",
          "name": "addedAddress",
          "type": "address"
        },
        {
          "indexed": true,
          "internalType": "uint8",
          "name": "whitelist",
          "type": "uint8"
        },
        {
          "indexed": true,
          "internalType": "address",
          "name": "addedBy",
          "type": "address"
        }
      ],
      "name": "AddressAddedToWhitelist",
      "type": "event"
    },
    {
      "anonymous": false,
      "inputs": [
        {
          "indexed": true,
          "internalType": "address",
          "name": "removedAddress",
          "type": "address"
        },
        {
          "indexed": true,
          "internalType": "uint8",
          "name": "whitelist",
          "type": "uint8"
        },
        {
          "indexed": true,
          "internalType": "address",
          "name": "removedBy",
          "type": "address"
        }
      ],
      "name": "AddressRemovedFromWhitelist",
      "type": "event"
    },
    {
      "anonymous": false,
      "inputs": [
        {
          "indexed": true,
          "internalType": "address",
          "name": "updatedBy",
          "type": "address"
        },
        {
          "indexed": true,
          "internalType": "uint8",
          "name": "sourceWhitelist",
          "type": "uint8"
        },
        {
          "indexed": true,
          "internalType": "uint8",
          "name": "destinationWhitelist",
          "type": "uint8"
        },
        {
          "indexed": false,
          "internalType": "bool",
          "name": "from",
          "type": "bool"
        },
        {
          "indexed": false,
          "internalType": "bool",
          "name": "to",
          "type": "bool"
        }
      ],
      "name": "OutboundWhitelistUpdated",
      "type": "event"
    },
    {
      "constant": true,
      "inputs": [
        {
          "internalType": "address",
          "name": "",
          "type": "address"
        }
      ],
      "name": "addressWhitelists",
      "outputs": [
        {
          "internalType": "uint8",
          "name": "",
          "type": "uint8"
        }
      ],
      "payable": false,
      "stateMutability": "view",
      "type": "function"
    },
    {
      "constant": true,
      "inputs": [
        {
          "internalType": "uint8",
          "name": "",
          "type": "uint8"
        },
        {
          "internalType": "uint8",
          "name": "",
          "type": "uint8"
        }
      ],
      "name": "outboundWhitelistsEnabled",
      "outputs": [
        {
          "internalType": "bool",
          "name": "",
          "type": "bool"
        }
      ],
      "payable": false,
      "stateMutability": "view",
      "type": "function"
    },
    {
      "constant": true,
      "inputs": [
        {
          "internalType": "address",
          "name": "sender",
          "type": "address"
        },
        {
          "internalType": "address",
          "name": "receiver",
          "type": "address"
        }
      ],
      "name": "checkWhitelistAllowed",
      "outputs": [
        {
          "internalType": "bool",
          "name": "",
          "type": "bool"
        }
      ],
      "payable": false,
      "stateMutability": "view",
      "type": "function"
    }
  ],
  "bytecode": "0x608060405234801561001057600080fd5b5061032c806100206000396000f3fe608060405234801561001057600080fd5b506004361061005e576000357c01000000000000000000000000000000000000000000000000000000009004806392e6d68b146100635780639437e2fe146100c1578063e95945081461013d575b600080fd5b6100a56004803603602081101561007957600080fd5b81019080803573ffffffffffffffffffffffffffffffffffffffff169060200190929190505050610193565b604051808260ff1660ff16815260200191505060405180910390f35b610123600480360360408110156100d757600080fd5b81019080803573ffffffffffffffffffffffffffffffffffffffff169060200190929190803573ffffffffffffffffffffffffffffffffffffffff1690602001909291905050506101b3565b604051808215151515815260200191505060405180910390f35b6101796004803603604081101561015357600080fd5b81019080803560ff169060200190929190803560ff1690602001909291905050506102c8565b604051808215151515815260200191505060405180910390f35b60006020528060005260406000206000915054906101000a900460ff1681565b6000806000808573ffffffffffffffffffffffffffffffffffffffff1673ffffffffffffffffffffffffffffffffffffffff16815260200190815260200160002060009054906101000a900460ff16905060008060008573ffffffffffffffffffffffffffffffffffffffff1673ffffffffffffffffffffffffffffffffffffffff16815260200190815260200160002060009054906101000a900460ff169050600060ff168260ff16148061026f5750600060ff168160ff16145b1561027f576000925050506102c2565b600160008360ff1660ff16815260200190815260200160002060008260ff1660ff16815260200190815260200160002060009054906101000a900460ff16925050505b92915050565b60016020528160005260406000206020528060005260406000206000915091509054906101000a900460ff168156fea265627a7a72315820d8c4d00d67dfe4815cdab8aa3da24571a95c7910ebb97582c6ca00607d983dc264736f6c634300050c0032",
  "source": "pragma solidity 0.5.12;\n\n/**\nKeeps track of whitelists and can check if sender and reciever are configured to allow a transfer.\nOnly administrators can update the whitelists.\nAny address can only be a member of one whitelist at a time.\n */\ncontract Whitelistable {\n    // Zero is reserved for indicating it is not on a whitelist\n    uint8 constant NO_WHITELIST = 0;\n\n    // The mapping to keep track of which whitelist any address belongs to.\n    // 0 is reserved for no whitelist and is the default for all addresses.\n    mapping (address => uint8) public addressWhitelists;\n\n    // The mapping to keep track of each whitelist's outbound whitelist flags.\n    // Boolean flag indicates whether outbound transfers are enabled.\n    mapping(uint8 => mapping (uint8 => bool)) public outboundWhitelistsEnabled;\n\n    // Events to allow tracking add/remove.\n    event AddressAddedToWhitelist(address indexed addedAddress, uint8 indexed whitelist, address indexed addedBy);\n    event AddressRemovedFromWhitelist(address indexed removedAddress, uint8 indexed whitelist, address indexed removedBy);\n    event OutboundWhitelistUpdated(\n        address indexed updatedBy, uint8 indexed sourceWhitelist, uint8 indexed destinationWhitelist, bool from, bool to);\n\n    /**\n    Sets an address's white list ID.  Only administrators should be allowed to update this.\n    If an address is on an existing whitelist, it will just get updated to the new value (removed from previous).\n     */\n    function _addToWhitelist(address addressToAdd, uint8 whitelist) internal {\n        // Verify the whitelist is valid\n        require(whitelist != NO_WHITELIST, \"Invalid whitelist ID supplied\");\n\n        // Save off the previous white list\n        uint8 previousWhitelist = addressWhitelists[addressToAdd];\n\n        // Set the address's white list ID\n        addressWhitelists[addressToAdd] = whitelist;\n\n        // If the previous whitelist existed then we want to indicate it has been removed\n        if(previousWhitelist != NO_WHITELIST) {\n            // Emit the event for tracking\n            emit AddressRemovedFromWhitelist(addressToAdd, previousWhitelist, msg.sender);\n        }\n\n        // Emit the event for new whitelist\n        emit AddressAddedToWhitelist(addressToAdd, whitelist, msg.sender);\n    }\n\n    /**\n    Clears out an address's white list ID.  Only administrators should be allowed to update this.\n     */\n    function _removeFromWhitelist(address addressToRemove) internal {\n        // Save off the previous white list\n        uint8 previousWhitelist = addressWhitelists[addressToRemove];\n\n        // Zero out the previous white list\n        addressWhitelists[addressToRemove] = NO_WHITELIST;\n\n        // Emit the event for tracking\n        emit AddressRemovedFromWhitelist(addressToRemove, previousWhitelist, msg.sender);\n    }\n\n    /**\n    Sets the flag to indicate whether source whitelist is allowed to send to destination whitelist.\n    Only administrators should be allowed to update this.\n     */\n    function _updateOutboundWhitelistEnabled(uint8 sourceWhitelist, uint8 destinationWhitelist, bool newEnabledValue) internal {\n        // Get the old enabled flag\n        bool oldEnabledValue = outboundWhitelistsEnabled[sourceWhitelist][destinationWhitelist];\n\n        // Update to the new value\n        outboundWhitelistsEnabled[sourceWhitelist][destinationWhitelist] = newEnabledValue;\n\n        // Emit event for tracking\n        emit OutboundWhitelistUpdated(msg.sender, sourceWhitelist, destinationWhitelist, oldEnabledValue, newEnabledValue);\n    }\n\n    /**\n    Determine if the a sender is allowed to send to the receiver.\n    The source whitelist must be enabled to send to the whitelist where the receive exists.\n     */\n    function checkWhitelistAllowed(address sender, address receiver) public view returns (bool) {\n        // First get each address white list\n        uint8 senderWhiteList = addressWhitelists[sender];\n        uint8 receiverWhiteList = addressWhitelists[receiver];\n\n        // If either address is not on a white list then the check should fail\n        if(senderWhiteList == NO_WHITELIST || receiverWhiteList == NO_WHITELIST){\n            return false;\n        }\n\n        // Determine if the sending whitelist is allowed to send to the destination whitelist\n        return outboundWhitelistsEnabled[senderWhiteList][receiverWhiteList];\n    }\n}",
  "sourcePath": "/Users/james/Source/tokensoft/tokensoft_token/contracts/capabilities/Whitelistable.sol",
  "compiler": {
    "name": "solc",
    "version": "0.5.12+commit.7709ece9.Emscripten.clang"
  },
  "schemaVersion": "3.0.2",
  "updatedAt": "2020-05-05T22:43:24.336Z",
  "devdoc": {
    "methods": {}
  },
  "userdoc": {
    "methods": {
      "checkWhitelistAllowed(address,address)": {
        "notice": "Determine if the a sender is allowed to send to the receiver. The source whitelist must be enabled to send to the whitelist where the receive exists."
      }
    },
    "notice": "Keeps track of whitelists and can check if sender and reciever are configured to allow a transfer. Only administrators can update the whitelists. Any address can only be a member of one whitelist at a time."
  }
}