{
  "contractName": "Whitelistable",
  "abi": [
    {
      "anonymous": false,
      "inputs": [
        {
          "indexed": true,
          "internalType": "address",
          "name": "addedAddress",
          "type": "address"
        },
        {
          "indexed": true,
          "internalType": "uint8",
          "name": "whitelist",
          "type": "uint8"
        },
        {
          "indexed": true,
          "internalType": "address",
          "name": "addedBy",
          "type": "address"
        }
      ],
      "name": "AddressAddedToWhitelist",
      "type": "event"
    },
    {
      "anonymous": false,
      "inputs": [
        {
          "indexed": true,
          "internalType": "address",
          "name": "removedAddress",
          "type": "address"
        },
        {
          "indexed": true,
          "internalType": "uint8",
          "name": "whitelist",
          "type": "uint8"
        },
        {
          "indexed": true,
          "internalType": "address",
          "name": "removedBy",
          "type": "address"
        }
      ],
      "name": "AddressRemovedFromWhitelist",
      "type": "event"
    },
    {
      "anonymous": false,
      "inputs": [
        {
          "indexed": true,
          "internalType": "address",
          "name": "updatedBy",
          "type": "address"
        },
        {
          "indexed": true,
          "internalType": "uint8",
          "name": "sourceWhitelist",
          "type": "uint8"
        },
        {
          "indexed": true,
          "internalType": "uint8",
          "name": "destinationWhitelist",
          "type": "uint8"
        },
        {
          "indexed": false,
          "internalType": "bool",
          "name": "from",
          "type": "bool"
        },
        {
          "indexed": false,
          "internalType": "bool",
          "name": "to",
          "type": "bool"
        }
      ],
      "name": "OutboundWhitelistUpdated",
      "type": "event"
    },
    {
      "anonymous": false,
      "inputs": [
        {
          "indexed": true,
          "internalType": "address",
          "name": "addedOwner",
          "type": "address"
        },
        {
          "indexed": true,
          "internalType": "address",
          "name": "addedBy",
          "type": "address"
        }
      ],
      "name": "OwnerAdded",
      "type": "event"
    },
    {
      "anonymous": false,
      "inputs": [
        {
          "indexed": true,
          "internalType": "address",
          "name": "removedOwner",
          "type": "address"
        },
        {
          "indexed": true,
          "internalType": "address",
          "name": "removedBy",
          "type": "address"
        }
      ],
      "name": "OwnerRemoved",
      "type": "event"
    },
    {
      "anonymous": false,
      "inputs": [
        {
          "indexed": true,
          "internalType": "address",
          "name": "updatedBy",
          "type": "address"
        },
        {
          "indexed": true,
          "internalType": "bool",
          "name": "enabled",
          "type": "bool"
        }
      ],
      "name": "WhitelistEnabledUpdated",
      "type": "event"
    },
    {
      "anonymous": false,
      "inputs": [
        {
          "indexed": true,
          "internalType": "address",
          "name": "addedWhitelister",
          "type": "address"
        },
        {
          "indexed": true,
          "internalType": "address",
          "name": "addedBy",
          "type": "address"
        }
      ],
      "name": "WhitelisterAdded",
      "type": "event"
    },
    {
      "anonymous": false,
      "inputs": [
        {
          "indexed": true,
          "internalType": "address",
          "name": "removedWhitelister",
          "type": "address"
        },
        {
          "indexed": true,
          "internalType": "address",
          "name": "removedBy",
          "type": "address"
        }
      ],
      "name": "WhitelisterRemoved",
      "type": "event"
    },
    {
      "constant": false,
      "inputs": [
        {
          "internalType": "address",
          "name": "account",
          "type": "address"
        }
      ],
      "name": "addOwner",
      "outputs": [],
      "payable": false,
      "stateMutability": "nonpayable",
      "type": "function"
    },
    {
      "constant": false,
      "inputs": [
        {
          "internalType": "address",
          "name": "account",
          "type": "address"
        }
      ],
      "name": "addWhitelister",
      "outputs": [],
      "payable": false,
      "stateMutability": "nonpayable",
      "type": "function"
    },
    {
      "constant": true,
      "inputs": [
        {
          "internalType": "address",
          "name": "",
          "type": "address"
        }
      ],
      "name": "addressWhitelists",
      "outputs": [
        {
          "internalType": "uint8",
          "name": "",
          "type": "uint8"
        }
      ],
      "payable": false,
      "stateMutability": "view",
      "type": "function"
    },
    {
      "constant": true,
      "inputs": [
        {
          "internalType": "address",
          "name": "account",
          "type": "address"
        }
      ],
      "name": "isOwner",
      "outputs": [
        {
          "internalType": "bool",
          "name": "",
          "type": "bool"
        }
      ],
      "payable": false,
      "stateMutability": "view",
      "type": "function"
    },
    {
      "constant": true,
      "inputs": [],
      "name": "isWhitelistEnabled",
      "outputs": [
        {
          "internalType": "bool",
          "name": "",
          "type": "bool"
        }
      ],
      "payable": false,
      "stateMutability": "view",
      "type": "function"
    },
    {
      "constant": true,
      "inputs": [
        {
          "internalType": "address",
          "name": "account",
          "type": "address"
        }
      ],
      "name": "isWhitelister",
      "outputs": [
        {
          "internalType": "bool",
          "name": "",
          "type": "bool"
        }
      ],
      "payable": false,
      "stateMutability": "view",
      "type": "function"
    },
    {
      "constant": true,
      "inputs": [
        {
          "internalType": "uint8",
          "name": "",
          "type": "uint8"
        },
        {
          "internalType": "uint8",
          "name": "",
          "type": "uint8"
        }
      ],
      "name": "outboundWhitelistsEnabled",
      "outputs": [
        {
          "internalType": "bool",
          "name": "",
          "type": "bool"
        }
      ],
      "payable": false,
      "stateMutability": "view",
      "type": "function"
    },
    {
      "constant": false,
      "inputs": [
        {
          "internalType": "address",
          "name": "account",
          "type": "address"
        }
      ],
      "name": "removeOwner",
      "outputs": [],
      "payable": false,
      "stateMutability": "nonpayable",
      "type": "function"
    },
    {
      "constant": false,
      "inputs": [
        {
          "internalType": "address",
          "name": "account",
          "type": "address"
        }
      ],
      "name": "removeWhitelister",
      "outputs": [],
      "payable": false,
      "stateMutability": "nonpayable",
      "type": "function"
    },
    {
      "constant": true,
      "inputs": [
        {
          "internalType": "address",
          "name": "sender",
          "type": "address"
        },
        {
          "internalType": "address",
          "name": "receiver",
          "type": "address"
        }
      ],
      "name": "checkWhitelistAllowed",
      "outputs": [
        {
          "internalType": "bool",
          "name": "",
          "type": "bool"
        }
      ],
      "payable": false,
      "stateMutability": "view",
      "type": "function"
    },
    {
      "constant": false,
      "inputs": [
        {
          "internalType": "bool",
          "name": "enabled",
          "type": "bool"
        }
      ],
      "name": "setWhitelistEnabled",
      "outputs": [],
      "payable": false,
      "stateMutability": "nonpayable",
      "type": "function"
    },
    {
      "constant": false,
      "inputs": [
        {
          "internalType": "address",
          "name": "addressToAdd",
          "type": "address"
        },
        {
          "internalType": "uint8",
          "name": "whitelist",
          "type": "uint8"
        }
      ],
      "name": "addToWhitelist",
      "outputs": [],
      "payable": false,
      "stateMutability": "nonpayable",
      "type": "function"
    },
    {
      "constant": false,
      "inputs": [
        {
          "internalType": "address",
          "name": "addressToRemove",
          "type": "address"
        }
      ],
      "name": "removeFromWhitelist",
      "outputs": [],
      "payable": false,
      "stateMutability": "nonpayable",
      "type": "function"
    },
    {
      "constant": false,
      "inputs": [
        {
          "internalType": "uint8",
          "name": "sourceWhitelist",
          "type": "uint8"
        },
        {
          "internalType": "uint8",
          "name": "destinationWhitelist",
          "type": "uint8"
        },
        {
          "internalType": "bool",
          "name": "newEnabledValue",
          "type": "bool"
        }
      ],
      "name": "updateOutboundWhitelistEnabled",
      "outputs": [],
      "payable": false,
      "stateMutability": "nonpayable",
      "type": "function"
    }
  ],
  "bytecode": "0x608060405234801561001057600080fd5b506115a2806100206000396000f3fe608060405234801561001057600080fd5b50600436106100ea5760003560e01c80637d0c269f1161008c57806392e6d68b1161006657806392e6d68b146103a45780639437e2fe14610402578063e95945081461047e578063eaf9144a146104d4576100ea565b80637d0c269f146102c057806382c3f79c1461031c5780638ab1d68114610360576100ea565b8063184d69ab116100c8578063184d69ab146101b45780632f54bf6e146101d65780633973b596146102325780637065cb481461027c576100ea565b80630263b858146100ef578063052d9e7e14610140578063173825d914610170575b600080fd5b61013e6004803603604081101561010557600080fd5b81019080803573ffffffffffffffffffffffffffffffffffffffff169060200190929190803560ff169060200190929190505050610518565b005b61016e6004803603602081101561015657600080fd5b81019080803515159060200190929190505050610584565b005b6101b26004803603602081101561018657600080fd5b81019080803573ffffffffffffffffffffffffffffffffffffffff1690602001909291905050506105ee565b005b6101bc610658565b604051808215151515815260200191505060405180910390f35b610218600480360360208110156101ec57600080fd5b81019080803573ffffffffffffffffffffffffffffffffffffffff16906020019092919050505061066b565b604051808215151515815260200191505060405180910390f35b61027a6004803603606081101561024857600080fd5b81019080803560ff169060200190929190803560ff169060200190929190803515159060200190929190505050610688565b005b6102be6004803603602081101561029257600080fd5b81019080803573ffffffffffffffffffffffffffffffffffffffff1690602001909291905050506106f6565b005b610302600480360360208110156102d657600080fd5b81019080803573ffffffffffffffffffffffffffffffffffffffff169060200190929190505050610760565b604051808215151515815260200191505060405180910390f35b61035e6004803603602081101561033257600080fd5b81019080803573ffffffffffffffffffffffffffffffffffffffff16906020019092919050505061077d565b005b6103a26004803603602081101561037657600080fd5b81019080803573ffffffffffffffffffffffffffffffffffffffff1690602001909291905050506107e7565b005b6103e6600480360360208110156103ba57600080fd5b81019080803573ffffffffffffffffffffffffffffffffffffffff169060200190929190505050610851565b604051808260ff1660ff16815260200191505060405180910390f35b6104646004803603604081101561041857600080fd5b81019080803573ffffffffffffffffffffffffffffffffffffffff169060200190929190803573ffffffffffffffffffffffffffffffffffffffff169060200190929190505050610871565b604051808215151515815260200191505060405180910390f35b6104ba6004803603604081101561049457600080fd5b81019080803560ff169060200190929190803560ff1690602001909291905050506109a6565b604051808215151515815260200191505060405180910390f35b610516600480360360208110156104ea57600080fd5b81019080803573ffffffffffffffffffffffffffffffffffffffff1690602001909291905050506109d5565b005b61052133610760565b610576576040517f08c379a000000000000000000000000000000000000000000000000000000000815260040180806020018281038252603a815260200180611509603a913960400191505060405180910390fd5b6105808282610a3f565b5050565b61058d3361066b565b6105e2576040517f08c379a000000000000000000000000000000000000000000000000000000000815260040180806020018281038252602e815260200180611498602e913960400191505060405180910390fd5b6105eb81610cbb565b50565b6105f73361066b565b61064c576040517f08c379a000000000000000000000000000000000000000000000000000000000815260040180806020018281038252602e815260200180611498602e913960400191505060405180910390fd5b61065581610d1e565b50565b600260009054906101000a900460ff1681565b6000610681826000610d8f90919063ffffffff16565b9050919050565b61069133610760565b6106e6576040517f08c379a000000000000000000000000000000000000000000000000000000000815260040180806020018281038252603a815260200180611509603a913960400191505060405180910390fd5b6106f1838383610e6d565b505050565b6106ff3361066b565b610754576040517f08c379a000000000000000000000000000000000000000000000000000000000815260040180806020018281038252602e815260200180611498602e913960400191505060405180910390fd5b61075d81610f63565b50565b6000610776826001610d8f90919063ffffffff16565b9050919050565b6107863361066b565b6107db576040517f08c379a000000000000000000000000000000000000000000000000000000000815260040180806020018281038252602e815260200180611498602e913960400191505060405180910390fd5b6107e481610fd4565b50565b6107f033610760565b610845576040517f08c379a000000000000000000000000000000000000000000000000000000000815260040180806020018281038252603a815260200180611509603a913960400191505060405180910390fd5b61084e81611045565b50565b60036020528060005260406000206000915054906101000a900460ff1681565b6000600260009054906101000a900460ff1661089057600190506109a0565b6000600360008573ffffffffffffffffffffffffffffffffffffffff1673ffffffffffffffffffffffffffffffffffffffff16815260200190815260200160002060009054906101000a900460ff1690506000600360008573ffffffffffffffffffffffffffffffffffffffff1673ffffffffffffffffffffffffffffffffffffffff16815260200190815260200160002060009054906101000a900460ff169050600060ff168260ff16148061094d5750600060ff168160ff16145b1561095d576000925050506109a0565b600460008360ff1660ff16815260200190815260200160002060008260ff1660ff16815260200190815260200160002060009054906101000a900460ff16925050505b92915050565b60046020528160005260406000206020528060005260406000206000915091509054906101000a900460ff1681565b6109de3361066b565b610a33576040517f08c379a000000000000000000000000000000000000000000000000000000000815260040180806020018281038252602e815260200180611498602e913960400191505060405180910390fd5b610a3c81611237565b50565b600073ffffffffffffffffffffffffffffffffffffffff168273ffffffffffffffffffffffffffffffffffffffff161415610ac5576040517f08c379a00000000000000000000000000000000000000000000000000000000081526004018080602001828103825260268152602001806114726026913960400191505060405180910390fd5b600060ff168160ff161415610b42576040517f08c379a000000000000000000000000000000000000000000000000000000000815260040180806020018281038252601d8152602001807f496e76616c69642077686974656c69737420494420737570706c69656400000081525060200191505060405180910390fd5b6000600360008473ffffffffffffffffffffffffffffffffffffffff1673ffffffffffffffffffffffffffffffffffffffff16815260200190815260200160002060009054906101000a900460ff16905081600360008573ffffffffffffffffffffffffffffffffffffffff1673ffffffffffffffffffffffffffffffffffffffff16815260200190815260200160002060006101000a81548160ff021916908360ff160217905550600060ff168160ff1614610c58573373ffffffffffffffffffffffffffffffffffffffff168160ff168473ffffffffffffffffffffffffffffffffffffffff167fb50a30a0fa972f89fbb2b514d12b31f5a5d64f53603402de7939742cd8507f6e60405160405180910390a45b3373ffffffffffffffffffffffffffffffffffffffff168260ff168473ffffffffffffffffffffffffffffffffffffffff167fca6d1e885708b837a7647aeb7f4163ee4ca96058e08ac767be8d23c972c5027060405160405180910390a4505050565b80600260006101000a81548160ff0219169083151502179055508015153373ffffffffffffffffffffffffffffffffffffffff167fb535c5f7f150db8dbf22962fc390e7fa9026b9c29ffad714197bee4620572bd660405160405180910390a350565b610d328160006112a890919063ffffffff16565b3373ffffffffffffffffffffffffffffffffffffffff168173ffffffffffffffffffffffffffffffffffffffff167fe594d081b4382713733fe631966432c9cea5199afb2db5c3c1931f9f9300367960405160405180910390a350565b60008073ffffffffffffffffffffffffffffffffffffffff168273ffffffffffffffffffffffffffffffffffffffff161415610e16576040517f08c379a00000000000000000000000000000000000000000000000000000000081526004018080602001828103825260228152602001806114e76022913960400191505060405180910390fd5b8260000160008373ffffffffffffffffffffffffffffffffffffffff1673ffffffffffffffffffffffffffffffffffffffff16815260200190815260200160002060009054906101000a900460ff16905092915050565b6000600460008560ff1660ff16815260200190815260200160002060008460ff1660ff16815260200190815260200160002060009054906101000a900460ff16905081600460008660ff1660ff16815260200190815260200160002060008560ff1660ff16815260200190815260200160002060006101000a81548160ff0219169083151502179055508260ff168460ff163373ffffffffffffffffffffffffffffffffffffffff167fb0353d563a9aa5231878c83727dc723a3cb8a38c2917f8ac2b777aa564c8a0d584866040518083151515158152602001821515151581526020019250505060405180910390a450505050565b610f7781600061136590919063ffffffff16565b3373ffffffffffffffffffffffffffffffffffffffff168173ffffffffffffffffffffffffffffffffffffffff167fc82bdbbf677a2462f2a7e22e4ba9abd209496b69cd7b868b3b1d28f76e09a40a60405160405180910390a350565b610fe88160016112a890919063ffffffff16565b3373ffffffffffffffffffffffffffffffffffffffff168173ffffffffffffffffffffffffffffffffffffffff167f3ed21605dd544629fb45f2ccaedcc095ba1dbea540fb6eaf5493a7479856b0be60405160405180910390a350565b600073ffffffffffffffffffffffffffffffffffffffff168173ffffffffffffffffffffffffffffffffffffffff1614156110cb576040517f08c379a000000000000000000000000000000000000000000000000000000000815260040180806020018281038252602b815260200180611543602b913960400191505060405180910390fd5b6000600360008373ffffffffffffffffffffffffffffffffffffffff1673ffffffffffffffffffffffffffffffffffffffff16815260200190815260200160002060009054906101000a900460ff169050600060ff168160ff16141561117c576040517f08c379a00000000000000000000000000000000000000000000000000000000081526004018080602001828103825260318152602001806114416031913960400191505060405180910390fd5b6000600360008473ffffffffffffffffffffffffffffffffffffffff1673ffffffffffffffffffffffffffffffffffffffff16815260200190815260200160002060006101000a81548160ff021916908360ff1602179055503373ffffffffffffffffffffffffffffffffffffffff168160ff168373ffffffffffffffffffffffffffffffffffffffff167fb50a30a0fa972f89fbb2b514d12b31f5a5d64f53603402de7939742cd8507f6e60405160405180910390a45050565b61124b81600161136590919063ffffffff16565b3373ffffffffffffffffffffffffffffffffffffffff168173ffffffffffffffffffffffffffffffffffffffff167f5f36f4f5999f34947706fca376b955319b858573bf9d6bc59303c9a4cd80ced060405160405180910390a350565b6112b28282610d8f565b611307576040517f08c379a00000000000000000000000000000000000000000000000000000000081526004018080602001828103825260218152602001806114c66021913960400191505060405180910390fd5b60008260000160008373ffffffffffffffffffffffffffffffffffffffff1673ffffffffffffffffffffffffffffffffffffffff16815260200190815260200160002060006101000a81548160ff0219169083151502179055505050565b61136f8282610d8f565b156113e2576040517f08c379a000000000000000000000000000000000000000000000000000000000815260040180806020018281038252601f8152602001807f526f6c65733a206163636f756e7420616c72656164792068617320726f6c650081525060200191505060405180910390fd5b60018260000160008373ffffffffffffffffffffffffffffffffffffffff1673ffffffffffffffffffffffffffffffffffffffff16815260200190815260200160002060006101000a81548160ff021916908315150217905550505056fe416464726573732063616e6e6f742062652072656d6f7665642066726f6d20696e76616c69642077686974656c6973742e43616e6e6f742061646420616464726573732030783020746f20612077686974656c6973742e4f776e6572526f6c653a2063616c6c657220646f6573206e6f74206861766520746865204f776e657220726f6c65526f6c65733a206163636f756e7420646f6573206e6f74206861766520726f6c65526f6c65733a206163636f756e7420697320746865207a65726f206164647265737357686974656c6973746572526f6c653a2063616c6c657220646f6573206e6f742068617665207468652057686974656c697374657220726f6c6543616e6e6f742072656d6f76652061646472657373203078302066726f6d20612077686974656c6973742ea265627a7a723158207bba55907f2b437b34c46262a83a020e7471b47dc9662dacfeb539984fd2c91b64736f6c63430005100032",
  "source": "pragma solidity 0.5.16;\n\nimport \"../roles/WhitelisterRole.sol\";\n\n/**\nKeeps track of whitelists and can check if sender and reciever are configured to allow a transfer.\nOnly administrators can update the whitelists.\nAny address can only be a member of one whitelist at a time.\n */\ncontract Whitelistable is WhitelisterRole {\n    // Track whether whitelisting is enabled\n    bool public isWhitelistEnabled;\n\n    // Zero is reserved for indicating it is not on a whitelist\n    uint8 constant NO_WHITELIST = 0;\n\n    // The mapping to keep track of which whitelist any address belongs to.\n    // 0 is reserved for no whitelist and is the default for all addresses.\n    mapping (address => uint8) public addressWhitelists;\n\n    // The mapping to keep track of each whitelist's outbound whitelist flags.\n    // Boolean flag indicates whether outbound transfers are enabled.\n    mapping(uint8 => mapping (uint8 => bool)) public outboundWhitelistsEnabled;\n\n    // Events to allow tracking add/remove.\n    event AddressAddedToWhitelist(address indexed addedAddress, uint8 indexed whitelist, address indexed addedBy);\n    event AddressRemovedFromWhitelist(address indexed removedAddress, uint8 indexed whitelist, address indexed removedBy);\n    event OutboundWhitelistUpdated(\n        address indexed updatedBy, uint8 indexed sourceWhitelist, uint8 indexed destinationWhitelist, bool from, bool to);\n    event WhitelistEnabledUpdated(address indexed updatedBy, bool indexed enabled);\n\n    function _setWhitelistEnabled(bool enabled) internal {\n        isWhitelistEnabled = enabled;\n        emit WhitelistEnabledUpdated(msg.sender, enabled);\n    }\n\n    /**\n    Sets an address's white list ID.  Only administrators should be allowed to update this.\n    If an address is on an existing whitelist, it will just get updated to the new value (removed from previous).\n     */\n    function _addToWhitelist(address addressToAdd, uint8 whitelist) internal {\n        // Verify a valid address was passed in\n        require(addressToAdd != address(0), \"Cannot add address 0x0 to a whitelist.\");\n\n        // Verify the whitelist is valid\n        require(whitelist != NO_WHITELIST, \"Invalid whitelist ID supplied\");\n\n        // Save off the previous white list\n        uint8 previousWhitelist = addressWhitelists[addressToAdd];\n\n        // Set the address's white list ID\n        addressWhitelists[addressToAdd] = whitelist;\n\n        // If the previous whitelist existed then we want to indicate it has been removed\n        if(previousWhitelist != NO_WHITELIST) {\n            // Emit the event for tracking\n            emit AddressRemovedFromWhitelist(addressToAdd, previousWhitelist, msg.sender);\n        }\n\n        // Emit the event for new whitelist\n        emit AddressAddedToWhitelist(addressToAdd, whitelist, msg.sender);\n    }\n\n    /**\n    Clears out an address's white list ID.  Only administrators should be allowed to update this.\n     */\n    function _removeFromWhitelist(address addressToRemove) internal {\n        // Verify a valid address was passed in\n        require(addressToRemove != address(0), \"Cannot remove address 0x0 from a whitelist.\");\n\n        // Save off the previous white list\n        uint8 previousWhitelist = addressWhitelists[addressToRemove];\n\n        // Verify the address was actually on a whitelist\n        require(previousWhitelist != NO_WHITELIST, \"Address cannot be removed from invalid whitelist.\");\n\n        // Zero out the previous white list\n        addressWhitelists[addressToRemove] = NO_WHITELIST;\n\n        // Emit the event for tracking\n        emit AddressRemovedFromWhitelist(addressToRemove, previousWhitelist, msg.sender);\n    }\n\n    /**\n    Sets the flag to indicate whether source whitelist is allowed to send to destination whitelist.\n    Only administrators should be allowed to update this.\n     */\n    function _updateOutboundWhitelistEnabled(uint8 sourceWhitelist, uint8 destinationWhitelist, bool newEnabledValue) internal {\n        // Get the old enabled flag\n        bool oldEnabledValue = outboundWhitelistsEnabled[sourceWhitelist][destinationWhitelist];\n\n        // Update to the new value\n        outboundWhitelistsEnabled[sourceWhitelist][destinationWhitelist] = newEnabledValue;\n\n        // Emit event for tracking\n        emit OutboundWhitelistUpdated(msg.sender, sourceWhitelist, destinationWhitelist, oldEnabledValue, newEnabledValue);\n    }\n\n    /**\n    Determine if the a sender is allowed to send to the receiver.\n    The source whitelist must be enabled to send to the whitelist where the receive exists.\n     */\n    function checkWhitelistAllowed(address sender, address receiver) public view returns (bool) {\n        // If whitelist enforcement is not enabled, then allow all\n        if(!isWhitelistEnabled){\n            return true;\n        }\n\n        // First get each address white list\n        uint8 senderWhiteList = addressWhitelists[sender];\n        uint8 receiverWhiteList = addressWhitelists[receiver];\n\n        // If either address is not on a white list then the check should fail\n        if(senderWhiteList == NO_WHITELIST || receiverWhiteList == NO_WHITELIST){\n            return false;\n        }\n\n        // Determine if the sending whitelist is allowed to send to the destination whitelist\n        return outboundWhitelistsEnabled[senderWhiteList][receiverWhiteList];\n    }\n\n    /**\n     * Enable or disable the whitelist enforcement\n     */\n    function setWhitelistEnabled(bool enabled) public onlyOwner {\n        _setWhitelistEnabled(enabled);\n    }\n\n    /**\n    Public function that allows admins to remove an address from a whitelist\n     */\n    function addToWhitelist(address addressToAdd, uint8 whitelist) public onlyWhitelister {\n        _addToWhitelist(addressToAdd, whitelist);\n    }\n\n    /**\n    Public function that allows admins to remove an address from a whitelist\n     */\n    function removeFromWhitelist(address addressToRemove) public onlyWhitelister {\n        _removeFromWhitelist(addressToRemove);\n    }\n\n    /**\n    Public function that allows admins to update outbound whitelists\n     */\n    function updateOutboundWhitelistEnabled(uint8 sourceWhitelist, uint8 destinationWhitelist, bool newEnabledValue) public onlyWhitelister {\n        _updateOutboundWhitelistEnabled(sourceWhitelist, destinationWhitelist, newEnabledValue);\n    }\n}",
  "sourcePath": "/Users/james/Source/tokensoft/tokensoft_token/contracts/capabilities/Whitelistable.sol",
  "compiler": {
    "name": "solc",
    "version": "0.5.16+commit.9c3226ce.Emscripten.clang"
  },
  "schemaVersion": "3.1.0",
  "updatedAt": "2020-06-15T20:24:29.353Z",
  "devdoc": {
    "methods": {}
  },
  "userdoc": {
    "methods": {
      "addToWhitelist(address,uint8)": {
        "notice": "Public function that allows admins to remove an address from a whitelist"
      },
      "checkWhitelistAllowed(address,address)": {
        "notice": "Determine if the a sender is allowed to send to the receiver. The source whitelist must be enabled to send to the whitelist where the receive exists."
      },
      "removeFromWhitelist(address)": {
        "notice": "Public function that allows admins to remove an address from a whitelist"
      },
      "setWhitelistEnabled(bool)": {
        "notice": "Enable or disable the whitelist enforcement"
      },
      "updateOutboundWhitelistEnabled(uint8,uint8,bool)": {
        "notice": "Public function that allows admins to update outbound whitelists"
      }
    },
    "notice": "Keeps track of whitelists and can check if sender and reciever are configured to allow a transfer. Only administrators can update the whitelists. Any address can only be a member of one whitelist at a time."
  }
}