{
  "contractName": "WhitelisterRole",
  "abi": [
    {
      "anonymous": false,
      "inputs": [
        {
          "indexed": true,
          "internalType": "address",
          "name": "addedOwner",
          "type": "address"
        },
        {
          "indexed": true,
          "internalType": "address",
          "name": "addedBy",
          "type": "address"
        }
      ],
      "name": "OwnerAdded",
      "type": "event"
    },
    {
      "anonymous": false,
      "inputs": [
        {
          "indexed": true,
          "internalType": "address",
          "name": "removedOwner",
          "type": "address"
        },
        {
          "indexed": true,
          "internalType": "address",
          "name": "removedBy",
          "type": "address"
        }
      ],
      "name": "OwnerRemoved",
      "type": "event"
    },
    {
      "anonymous": false,
      "inputs": [
        {
          "indexed": true,
          "internalType": "address",
          "name": "addedWhitelister",
          "type": "address"
        },
        {
          "indexed": true,
          "internalType": "address",
          "name": "addedBy",
          "type": "address"
        }
      ],
      "name": "WhitelisterAdded",
      "type": "event"
    },
    {
      "anonymous": false,
      "inputs": [
        {
          "indexed": true,
          "internalType": "address",
          "name": "removedWhitelister",
          "type": "address"
        },
        {
          "indexed": true,
          "internalType": "address",
          "name": "removedBy",
          "type": "address"
        }
      ],
      "name": "WhitelisterRemoved",
      "type": "event"
    },
    {
      "inputs": [
        {
          "internalType": "address",
          "name": "account",
          "type": "address"
        }
      ],
      "name": "addOwner",
      "outputs": [],
      "stateMutability": "nonpayable",
      "type": "function"
    },
    {
      "inputs": [
        {
          "internalType": "address",
          "name": "account",
          "type": "address"
        }
      ],
      "name": "isOwner",
      "outputs": [
        {
          "internalType": "bool",
          "name": "",
          "type": "bool"
        }
      ],
      "stateMutability": "view",
      "type": "function"
    },
    {
      "inputs": [
        {
          "internalType": "address",
          "name": "account",
          "type": "address"
        }
      ],
      "name": "removeOwner",
      "outputs": [],
      "stateMutability": "nonpayable",
      "type": "function"
    },
    {
      "inputs": [
        {
          "internalType": "address",
          "name": "account",
          "type": "address"
        }
      ],
      "name": "isWhitelister",
      "outputs": [
        {
          "internalType": "bool",
          "name": "",
          "type": "bool"
        }
      ],
      "stateMutability": "view",
      "type": "function"
    },
    {
      "inputs": [
        {
          "internalType": "address",
          "name": "account",
          "type": "address"
        }
      ],
      "name": "addWhitelister",
      "outputs": [],
      "stateMutability": "nonpayable",
      "type": "function"
    },
    {
      "inputs": [
        {
          "internalType": "address",
          "name": "account",
          "type": "address"
        }
      ],
      "name": "removeWhitelister",
      "outputs": [],
      "stateMutability": "nonpayable",
      "type": "function"
    }
  ],
  "bytecode": "0x608060405234801561001057600080fd5b5061060e806100206000396000f3fe608060405234801561001057600080fd5b50600436106100625760003560e01c8063173825d9146100675780632f54bf6e1461008f5780637065cb48146100c95780637d0c269f146100ef57806382c3f79c14610115578063eaf9144a1461013b575b600080fd5b61008d6004803603602081101561007d57600080fd5b50356001600160a01b0316610161565b005b6100b5600480360360208110156100a557600080fd5b50356001600160a01b03166101b1565b604080519115158252519081900360200190f35b61008d600480360360208110156100df57600080fd5b50356001600160a01b03166101c3565b6100b56004803603602081101561010557600080fd5b50356001600160a01b0316610210565b61008d6004803603602081101561012b57600080fd5b50356001600160a01b031661021d565b61008d6004803603602081101561015157600080fd5b50356001600160a01b031661026a565b61016a336101b1565b6101a55760405162461bcd60e51b815260040180806020018281038252602e815260200180610568602e913960400191505060405180910390fd5b6101ae816102b7565b50565b60006101bd81836102fb565b92915050565b6101cc336101b1565b6102075760405162461bcd60e51b815260040180806020018281038252602e815260200180610568602e913960400191505060405180910390fd5b6101ae81610362565b60006101bd6001836102fb565b610226336101b1565b6102615760405162461bcd60e51b815260040180806020018281038252602e815260200180610568602e913960400191505060405180910390fd5b6101ae816103a6565b610273336101b1565b6102ae5760405162461bcd60e51b815260040180806020018281038252602e815260200180610568602e913960400191505060405180910390fd5b6101ae816103ea565b6102c260008261042e565b60405133906001600160a01b038316907fe594d081b4382713733fe631966432c9cea5199afb2db5c3c1931f9f9300367990600090a350565b60006001600160a01b0382166103425760405162461bcd60e51b81526004018080602001828103825260228152602001806105b76022913960400191505060405180910390fd5b506001600160a01b03166000908152602091909152604090205460ff1690565b61036d600082610495565b60405133906001600160a01b038316907fc82bdbbf677a2462f2a7e22e4ba9abd209496b69cd7b868b3b1d28f76e09a40a90600090a350565b6103b160018261042e565b60405133906001600160a01b038316907f3ed21605dd544629fb45f2ccaedcc095ba1dbea540fb6eaf5493a7479856b0be90600090a350565b6103f5600182610495565b60405133906001600160a01b038316907f5f36f4f5999f34947706fca376b955319b858573bf9d6bc59303c9a4cd80ced090600090a350565b61043882826102fb565b6104735760405162461bcd60e51b81526004018080602001828103825260218152602001806105966021913960400191505060405180910390fd5b6001600160a01b0316600090815260209190915260409020805460ff19169055565b6001600160a01b0381166104e6576040805162461bcd60e51b8152602060048201526013602482015272496e76616c696420307830206164647265737360681b604482015290519081900360640190fd5b6104f082826102fb565b15610542576040805162461bcd60e51b815260206004820152601f60248201527f526f6c65733a206163636f756e7420616c72656164792068617320726f6c6500604482015290519081900360640190fd5b6001600160a01b0316600090815260209190915260409020805460ff1916600117905556fe4f776e6572526f6c653a2063616c6c657220646f6573206e6f74206861766520746865204f776e657220726f6c65526f6c65733a206163636f756e7420646f6573206e6f74206861766520726f6c65526f6c65733a206163636f756e7420697320746865207a65726f2061646472657373a2646970667358221220cef607c4afb58c3990d26f7fc012f4b99f720666f5b8561e733d58a83bedcef764736f6c634300060c0033",
  "immutableReferences": {},
  "source": "pragma solidity 0.6.12;\n\nimport \"./OwnerRole.sol\";\n\ncontract WhitelisterRole is OwnerRole {\n\n    event WhitelisterAdded(address indexed addedWhitelister, address indexed addedBy);\n    event WhitelisterRemoved(address indexed removedWhitelister, address indexed removedBy);\n\n    Roles.Role private _whitelisters;\n\n    modifier onlyWhitelister() {\n        require(isWhitelister(msg.sender), \"WhitelisterRole: caller does not have the Whitelister role\");\n        _;\n    }\n\n    function isWhitelister(address account) public view returns (bool) {\n        return _whitelisters.has(account);\n    }\n\n    function _addWhitelister(address account) internal {\n        _whitelisters.add(account);\n        emit WhitelisterAdded(account, msg.sender);\n    }\n\n    function _removeWhitelister(address account) internal {\n        _whitelisters.remove(account);\n        emit WhitelisterRemoved(account, msg.sender);\n    }\n\n    function addWhitelister(address account) public onlyOwner {\n        _addWhitelister(account);\n    }\n\n    function removeWhitelister(address account) public onlyOwner {\n        _removeWhitelister(account);\n    }\n}",
  "sourcePath": "/Users/thomasmcinerney/dev/tokensoft_token/contracts/roles/WhitelisterRole.sol",
  "compiler": {
    "name": "solc",
    "version": "0.6.12+commit.27d51765.Emscripten.clang"
  },
  "schemaVersion": "3.4.1",
  "updatedAt": "2021-10-28T23:00:53.250Z",
  "devdoc": {
    "kind": "dev",
    "methods": {},
    "version": 1
  },
  "userdoc": {
    "kind": "user",
    "methods": {},
    "version": 1
  }
}