{
  "contractName": "WhitelisterRole",
  "abi": [
    {
      "anonymous": false,
      "inputs": [
        {
          "indexed": true,
          "internalType": "address",
          "name": "addedOwner",
          "type": "address"
        },
        {
          "indexed": true,
          "internalType": "address",
          "name": "addedBy",
          "type": "address"
        }
      ],
      "name": "OwnerAdded",
      "type": "event"
    },
    {
      "anonymous": false,
      "inputs": [
        {
          "indexed": true,
          "internalType": "address",
          "name": "removedOwner",
          "type": "address"
        },
        {
          "indexed": true,
          "internalType": "address",
          "name": "removedBy",
          "type": "address"
        }
      ],
      "name": "OwnerRemoved",
      "type": "event"
    },
    {
      "anonymous": false,
      "inputs": [
        {
          "indexed": true,
          "internalType": "address",
          "name": "addedWhitelister",
          "type": "address"
        },
        {
          "indexed": true,
          "internalType": "address",
          "name": "addedBy",
          "type": "address"
        }
      ],
      "name": "WhitelisterAdded",
      "type": "event"
    },
    {
      "anonymous": false,
      "inputs": [
        {
          "indexed": true,
          "internalType": "address",
          "name": "removedWhitelister",
          "type": "address"
        },
        {
          "indexed": true,
          "internalType": "address",
          "name": "removedBy",
          "type": "address"
        }
      ],
      "name": "WhitelisterRemoved",
      "type": "event"
    },
    {
      "constant": false,
      "inputs": [
        {
          "internalType": "address",
          "name": "account",
          "type": "address"
        }
      ],
      "name": "addOwner",
      "outputs": [],
      "payable": false,
      "stateMutability": "nonpayable",
      "type": "function"
    },
    {
      "constant": true,
      "inputs": [
        {
          "internalType": "address",
          "name": "account",
          "type": "address"
        }
      ],
      "name": "isOwner",
      "outputs": [
        {
          "internalType": "bool",
          "name": "",
          "type": "bool"
        }
      ],
      "payable": false,
      "stateMutability": "view",
      "type": "function"
    },
    {
      "constant": false,
      "inputs": [
        {
          "internalType": "address",
          "name": "account",
          "type": "address"
        }
      ],
      "name": "removeOwner",
      "outputs": [],
      "payable": false,
      "stateMutability": "nonpayable",
      "type": "function"
    },
    {
      "constant": true,
      "inputs": [
        {
          "internalType": "address",
          "name": "account",
          "type": "address"
        }
      ],
      "name": "isWhitelister",
      "outputs": [
        {
          "internalType": "bool",
          "name": "",
          "type": "bool"
        }
      ],
      "payable": false,
      "stateMutability": "view",
      "type": "function"
    },
    {
      "constant": false,
      "inputs": [
        {
          "internalType": "address",
          "name": "account",
          "type": "address"
        }
      ],
      "name": "addWhitelister",
      "outputs": [],
      "payable": false,
      "stateMutability": "nonpayable",
      "type": "function"
    },
    {
      "constant": false,
      "inputs": [
        {
          "internalType": "address",
          "name": "account",
          "type": "address"
        }
      ],
      "name": "removeWhitelister",
      "outputs": [],
      "payable": false,
      "stateMutability": "nonpayable",
      "type": "function"
    }
  ],
  "bytecode": "0x608060405234801561001057600080fd5b506108f1806100206000396000f3fe608060405234801561001057600080fd5b50600436106100625760003560e01c8063173825d9146100675780632f54bf6e146100ab5780637065cb48146101075780637d0c269f1461014b57806382c3f79c146101a7578063eaf9144a146101eb575b600080fd5b6100a96004803603602081101561007d57600080fd5b81019080803573ffffffffffffffffffffffffffffffffffffffff16906020019092919050505061022f565b005b6100ed600480360360208110156100c157600080fd5b81019080803573ffffffffffffffffffffffffffffffffffffffff169060200190929190505050610299565b604051808215151515815260200191505060405180910390f35b6101496004803603602081101561011d57600080fd5b81019080803573ffffffffffffffffffffffffffffffffffffffff1690602001909291905050506102b6565b005b61018d6004803603602081101561016157600080fd5b81019080803573ffffffffffffffffffffffffffffffffffffffff169060200190929190505050610320565b604051808215151515815260200191505060405180910390f35b6101e9600480360360208110156101bd57600080fd5b81019080803573ffffffffffffffffffffffffffffffffffffffff16906020019092919050505061033d565b005b61022d6004803603602081101561020157600080fd5b81019080803573ffffffffffffffffffffffffffffffffffffffff1690602001909291905050506103a7565b005b61023833610299565b61028d576040517f08c379a000000000000000000000000000000000000000000000000000000000815260040180806020018281038252602e81526020018061084c602e913960400191505060405180910390fd5b61029681610411565b50565b60006102af82600061048290919063ffffffff16565b9050919050565b6102bf33610299565b610314576040517f08c379a000000000000000000000000000000000000000000000000000000000815260040180806020018281038252602e81526020018061084c602e913960400191505060405180910390fd5b61031d81610560565b50565b600061033682600161048290919063ffffffff16565b9050919050565b61034633610299565b61039b576040517f08c379a000000000000000000000000000000000000000000000000000000000815260040180806020018281038252602e81526020018061084c602e913960400191505060405180910390fd5b6103a4816105d1565b50565b6103b033610299565b610405576040517f08c379a000000000000000000000000000000000000000000000000000000000815260040180806020018281038252602e81526020018061084c602e913960400191505060405180910390fd5b61040e81610642565b50565b6104258160006106b390919063ffffffff16565b3373ffffffffffffffffffffffffffffffffffffffff168173ffffffffffffffffffffffffffffffffffffffff167fe594d081b4382713733fe631966432c9cea5199afb2db5c3c1931f9f9300367960405160405180910390a350565b60008073ffffffffffffffffffffffffffffffffffffffff168273ffffffffffffffffffffffffffffffffffffffff161415610509576040517f08c379a000000000000000000000000000000000000000000000000000000000815260040180806020018281038252602281526020018061089b6022913960400191505060405180910390fd5b8260000160008373ffffffffffffffffffffffffffffffffffffffff1673ffffffffffffffffffffffffffffffffffffffff16815260200190815260200160002060009054906101000a900460ff16905092915050565b61057481600061077090919063ffffffff16565b3373ffffffffffffffffffffffffffffffffffffffff168173ffffffffffffffffffffffffffffffffffffffff167fc82bdbbf677a2462f2a7e22e4ba9abd209496b69cd7b868b3b1d28f76e09a40a60405160405180910390a350565b6105e58160016106b390919063ffffffff16565b3373ffffffffffffffffffffffffffffffffffffffff168173ffffffffffffffffffffffffffffffffffffffff167f3ed21605dd544629fb45f2ccaedcc095ba1dbea540fb6eaf5493a7479856b0be60405160405180910390a350565b61065681600161077090919063ffffffff16565b3373ffffffffffffffffffffffffffffffffffffffff168173ffffffffffffffffffffffffffffffffffffffff167f5f36f4f5999f34947706fca376b955319b858573bf9d6bc59303c9a4cd80ced060405160405180910390a350565b6106bd8282610482565b610712576040517f08c379a000000000000000000000000000000000000000000000000000000000815260040180806020018281038252602181526020018061087a6021913960400191505060405180910390fd5b60008260000160008373ffffffffffffffffffffffffffffffffffffffff1673ffffffffffffffffffffffffffffffffffffffff16815260200190815260200160002060006101000a81548160ff0219169083151502179055505050565b61077a8282610482565b156107ed576040517f08c379a000000000000000000000000000000000000000000000000000000000815260040180806020018281038252601f8152602001807f526f6c65733a206163636f756e7420616c72656164792068617320726f6c650081525060200191505060405180910390fd5b60018260000160008373ffffffffffffffffffffffffffffffffffffffff1673ffffffffffffffffffffffffffffffffffffffff16815260200190815260200160002060006101000a81548160ff021916908315150217905550505056fe4f776e6572526f6c653a2063616c6c657220646f6573206e6f74206861766520746865204f776e657220726f6c65526f6c65733a206163636f756e7420646f6573206e6f74206861766520726f6c65526f6c65733a206163636f756e7420697320746865207a65726f2061646472657373a265627a7a72315820cd4bd6b2b9acf1acf2d05f456776d3464229f3fc0dfcde5a66ca7db4aebfb1fd64736f6c63430005100032",
  "source": "pragma solidity 0.5.16;\n\nimport \"./OwnerRole.sol\";\n\ncontract WhitelisterRole is OwnerRole {\n\n    event WhitelisterAdded(address indexed addedWhitelister, address indexed addedBy);\n    event WhitelisterRemoved(address indexed removedWhitelister, address indexed removedBy);\n\n    Roles.Role private _whitelisters;\n\n    modifier onlyWhitelister() {\n        require(isWhitelister(msg.sender), \"WhitelisterRole: caller does not have the Whitelister role\");\n        _;\n    }\n\n    function isWhitelister(address account) public view returns (bool) {\n        return _whitelisters.has(account);\n    }\n\n    function _addWhitelister(address account) internal {\n        _whitelisters.add(account);\n        emit WhitelisterAdded(account, msg.sender);\n    }\n\n    function _removeWhitelister(address account) internal {\n        _whitelisters.remove(account);\n        emit WhitelisterRemoved(account, msg.sender);\n    }\n\n    function addWhitelister(address account) public onlyOwner {\n        _addWhitelister(account);\n    }\n\n    function removeWhitelister(address account) public onlyOwner {\n        _removeWhitelister(account);\n    }\n}",
  "sourcePath": "/Users/james/Source/tokensoft/tokensoft_token/contracts/roles/WhitelisterRole.sol",
  "compiler": {
    "name": "solc",
    "version": "0.5.16+commit.9c3226ce.Emscripten.clang"
  },
  "schemaVersion": "3.1.0",
  "updatedAt": "2020-06-15T20:24:29.360Z",
  "devdoc": {
    "methods": {}
  },
  "userdoc": {
    "methods": {}
  }
}